{
  "abi": [
    {
      "inputs": [],
      "stateMutability": "nonpayable",
      "type": "constructor"
    },
    {
      "anonymous": false,
      "inputs": [
        {
          "indexed": true,
          "internalType": "address",
          "name": "usr",
          "type": "address"
        }
      ],
      "name": "Deny",
      "type": "event"
    },
    {
      "anonymous": false,
      "inputs": [
        {
          "indexed": true,
          "internalType": "bytes32",
          "name": "what",
          "type": "bytes32"
        },
        {
          "indexed": true,
          "internalType": "address",
          "name": "data",
          "type": "address"
        }
      ],
      "name": "File",
      "type": "event"
    },
    {
      "anonymous": false,
      "inputs": [
        {
          "indexed": true,
          "internalType": "address",
          "name": "usr",
          "type": "address"
        }
      ],
      "name": "Rely",
      "type": "event"
    },
    {
      "inputs": [
        {
          "internalType": "address",
          "name": "spell",
          "type": "address"
        }
      ],
      "name": "cancelSchedule",
      "outputs": [],
      "stateMutability": "nonpayable",
      "type": "function"
    },
    {
      "inputs": [
        {
          "internalType": "address",
          "name": "usr",
          "type": "address"
        }
      ],
      "name": "deny",
      "outputs": [],
      "stateMutability": "nonpayable",
      "type": "function"
    },
    {
      "inputs": [
        {
          "internalType": "bytes32",
          "name": "what",
          "type": "bytes32"
        },
        {
          "internalType": "address",
          "name": "data",
          "type": "address"
        }
      ],
      "name": "file",
      "outputs": [],
      "stateMutability": "nonpayable",
      "type": "function"
    },
    {
      "inputs": [],
      "name": "gateway",
      "outputs": [
        {
          "internalType": "contract Gateway",
          "name": "",
          "type": "address"
        }
      ],
      "stateMutability": "view",
      "type": "function"
    },
    {
      "inputs": [
        {
          "internalType": "address",
          "name": "usr",
          "type": "address"
        }
      ],
      "name": "rely",
      "outputs": [],
      "stateMutability": "nonpayable",
      "type": "function"
    },
    {
      "inputs": [
        {
          "internalType": "address",
          "name": "spell",
          "type": "address"
        }
      ],
      "name": "schedule",
      "outputs": [],
      "stateMutability": "nonpayable",
      "type": "function"
    },
    {
      "inputs": [
        {
          "internalType": "address",
          "name": "",
          "type": "address"
        }
      ],
      "name": "wards",
      "outputs": [
        {
          "internalType": "uint256",
          "name": "",
          "type": "uint256"
        }
      ],
      "stateMutability": "view",
      "type": "function"
    }
  ],
  "bytecode": {
    "object": "0x608060405234801561001057600080fd5b5060016000803373ffffffffffffffffffffffffffffffffffffffff1673ffffffffffffffffffffffffffffffffffffffff168152602001908152602001600020819055503373ffffffffffffffffffffffffffffffffffffffff167fdd0e34038ac38b2a1ce960229778ac48a8719bc900b6c4f8d0475c6e8b385a6060405160405180910390a2610a40806100a76000396000f3fe608060405234801561001057600080fd5b506004361061007d5760003560e01c80639c52a7f11161005b5780639c52a7f1146100d8578063bf353dbb146100f4578063d4e8be8314610124578063f0caaafb146101405761007d565b8063116191b614610082578063316bef98146100a057806365fae35e146100bc575b600080fd5b61008a61015c565b60405161009791906107c2565b60405180910390f35b6100ba60048036038101906100b59190610820565b610182565b005b6100d660048036038101906100d19190610820565b610293565b005b6100f260048036038101906100ed9190610820565b61039e565b005b61010e60048036038101906101099190610820565b6104a9565b60405161011b9190610866565b60405180910390f35b61013e600480360381019061013991906108b7565b6104c1565b005b61015a60048036038101906101559190610820565b610632565b005b600160009054906101000a900473ffffffffffffffffffffffffffffffffffffffff1681565b60016000803373ffffffffffffffffffffffffffffffffffffffff1673ffffffffffffffffffffffffffffffffffffffff1681526020019081526020016000205414610203576040517f08c379a00000000000000000000000000000000000000000000000000000000081526004016101fa90610954565b60405180910390fd5b600160009054906101000a900473ffffffffffffffffffffffffffffffffffffffff1673ffffffffffffffffffffffffffffffffffffffff1663d93b045c826040518263ffffffff1660e01b815260040161025e9190610983565b600060405180830381600087803b15801561027857600080fd5b505af115801561028c573d6000803e3d6000fd5b5050505050565b60016000803373ffffffffffffffffffffffffffffffffffffffff1673ffffffffffffffffffffffffffffffffffffffff1681526020019081526020016000205414610314576040517f08c379a000000000000000000000000000000000000000000000000000000000815260040161030b90610954565b60405180910390fd5b60016000808373ffffffffffffffffffffffffffffffffffffffff1673ffffffffffffffffffffffffffffffffffffffff168152602001908152602001600020819055508073ffffffffffffffffffffffffffffffffffffffff167fdd0e34038ac38b2a1ce960229778ac48a8719bc900b6c4f8d0475c6e8b385a6060405160405180910390a250565b60016000803373ffffffffffffffffffffffffffffffffffffffff1673ffffffffffffffffffffffffffffffffffffffff168152602001908152602001600020541461041f576040517f08c379a000000000000000000000000000000000000000000000000000000000815260040161041690610954565b60405180910390fd5b60008060008373ffffffffffffffffffffffffffffffffffffffff1673ffffffffffffffffffffffffffffffffffffffff168152602001908152602001600020819055508073ffffffffffffffffffffffffffffffffffffffff167f184450df2e323acec0ed3b5c7531b81f9b4cdef7914dfd4c0a4317416bb5251b60405160405180910390a250565b60006020528060005260406000206000915090505481565b60016000803373ffffffffffffffffffffffffffffffffffffffff1673ffffffffffffffffffffffffffffffffffffffff1681526020019081526020016000205414610542576040517f08c379a000000000000000000000000000000000000000000000000000000000815260040161053990610954565b60405180910390fd5b7f676174657761790000000000000000000000000000000000000000000000000082036105af5780600160006101000a81548173ffffffffffffffffffffffffffffffffffffffff021916908373ffffffffffffffffffffffffffffffffffffffff1602179055506105ea565b6040517f08c379a00000000000000000000000000000000000000000000000000000000081526004016105e1906109ea565b60405180910390fd5b8073ffffffffffffffffffffffffffffffffffffffff16827f8fef588b5fc1afbf5b2f06c1a435d513f208da2e6704c3d8f0e0ec91167066ba60405160405180910390a35050565b60016000803373ffffffffffffffffffffffffffffffffffffffff1673ffffffffffffffffffffffffffffffffffffffff16815260200190815260200160002054146106b3576040517f08c379a00000000000000000000000000000000000000000000000000000000081526004016106aa90610954565b60405180910390fd5b600160009054906101000a900473ffffffffffffffffffffffffffffffffffffffff1673ffffffffffffffffffffffffffffffffffffffff1663f0caaafb826040518263ffffffff1660e01b815260040161070e9190610983565b600060405180830381600087803b15801561072857600080fd5b505af115801561073c573d6000803e3d6000fd5b5050505050565b600073ffffffffffffffffffffffffffffffffffffffff82169050919050565b6000819050919050565b600061078861078361077e84610743565b610763565b610743565b9050919050565b600061079a8261076d565b9050919050565b60006107ac8261078f565b9050919050565b6107bc816107a1565b82525050565b60006020820190506107d760008301846107b3565b92915050565b600080fd5b60006107ed82610743565b9050919050565b6107fd816107e2565b811461080857600080fd5b50565b60008135905061081a816107f4565b92915050565b600060208284031215610836576108356107dd565b5b60006108448482850161080b565b91505092915050565b6000819050919050565b6108608161084d565b82525050565b600060208201905061087b6000830184610857565b92915050565b6000819050919050565b61089481610881565b811461089f57600080fd5b50565b6000813590506108b18161088b565b92915050565b600080604083850312156108ce576108cd6107dd565b5b60006108dc858286016108a2565b92505060206108ed8582860161080b565b9150509250929050565b600082825260208201905092915050565b7f6e6f742d617574686f72697a6564000000000000000000000000000000000000600082015250565b600061093e600e836108f7565b915061094982610908565b602082019050919050565b6000602082019050818103600083015261096d81610931565b9050919050565b61097d816107e2565b82525050565b60006020820190506109986000830184610974565b92915050565b7f41646d696e2f66696c652d756e7265636f676e697a65642d706172616d000000600082015250565b60006109d4601d836108f7565b91506109df8261099e565b602082019050919050565b60006020820190508181036000830152610a03816109c7565b905091905056fea2646970667358221220625836444645e665676ab6b5ee0a955b18285d157d04c440ca70c0350051477064736f6c63430008120033",
    "linkReferences": {}
  },
  "methodIdentifiers": {
    "cancelSchedule(address)": "f0caaafb",
    "deny(address)": "9c52a7f1",
    "file(bytes32,address)": "d4e8be83",
    "gateway()": "116191b6",
    "rely(address)": "65fae35e",
    "schedule(address)": "316bef98",
    "wards(address)": "bf353dbb"
  },
  "id": 26
}