{
  "abi": [
    {
      "inputs": [
        {
          "internalType": "address",
          "name": "centrifugeChainOrigin_",
          "type": "address"
        },
        {
          "internalType": "address",
          "name": "axelarGateway_",
          "type": "address"
        },
        {
          "internalType": "address",
          "name": "axelarEVMRouterOrigin_",
          "type": "address"
        }
      ],
      "stateMutability": "nonpayable",
      "type": "constructor"
    },
    {
      "anonymous": false,
      "inputs": [
        {
          "indexed": true,
          "internalType": "address",
          "name": "user",
          "type": "address"
        }
      ],
      "name": "Deny",
      "type": "event"
    },
    {
      "anonymous": false,
      "inputs": [
        {
          "indexed": true,
          "internalType": "bytes32",
          "name": "payload",
          "type": "bytes32"
        }
      ],
      "name": "Executed",
      "type": "event"
    },
    {
      "anonymous": false,
      "inputs": [
        {
          "indexed": true,
          "internalType": "bytes32",
          "name": "what",
          "type": "bytes32"
        },
        {
          "components": [
            {
              "internalType": "uint64",
              "name": "buyExecutionWeightLimit",
              "type": "uint64"
            },
            {
              "internalType": "uint64",
              "name": "transactWeightAtMost",
              "type": "uint64"
            },
            {
              "internalType": "uint256",
              "name": "feeAmount",
              "type": "uint256"
            }
          ],
          "indexed": false,
          "internalType": "struct XcmWeightInfo",
          "name": "xcmWeightInfo",
          "type": "tuple"
        }
      ],
      "name": "File",
      "type": "event"
    },
    {
      "anonymous": false,
      "inputs": [
        {
          "indexed": true,
          "internalType": "bytes32",
          "name": "what",
          "type": "bytes32"
        },
        {
          "indexed": false,
          "internalType": "address",
          "name": "addr",
          "type": "address"
        }
      ],
      "name": "File",
      "type": "event"
    },
    {
      "anonymous": false,
      "inputs": [
        {
          "indexed": true,
          "internalType": "address",
          "name": "user",
          "type": "address"
        }
      ],
      "name": "Rely",
      "type": "event"
    },
    {
      "inputs": [],
      "name": "axelarCentrifugeChainAddress",
      "outputs": [
        {
          "internalType": "string",
          "name": "",
          "type": "string"
        }
      ],
      "stateMutability": "view",
      "type": "function"
    },
    {
      "inputs": [],
      "name": "axelarCentrifugeChainId",
      "outputs": [
        {
          "internalType": "string",
          "name": "",
          "type": "string"
        }
      ],
      "stateMutability": "view",
      "type": "function"
    },
    {
      "inputs": [],
      "name": "axelarEVMRouterOrigin",
      "outputs": [
        {
          "internalType": "address",
          "name": "",
          "type": "address"
        }
      ],
      "stateMutability": "view",
      "type": "function"
    },
    {
      "inputs": [],
      "name": "axelarGateway",
      "outputs": [
        {
          "internalType": "contract AxelarGatewayLike",
          "name": "",
          "type": "address"
        }
      ],
      "stateMutability": "view",
      "type": "function"
    },
    {
      "inputs": [],
      "name": "centrifugeChainOrigin",
      "outputs": [
        {
          "internalType": "address",
          "name": "",
          "type": "address"
        }
      ],
      "stateMutability": "view",
      "type": "function"
    },
    {
      "inputs": [
        {
          "internalType": "address",
          "name": "user",
          "type": "address"
        }
      ],
      "name": "deny",
      "outputs": [],
      "stateMutability": "nonpayable",
      "type": "function"
    },
    {
      "inputs": [
        {
          "internalType": "bytes32",
          "name": "",
          "type": "bytes32"
        },
        {
          "internalType": "string",
          "name": "sourceChain",
          "type": "string"
        },
        {
          "internalType": "string",
          "name": "",
          "type": "string"
        },
        {
          "internalType": "bytes",
          "name": "payload",
          "type": "bytes"
        }
      ],
      "name": "execute",
      "outputs": [],
      "stateMutability": "nonpayable",
      "type": "function"
    },
    {
      "inputs": [
        {
          "internalType": "bytes32",
          "name": "",
          "type": "bytes32"
        }
      ],
      "name": "executedCalls",
      "outputs": [
        {
          "internalType": "uint32",
          "name": "",
          "type": "uint32"
        }
      ],
      "stateMutability": "view",
      "type": "function"
    },
    {
      "inputs": [
        {
          "internalType": "bytes32",
          "name": "what",
          "type": "bytes32"
        },
        {
          "internalType": "address",
          "name": "axelarEVMRouterOrigin_",
          "type": "address"
        }
      ],
      "name": "file",
      "outputs": [],
      "stateMutability": "nonpayable",
      "type": "function"
    },
    {
      "inputs": [
        {
          "internalType": "bytes32",
          "name": "what",
          "type": "bytes32"
        },
        {
          "internalType": "uint64",
          "name": "buyExecutionWeightLimit",
          "type": "uint64"
        },
        {
          "internalType": "uint64",
          "name": "transactWeightAtMost",
          "type": "uint64"
        },
        {
          "internalType": "uint256",
          "name": "feeAmount",
          "type": "uint256"
        }
      ],
      "name": "file",
      "outputs": [],
      "stateMutability": "nonpayable",
      "type": "function"
    },
    {
      "inputs": [
        {
          "internalType": "address",
          "name": "user",
          "type": "address"
        }
      ],
      "name": "rely",
      "outputs": [],
      "stateMutability": "nonpayable",
      "type": "function"
    },
    {
      "inputs": [
        {
          "internalType": "string",
          "name": "destinationChain",
          "type": "string"
        },
        {
          "internalType": "string",
          "name": "destinationAddress",
          "type": "string"
        },
        {
          "internalType": "bytes",
          "name": "payload",
          "type": "bytes"
        }
      ],
      "name": "send",
      "outputs": [],
      "stateMutability": "nonpayable",
      "type": "function"
    },
    {
      "inputs": [
        {
          "internalType": "address",
          "name": "",
          "type": "address"
        }
      ],
      "name": "wards",
      "outputs": [
        {
          "internalType": "uint256",
          "name": "",
          "type": "uint256"
        }
      ],
      "stateMutability": "view",
      "type": "function"
    }
  ],
  "bytecode": {
    "object": "0x60c06040523480156200001157600080fd5b5060405162001e7038038062001e70833981810160405281019062000037919062000288565b8273ffffffffffffffffffffffffffffffffffffffff1660808173ffffffffffffffffffffffffffffffffffffffff16815250508173ffffffffffffffffffffffffffffffffffffffff1660a08173ffffffffffffffffffffffffffffffffffffffff168152505080600260006101000a81548173ffffffffffffffffffffffffffffffffffffffff021916908373ffffffffffffffffffffffffffffffffffffffff160217905550604051806060016040528064046c7cfe0067ffffffffffffffff1681526020016401dcd6500067ffffffffffffffff168152602001670de0b6b3a7640000815250600360008201518160000160006101000a81548167ffffffffffffffff021916908367ffffffffffffffff16021790555060208201518160000160086101000a81548167ffffffffffffffff021916908367ffffffffffffffff1602179055506040820151816001015590505060016000803373ffffffffffffffffffffffffffffffffffffffff1673ffffffffffffffffffffffffffffffffffffffff168152602001908152602001600020819055503373ffffffffffffffffffffffffffffffffffffffff167fdd0e34038ac38b2a1ce960229778ac48a8719bc900b6c4f8d0475c6e8b385a6060405160405180910390a2505050620002e4565b600080fd5b600073ffffffffffffffffffffffffffffffffffffffff82169050919050565b6000620002508262000223565b9050919050565b620002628162000243565b81146200026e57600080fd5b50565b600081519050620002828162000257565b92915050565b600080600060608486031215620002a457620002a36200021e565b5b6000620002b48682870162000271565b9350506020620002c78682870162000271565b9250506040620002da8682870162000271565b9150509250925092565b60805160a051611b586200031860003960008181610274015261032601526000818161029801526107290152611b586000f3fe608060405234801561001057600080fd5b50600436106100cf5760003560e01c806365fae35e1161008c578063bf353dbb11610066578063bf353dbb146101ec578063d4e8be831461021c578063e8cdec3814610238578063eb4ebefd14610254576100cf565b806365fae35e1461019657806390bf55fc146101b25780639c52a7f1146101d0576100cf565b806314099c58146100d45780631e0d43b9146100f25780633146ef291461010e578063332563d31461012c578063491606581461015c57806355531b0714610178575b600080fd5b6100dc610272565b6040516100e99190610e11565b60405180910390f35b61010c60048036038101906101079190610ef1565b610296565b005b6101166103c1565b6040516101239190611035565b60405180910390f35b6101466004803603810190610141919061108d565b6103fa565b60405161015391906110d9565b60405180910390f35b610176600480360381019061017191906110f4565b61041d565b005b6101806105f6565b60405161018d91906111de565b60405180910390f35b6101b060048036038101906101ab9190611225565b61061c565b005b6101ba610727565b6040516101c791906111de565b60405180910390f35b6101ea60048036038101906101e59190611225565b61074b565b005b61020660048036038101906102019190611225565b610856565b604051610213919061126b565b60405180910390f35b61023660048036038101906102319190611286565b61086e565b005b610252600480360381019061024d9190611332565b6109d3565b005b61025c610b96565b6040516102699190611035565b60405180910390f35b7f000000000000000000000000000000000000000000000000000000000000000081565b7f000000000000000000000000000000000000000000000000000000000000000073ffffffffffffffffffffffffffffffffffffffff163373ffffffffffffffffffffffffffffffffffffffff1614610324576040517f08c379a000000000000000000000000000000000000000000000000000000000815260040161031b9061140b565b60405180910390fd5b7f000000000000000000000000000000000000000000000000000000000000000073ffffffffffffffffffffffffffffffffffffffff16631c92115f8787878787876040518763ffffffff1660e01b8152600401610387969594939291906114a5565b600060405180830381600087803b1580156103a157600080fd5b505af11580156103b5573d6000803e3d6000fd5b50505050505050505050565b6040518060400160405280600681526020017f307832303438000000000000000000000000000000000000000000000000000081525081565b60016020528060005260406000206000915054906101000a900463ffffffff1681565b600260009054906101000a900473ffffffffffffffffffffffffffffffffffffffff1673ffffffffffffffffffffffffffffffffffffffff163373ffffffffffffffffffffffffffffffffffffffff16146104ad576040517f08c379a00000000000000000000000000000000000000000000000000000000081526004016104a490611569565b60405180910390fd5b600082826040516104bf9291906115b9565b60405180910390209050600061080d90508073ffffffffffffffffffffffffffffffffffffffff1663d7ab340c6104f4610bcf565b6104fc610c70565b600360000160089054906101000a900467ffffffffffffffff168888600360010154600360000160009054906101000a900467ffffffffffffffff166040518863ffffffff1660e01b815260040161055a9796959493929190611751565b600060405180830381600087803b15801561057457600080fd5b505af1158015610588573d6000803e3d6000fd5b50505050600180600084815260200190815260200160002060006101000a81548163ffffffff021916908363ffffffff160217905550817fa74c8847d513feba22a0f0cb38d53081abf97562cdb293926ba243689e7c41ca60405160405180910390a2505050505050505050565b600260009054906101000a900473ffffffffffffffffffffffffffffffffffffffff1681565b60016000803373ffffffffffffffffffffffffffffffffffffffff1673ffffffffffffffffffffffffffffffffffffffff168152602001908152602001600020541461069d576040517f08c379a00000000000000000000000000000000000000000000000000000000081526004016106949061183b565b60405180910390fd5b60016000808373ffffffffffffffffffffffffffffffffffffffff1673ffffffffffffffffffffffffffffffffffffffff168152602001908152602001600020819055508073ffffffffffffffffffffffffffffffffffffffff167fdd0e34038ac38b2a1ce960229778ac48a8719bc900b6c4f8d0475c6e8b385a6060405160405180910390a250565b7f000000000000000000000000000000000000000000000000000000000000000081565b60016000803373ffffffffffffffffffffffffffffffffffffffff1673ffffffffffffffffffffffffffffffffffffffff16815260200190815260200160002054146107cc576040517f08c379a00000000000000000000000000000000000000000000000000000000081526004016107c39061183b565b60405180910390fd5b60008060008373ffffffffffffffffffffffffffffffffffffffff1673ffffffffffffffffffffffffffffffffffffffff168152602001908152602001600020819055508073ffffffffffffffffffffffffffffffffffffffff167f184450df2e323acec0ed3b5c7531b81f9b4cdef7914dfd4c0a4317416bb5251b60405160405180910390a250565b60006020528060005260406000206000915090505481565b60016000803373ffffffffffffffffffffffffffffffffffffffff1673ffffffffffffffffffffffffffffffffffffffff16815260200190815260200160002054146108ef576040517f08c379a00000000000000000000000000000000000000000000000000000000081526004016108e69061183b565b60405180910390fd5b7f6178656c617245564d526f757465724f726967696e000000000000000000000082036109945780600260006101000a81548173ffffffffffffffffffffffffffffffffffffffff021916908373ffffffffffffffffffffffffffffffffffffffff160217905550817f8fef588b5fc1afbf5b2f06c1a435d513f208da2e6704c3d8f0e0ec91167066ba8260405161098791906111de565b60405180910390a26109cf565b6040517f08c379a00000000000000000000000000000000000000000000000000000000081526004016109c6906118cd565b60405180910390fd5b5050565b60016000803373ffffffffffffffffffffffffffffffffffffffff1673ffffffffffffffffffffffffffffffffffffffff1681526020019081526020016000205414610a54576040517f08c379a0000000000000000000000000000000000000000000000000000000008152600401610a4b9061183b565b60405180910390fd5b7f78636d576569676874496e666f000000000000000000000000000000000000008403610b1c5760405180606001604052808467ffffffffffffffff1681526020018367ffffffffffffffff16815260200182815250600360008201518160000160006101000a81548167ffffffffffffffff021916908367ffffffffffffffff16021790555060208201518160000160086101000a81548167ffffffffffffffff021916908367ffffffffffffffff16021790555060408201518160010155905050610b57565b6040517f08c379a0000000000000000000000000000000000000000000000000000000008152600401610b4e906118cd565b60405180910390fd5b837f4d8ac2cc84743d0936df181af66f4af7e0aa51a6fd24e3fe754de62c8dfe10c46003604051610b8891906119ef565b60405180910390a250505050565b6040518060400160405280600a81526020017f43656e747269667567650000000000000000000000000000000000000000000081525081565b610bd7610d75565b6000600167ffffffffffffffff811115610bf457610bf3611a0a565b5b604051908082528060200260200182016040528015610c2757816020015b6060815260200190600190039081610c125790505b509050610c32610d49565b81600081518110610c4657610c45611a39565b5b60200260200101819052506040518060400160405280600160ff1681526020018281525091505090565b610c78610d75565b6000600267ffffffffffffffff811115610c9557610c94611a0a565b5b604051908082528060200260200182016040528015610cc857816020015b6060815260200190600190039081610cb35790505b509050610cd3610d49565b81600081518110610ce757610ce6611a39565b5b6020026020010181905250604051806060016040528060228152602001611b016022913981600181518110610d1f57610d1e611a39565b5b60200260200101819052506040518060400160405280600160ff1681526020018281525091505090565b606060006107ef604051602001610d61929190611ad4565b604051602081830303815290604052905090565b6040518060400160405280600060ff168152602001606081525090565b600073ffffffffffffffffffffffffffffffffffffffff82169050919050565b6000819050919050565b6000610dd7610dd2610dcd84610d92565b610db2565b610d92565b9050919050565b6000610de982610dbc565b9050919050565b6000610dfb82610dde565b9050919050565b610e0b81610df0565b82525050565b6000602082019050610e266000830184610e02565b92915050565b600080fd5b600080fd5b600080fd5b600080fd5b600080fd5b60008083601f840112610e5b57610e5a610e36565b5b8235905067ffffffffffffffff811115610e7857610e77610e3b565b5b602083019150836001820283011115610e9457610e93610e40565b5b9250929050565b60008083601f840112610eb157610eb0610e36565b5b8235905067ffffffffffffffff811115610ece57610ecd610e3b565b5b602083019150836001820283011115610eea57610ee9610e40565b5b9250929050565b60008060008060008060608789031215610f0e57610f0d610e2c565b5b600087013567ffffffffffffffff811115610f2c57610f2b610e31565b5b610f3889828a01610e45565b9650965050602087013567ffffffffffffffff811115610f5b57610f5a610e31565b5b610f6789828a01610e45565b9450945050604087013567ffffffffffffffff811115610f8a57610f89610e31565b5b610f9689828a01610e9b565b92509250509295509295509295565b600081519050919050565b600082825260208201905092915050565b60005b83811015610fdf578082015181840152602081019050610fc4565b60008484015250505050565b6000601f19601f8301169050919050565b600061100782610fa5565b6110118185610fb0565b9350611021818560208601610fc1565b61102a81610feb565b840191505092915050565b6000602082019050818103600083015261104f8184610ffc565b905092915050565b6000819050919050565b61106a81611057565b811461107557600080fd5b50565b60008135905061108781611061565b92915050565b6000602082840312156110a3576110a2610e2c565b5b60006110b184828501611078565b91505092915050565b600063ffffffff82169050919050565b6110d3816110ba565b82525050565b60006020820190506110ee60008301846110ca565b92915050565b60008060008060008060006080888a03121561111357611112610e2c565b5b60006111218a828b01611078565b975050602088013567ffffffffffffffff81111561114257611141610e31565b5b61114e8a828b01610e45565b9650965050604088013567ffffffffffffffff81111561117157611170610e31565b5b61117d8a828b01610e45565b9450945050606088013567ffffffffffffffff8111156111a05761119f610e31565b5b6111ac8a828b01610e9b565b925092505092959891949750929550565b60006111c882610d92565b9050919050565b6111d8816111bd565b82525050565b60006020820190506111f360008301846111cf565b92915050565b611202816111bd565b811461120d57600080fd5b50565b60008135905061121f816111f9565b92915050565b60006020828403121561123b5761123a610e2c565b5b600061124984828501611210565b91505092915050565b6000819050919050565b61126581611252565b82525050565b6000602082019050611280600083018461125c565b92915050565b6000806040838503121561129d5761129c610e2c565b5b60006112ab85828601611078565b92505060206112bc85828601611210565b9150509250929050565b600067ffffffffffffffff82169050919050565b6112e3816112c6565b81146112ee57600080fd5b50565b600081359050611300816112da565b92915050565b61130f81611252565b811461131a57600080fd5b50565b60008135905061132c81611306565b92915050565b6000806000806080858703121561134c5761134b610e2c565b5b600061135a87828801611078565b945050602061136b878288016112f1565b935050604061137c878288016112f1565b925050606061138d8782880161131d565b91505092959194509250565b7f436f6e6e6563746f724178656c617258434d526f757465722f696e76616c696460008201527f2d6f726967696e00000000000000000000000000000000000000000000000000602082015250565b60006113f5602783610fb0565b915061140082611399565b604082019050919050565b60006020820190508181036000830152611424816113e8565b9050919050565b82818337600083830152505050565b60006114468385610fb0565b935061145383858461142b565b61145c83610feb565b840190509392505050565b600082825260208201905092915050565b60006114848385611467565b935061149183858461142b565b61149a83610feb565b840190509392505050565b600060608201905081810360008301526114c081888a61143a565b905081810360208301526114d581868861143a565b905081810360408301526114ea818486611478565b9050979650505050505050565b7f436f6e6e6563746f724178656c617258434d526f757465722f6f6e6c792d617860008201527f656c61722d65766d2d726f757465722d6f726967696e2d616c6c6f7765640000602082015250565b6000611553603e83610fb0565b915061155e826114f7565b604082019050919050565b6000602082019050818103600083015261158281611546565b9050919050565b600081905092915050565b60006115a08385611589565b93506115ad83858461142b565b82840190509392505050565b60006115c6828486611594565b91508190509392505050565b600060ff82169050919050565b6115e8816115d2565b82525050565b600081519050919050565b600082825260208201905092915050565b6000819050602082019050919050565b600081519050919050565b600082825260208201905092915050565b60006116418261161a565b61164b8185611625565b935061165b818560208601610fc1565b61166481610feb565b840191505092915050565b600061167b8383611636565b905092915050565b6000602082019050919050565b600061169b826115ee565b6116a581856115f9565b9350836020820285016116b78561160a565b8060005b858110156116f357848403895281516116d4858261166f565b94506116df83611683565b925060208a019950506001810190506116bb565b50829750879550505050505092915050565b600060408301600083015161171d60008601826115df565b50602083015184820360208601526117358282611690565b9150508091505092915050565b61174b816112c6565b82525050565b600060c082019050818103600083015261176b818a611705565b9050818103602083015261177f8189611705565b905061178e6040830188611742565b81810360608301526117a1818688611478565b90506117b0608083018561125c565b6117bd60a0830184611742565b98975050505050505050565b7f436f6e6e6563746f724178656c617258434d526f757465722f6e6f742d61757460008201527f686f72697a656400000000000000000000000000000000000000000000000000602082015250565b6000611825602783610fb0565b9150611830826117c9565b604082019050919050565b6000602082019050818103600083015261185481611818565b9050919050565b7f436f6e6e6563746f724178656c617258434d526f757465722f66696c652d756e60008201527f7265636f676e697a65642d706172616d00000000000000000000000000000000602082015250565b60006118b7603083610fb0565b91506118c28261185b565b604082019050919050565b600060208201905081810360008301526118e6816118aa565b9050919050565b60008160001c9050919050565b600067ffffffffffffffff82169050919050565b600061192161191c836118ed565b6118fa565b9050919050565b611931816112c6565b82525050565b60008160401c9050919050565b600061195761195283611937565b6118fa565b9050919050565b6000819050919050565b600061197b611976836118ed565b61195e565b9050919050565b61198b81611252565b82525050565b6060820160008083015490506119a68161190e565b6119b36000860182611928565b506119bd81611944565b6119ca6020860182611928565b50600183015490506119db81611968565b6119e86040860182611982565b5050505050565b6000606082019050611a046000830184611991565b92915050565b7f4e487b7100000000000000000000000000000000000000000000000000000000600052604160045260246000fd5b7f4e487b7100000000000000000000000000000000000000000000000000000000600052603260045260246000fd5b60008160f81b9050919050565b6000611a8082611a68565b9050919050565b611a98611a93826115d2565b611a75565b82525050565b60008160e01b9050919050565b6000611ab682611a9e565b9050919050565b611ace611ac9826110ba565b611aab565b82525050565b6000611ae08285611a87565b600182019150611af08284611abd565b600482019150819050939250505056fe06020001000000000000000000000000000000000000000000000000000000000000a2646970667358221220031c1a8dd80ba7bc3a0ba325c9ecb0f445321836b6b91a7f31d9e055ad6d859b64736f6c63430008120033",
    "linkReferences": {}
  },
  "methodIdentifiers": {
    "axelarCentrifugeChainAddress()": "3146ef29",
    "axelarCentrifugeChainId()": "eb4ebefd",
    "axelarEVMRouterOrigin()": "55531b07",
    "axelarGateway()": "14099c58",
    "centrifugeChainOrigin()": "90bf55fc",
    "deny(address)": "9c52a7f1",
    "execute(bytes32,string,string,bytes)": "49160658",
    "executedCalls(bytes32)": "332563d3",
    "file(bytes32,address)": "d4e8be83",
    "file(bytes32,uint64,uint64,uint256)": "e8cdec38",
    "rely(address)": "65fae35e",
    "send(string,string,bytes)": "1e0d43b9",
    "wards(address)": "bf353dbb"
  },
  "id": 32
}