{
  "abi": [
    {
      "inputs": [
        {
          "internalType": "address",
          "name": "escrow_",
          "type": "address"
        },
        {
          "internalType": "address",
          "name": "liquidityPoolFactory_",
          "type": "address"
        },
        {
          "internalType": "address",
          "name": "memberlistFactory_",
          "type": "address"
        }
      ],
      "stateMutability": "nonpayable",
      "type": "constructor"
    },
    {
      "anonymous": false,
      "inputs": [
        {
          "indexed": true,
          "internalType": "uint128",
          "name": "currency",
          "type": "uint128"
        },
        {
          "indexed": true,
          "internalType": "address",
          "name": "currencyAddress",
          "type": "address"
        }
      ],
      "name": "CurrencyAdded",
      "type": "event"
    },
    {
      "anonymous": false,
      "inputs": [
        {
          "indexed": true,
          "internalType": "address",
          "name": "usr",
          "type": "address"
        }
      ],
      "name": "Deny",
      "type": "event"
    },
    {
      "anonymous": false,
      "inputs": [
        {
          "indexed": true,
          "internalType": "address",
          "name": "liquidityPool",
          "type": "address"
        },
        {
          "indexed": true,
          "internalType": "address",
          "name": "user",
          "type": "address"
        },
        {
          "indexed": true,
          "internalType": "uint128",
          "name": "currencyAmount",
          "type": "uint128"
        }
      ],
      "name": "DepositProcessed",
      "type": "event"
    },
    {
      "anonymous": false,
      "inputs": [
        {
          "indexed": true,
          "internalType": "bytes32",
          "name": "what",
          "type": "bytes32"
        },
        {
          "indexed": false,
          "internalType": "address",
          "name": "data",
          "type": "address"
        }
      ],
      "name": "File",
      "type": "event"
    },
    {
      "anonymous": false,
      "inputs": [
        {
          "indexed": true,
          "internalType": "uint64",
          "name": "poolId",
          "type": "uint64"
        },
        {
          "indexed": true,
          "internalType": "bytes16",
          "name": "trancheId",
          "type": "bytes16"
        },
        {
          "indexed": true,
          "internalType": "address",
          "name": "liquidityPoool",
          "type": "address"
        }
      ],
      "name": "LiquidityPoolDeployed",
      "type": "event"
    },
    {
      "anonymous": false,
      "inputs": [
        {
          "indexed": true,
          "internalType": "uint64",
          "name": "poolId",
          "type": "uint64"
        }
      ],
      "name": "PoolAdded",
      "type": "event"
    },
    {
      "anonymous": false,
      "inputs": [
        {
          "indexed": true,
          "internalType": "uint128",
          "name": "currency",
          "type": "uint128"
        },
        {
          "indexed": true,
          "internalType": "uint64",
          "name": "poolId",
          "type": "uint64"
        }
      ],
      "name": "PoolCurrencyAllowed",
      "type": "event"
    },
    {
      "anonymous": false,
      "inputs": [
        {
          "indexed": true,
          "internalType": "address",
          "name": "liquidityPool",
          "type": "address"
        },
        {
          "indexed": true,
          "internalType": "address",
          "name": "user",
          "type": "address"
        },
        {
          "indexed": true,
          "internalType": "uint128",
          "name": "trancheTokenAmount",
          "type": "uint128"
        }
      ],
      "name": "RedemptionProcessed",
      "type": "event"
    },
    {
      "anonymous": false,
      "inputs": [
        {
          "indexed": true,
          "internalType": "address",
          "name": "usr",
          "type": "address"
        }
      ],
      "name": "Rely",
      "type": "event"
    },
    {
      "anonymous": false,
      "inputs": [
        {
          "indexed": true,
          "internalType": "uint64",
          "name": "poolId",
          "type": "uint64"
        },
        {
          "indexed": true,
          "internalType": "bytes16",
          "name": "trancheId",
          "type": "bytes16"
        }
      ],
      "name": "TrancheAdded",
      "type": "event"
    },
    {
      "anonymous": false,
      "inputs": [
        {
          "indexed": true,
          "internalType": "uint64",
          "name": "poolId",
          "type": "uint64"
        },
        {
          "indexed": true,
          "internalType": "bytes16",
          "name": "trancheId",
          "type": "bytes16"
        },
        {
          "indexed": true,
          "internalType": "address",
          "name": "token",
          "type": "address"
        }
      ],
      "name": "TrancheDeployed",
      "type": "event"
    },
    {
      "inputs": [
        {
          "internalType": "uint128",
          "name": "currency",
          "type": "uint128"
        },
        {
          "internalType": "address",
          "name": "currencyAddress",
          "type": "address"
        }
      ],
      "name": "addCurrency",
      "outputs": [],
      "stateMutability": "nonpayable",
      "type": "function"
    },
    {
      "inputs": [
        {
          "internalType": "uint64",
          "name": "poolId",
          "type": "uint64"
        }
      ],
      "name": "addPool",
      "outputs": [],
      "stateMutability": "nonpayable",
      "type": "function"
    },
    {
      "inputs": [
        {
          "internalType": "uint64",
          "name": "_poolId",
          "type": "uint64"
        },
        {
          "internalType": "bytes16",
          "name": "_trancheId",
          "type": "bytes16"
        },
        {
          "internalType": "string",
          "name": "_tokenName",
          "type": "string"
        },
        {
          "internalType": "string",
          "name": "_tokenSymbol",
          "type": "string"
        },
        {
          "internalType": "uint8",
          "name": "_decimals",
          "type": "uint8"
        },
        {
          "internalType": "uint128",
          "name": "_price",
          "type": "uint128"
        }
      ],
      "name": "addTranche",
      "outputs": [],
      "stateMutability": "nonpayable",
      "type": "function"
    },
    {
      "inputs": [
        {
          "internalType": "uint64",
          "name": "poolId",
          "type": "uint64"
        },
        {
          "internalType": "uint128",
          "name": "currency",
          "type": "uint128"
        }
      ],
      "name": "allowPoolCurrency",
      "outputs": [],
      "stateMutability": "nonpayable",
      "type": "function"
    },
    {
      "inputs": [
        {
          "internalType": "uint64",
          "name": "",
          "type": "uint64"
        },
        {
          "internalType": "address",
          "name": "",
          "type": "address"
        }
      ],
      "name": "allowedPoolCurrencies",
      "outputs": [
        {
          "internalType": "bool",
          "name": "",
          "type": "bool"
        }
      ],
      "stateMutability": "view",
      "type": "function"
    },
    {
      "inputs": [
        {
          "internalType": "address",
          "name": "_user",
          "type": "address"
        },
        {
          "internalType": "address",
          "name": "_liquidityPool",
          "type": "address"
        }
      ],
      "name": "calcDepositTrancheTokenPrice",
      "outputs": [
        {
          "internalType": "uint128",
          "name": "userTrancheTokenPrice",
          "type": "uint128"
        }
      ],
      "stateMutability": "view",
      "type": "function"
    },
    {
      "inputs": [
        {
          "internalType": "address",
          "name": "_user",
          "type": "address"
        },
        {
          "internalType": "address",
          "name": "_liquidityPool",
          "type": "address"
        }
      ],
      "name": "calcRedeemTokenPrice",
      "outputs": [
        {
          "internalType": "uint128",
          "name": "userTrancheTokenPrice",
          "type": "uint128"
        }
      ],
      "stateMutability": "view",
      "type": "function"
    },
    {
      "inputs": [
        {
          "internalType": "uint64",
          "name": "_poolId",
          "type": "uint64"
        },
        {
          "internalType": "bytes16",
          "name": "_trancheId",
          "type": "bytes16"
        },
        {
          "internalType": "address",
          "name": "_user",
          "type": "address"
        },
        {
          "internalType": "address",
          "name": "_currency",
          "type": "address"
        }
      ],
      "name": "collectInvest",
      "outputs": [],
      "stateMutability": "nonpayable",
      "type": "function"
    },
    {
      "inputs": [
        {
          "internalType": "uint64",
          "name": "_poolId",
          "type": "uint64"
        },
        {
          "internalType": "bytes16",
          "name": "_trancheId",
          "type": "bytes16"
        },
        {
          "internalType": "address",
          "name": "_user",
          "type": "address"
        },
        {
          "internalType": "address",
          "name": "_currency",
          "type": "address"
        }
      ],
      "name": "collectRedeem",
      "outputs": [],
      "stateMutability": "nonpayable",
      "type": "function"
    },
    {
      "inputs": [
        {
          "internalType": "address",
          "name": "",
          "type": "address"
        }
      ],
      "name": "currencyAddressToId",
      "outputs": [
        {
          "internalType": "uint128",
          "name": "",
          "type": "uint128"
        }
      ],
      "stateMutability": "view",
      "type": "function"
    },
    {
      "inputs": [
        {
          "internalType": "uint128",
          "name": "",
          "type": "uint128"
        }
      ],
      "name": "currencyIdToAddress",
      "outputs": [
        {
          "internalType": "address",
          "name": "",
          "type": "address"
        }
      ],
      "stateMutability": "view",
      "type": "function"
    },
    {
      "inputs": [
        {
          "internalType": "address",
          "name": "usr",
          "type": "address"
        }
      ],
      "name": "deny",
      "outputs": [],
      "stateMutability": "nonpayable",
      "type": "function"
    },
    {
      "inputs": [
        {
          "internalType": "uint64",
          "name": "_poolId",
          "type": "uint64"
        },
        {
          "internalType": "bytes16",
          "name": "_trancheId",
          "type": "bytes16"
        },
        {
          "internalType": "address",
          "name": "_currency",
          "type": "address"
        }
      ],
      "name": "deployLiquidityPool",
      "outputs": [
        {
          "internalType": "address",
          "name": "",
          "type": "address"
        }
      ],
      "stateMutability": "nonpayable",
      "type": "function"
    },
    {
      "inputs": [],
      "name": "escrow",
      "outputs": [
        {
          "internalType": "contract EscrowLike",
          "name": "",
          "type": "address"
        }
      ],
      "stateMutability": "view",
      "type": "function"
    },
    {
      "inputs": [
        {
          "internalType": "bytes32",
          "name": "what",
          "type": "bytes32"
        },
        {
          "internalType": "address",
          "name": "data",
          "type": "address"
        }
      ],
      "name": "file",
      "outputs": [],
      "stateMutability": "nonpayable",
      "type": "function"
    },
    {
      "inputs": [],
      "name": "gateway",
      "outputs": [
        {
          "internalType": "contract GatewayLike",
          "name": "",
          "type": "address"
        }
      ],
      "stateMutability": "view",
      "type": "function"
    },
    {
      "inputs": [
        {
          "internalType": "uint64",
          "name": "_poolId",
          "type": "uint64"
        },
        {
          "internalType": "bytes16",
          "name": "_trancheId",
          "type": "bytes16"
        }
      ],
      "name": "getLiquidityPoolsForTranche",
      "outputs": [
        {
          "internalType": "address[]",
          "name": "lPools",
          "type": "address[]"
        }
      ],
      "stateMutability": "view",
      "type": "function"
    },
    {
      "inputs": [
        {
          "internalType": "uint64",
          "name": "_poolId",
          "type": "uint64"
        },
        {
          "internalType": "bytes16",
          "name": "_trancheId",
          "type": "bytes16"
        },
        {
          "internalType": "address",
          "name": "_recepient",
          "type": "address"
        },
        {
          "internalType": "uint128",
          "name": "_currency",
          "type": "uint128"
        },
        {
          "internalType": "uint128",
          "name": "_currencyInvested",
          "type": "uint128"
        },
        {
          "internalType": "uint128",
          "name": "_tokensPayout",
          "type": "uint128"
        }
      ],
      "name": "handleExecutedCollectInvest",
      "outputs": [],
      "stateMutability": "nonpayable",
      "type": "function"
    },
    {
      "inputs": [
        {
          "internalType": "uint64",
          "name": "_poolId",
          "type": "uint64"
        },
        {
          "internalType": "bytes16",
          "name": "_trancheId",
          "type": "bytes16"
        },
        {
          "internalType": "address",
          "name": "_recepient",
          "type": "address"
        },
        {
          "internalType": "uint128",
          "name": "_currency",
          "type": "uint128"
        },
        {
          "internalType": "uint128",
          "name": "_currencyPayout",
          "type": "uint128"
        },
        {
          "internalType": "uint128",
          "name": "_trancheTokensRedeemed",
          "type": "uint128"
        }
      ],
      "name": "handleExecutedCollectRedeem",
      "outputs": [],
      "stateMutability": "nonpayable",
      "type": "function"
    },
    {
      "inputs": [
        {
          "internalType": "uint64",
          "name": "_poolId",
          "type": "uint64"
        },
        {
          "internalType": "bytes16",
          "name": "_trancheId",
          "type": "bytes16"
        },
        {
          "internalType": "address",
          "name": "_user",
          "type": "address"
        },
        {
          "internalType": "uint128",
          "name": "_currency",
          "type": "uint128"
        },
        {
          "internalType": "uint128",
          "name": "_currencyPayout",
          "type": "uint128"
        }
      ],
      "name": "handleExecutedDecreaseInvestOrder",
      "outputs": [],
      "stateMutability": "nonpayable",
      "type": "function"
    },
    {
      "inputs": [
        {
          "internalType": "uint64",
          "name": "_poolId",
          "type": "uint64"
        },
        {
          "internalType": "bytes16",
          "name": "_trancheId",
          "type": "bytes16"
        },
        {
          "internalType": "address",
          "name": "_user",
          "type": "address"
        },
        {
          "internalType": "uint128",
          "name": "_currency",
          "type": "uint128"
        },
        {
          "internalType": "uint128",
          "name": "_tokensPayout",
          "type": "uint128"
        }
      ],
      "name": "handleExecutedDecreaseRedeemOrder",
      "outputs": [],
      "stateMutability": "nonpayable",
      "type": "function"
    },
    {
      "inputs": [
        {
          "internalType": "uint128",
          "name": "currency",
          "type": "uint128"
        },
        {
          "internalType": "address",
          "name": "recipient",
          "type": "address"
        },
        {
          "internalType": "uint128",
          "name": "amount",
          "type": "uint128"
        }
      ],
      "name": "handleTransfer",
      "outputs": [],
      "stateMutability": "nonpayable",
      "type": "function"
    },
    {
      "inputs": [],
      "name": "liquidityPoolFactory",
      "outputs": [
        {
          "internalType": "contract LiquidityPoolFactoryLike",
          "name": "",
          "type": "address"
        }
      ],
      "stateMutability": "view",
      "type": "function"
    },
    {
      "inputs": [
        {
          "internalType": "address",
          "name": "",
          "type": "address"
        }
      ],
      "name": "liquidityPoolWards",
      "outputs": [
        {
          "internalType": "uint256",
          "name": "",
          "type": "uint256"
        }
      ],
      "stateMutability": "view",
      "type": "function"
    },
    {
      "inputs": [
        {
          "internalType": "uint64",
          "name": "",
          "type": "uint64"
        },
        {
          "internalType": "bytes16",
          "name": "",
          "type": "bytes16"
        },
        {
          "internalType": "address",
          "name": "",
          "type": "address"
        }
      ],
      "name": "liquidityPools",
      "outputs": [
        {
          "internalType": "address",
          "name": "",
          "type": "address"
        }
      ],
      "stateMutability": "view",
      "type": "function"
    },
    {
      "inputs": [
        {
          "internalType": "address",
          "name": "_user",
          "type": "address"
        },
        {
          "internalType": "address",
          "name": "_liquidityPool",
          "type": "address"
        }
      ],
      "name": "maxDeposit",
      "outputs": [
        {
          "internalType": "uint256",
          "name": "currencyAmount",
          "type": "uint256"
        }
      ],
      "stateMutability": "view",
      "type": "function"
    },
    {
      "inputs": [
        {
          "internalType": "address",
          "name": "_user",
          "type": "address"
        },
        {
          "internalType": "address",
          "name": "_liquidityPool",
          "type": "address"
        }
      ],
      "name": "maxMint",
      "outputs": [
        {
          "internalType": "uint256",
          "name": "trancheTokenAmount",
          "type": "uint256"
        }
      ],
      "stateMutability": "view",
      "type": "function"
    },
    {
      "inputs": [
        {
          "internalType": "address",
          "name": "_user",
          "type": "address"
        },
        {
          "internalType": "address",
          "name": "_liquidityPool",
          "type": "address"
        }
      ],
      "name": "maxRedeem",
      "outputs": [
        {
          "internalType": "uint256",
          "name": "trancheTokenAmount",
          "type": "uint256"
        }
      ],
      "stateMutability": "view",
      "type": "function"
    },
    {
      "inputs": [
        {
          "internalType": "address",
          "name": "_user",
          "type": "address"
        },
        {
          "internalType": "address",
          "name": "_liquidityPool",
          "type": "address"
        }
      ],
      "name": "maxWithdraw",
      "outputs": [
        {
          "internalType": "uint256",
          "name": "currencyAmount",
          "type": "uint256"
        }
      ],
      "stateMutability": "view",
      "type": "function"
    },
    {
      "inputs": [],
      "name": "memberlistFactory",
      "outputs": [
        {
          "internalType": "contract MemberlistFactoryLike",
          "name": "",
          "type": "address"
        }
      ],
      "stateMutability": "view",
      "type": "function"
    },
    {
      "inputs": [
        {
          "internalType": "address",
          "name": "",
          "type": "address"
        },
        {
          "internalType": "address",
          "name": "",
          "type": "address"
        }
      ],
      "name": "orderbook",
      "outputs": [
        {
          "internalType": "uint128",
          "name": "maxDeposit",
          "type": "uint128"
        },
        {
          "internalType": "uint128",
          "name": "maxMint",
          "type": "uint128"
        },
        {
          "internalType": "uint128",
          "name": "maxWithdraw",
          "type": "uint128"
        },
        {
          "internalType": "uint128",
          "name": "maxRedeem",
          "type": "uint128"
        }
      ],
      "stateMutability": "view",
      "type": "function"
    },
    {
      "inputs": [
        {
          "internalType": "uint64",
          "name": "",
          "type": "uint64"
        }
      ],
      "name": "pools",
      "outputs": [
        {
          "internalType": "uint64",
          "name": "poolId",
          "type": "uint64"
        },
        {
          "internalType": "uint256",
          "name": "createdAt",
          "type": "uint256"
        },
        {
          "internalType": "bool",
          "name": "isActive",
          "type": "bool"
        }
      ],
      "stateMutability": "view",
      "type": "function"
    },
    {
      "inputs": [
        {
          "internalType": "address",
          "name": "_user",
          "type": "address"
        },
        {
          "internalType": "uint256",
          "name": "_currencyAmount",
          "type": "uint256"
        }
      ],
      "name": "processDeposit",
      "outputs": [
        {
          "internalType": "uint256",
          "name": "",
          "type": "uint256"
        }
      ],
      "stateMutability": "nonpayable",
      "type": "function"
    },
    {
      "inputs": [
        {
          "internalType": "address",
          "name": "_user",
          "type": "address"
        },
        {
          "internalType": "uint256",
          "name": "_trancheTokenAmount",
          "type": "uint256"
        }
      ],
      "name": "processMint",
      "outputs": [
        {
          "internalType": "uint256",
          "name": "",
          "type": "uint256"
        }
      ],
      "stateMutability": "nonpayable",
      "type": "function"
    },
    {
      "inputs": [
        {
          "internalType": "uint256",
          "name": "_trancheTokenAmount",
          "type": "uint256"
        },
        {
          "internalType": "address",
          "name": "_receiver",
          "type": "address"
        },
        {
          "internalType": "address",
          "name": "_user",
          "type": "address"
        }
      ],
      "name": "processRedeem",
      "outputs": [
        {
          "internalType": "uint256",
          "name": "currencyAmount",
          "type": "uint256"
        }
      ],
      "stateMutability": "nonpayable",
      "type": "function"
    },
    {
      "inputs": [
        {
          "internalType": "uint256",
          "name": "_currencyAmount",
          "type": "uint256"
        },
        {
          "internalType": "address",
          "name": "_receiver",
          "type": "address"
        },
        {
          "internalType": "address",
          "name": "_user",
          "type": "address"
        }
      ],
      "name": "processWithdraw",
      "outputs": [
        {
          "internalType": "uint256",
          "name": "trancheTokenAmount",
          "type": "uint256"
        }
      ],
      "stateMutability": "nonpayable",
      "type": "function"
    },
    {
      "inputs": [
        {
          "internalType": "address",
          "name": "usr",
          "type": "address"
        }
      ],
      "name": "rely",
      "outputs": [],
      "stateMutability": "nonpayable",
      "type": "function"
    },
    {
      "inputs": [
        {
          "internalType": "uint256",
          "name": "_currencyAmount",
          "type": "uint256"
        },
        {
          "internalType": "address",
          "name": "_user",
          "type": "address"
        }
      ],
      "name": "requestDeposit",
      "outputs": [],
      "stateMutability": "nonpayable",
      "type": "function"
    },
    {
      "inputs": [
        {
          "internalType": "uint256",
          "name": "_trancheTokenAmount",
          "type": "uint256"
        },
        {
          "internalType": "address",
          "name": "_user",
          "type": "address"
        }
      ],
      "name": "requestRedeem",
      "outputs": [],
      "stateMutability": "nonpayable",
      "type": "function"
    },
    {
      "inputs": [
        {
          "internalType": "uint64",
          "name": "",
          "type": "uint64"
        },
        {
          "internalType": "bytes16",
          "name": "",
          "type": "bytes16"
        }
      ],
      "name": "tranches",
      "outputs": [
        {
          "internalType": "uint64",
          "name": "poolId",
          "type": "uint64"
        },
        {
          "internalType": "bytes16",
          "name": "trancheId",
          "type": "bytes16"
        },
        {
          "internalType": "uint8",
          "name": "decimals",
          "type": "uint8"
        },
        {
          "internalType": "uint256",
          "name": "createdAt",
          "type": "uint256"
        },
        {
          "internalType": "string",
          "name": "tokenName",
          "type": "string"
        },
        {
          "internalType": "string",
          "name": "tokenSymbol",
          "type": "string"
        }
      ],
      "stateMutability": "view",
      "type": "function"
    },
    {
      "inputs": [
        {
          "internalType": "address",
          "name": "currencyAddress",
          "type": "address"
        },
        {
          "internalType": "bytes32",
          "name": "recipient",
          "type": "bytes32"
        },
        {
          "internalType": "uint128",
          "name": "amount",
          "type": "uint128"
        }
      ],
      "name": "transfer",
      "outputs": [],
      "stateMutability": "nonpayable",
      "type": "function"
    },
    {
      "inputs": [
        {
          "internalType": "uint64",
          "name": "_poolId",
          "type": "uint64"
        },
        {
          "internalType": "bytes16",
          "name": "_trancheId",
          "type": "bytes16"
        },
        {
          "internalType": "address",
          "name": "_user",
          "type": "address"
        },
        {
          "internalType": "uint64",
          "name": "_validUntil",
          "type": "uint64"
        }
      ],
      "name": "updateMember",
      "outputs": [],
      "stateMutability": "nonpayable",
      "type": "function"
    },
    {
      "inputs": [
        {
          "internalType": "uint64",
          "name": "_poolId",
          "type": "uint64"
        },
        {
          "internalType": "bytes16",
          "name": "_trancheId",
          "type": "bytes16"
        },
        {
          "internalType": "uint128",
          "name": "_price",
          "type": "uint128"
        }
      ],
      "name": "updateTokenPrice",
      "outputs": [],
      "stateMutability": "nonpayable",
      "type": "function"
    },
    {
      "inputs": [
        {
          "internalType": "address",
          "name": "",
          "type": "address"
        }
      ],
      "name": "wards",
      "outputs": [
        {
          "internalType": "uint256",
          "name": "",
          "type": "uint256"
        }
      ],
      "stateMutability": "view",
      "type": "function"
    }
  ],
  "bytecode": {
    "object": "0x60e06040523480156200001157600080fd5b506040516200a5aa3803806200a5aa8339818101604052810190620000379190620001cd565b8273ffffffffffffffffffffffffffffffffffffffff1660808173ffffffffffffffffffffffffffffffffffffffff16815250508173ffffffffffffffffffffffffffffffffffffffff1660a08173ffffffffffffffffffffffffffffffffffffffff16815250508073ffffffffffffffffffffffffffffffffffffffff1660c08173ffffffffffffffffffffffffffffffffffffffff168152505060016000803373ffffffffffffffffffffffffffffffffffffffff1673ffffffffffffffffffffffffffffffffffffffff168152602001908152602001600020819055503373ffffffffffffffffffffffffffffffffffffffff167fdd0e34038ac38b2a1ce960229778ac48a8719bc900b6c4f8d0475c6e8b385a6060405160405180910390a250505062000229565b600080fd5b600073ffffffffffffffffffffffffffffffffffffffff82169050919050565b6000620001958262000168565b9050919050565b620001a78162000188565b8114620001b357600080fd5b50565b600081519050620001c7816200019c565b92915050565b600080600060608486031215620001e957620001e862000163565b5b6000620001f986828701620001b6565b93505060206200020c86828701620001b6565b92505060406200021f86828701620001b6565b9150509250925092565b60805160a05160c05161a2da620002d06000396000818161414801526147740152600081816142b701526162c3015260008181610e60015281816114ec015281816119c40152818161243e01528181612eb00152818161360401528181613a54015281816142260152818161452301528181614d4301528181615025015281816150d0015281816159e1015281816160b9015281816169bd01526174bd015261a2da6000f3fe608060405234801561001057600080fd5b50600436106102745760003560e01c80638f95377511610151578063ca03fb59116100c3578063e345f4b611610087578063e345f4b614610802578063e75d75d514610832578063ebb730cc14610850578063f2e586db1461086c578063f68378ad1461089c578063fbadceca146108cf57610274565b8063ca03fb591461074c578063cb5cbeef1461077c578063d4e8be8314610798578063e0fa12c8146107b4578063e2fdcc17146107e457610274565b8063a096bf5711610115578063a096bf5714610668578063ac41713814610684578063ae1a9aac146106b4578063bcd914f1146106d0578063bf353dbb146106ec578063c8cd65e51461071c57610274565b80638f953775146105b257806395b734fb146105d057806396831440146106005780639875dcc1146106305780639c52a7f11461064c57610274565b806360af6ad3116101ea57806376016870116101ae57806376016870146104a457806376c958a7146104d4578063777eeda1146104f05780638246a4511461052057806389a5f084146105505780638c22e9b01461058257610274565b806360af6ad3146103f0578063648df0661461042057806365fae35e146104505780636ddf78ec1461046c57806374a403b71461048857610274565b80632648cf741161023c5780632648cf741461032057806329344f081461033c5780632b8961011461035857806336e00101146103745780634093cb57146103a457806343ebad08146103d457610274565b806304afc93b146102795780630e7cf2ba146102ae578063107703ab146102ca578063116191b6146102e657806320c32f8614610304575b600080fd5b610293600480360381019061028e91906176a3565b6108ff565b6040516102a5969594939291906177c6565b60405180910390f35b6102c860048036038101906102c391906178db565b610a86565b005b6102e460048036038101906102df9190617994565b610eda565b005b6102ee6117f7565b6040516102fb9190617a33565b60405180910390f35b61031e60048036038101906103199190617a84565b61181d565b005b61033a60048036038101906103359190617ad7565b611b1e565b005b61035660048036038101906103519190617994565b611db8565b005b610372600480360381019061036d9190617b17565b61274a565b005b61038e60048036038101906103899190617b44565b6128d6565b60405161039b9190617b93565b60405180910390f35b6103be60048036038101906103b99190617bae565b6129f1565b6040516103cb9190617bea565b60405180910390f35b6103ee60048036038101906103e99190617c05565b612a24565b005b61040a60048036038101906104059190617c80565b612f7a565b6040516104179190617cd3565b60405180910390f35b61043a60048036038101906104359190617cee565b613161565b6040516104479190617bea565b60405180910390f35b61046a60048036038101906104659190617d41565b6131b0565b005b61048660048036038101906104819190617d6e565b6132bb565b005b6104a2600480360381019061049d9190617c05565b61370b565b005b6104be60048036038101906104b99190617b44565b613b1e565b6040516104cb9190617cd3565b60405180910390f35b6104ee60048036038101906104e99190617dae565b613bd6565b005b61050a60048036038101906105059190617cee565b613e55565b6040516105179190617bea565b60405180910390f35b61053a60048036038101906105359190617d41565b614640565b6040516105479190617b93565b60405180910390f35b61056a60048036038101906105659190617b17565b61466f565b60405161057993929190617e30565b60405180910390f35b61059c60048036038101906105979190617b44565b6146ba565b6040516105a99190617cd3565b60405180910390f35b6105ba614772565b6040516105c79190617e88565b60405180910390f35b6105ea60048036038101906105e59190617b44565b614796565b6040516105f79190617cd3565b60405180910390f35b61061a60048036038101906106159190617b44565b61484e565b6040516106279190617b93565b60405180910390f35b61064a600480360381019061064591906178db565b614969565b005b61066660048036038101906106619190617d41565b614dbd565b005b610682600480360381019061067d9190617ea3565b614ec8565b005b61069e60048036038101906106999190617d41565b615197565b6040516106ab9190617cd3565b60405180910390f35b6106ce60048036038101906106c99190617ef6565b6151af565b005b6106ea60048036038101906106e591906180aa565b615434565b005b61070660048036038101906107019190617d41565b6156d5565b6040516107139190617cd3565b60405180910390f35b6107366004803603810190610731919061816f565b6156ed565b6040516107439190617cd3565b60405180910390f35b610766600480360381019061076191906181af565b615b2f565b60405161077391906181ef565b60405180910390f35b6107966004803603810190610791919061820a565b615b5e565b005b6107b260048036038101906107ad9190618271565b615e62565b005b6107ce60048036038101906107c991906176a3565b615fc7565b6040516107db919061836f565b60405180910390f35b6107ec6160b7565b6040516107f991906183b2565b60405180910390f35b61081c60048036038101906108179190617c80565b6160db565b6040516108299190617cd3565b60405180910390f35b61083a6162c1565b60405161084791906183ee565b60405180910390f35b61086a60048036038101906108659190617dae565b6162e5565b005b61088660048036038101906108819190617b44565b616564565b6040516108939190617cd3565b60405180910390f35b6108b660048036038101906108b19190617b44565b61661c565b6040516108c69493929190618409565b60405180910390f35b6108e960048036038101906108e4919061816f565b6166c9565b6040516108f69190617cd3565b60405180910390f35b6002602052816000526040600020602052806000526040600020600091509150508060000160009054906101000a900467ffffffffffffffff16908060000160089054906101000a900460801b908060000160189054906101000a900460ff16908060010154908060020180546109759061847d565b80601f01602080910402602001604051908101604052809291908181526020018280546109a19061847d565b80156109ee5780601f106109c3576101008083540402835291602001916109ee565b820191906000526020600020905b8154815290600101906020018083116109d157829003601f168201915b505050505090806003018054610a039061847d565b80601f0160208091040260200160405190810160405280929190818152602001828054610a2f9061847d565b8015610a7c5780601f10610a5157610100808354040283529160200191610a7c565b820191906000526020600020905b815481529060010190602001808311610a5f57829003601f168201915b5050505050905086565b600960009054906101000a900473ffffffffffffffffffffffffffffffffffffffff1673ffffffffffffffffffffffffffffffffffffffff163373ffffffffffffffffffffffffffffffffffffffff1614610b16576040517f08c379a0000000000000000000000000000000000000000000000000000000008152600401610b0d90618520565b60405180910390fd5b6000826fffffffffffffffffffffffffffffffff1603610b6b576040517f08c379a0000000000000000000000000000000000000000000000000000000008152600401610b629061858c565b60405180910390fd5b600060066000856fffffffffffffffffffffffffffffffff166fffffffffffffffffffffffffffffffff16815260200190815260200160002060009054906101000a900473ffffffffffffffffffffffffffffffffffffffff1690506000600360008967ffffffffffffffff1667ffffffffffffffff1681526020019081526020016000206000886fffffffffffffffffffffffffffffffff19166fffffffffffffffffffffffffffffffff1916815260200190815260200160002060008373ffffffffffffffffffffffffffffffffffffffff1673ffffffffffffffffffffffffffffffffffffffff16815260200190815260200160002060009054906101000a900473ffffffffffffffffffffffffffffffffffffffff169050600073ffffffffffffffffffffffffffffffffffffffff168173ffffffffffffffffffffffffffffffffffffffff1603610cf6576040517f08c379a0000000000000000000000000000000000000000000000000000000008152600401610ced9061861e565b60405180910390fd5b6000600560008873ffffffffffffffffffffffffffffffffffffffff1673ffffffffffffffffffffffffffffffffffffffff16815260200190815260200160002060008373ffffffffffffffffffffffffffffffffffffffff1673ffffffffffffffffffffffffffffffffffffffff1681526020019081526020016000209050848160000160009054906101000a90046fffffffffffffffffffffffffffffffff16610da2919061866d565b8160000160006101000a8154816fffffffffffffffffffffffffffffffff02191690836fffffffffffffffffffffffffffffffff160217905550838160000160109054906101000a90046fffffffffffffffffffffffffffffffff16610e08919061866d565b8160000160106101000a8154816fffffffffffffffffffffffffffffffff02191690836fffffffffffffffffffffffffffffffff1602179055508173ffffffffffffffffffffffffffffffffffffffff166340c10f197f0000000000000000000000000000000000000000000000000000000000000000866040518363ffffffff1660e01b8152600401610e9d9291906186e2565b600060405180830381600087803b158015610eb757600080fd5b505af1158015610ecb573d6000803e3d6000fd5b50505050505050505050505050565b60016000803373ffffffffffffffffffffffffffffffffffffffff1673ffffffffffffffffffffffffffffffffffffffff1681526020019081526020016000205414610f5b576040517f08c379a0000000000000000000000000000000000000000000000000000000008152600401610f5290618757565b60405180910390fd5b60003390506000600560008473ffffffffffffffffffffffffffffffffffffffff1673ffffffffffffffffffffffffffffffffffffffff16815260200190815260200160002060008373ffffffffffffffffffffffffffffffffffffffff1673ffffffffffffffffffffffffffffffffffffffff168152602001908152602001600020905060008290506000610ff086616b0b565b90506110dc8273ffffffffffffffffffffffffffffffffffffffff16633e0dc34e6040518163ffffffff1660e01b81526004016020604051808303816000875af1158015611042573d6000803e3d6000fd5b505050506040513d601f19601f82011682018060405250810190611066919061878c565b8373ffffffffffffffffffffffffffffffffffffffff166338d52e0f6040518163ffffffff1660e01b81526004016020604051808303816000875af11580156110b3573d6000803e3d6000fd5b505050506040513d601f19601f820116820180604052508101906110d791906187ce565b616b34565b61111b576040517f08c379a00000000000000000000000000000000000000000000000000000000081526004016111129061886d565b60405180910390fd5b6112778273ffffffffffffffffffffffffffffffffffffffff16633e0dc34e6040518163ffffffff1660e01b81526004016020604051808303816000875af115801561116b573d6000803e3d6000fd5b505050506040513d601f19601f8201168201806040525081019061118f919061878c565b8373ffffffffffffffffffffffffffffffffffffffff1663b7adb4c56040518163ffffffff1660e01b81526004016020604051808303816000875af11580156111dc573d6000803e3d6000fd5b505050506040513d601f19601f8201168201806040525081019061120091906188a2565b8473ffffffffffffffffffffffffffffffffffffffff166338d52e0f6040518163ffffffff1660e01b81526004016020604051808303816000875af115801561124d573d6000803e3d6000fd5b505050506040513d601f19601f8201168201806040525081019061127191906187ce565b88616ca6565b6112b6576040517f08c379a00000000000000000000000000000000000000000000000000000000081526004016112ad90618941565b60405180910390fd5b6000816fffffffffffffffffffffffffffffffff16036112d957505050506117f3565b806fffffffffffffffffffffffffffffffff168360000160109054906101000a90046fffffffffffffffffffffffffffffffff166fffffffffffffffffffffffffffffffff161061135557600061133086866128d6565b9050600081836113409190618961565b905061134e87878386616e9e565b50506115ae565b60008360000160109054906101000a90046fffffffffffffffffffffffffffffffff1682611383919061899e565b6fffffffffffffffffffffffffffffffff16905060008460000160006101000a8154816fffffffffffffffffffffffffffffffff02191690836fffffffffffffffffffffffffffffffff16021790555060008460000160106101000a8154816fffffffffffffffffffffffffffffffff02191690836fffffffffffffffffffffffffffffffff160217905550808373ffffffffffffffffffffffffffffffffffffffff166370a08231886040518263ffffffff1660e01b81526004016114499190617bea565b6020604051808303816000875af1158015611468573d6000803e3d6000fd5b505050506040513d601f19601f8201168201806040525081019061148c91906189f7565b10156114cd576040517f08c379a00000000000000000000000000000000000000000000000000000000081526004016114c490618a96565b60405180910390fd5b8273ffffffffffffffffffffffffffffffffffffffff166323b872dd877f0000000000000000000000000000000000000000000000000000000000000000846040518463ffffffff1660e01b815260040161152a93929190618ab6565b6020604051808303816000875af1158015611549573d6000803e3d6000fd5b505050506040513d601f19601f8201168201806040525081019061156d9190618b19565b6115ac576040517f08c379a00000000000000000000000000000000000000000000000000000000081526004016115a390618bb8565b60405180910390fd5b505b600960009054906101000a900473ffffffffffffffffffffffffffffffffffffffff1673ffffffffffffffffffffffffffffffffffffffff1663335d072d8373ffffffffffffffffffffffffffffffffffffffff16633e0dc34e6040518163ffffffff1660e01b81526004016020604051808303816000875af1158015611639573d6000803e3d6000fd5b505050506040513d601f19601f8201168201806040525081019061165d919061878c565b8473ffffffffffffffffffffffffffffffffffffffff1663b7adb4c56040518163ffffffff1660e01b81526004016020604051808303816000875af11580156116aa573d6000803e3d6000fd5b505050506040513d601f19601f820116820180604052508101906116ce91906188a2565b88600760008873ffffffffffffffffffffffffffffffffffffffff166338d52e0f6040518163ffffffff1660e01b81526004016020604051808303816000875af1158015611720573d6000803e3d6000fd5b505050506040513d601f19601f8201168201806040525081019061174491906187ce565b73ffffffffffffffffffffffffffffffffffffffff1673ffffffffffffffffffffffffffffffffffffffff16815260200190815260200160002060009054906101000a90046fffffffffffffffffffffffffffffffff16866040518663ffffffff1660e01b81526004016117bc959493929190618bd8565b600060405180830381600087803b1580156117d657600080fd5b505af11580156117ea573d6000803e3d6000fd5b50505050505050505b5050565b600960009054906101000a900473ffffffffffffffffffffffffffffffffffffffff1681565b6000600760008573ffffffffffffffffffffffffffffffffffffffff1673ffffffffffffffffffffffffffffffffffffffff16815260200190815260200160002060009054906101000a90046fffffffffffffffffffffffffffffffff1690506000816fffffffffffffffffffffffffffffffff16036118d2576040517f08c379a00000000000000000000000000000000000000000000000000000000081526004016118c990618c9d565b60405180910390fd5b6000849050826fffffffffffffffffffffffffffffffff168173ffffffffffffffffffffffffffffffffffffffff166370a08231336040518263ffffffff1660e01b81526004016119239190617bea565b602060405180830381865afa158015611940573d6000803e3d6000fd5b505050506040513d601f19601f8201168201806040525081019061196491906189f7565b10156119a5576040517f08c379a000000000000000000000000000000000000000000000000000000000815260040161199c90618d2f565b60405180910390fd5b8073ffffffffffffffffffffffffffffffffffffffff166323b872dd337f0000000000000000000000000000000000000000000000000000000000000000866040518463ffffffff1660e01b8152600401611a0293929190618d4f565b6020604051808303816000875af1158015611a21573d6000803e3d6000fd5b505050506040513d601f19601f82011682018060405250810190611a459190618b19565b611a84576040517f08c379a0000000000000000000000000000000000000000000000000000000008152600401611a7b90618df8565b60405180910390fd5b600960009054906101000a900473ffffffffffffffffffffffffffffffffffffffff1673ffffffffffffffffffffffffffffffffffffffff16633c1c9103833387876040518563ffffffff1660e01b8152600401611ae59493929190618e27565b600060405180830381600087803b158015611aff57600080fd5b505af1158015611b13573d6000803e3d6000fd5b505050505050505050565b600960009054906101000a900473ffffffffffffffffffffffffffffffffffffffff1673ffffffffffffffffffffffffffffffffffffffff163373ffffffffffffffffffffffffffffffffffffffff1614611bae576040517f08c379a0000000000000000000000000000000000000000000000000000000008152600401611ba590618520565b60405180910390fd5b6000600160008467ffffffffffffffff1667ffffffffffffffff16815260200190815260200160002090506000816001015411611c20576040517f08c379a0000000000000000000000000000000000000000000000000000000008152600401611c1790618eb8565b60405180910390fd5b600060066000846fffffffffffffffffffffffffffffffff166fffffffffffffffffffffffffffffffff16815260200190815260200160002060009054906101000a900473ffffffffffffffffffffffffffffffffffffffff169050600073ffffffffffffffffffffffffffffffffffffffff168173ffffffffffffffffffffffffffffffffffffffff1603611ceb576040517f08c379a0000000000000000000000000000000000000000000000000000000008152600401611ce290618c9d565b60405180910390fd5b6001600860008667ffffffffffffffff1667ffffffffffffffff16815260200190815260200160002060008373ffffffffffffffffffffffffffffffffffffffff1673ffffffffffffffffffffffffffffffffffffffff16815260200190815260200160002060006101000a81548160ff0219169083151502179055508367ffffffffffffffff16836fffffffffffffffffffffffffffffffff167f729cfc8ca4871be6e5f3e0ef8ac7ee805f4bc8b8291b01e23a4897254186a6e760405160405180910390a350505050565b60016000803373ffffffffffffffffffffffffffffffffffffffff1673ffffffffffffffffffffffffffffffffffffffff1681526020019081526020016000205414611e39576040517f08c379a0000000000000000000000000000000000000000000000000000000008152600401611e3090618757565b60405180910390fd5b60003390506000600560008473ffffffffffffffffffffffffffffffffffffffff1673ffffffffffffffffffffffffffffffffffffffff16815260200190815260200160002060008373ffffffffffffffffffffffffffffffffffffffff1673ffffffffffffffffffffffffffffffffffffffff1681526020019081526020016000209050600082905060008173ffffffffffffffffffffffffffffffffffffffff166338d52e0f6040518163ffffffff1660e01b81526004016020604051808303816000875af1158015611f12573d6000803e3d6000fd5b505050506040513d601f19601f82011682018060405250810190611f3691906187ce565b90506000611f4387616b0b565b905061202f8373ffffffffffffffffffffffffffffffffffffffff16633e0dc34e6040518163ffffffff1660e01b81526004016020604051808303816000875af1158015611f95573d6000803e3d6000fd5b505050506040513d601f19601f82011682018060405250810190611fb9919061878c565b8473ffffffffffffffffffffffffffffffffffffffff166338d52e0f6040518163ffffffff1660e01b81526004016020604051808303816000875af1158015612006573d6000803e3d6000fd5b505050506040513d601f19601f8201168201806040525081019061202a91906187ce565b616b34565b61206e576040517f08c379a00000000000000000000000000000000000000000000000000000000081526004016120659061886d565b60405180910390fd5b6121ca8373ffffffffffffffffffffffffffffffffffffffff16633e0dc34e6040518163ffffffff1660e01b81526004016020604051808303816000875af11580156120be573d6000803e3d6000fd5b505050506040513d601f19601f820116820180604052508101906120e2919061878c565b8473ffffffffffffffffffffffffffffffffffffffff1663b7adb4c56040518163ffffffff1660e01b81526004016020604051808303816000875af115801561212f573d6000803e3d6000fd5b505050506040513d601f19601f8201168201806040525081019061215391906188a2565b8573ffffffffffffffffffffffffffffffffffffffff166338d52e0f6040518163ffffffff1660e01b81526004016020604051808303816000875af11580156121a0573d6000803e3d6000fd5b505050506040513d601f19601f820116820180604052508101906121c491906187ce565b89616ca6565b612209576040517f08c379a000000000000000000000000000000000000000000000000000000000815260040161220090618941565b60405180910390fd5b6000816fffffffffffffffffffffffffffffffff160361222d575050505050612746565b806fffffffffffffffffffffffffffffffff168460010160009054906101000a90046fffffffffffffffffffffffffffffffff166fffffffffffffffffffffffffffffffff16106122a9576000612284878761484e565b9050600081836122949190618f07565b90506122a28888858461710d565b5050612500565b60008460010160009054906101000a90046fffffffffffffffffffffffffffffffff16826122d7919061899e565b905060008560010160006101000a8154816fffffffffffffffffffffffffffffffff02191690836fffffffffffffffffffffffffffffffff16021790555060008560010160106101000a8154816fffffffffffffffffffffffffffffffff02191690836fffffffffffffffffffffffffffffffff160217905550806fffffffffffffffffffffffffffffffff168373ffffffffffffffffffffffffffffffffffffffff166370a08231896040518263ffffffff1660e01b815260040161239d9190617bea565b602060405180830381865afa1580156123ba573d6000803e3d6000fd5b505050506040513d601f19601f820116820180604052508101906123de91906189f7565b101561241f576040517f08c379a000000000000000000000000000000000000000000000000000000000815260040161241690618d2f565b60405180910390fd5b8273ffffffffffffffffffffffffffffffffffffffff166323b872dd887f0000000000000000000000000000000000000000000000000000000000000000846040518463ffffffff1660e01b815260040161247c93929190618d4f565b6020604051808303816000875af115801561249b573d6000803e3d6000fd5b505050506040513d601f19601f820116820180604052508101906124bf9190618b19565b6124fe576040517f08c379a00000000000000000000000000000000000000000000000000000000081526004016124f590618df8565b60405180910390fd5b505b600960009054906101000a900473ffffffffffffffffffffffffffffffffffffffff1673ffffffffffffffffffffffffffffffffffffffff1663189070de8473ffffffffffffffffffffffffffffffffffffffff16633e0dc34e6040518163ffffffff1660e01b81526004016020604051808303816000875af115801561258b573d6000803e3d6000fd5b505050506040513d601f19601f820116820180604052508101906125af919061878c565b8573ffffffffffffffffffffffffffffffffffffffff1663b7adb4c56040518163ffffffff1660e01b81526004016020604051808303816000875af11580156125fc573d6000803e3d6000fd5b505050506040513d601f19601f8201168201806040525081019061262091906188a2565b89600760008973ffffffffffffffffffffffffffffffffffffffff166338d52e0f6040518163ffffffff1660e01b81526004016020604051808303816000875af1158015612672573d6000803e3d6000fd5b505050506040513d601f19601f8201168201806040525081019061269691906187ce565b73ffffffffffffffffffffffffffffffffffffffff1673ffffffffffffffffffffffffffffffffffffffff16815260200190815260200160002060009054906101000a90046fffffffffffffffffffffffffffffffff16866040518663ffffffff1660e01b815260040161270e959493929190618bd8565b600060405180830381600087803b15801561272857600080fd5b505af115801561273c573d6000803e3d6000fd5b5050505050505050505b5050565b600960009054906101000a900473ffffffffffffffffffffffffffffffffffffffff1673ffffffffffffffffffffffffffffffffffffffff163373ffffffffffffffffffffffffffffffffffffffff16146127da576040517f08c379a00000000000000000000000000000000000000000000000000000000081526004016127d190618520565b60405180910390fd5b6000600160008367ffffffffffffffff1667ffffffffffffffff1681526020019081526020016000209050600081600101541461284c576040517f08c379a000000000000000000000000000000000000000000000000000000000815260040161284390618faa565b60405180910390fd5b818160000160006101000a81548167ffffffffffffffff021916908367ffffffffffffffff16021790555042816001018190555060018160020160006101000a81548160ff0219169083151502179055508167ffffffffffffffff167d0872b2eb141020c2378c17ca4a767738e66846ce8e0d139612981dd4387f60405160405180910390a25050565b600080600560008573ffffffffffffffffffffffffffffffffffffffff1673ffffffffffffffffffffffffffffffffffffffff16815260200190815260200160002060008473ffffffffffffffffffffffffffffffffffffffff1673ffffffffffffffffffffffffffffffffffffffff168152602001908152602001600020905060008160000160109054906101000a90046fffffffffffffffffffffffffffffffff166fffffffffffffffffffffffffffffffff160361299b5760009150506129eb565b8060000160109054906101000a90046fffffffffffffffffffffffffffffffff168160000160009054906101000a90046fffffffffffffffffffffffffffffffff166129e79190618f07565b9150505b92915050565b60066020528060005260406000206000915054906101000a900473ffffffffffffffffffffffffffffffffffffffff1681565b600960009054906101000a900473ffffffffffffffffffffffffffffffffffffffff1673ffffffffffffffffffffffffffffffffffffffff163373ffffffffffffffffffffffffffffffffffffffff1614612ab4576040517f08c379a0000000000000000000000000000000000000000000000000000000008152600401612aab90618520565b60405180910390fd5b6000816fffffffffffffffffffffffffffffffff1603612b09576040517f08c379a0000000000000000000000000000000000000000000000000000000008152600401612b0090619016565b60405180910390fd5b600060066000846fffffffffffffffffffffffffffffffff166fffffffffffffffffffffffffffffffff16815260200190815260200160002060009054906101000a900473ffffffffffffffffffffffffffffffffffffffff1690506000600360008867ffffffffffffffff1667ffffffffffffffff1681526020019081526020016000206000876fffffffffffffffffffffffffffffffff19166fffffffffffffffffffffffffffffffff1916815260200190815260200160002060008373ffffffffffffffffffffffffffffffffffffffff1673ffffffffffffffffffffffffffffffffffffffff16815260200190815260200160002060009054906101000a900473ffffffffffffffffffffffffffffffffffffffff169050600073ffffffffffffffffffffffffffffffffffffffff168173ffffffffffffffffffffffffffffffffffffffff1603612c94576040517f08c379a0000000000000000000000000000000000000000000000000000000008152600401612c8b9061861e565b60405180910390fd5b600860008867ffffffffffffffff1667ffffffffffffffff16815260200190815260200160002060008373ffffffffffffffffffffffffffffffffffffffff1673ffffffffffffffffffffffffffffffffffffffff16815260200190815260200160002060009054906101000a900460ff16612d45576040517f08c379a0000000000000000000000000000000000000000000000000000000008152600401612d3c906190a8565b60405180910390fd5b600073ffffffffffffffffffffffffffffffffffffffff168273ffffffffffffffffffffffffffffffffffffffff1603612db4576040517f08c379a0000000000000000000000000000000000000000000000000000000008152600401612dab90618c9d565b60405180910390fd5b8073ffffffffffffffffffffffffffffffffffffffff166338d52e0f6040518163ffffffff1660e01b81526004016020604051808303816000875af1158015612e01573d6000803e3d6000fd5b505050506040513d601f19601f82011682018060405250810190612e2591906187ce565b73ffffffffffffffffffffffffffffffffffffffff168273ffffffffffffffffffffffffffffffffffffffff1614612e92576040517f08c379a0000000000000000000000000000000000000000000000000000000008152600401612e899061913a565b60405180910390fd5b8173ffffffffffffffffffffffffffffffffffffffff166323b872dd7f000000000000000000000000000000000000000000000000000000000000000087866040518463ffffffff1660e01b8152600401612eef93929190618d4f565b6020604051808303816000875af1158015612f0e573d6000803e3d6000fd5b505050506040513d601f19601f82011682018060405250810190612f329190618b19565b612f71576040517f08c379a0000000000000000000000000000000000000000000000000000000008152600401612f6890618df8565b60405180910390fd5b50505050505050565b600060016000803373ffffffffffffffffffffffffffffffffffffffff1673ffffffffffffffffffffffffffffffffffffffff1681526020019081526020016000205414612ffd576040517f08c379a0000000000000000000000000000000000000000000000000000000008152600401612ff490618757565b60405180910390fd5b6000339050600061300d86616b0b565b9050600560008573ffffffffffffffffffffffffffffffffffffffff1673ffffffffffffffffffffffffffffffffffffffff16815260200190815260200160002060008373ffffffffffffffffffffffffffffffffffffffff1673ffffffffffffffffffffffffffffffffffffffff16815260200190815260200160002060010160109054906101000a90046fffffffffffffffffffffffffffffffff166fffffffffffffffffffffffffffffffff16816fffffffffffffffffffffffffffffffff16111580156130f057506000816fffffffffffffffffffffffffffffffff16115b61312f576040517f08c379a0000000000000000000000000000000000000000000000000000000008152600401613126906191cc565b60405180910390fd5b61313d81600084888861737c565b9050806fffffffffffffffffffffffffffffffff1690508093505050509392505050565b6003602052826000526040600020602052816000526040600020602052806000526040600020600092509250509054906101000a900473ffffffffffffffffffffffffffffffffffffffff1681565b60016000803373ffffffffffffffffffffffffffffffffffffffff1673ffffffffffffffffffffffffffffffffffffffff1681526020019081526020016000205414613231576040517f08c379a000000000000000000000000000000000000000000000000000000000815260040161322890618757565b60405180910390fd5b60016000808373ffffffffffffffffffffffffffffffffffffffff1673ffffffffffffffffffffffffffffffffffffffff168152602001908152602001600020819055508073ffffffffffffffffffffffffffffffffffffffff167fdd0e34038ac38b2a1ce960229778ac48a8719bc900b6c4f8d0475c6e8b385a6060405160405180910390a250565b600960009054906101000a900473ffffffffffffffffffffffffffffffffffffffff1673ffffffffffffffffffffffffffffffffffffffff163373ffffffffffffffffffffffffffffffffffffffff161461334b576040517f08c379a000000000000000000000000000000000000000000000000000000000815260040161334290618520565b60405180910390fd5b6000826fffffffffffffffffffffffffffffffff16116133a0576040517f08c379a00000000000000000000000000000000000000000000000000000000081526004016133979061925e565b60405180910390fd5b600073ffffffffffffffffffffffffffffffffffffffff1660066000846fffffffffffffffffffffffffffffffff166fffffffffffffffffffffffffffffffff16815260200190815260200160002060009054906101000a900473ffffffffffffffffffffffffffffffffffffffff1673ffffffffffffffffffffffffffffffffffffffff1614613466576040517f08c379a000000000000000000000000000000000000000000000000000000000815260040161345d906192f0565b60405180910390fd5b6000600760008373ffffffffffffffffffffffffffffffffffffffff1673ffffffffffffffffffffffffffffffffffffffff16815260200190815260200160002060009054906101000a90046fffffffffffffffffffffffffffffffff166fffffffffffffffffffffffffffffffff1614613516576040517f08c379a000000000000000000000000000000000000000000000000000000000815260040161350d90619382565b60405180910390fd5b8060066000846fffffffffffffffffffffffffffffffff166fffffffffffffffffffffffffffffffff16815260200190815260200160002060006101000a81548173ffffffffffffffffffffffffffffffffffffffff021916908373ffffffffffffffffffffffffffffffffffffffff16021790555081600760008373ffffffffffffffffffffffffffffffffffffffff1673ffffffffffffffffffffffffffffffffffffffff16815260200190815260200160002060006101000a8154816fffffffffffffffffffffffffffffffff02191690836fffffffffffffffffffffffffffffffff1602179055507f000000000000000000000000000000000000000000000000000000000000000073ffffffffffffffffffffffffffffffffffffffff1663e1f21c6782307fffffffffffffffffffffffffffffffffffffffffffffffffffffffffffffffff6040518463ffffffff1660e01b815260040161367f93929190618ab6565b600060405180830381600087803b15801561369957600080fd5b505af11580156136ad573d6000803e3d6000fd5b505050508073ffffffffffffffffffffffffffffffffffffffff16826fffffffffffffffffffffffffffffffff167f35251d5f1ff421a03490d67376bcabe4299c323a8c6ec6da67dc75a6d3d0d1e760405160405180910390a35050565b600960009054906101000a900473ffffffffffffffffffffffffffffffffffffffff1673ffffffffffffffffffffffffffffffffffffffff163373ffffffffffffffffffffffffffffffffffffffff161461379b576040517f08c379a000000000000000000000000000000000000000000000000000000000815260040161379290618520565b60405180910390fd5b6000816fffffffffffffffffffffffffffffffff16036137f0576040517f08c379a00000000000000000000000000000000000000000000000000000000081526004016137e790619016565b60405180910390fd5b600060066000846fffffffffffffffffffffffffffffffff166fffffffffffffffffffffffffffffffff16815260200190815260200160002060009054906101000a900473ffffffffffffffffffffffffffffffffffffffff1690506000600360008867ffffffffffffffff1667ffffffffffffffff1681526020019081526020016000206000876fffffffffffffffffffffffffffffffff19166fffffffffffffffffffffffffffffffff1916815260200190815260200160002060008373ffffffffffffffffffffffffffffffffffffffff1673ffffffffffffffffffffffffffffffffffffffff16815260200190815260200160002060009054906101000a900473ffffffffffffffffffffffffffffffffffffffff169050600073ffffffffffffffffffffffffffffffffffffffff168173ffffffffffffffffffffffffffffffffffffffff160361397b576040517f08c379a00000000000000000000000000000000000000000000000000000000081526004016139729061861e565b60405180910390fd5b8073ffffffffffffffffffffffffffffffffffffffff166312d42835866040518263ffffffff1660e01b81526004016139b49190617bea565b6020604051808303816000875af11580156139d3573d6000803e3d6000fd5b505050506040513d601f19601f820116820180604052508101906139f79190618b19565b613a36576040517f08c379a0000000000000000000000000000000000000000000000000000000008152600401613a2d906193ee565b60405180910390fd5b8073ffffffffffffffffffffffffffffffffffffffff166323b872dd7f000000000000000000000000000000000000000000000000000000000000000087866040518463ffffffff1660e01b8152600401613a9393929190618d4f565b6020604051808303816000875af1158015613ab2573d6000803e3d6000fd5b505050506040513d601f19601f82011682018060405250810190613ad69190618b19565b613b15576040517f08c379a0000000000000000000000000000000000000000000000000000000008152600401613b0c90619480565b60405180910390fd5b50505050505050565b6000600560008473ffffffffffffffffffffffffffffffffffffffff1673ffffffffffffffffffffffffffffffffffffffff16815260200190815260200160002060008373ffffffffffffffffffffffffffffffffffffffff1673ffffffffffffffffffffffffffffffffffffffff16815260200190815260200160002060000160009054906101000a90046fffffffffffffffffffffffffffffffff166fffffffffffffffffffffffffffffffff16905092915050565b60016000803373ffffffffffffffffffffffffffffffffffffffff1673ffffffffffffffffffffffffffffffffffffffff1681526020019081526020016000205414613c57576040517f08c379a0000000000000000000000000000000000000000000000000000000008152600401613c4e90618757565b60405180910390fd5b60003390508073ffffffffffffffffffffffffffffffffffffffff166312d42835846040518263ffffffff1660e01b8152600401613c959190617bea565b6020604051808303816000875af1158015613cb4573d6000803e3d6000fd5b505050506040513d601f19601f82011682018060405250810190613cd89190618b19565b613d17576040517f08c379a0000000000000000000000000000000000000000000000000000000008152600401613d0e906193ee565b60405180910390fd5b613d218583616b34565b613d60576040517f08c379a0000000000000000000000000000000000000000000000000000000008152600401613d579061886d565b60405180910390fd5b600960009054906101000a900473ffffffffffffffffffffffffffffffffffffffff1673ffffffffffffffffffffffffffffffffffffffff1663ae330771868686600760008873ffffffffffffffffffffffffffffffffffffffff1673ffffffffffffffffffffffffffffffffffffffff16815260200190815260200160002060009054906101000a90046fffffffffffffffffffffffffffffffff166040518563ffffffff1660e01b8152600401613e1c94939291906194a0565b600060405180830381600087803b158015613e3657600080fd5b505af1158015613e4a573d6000803e3d6000fd5b505050505050505050565b600080600360008667ffffffffffffffff1667ffffffffffffffff1681526020019081526020016000206000856fffffffffffffffffffffffffffffffff19166fffffffffffffffffffffffffffffffff1916815260200190815260200160002060008473ffffffffffffffffffffffffffffffffffffffff1673ffffffffffffffffffffffffffffffffffffffff16815260200190815260200160002060009054906101000a900473ffffffffffffffffffffffffffffffffffffffff169050600073ffffffffffffffffffffffffffffffffffffffff168173ffffffffffffffffffffffffffffffffffffffff1614613f85576040517f08c379a0000000000000000000000000000000000000000000000000000000008152600401613f7c90619557565b60405180910390fd5b6000600160008767ffffffffffffffff1667ffffffffffffffff1681526020019081526020016000206001015411613ff2576040517f08c379a0000000000000000000000000000000000000000000000000000000008152600401613fe9906195e9565b60405180910390fd5b6000600260008767ffffffffffffffff1667ffffffffffffffff1681526020019081526020016000206000866fffffffffffffffffffffffffffffffff19166fffffffffffffffffffffffffffffffff191681526020019081526020016000209050600081600101540361409b576040517f08c379a00000000000000000000000000000000000000000000000000000000081526004016140929061861e565b60405180910390fd5b6140a58685616b34565b6140e4576040517f08c379a00000000000000000000000000000000000000000000000000000000081526004016140db9061886d565b60405180910390fd5b6000600760008673ffffffffffffffffffffffffffffffffffffffff1673ffffffffffffffffffffffffffffffffffffffff16815260200190815260200160002060009054906101000a90046fffffffffffffffffffffffffffffffff16905060007f000000000000000000000000000000000000000000000000000000000000000073ffffffffffffffffffffffffffffffffffffffff1663ab8ebe6c600960009054906101000a900473ffffffffffffffffffffffffffffffffffffffff16306040518363ffffffff1660e01b81526004016141c3929190619609565b6020604051808303816000875af11580156141e2573d6000803e3d6000fd5b505050506040513d601f19601f8201168201806040525081019061420691906187ce565b90508073ffffffffffffffffffffffffffffffffffffffff1663336137c87f00000000000000000000000000000000000000000000000000000000000000007fffffffffffffffffffffffffffffffffffffffffffffffffffffffffffffffff6040518363ffffffff1660e01b8152600401614283929190619632565b600060405180830381600087803b15801561429d57600080fd5b505af11580156142b1573d6000803e3d6000fd5b505050507f000000000000000000000000000000000000000000000000000000000000000073ffffffffffffffffffffffffffffffffffffffff1663293536628989858a30600960009054906101000a900473ffffffffffffffffffffffffffffffffffffffff16888b6002018c6003018d60000160189054906101000a900460ff166040518b63ffffffff1660e01b81526004016143599a999897969594939291906196f4565b6020604051808303816000875af1158015614378573d6000803e3d6000fd5b505050506040513d601f19601f8201168201806040525081019061439c91906187ce565b935083600360008a67ffffffffffffffff1667ffffffffffffffff1681526020019081526020016000206000896fffffffffffffffffffffffffffffffff19166fffffffffffffffffffffffffffffffff1916815260200190815260200160002060008873ffffffffffffffffffffffffffffffffffffffff1673ffffffffffffffffffffffffffffffffffffffff16815260200190815260200160002060006101000a81548173ffffffffffffffffffffffffffffffffffffffff021916908373ffffffffffffffffffffffffffffffffffffffff16021790555060016000808673ffffffffffffffffffffffffffffffffffffffff1673ffffffffffffffffffffffffffffffffffffffff1681526020019081526020016000208190555082600401849080600181540180825580915050600190039060005260206000200160009091909190916101000a81548173ffffffffffffffffffffffffffffffffffffffff021916908373ffffffffffffffffffffffffffffffffffffffff1602179055507f000000000000000000000000000000000000000000000000000000000000000073ffffffffffffffffffffffffffffffffffffffff1663e1f21c6785307fffffffffffffffffffffffffffffffffffffffffffffffffffffffffffffffff6040518463ffffffff1660e01b815260040161459e93929190618ab6565b600060405180830381600087803b1580156145b857600080fd5b505af11580156145cc573d6000803e3d6000fd5b505050508373ffffffffffffffffffffffffffffffffffffffff16876fffffffffffffffffffffffffffffffff19168967ffffffffffffffff167f4637c626771a744eb3c959cca563238ed6bd6d5e76200c72968a1558a552e37e60405160405180910390a4839450505050509392505050565b60076020528060005260406000206000915054906101000a90046fffffffffffffffffffffffffffffffff1681565b60016020528060005260406000206000915090508060000160009054906101000a900467ffffffffffffffff16908060010154908060020160009054906101000a900460ff16905083565b6000600560008473ffffffffffffffffffffffffffffffffffffffff1673ffffffffffffffffffffffffffffffffffffffff16815260200190815260200160002060008373ffffffffffffffffffffffffffffffffffffffff1673ffffffffffffffffffffffffffffffffffffffff16815260200190815260200160002060010160009054906101000a90046fffffffffffffffffffffffffffffffff166fffffffffffffffffffffffffffffffff16905092915050565b7f000000000000000000000000000000000000000000000000000000000000000081565b6000600560008473ffffffffffffffffffffffffffffffffffffffff1673ffffffffffffffffffffffffffffffffffffffff16815260200190815260200160002060008373ffffffffffffffffffffffffffffffffffffffff1673ffffffffffffffffffffffffffffffffffffffff16815260200190815260200160002060010160109054906101000a90046fffffffffffffffffffffffffffffffff166fffffffffffffffffffffffffffffffff16905092915050565b600080600560008573ffffffffffffffffffffffffffffffffffffffff1673ffffffffffffffffffffffffffffffffffffffff16815260200190815260200160002060008473ffffffffffffffffffffffffffffffffffffffff1673ffffffffffffffffffffffffffffffffffffffff168152602001908152602001600020905060008160010160109054906101000a90046fffffffffffffffffffffffffffffffff166fffffffffffffffffffffffffffffffff1603614913576000915050614963565b8060010160109054906101000a90046fffffffffffffffffffffffffffffffff168160010160009054906101000a90046fffffffffffffffffffffffffffffffff1661495f9190618f07565b9150505b92915050565b600960009054906101000a900473ffffffffffffffffffffffffffffffffffffffff1673ffffffffffffffffffffffffffffffffffffffff163373ffffffffffffffffffffffffffffffffffffffff16146149f9576040517f08c379a00000000000000000000000000000000000000000000000000000000081526004016149f090618520565b60405180910390fd5b6000816fffffffffffffffffffffffffffffffff1603614a4e576040517f08c379a0000000000000000000000000000000000000000000000000000000008152600401614a45906197ea565b60405180910390fd5b600060066000856fffffffffffffffffffffffffffffffff166fffffffffffffffffffffffffffffffff16815260200190815260200160002060009054906101000a900473ffffffffffffffffffffffffffffffffffffffff1690506000600360008967ffffffffffffffff1667ffffffffffffffff1681526020019081526020016000206000886fffffffffffffffffffffffffffffffff19166fffffffffffffffffffffffffffffffff1916815260200190815260200160002060008373ffffffffffffffffffffffffffffffffffffffff1673ffffffffffffffffffffffffffffffffffffffff16815260200190815260200160002060009054906101000a900473ffffffffffffffffffffffffffffffffffffffff169050600073ffffffffffffffffffffffffffffffffffffffff168173ffffffffffffffffffffffffffffffffffffffff1603614bd9576040517f08c379a0000000000000000000000000000000000000000000000000000000008152600401614bd09061861e565b60405180910390fd5b6000600560008873ffffffffffffffffffffffffffffffffffffffff1673ffffffffffffffffffffffffffffffffffffffff16815260200190815260200160002060008373ffffffffffffffffffffffffffffffffffffffff1673ffffffffffffffffffffffffffffffffffffffff1681526020019081526020016000209050848160010160009054906101000a90046fffffffffffffffffffffffffffffffff16614c85919061866d565b8160010160006101000a8154816fffffffffffffffffffffffffffffffff02191690836fffffffffffffffffffffffffffffffff160217905550838160010160109054906101000a90046fffffffffffffffffffffffffffffffff16614ceb919061866d565b8160010160106101000a8154816fffffffffffffffffffffffffffffffff02191690836fffffffffffffffffffffffffffffffff1602179055508173ffffffffffffffffffffffffffffffffffffffff16639dc29fac7f0000000000000000000000000000000000000000000000000000000000000000866040518363ffffffff1660e01b8152600401614d809291906186e2565b600060405180830381600087803b158015614d9a57600080fd5b505af1158015614dae573d6000803e3d6000fd5b50505050505050505050505050565b60016000803373ffffffffffffffffffffffffffffffffffffffff1673ffffffffffffffffffffffffffffffffffffffff1681526020019081526020016000205414614e3e576040517f08c379a0000000000000000000000000000000000000000000000000000000008152600401614e3590618757565b60405180910390fd5b60008060008373ffffffffffffffffffffffffffffffffffffffff1673ffffffffffffffffffffffffffffffffffffffff168152602001908152602001600020819055508073ffffffffffffffffffffffffffffffffffffffff167f184450df2e323acec0ed3b5c7531b81f9b4cdef7914dfd4c0a4317416bb5251b60405160405180910390a250565b600960009054906101000a900473ffffffffffffffffffffffffffffffffffffffff1673ffffffffffffffffffffffffffffffffffffffff163373ffffffffffffffffffffffffffffffffffffffff1614614f58576040517f08c379a0000000000000000000000000000000000000000000000000000000008152600401614f4f90618520565b60405180910390fd5b600060066000856fffffffffffffffffffffffffffffffff166fffffffffffffffffffffffffffffffff16815260200190815260200160002060009054906101000a900473ffffffffffffffffffffffffffffffffffffffff169050600073ffffffffffffffffffffffffffffffffffffffff168173ffffffffffffffffffffffffffffffffffffffff1603615023576040517f08c379a000000000000000000000000000000000000000000000000000000000815260040161501a90618c9d565b60405180910390fd5b7f000000000000000000000000000000000000000000000000000000000000000073ffffffffffffffffffffffffffffffffffffffff1663e1f21c678230856040518463ffffffff1660e01b815260040161508093929190618d4f565b600060405180830381600087803b15801561509a57600080fd5b505af11580156150ae573d6000803e3d6000fd5b505050508073ffffffffffffffffffffffffffffffffffffffff166323b872dd7f000000000000000000000000000000000000000000000000000000000000000085856040518463ffffffff1660e01b815260040161510f93929190618d4f565b6020604051808303816000875af115801561512e573d6000803e3d6000fd5b505050506040513d601f19601f820116820180604052508101906151529190618b19565b615191576040517f08c379a000000000000000000000000000000000000000000000000000000000815260040161518890618df8565b60405180910390fd5b50505050565b60046020528060005260406000206000915090505481565b600960009054906101000a900473ffffffffffffffffffffffffffffffffffffffff1673ffffffffffffffffffffffffffffffffffffffff163373ffffffffffffffffffffffffffffffffffffffff161461523f576040517f08c379a000000000000000000000000000000000000000000000000000000000815260040161523690618520565b60405180910390fd5b6000600260008567ffffffffffffffff1667ffffffffffffffff1681526020019081526020016000206000846fffffffffffffffffffffffffffffffff19166fffffffffffffffffffffffffffffffff19168152602001908152602001600020905060008160010154116152e8576040517f08c379a00000000000000000000000000000000000000000000000000000000081526004016152df9061987c565b60405180910390fd5b60005b816004018054905081101561542d5760008260040182815481106153125761531161989c565b5b9060005260206000200160009054906101000a900473ffffffffffffffffffffffffffffffffffffffff169050600073ffffffffffffffffffffffffffffffffffffffff168173ffffffffffffffffffffffffffffffffffffffff16036153ae576040517f08c379a00000000000000000000000000000000000000000000000000000000081526004016153a59061993d565b60405180910390fd5b8073ffffffffffffffffffffffffffffffffffffffff1663970982bf856040518263ffffffff1660e01b81526004016153e79190617b93565b600060405180830381600087803b15801561540157600080fd5b505af1158015615415573d6000803e3d6000fd5b505050505080806154259061995d565b9150506152eb565b5050505050565b600960009054906101000a900473ffffffffffffffffffffffffffffffffffffffff1673ffffffffffffffffffffffffffffffffffffffff163373ffffffffffffffffffffffffffffffffffffffff16146154c4576040517f08c379a00000000000000000000000000000000000000000000000000000000081526004016154bb90618520565b60405180910390fd5b6000600160008867ffffffffffffffff1667ffffffffffffffff16815260200190815260200160002090506000816001015411615536576040517f08c379a000000000000000000000000000000000000000000000000000000000815260040161552d90618eb8565b60405180910390fd5b6000600260008967ffffffffffffffff1667ffffffffffffffff1681526020019081526020016000206000886fffffffffffffffffffffffffffffffff19166fffffffffffffffffffffffffffffffff19168152602001908152602001600020905060008160010154146155df576040517f08c379a00000000000000000000000000000000000000000000000000000000081526004016155d690619a17565b60405180910390fd5b878160000160006101000a81548167ffffffffffffffff021916908367ffffffffffffffff160217905550868160000160086101000a8154816fffffffffffffffffffffffffffffffff021916908360801c0217905550838160000160186101000a81548160ff021916908360ff160217905550858160020190816156649190619bc4565b50848160030190816156769190619bc4565b50428160010181905550866fffffffffffffffffffffffffffffffff19168867ffffffffffffffff167f70850d6dde9b72644a9f768cfc55371d923e21f8f7048b9e4096ca408df07d8b60405160405180910390a35050505050505050565b60006020528060005260406000206000915090505481565b600060016000803373ffffffffffffffffffffffffffffffffffffffff1673ffffffffffffffffffffffffffffffffffffffff1681526020019081526020016000205414615770576040517f08c379a000000000000000000000000000000000000000000000000000000000815260040161576790618757565b60405180910390fd5b6000339050600061578084616b0b565b90506000829050600560008773ffffffffffffffffffffffffffffffffffffffff1673ffffffffffffffffffffffffffffffffffffffff16815260200190815260200160002060008473ffffffffffffffffffffffffffffffffffffffff1673ffffffffffffffffffffffffffffffffffffffff16815260200190815260200160002060000160009054906101000a90046fffffffffffffffffffffffffffffffff166fffffffffffffffffffffffffffffffff16826fffffffffffffffffffffffffffffffff161115615889576040517f08c379a000000000000000000000000000000000000000000000000000000000815260040161588090619d08565b60405180910390fd5b600061589587856128d6565b90506000816fffffffffffffffffffffffffffffffff16116158ec576040517f08c379a00000000000000000000000000000000000000000000000000000000081526004016158e390619d9a565b60405180910390fd5b600081846158fa9190618f07565b905061590888868684616e9e565b8273ffffffffffffffffffffffffffffffffffffffff166312d42835896040518263ffffffff1660e01b81526004016159419190617bea565b6020604051808303816000875af1158015615960573d6000803e3d6000fd5b505050506040513d601f19601f820116820180604052508101906159849190618b19565b6159c3576040517f08c379a00000000000000000000000000000000000000000000000000000000081526004016159ba90619e2c565b60405180910390fd5b8273ffffffffffffffffffffffffffffffffffffffff166323b872dd7f00000000000000000000000000000000000000000000000000000000000000008a846040518463ffffffff1660e01b8152600401615a2093929190618d4f565b6020604051808303816000875af1158015615a3f573d6000803e3d6000fd5b505050506040513d601f19601f82011682018060405250810190615a639190618b19565b615aa2576040517f08c379a0000000000000000000000000000000000000000000000000000000008152600401615a9990619480565b60405180910390fd5b836fffffffffffffffffffffffffffffffff168873ffffffffffffffffffffffffffffffffffffffff168673ffffffffffffffffffffffffffffffffffffffff167f6b9ee6d1eaa114245ec1cb03aff908d428e7455542b3e39b7e771e68b04a73fe60405160405180910390a4806fffffffffffffffffffffffffffffffff169550505050505092915050565b60086020528160005260406000206020528060005260406000206000915091509054906101000a900460ff1681565b600960009054906101000a900473ffffffffffffffffffffffffffffffffffffffff1673ffffffffffffffffffffffffffffffffffffffff163373ffffffffffffffffffffffffffffffffffffffff1614615bee576040517f08c379a0000000000000000000000000000000000000000000000000000000008152600401615be590618520565b60405180910390fd5b6000600260008667ffffffffffffffff1667ffffffffffffffff1681526020019081526020016000206000856fffffffffffffffffffffffffffffffff19166fffffffffffffffffffffffffffffffff1916815260200190815260200160002090506000816001015411615c97576040517f08c379a0000000000000000000000000000000000000000000000000000000008152600401615c8e9061987c565b60405180910390fd5b60005b8160040180549050811015615e5a576000826004018281548110615cc157615cc061989c565b5b9060005260206000200160009054906101000a900473ffffffffffffffffffffffffffffffffffffffff169050600073ffffffffffffffffffffffffffffffffffffffff168173ffffffffffffffffffffffffffffffffffffffff1603615d5d576040517f08c379a0000000000000000000000000000000000000000000000000000000008152600401615d549061993d565b60405180910390fd5b600081905060008173ffffffffffffffffffffffffffffffffffffffff16638ed1ef356040518163ffffffff1660e01b81526004016020604051808303816000875af1158015615db1573d6000803e3d6000fd5b505050506040513d601f19601f82011682018060405250810190615dd591906187ce565b90508073ffffffffffffffffffffffffffffffffffffffff1663336137c888886040518363ffffffff1660e01b8152600401615e12929190619e7d565b600060405180830381600087803b158015615e2c57600080fd5b505af1158015615e40573d6000803e3d6000fd5b505050505050508080615e529061995d565b915050615c9a565b505050505050565b60016000803373ffffffffffffffffffffffffffffffffffffffff1673ffffffffffffffffffffffffffffffffffffffff1681526020019081526020016000205414615ee3576040517f08c379a0000000000000000000000000000000000000000000000000000000008152600401615eda90618757565b60405180910390fd5b7f67617465776179000000000000000000000000000000000000000000000000008203615f505780600960006101000a81548173ffffffffffffffffffffffffffffffffffffffff021916908373ffffffffffffffffffffffffffffffffffffffff160217905550615f8b565b6040517f08c379a0000000000000000000000000000000000000000000000000000000008152600401615f8290619f18565b60405180910390fd5b817f8fef588b5fc1afbf5b2f06c1a435d513f208da2e6704c3d8f0e0ec91167066ba82604051615fbb9190617bea565b60405180910390a25050565b6060600260008467ffffffffffffffff1667ffffffffffffffff1681526020019081526020016000206000836fffffffffffffffffffffffffffffffff19166fffffffffffffffffffffffffffffffff191681526020019081526020016000206004018054806020026020016040519081016040528092919081815260200182805480156160aa57602002820191906000526020600020905b8160009054906101000a900473ffffffffffffffffffffffffffffffffffffffff1673ffffffffffffffffffffffffffffffffffffffff1681526020019060010190808311616060575b5050505050905092915050565b7f000000000000000000000000000000000000000000000000000000000000000081565b600060016000803373ffffffffffffffffffffffffffffffffffffffff1673ffffffffffffffffffffffffffffffffffffffff168152602001908152602001600020541461615e576040517f08c379a000000000000000000000000000000000000000000000000000000000815260040161615590618757565b60405180910390fd5b6000339050600061616e86616b0b565b9050600560008573ffffffffffffffffffffffffffffffffffffffff1673ffffffffffffffffffffffffffffffffffffffff16815260200190815260200160002060008373ffffffffffffffffffffffffffffffffffffffff1673ffffffffffffffffffffffffffffffffffffffff16815260200190815260200160002060010160009054906101000a90046fffffffffffffffffffffffffffffffff166fffffffffffffffffffffffffffffffff16816fffffffffffffffffffffffffffffffff161115801561625157506000816fffffffffffffffffffffffffffffffff16115b616290576040517f08c379a000000000000000000000000000000000000000000000000000000000815260040161628790619faa565b60405180910390fd5b61629e60008284888861737c565b816fffffffffffffffffffffffffffffffff169150508093505050509392505050565b7f000000000000000000000000000000000000000000000000000000000000000081565b60016000803373ffffffffffffffffffffffffffffffffffffffff1673ffffffffffffffffffffffffffffffffffffffff1681526020019081526020016000205414616366576040517f08c379a000000000000000000000000000000000000000000000000000000000815260040161635d90618757565b60405180910390fd5b60003390508073ffffffffffffffffffffffffffffffffffffffff166312d42835846040518263ffffffff1660e01b81526004016163a49190617bea565b6020604051808303816000875af11580156163c3573d6000803e3d6000fd5b505050506040513d601f19601f820116820180604052508101906163e79190618b19565b616426576040517f08c379a000000000000000000000000000000000000000000000000000000000815260040161641d906193ee565b60405180910390fd5b6164308583616b34565b61646f576040517f08c379a00000000000000000000000000000000000000000000000000000000081526004016164669061886d565b60405180910390fd5b600960009054906101000a900473ffffffffffffffffffffffffffffffffffffffff1673ffffffffffffffffffffffffffffffffffffffff16635b66baa2868686600760008873ffffffffffffffffffffffffffffffffffffffff1673ffffffffffffffffffffffffffffffffffffffff16815260200190815260200160002060009054906101000a90046fffffffffffffffffffffffffffffffff166040518563ffffffff1660e01b815260040161652b94939291906194a0565b600060405180830381600087803b15801561654557600080fd5b505af1158015616559573d6000803e3d6000fd5b505050505050505050565b6000600560008473ffffffffffffffffffffffffffffffffffffffff1673ffffffffffffffffffffffffffffffffffffffff16815260200190815260200160002060008373ffffffffffffffffffffffffffffffffffffffff1673ffffffffffffffffffffffffffffffffffffffff16815260200190815260200160002060000160109054906101000a90046fffffffffffffffffffffffffffffffff166fffffffffffffffffffffffffffffffff16905092915050565b6005602052816000526040600020602052806000526040600020600091509150508060000160009054906101000a90046fffffffffffffffffffffffffffffffff16908060000160109054906101000a90046fffffffffffffffffffffffffffffffff16908060010160009054906101000a90046fffffffffffffffffffffffffffffffff16908060010160109054906101000a90046fffffffffffffffffffffffffffffffff16905084565b600060016000803373ffffffffffffffffffffffffffffffffffffffff1673ffffffffffffffffffffffffffffffffffffffff168152602001908152602001600020541461674c576040517f08c379a000000000000000000000000000000000000000000000000000000000815260040161674390618757565b60405180910390fd5b6000339050600061675c84616b0b565b90506000829050600560008773ffffffffffffffffffffffffffffffffffffffff1673ffffffffffffffffffffffffffffffffffffffff16815260200190815260200160002060008473ffffffffffffffffffffffffffffffffffffffff1673ffffffffffffffffffffffffffffffffffffffff16815260200190815260200160002060000160109054906101000a90046fffffffffffffffffffffffffffffffff166fffffffffffffffffffffffffffffffff16826fffffffffffffffffffffffffffffffff161115616865576040517f08c379a000000000000000000000000000000000000000000000000000000000815260040161685c9061a03c565b60405180910390fd5b600061687187856128d6565b90506000816fffffffffffffffffffffffffffffffff16116168c8576040517f08c379a00000000000000000000000000000000000000000000000000000000081526004016168bf9061a0ce565b60405180910390fd5b600081846168d69190618961565b90506168e488868387616e9e565b8273ffffffffffffffffffffffffffffffffffffffff166312d42835896040518263ffffffff1660e01b815260040161691d9190617bea565b6020604051808303816000875af115801561693c573d6000803e3d6000fd5b505050506040513d601f19601f820116820180604052508101906169609190618b19565b61699f576040517f08c379a000000000000000000000000000000000000000000000000000000000815260040161699690619e2c565b60405180910390fd5b8273ffffffffffffffffffffffffffffffffffffffff166323b872dd7f00000000000000000000000000000000000000000000000000000000000000008a876040518463ffffffff1660e01b81526004016169fc93929190618d4f565b6020604051808303816000875af1158015616a1b573d6000803e3d6000fd5b505050506040513d601f19601f82011682018060405250810190616a3f9190618b19565b616a7e576040517f08c379a0000000000000000000000000000000000000000000000000000000008152600401616a7590619480565b60405180910390fd5b806fffffffffffffffffffffffffffffffff168873ffffffffffffffffffffffffffffffffffffffff168673ffffffffffffffffffffffffffffffffffffffff167f6b9ee6d1eaa114245ec1cb03aff908d428e7455542b3e39b7e771e68b04a73fe60405160405180910390a4806fffffffffffffffffffffffffffffffff169550505050505092915050565b60006fffffffffffffffffffffffffffffffff8016821115616b2c57600080fd5b819050919050565b600080600760008473ffffffffffffffffffffffffffffffffffffffff1673ffffffffffffffffffffffffffffffffffffffff16815260200190815260200160002060009054906101000a90046fffffffffffffffffffffffffffffffff1690506000816fffffffffffffffffffffffffffffffff1603616bea576040517f08c379a0000000000000000000000000000000000000000000000000000000008152600401616be190618c9d565b60405180910390fd5b600860008567ffffffffffffffff1667ffffffffffffffff16815260200190815260200160002060008473ffffffffffffffffffffffffffffffffffffffff1673ffffffffffffffffffffffffffffffffffffffff16815260200190815260200160002060009054906101000a900460ff16616c9b576040517f08c379a0000000000000000000000000000000000000000000000000000000008152600401616c92906190a8565b60405180910390fd5b600191505092915050565b600080600360008767ffffffffffffffff1667ffffffffffffffff1681526020019081526020016000206000866fffffffffffffffffffffffffffffffff19166fffffffffffffffffffffffffffffffff1916815260200190815260200160002060008573ffffffffffffffffffffffffffffffffffffffff1673ffffffffffffffffffffffffffffffffffffffff16815260200190815260200160002060009054906101000a900473ffffffffffffffffffffffffffffffffffffffff169050600073ffffffffffffffffffffffffffffffffffffffff168173ffffffffffffffffffffffffffffffffffffffff1603616dd6576040517f08c379a0000000000000000000000000000000000000000000000000000000008152600401616dcd9061a160565b60405180910390fd5b8073ffffffffffffffffffffffffffffffffffffffff166312d42835846040518263ffffffff1660e01b8152600401616e0f9190617bea565b6020604051808303816000875af1158015616e2e573d6000803e3d6000fd5b505050506040513d601f19601f82011682018060405250810190616e529190618b19565b616e91576040517f08c379a0000000000000000000000000000000000000000000000000000000008152600401616e88906193ee565b60405180910390fd5b6001915050949350505050565b6000600560008673ffffffffffffffffffffffffffffffffffffffff1673ffffffffffffffffffffffffffffffffffffffff16815260200190815260200160002060008573ffffffffffffffffffffffffffffffffffffffff1673ffffffffffffffffffffffffffffffffffffffff1681526020019081526020016000209050826fffffffffffffffffffffffffffffffff168160000160009054906101000a90046fffffffffffffffffffffffffffffffff166fffffffffffffffffffffffffffffffff161015616fab5760008160000160006101000a8154816fffffffffffffffffffffffffffffffff02191690836fffffffffffffffffffffffffffffffff160217905550617012565b828160000160009054906101000a90046fffffffffffffffffffffffffffffffff16616fd7919061899e565b8160000160006101000a8154816fffffffffffffffffffffffffffffffff02191690836fffffffffffffffffffffffffffffffff1602179055505b816fffffffffffffffffffffffffffffffff168160000160109054906101000a90046fffffffffffffffffffffffffffffffff166fffffffffffffffffffffffffffffffff16101561709f5760008160000160106101000a8154816fffffffffffffffffffffffffffffffff02191690836fffffffffffffffffffffffffffffffff160217905550617106565b818160000160109054906101000a90046fffffffffffffffffffffffffffffffff166170cb919061899e565b8160000160106101000a8154816fffffffffffffffffffffffffffffffff02191690836fffffffffffffffffffffffffffffffff1602179055505b5050505050565b6000600560008673ffffffffffffffffffffffffffffffffffffffff1673ffffffffffffffffffffffffffffffffffffffff16815260200190815260200160002060008573ffffffffffffffffffffffffffffffffffffffff1673ffffffffffffffffffffffffffffffffffffffff1681526020019081526020016000209050826fffffffffffffffffffffffffffffffff168160010160009054906101000a90046fffffffffffffffffffffffffffffffff166fffffffffffffffffffffffffffffffff16101561721a5760008160010160006101000a8154816fffffffffffffffffffffffffffffffff02191690836fffffffffffffffffffffffffffffffff160217905550617281565b828160010160009054906101000a90046fffffffffffffffffffffffffffffffff16617246919061899e565b8160010160006101000a8154816fffffffffffffffffffffffffffffffff02191690836fffffffffffffffffffffffffffffffff1602179055505b816fffffffffffffffffffffffffffffffff168160010160109054906101000a90046fffffffffffffffffffffffffffffffff166fffffffffffffffffffffffffffffffff16101561730e5760008160010160106101000a8154816fffffffffffffffffffffffffffffffff02191690836fffffffffffffffffffffffffffffffff160217905550617375565b818160010160109054906101000a90046fffffffffffffffffffffffffffffffff1661733a919061899e565b8160010160106101000a8154816fffffffffffffffffffffffffffffffff02191690836fffffffffffffffffffffffffffffffff1602179055505b5050505050565b60008060008590506000617390858861484e565b90506000816fffffffffffffffffffffffffffffffff16116173e7576040517f08c379a00000000000000000000000000000000000000000000000000000000081526004016173de9061a1f2565b60405180910390fd5b6000886fffffffffffffffffffffffffffffffff160361741457808961740d9190618961565b9250617423565b80886174209190618f07565b93505b61742f8588858761710d565b8173ffffffffffffffffffffffffffffffffffffffff166338d52e0f6040518163ffffffff1660e01b81526004016020604051808303816000875af115801561747c573d6000803e3d6000fd5b505050506040513d601f19601f820116820180604052508101906174a091906187ce565b73ffffffffffffffffffffffffffffffffffffffff166323b872dd7f000000000000000000000000000000000000000000000000000000000000000088866040518463ffffffff1660e01b81526004016174fc93929190618d4f565b6020604051808303816000875af115801561751b573d6000803e3d6000fd5b505050506040513d601f19601f8201168201806040525081019061753f9190618b19565b61757e576040517f08c379a00000000000000000000000000000000000000000000000000000000081526004016175759061a284565b60405180910390fd5b836fffffffffffffffffffffffffffffffff168573ffffffffffffffffffffffffffffffffffffffff168873ffffffffffffffffffffffffffffffffffffffff167fe7a1bcf11322f0e0772453d7fcee918aa8afcd7c428e8b3fe72a721cc0745a8460405160405180910390a450509550959350505050565b6000604051905090565b600080fd5b600080fd5b600067ffffffffffffffff82169050919050565b6176288161760b565b811461763357600080fd5b50565b6000813590506176458161761f565b92915050565b60007fffffffffffffffffffffffffffffffff0000000000000000000000000000000082169050919050565b6176808161764b565b811461768b57600080fd5b50565b60008135905061769d81617677565b92915050565b600080604083850312156176ba576176b9617601565b5b60006176c885828601617636565b92505060206176d98582860161768e565b9150509250929050565b6176ec8161760b565b82525050565b6176fb8161764b565b82525050565b600060ff82169050919050565b61771781617701565b82525050565b6000819050919050565b6177308161771d565b82525050565b600081519050919050565b600082825260208201905092915050565b60005b83811015617770578082015181840152602081019050617755565b60008484015250505050565b6000601f19601f8301169050919050565b600061779882617736565b6177a28185617741565b93506177b2818560208601617752565b6177bb8161777c565b840191505092915050565b600060c0820190506177db60008301896176e3565b6177e860208301886176f2565b6177f5604083018761770e565b6178026060830186617727565b8181036080830152617814818561778d565b905081810360a0830152617828818461778d565b9050979650505050505050565b600073ffffffffffffffffffffffffffffffffffffffff82169050919050565b600061786082617835565b9050919050565b61787081617855565b811461787b57600080fd5b50565b60008135905061788d81617867565b92915050565b60006fffffffffffffffffffffffffffffffff82169050919050565b6178b881617893565b81146178c357600080fd5b50565b6000813590506178d5816178af565b92915050565b60008060008060008060c087890312156178f8576178f7617601565b5b600061790689828a01617636565b965050602061791789828a0161768e565b955050604061792889828a0161787e565b945050606061793989828a016178c6565b935050608061794a89828a016178c6565b92505060a061795b89828a016178c6565b9150509295509295509295565b6179718161771d565b811461797c57600080fd5b50565b60008135905061798e81617968565b92915050565b600080604083850312156179ab576179aa617601565b5b60006179b98582860161797f565b92505060206179ca8582860161787e565b9150509250929050565b6000819050919050565b60006179f96179f46179ef84617835565b6179d4565b617835565b9050919050565b6000617a0b826179de565b9050919050565b6000617a1d82617a00565b9050919050565b617a2d81617a12565b82525050565b6000602082019050617a486000830184617a24565b92915050565b6000819050919050565b617a6181617a4e565b8114617a6c57600080fd5b50565b600081359050617a7e81617a58565b92915050565b600080600060608486031215617a9d57617a9c617601565b5b6000617aab8682870161787e565b9350506020617abc86828701617a6f565b9250506040617acd868287016178c6565b9150509250925092565b60008060408385031215617aee57617aed617601565b5b6000617afc85828601617636565b9250506020617b0d858286016178c6565b9150509250929050565b600060208284031215617b2d57617b2c617601565b5b6000617b3b84828501617636565b91505092915050565b60008060408385031215617b5b57617b5a617601565b5b6000617b698582860161787e565b9250506020617b7a8582860161787e565b9150509250929050565b617b8d81617893565b82525050565b6000602082019050617ba86000830184617b84565b92915050565b600060208284031215617bc457617bc3617601565b5b6000617bd2848285016178c6565b91505092915050565b617be481617855565b82525050565b6000602082019050617bff6000830184617bdb565b92915050565b600080600080600060a08688031215617c2157617c20617601565b5b6000617c2f88828901617636565b9550506020617c408882890161768e565b9450506040617c518882890161787e565b9350506060617c62888289016178c6565b9250506080617c73888289016178c6565b9150509295509295909350565b600080600060608486031215617c9957617c98617601565b5b6000617ca78682870161797f565b9350506020617cb88682870161787e565b9250506040617cc98682870161787e565b9150509250925092565b6000602082019050617ce86000830184617727565b92915050565b600080600060608486031215617d0757617d06617601565b5b6000617d1586828701617636565b9350506020617d268682870161768e565b9250506040617d378682870161787e565b9150509250925092565b600060208284031215617d5757617d56617601565b5b6000617d658482850161787e565b91505092915050565b60008060408385031215617d8557617d84617601565b5b6000617d93858286016178c6565b9250506020617da48582860161787e565b9150509250929050565b60008060008060808587031215617dc857617dc7617601565b5b6000617dd687828801617636565b9450506020617de78782880161768e565b9350506040617df88782880161787e565b9250506060617e098782880161787e565b91505092959194509250565b60008115159050919050565b617e2a81617e15565b82525050565b6000606082019050617e4560008301866176e3565b617e526020830185617727565b617e5f6040830184617e21565b949350505050565b6000617e7282617a00565b9050919050565b617e8281617e67565b82525050565b6000602082019050617e9d6000830184617e79565b92915050565b600080600060608486031215617ebc57617ebb617601565b5b6000617eca868287016178c6565b9350506020617edb8682870161787e565b9250506040617eec868287016178c6565b9150509250925092565b600080600060608486031215617f0f57617f0e617601565b5b6000617f1d86828701617636565b9350506020617f2e8682870161768e565b9250506040617f3f868287016178c6565b9150509250925092565b600080fd5b600080fd5b7f4e487b7100000000000000000000000000000000000000000000000000000000600052604160045260246000fd5b617f8b8261777c565b810181811067ffffffffffffffff82111715617faa57617fa9617f53565b5b80604052505050565b6000617fbd6175f7565b9050617fc98282617f82565b919050565b600067ffffffffffffffff821115617fe957617fe8617f53565b5b617ff28261777c565b9050602081019050919050565b82818337600083830152505050565b600061802161801c84617fce565b617fb3565b90508281526020810184848401111561803d5761803c617f4e565b5b618048848285617fff565b509392505050565b600082601f83011261806557618064617f49565b5b813561807584826020860161800e565b91505092915050565b61808781617701565b811461809257600080fd5b50565b6000813590506180a48161807e565b92915050565b60008060008060008060c087890312156180c7576180c6617601565b5b60006180d589828a01617636565b96505060206180e689828a0161768e565b955050604087013567ffffffffffffffff81111561810757618106617606565b5b61811389828a01618050565b945050606087013567ffffffffffffffff81111561813457618133617606565b5b61814089828a01618050565b935050608061815189828a01618095565b92505060a061816289828a016178c6565b9150509295509295509295565b6000806040838503121561818657618185617601565b5b60006181948582860161787e565b92505060206181a58582860161797f565b9150509250929050565b600080604083850312156181c6576181c5617601565b5b60006181d485828601617636565b92505060206181e58582860161787e565b9150509250929050565b60006020820190506182046000830184617e21565b92915050565b6000806000806080858703121561822457618223617601565b5b600061823287828801617636565b94505060206182438782880161768e565b93505060406182548782880161787e565b925050606061826587828801617636565b91505092959194509250565b6000806040838503121561828857618287617601565b5b600061829685828601617a6f565b92505060206182a78582860161787e565b9150509250929050565b600081519050919050565b600082825260208201905092915050565b6000819050602082019050919050565b6182e681617855565b82525050565b60006182f883836182dd565b60208301905092915050565b6000602082019050919050565b600061831c826182b1565b61832681856182bc565b9350618331836182cd565b8060005b8381101561836257815161834988826182ec565b975061835483618304565b925050600181019050618335565b5085935050505092915050565b600060208201905081810360008301526183898184618311565b905092915050565b600061839c82617a00565b9050919050565b6183ac81618391565b82525050565b60006020820190506183c760008301846183a3565b92915050565b60006183d882617a00565b9050919050565b6183e8816183cd565b82525050565b600060208201905061840360008301846183df565b92915050565b600060808201905061841e6000830187617b84565b61842b6020830186617b84565b6184386040830185617b84565b6184456060830184617b84565b95945050505050565b7f4e487b7100000000000000000000000000000000000000000000000000000000600052602260045260246000fd5b6000600282049050600182168061849557607f821691505b6020821081036184a8576184a761844e565b5b50919050565b7f496e766573746d656e744d616e616765722f6e6f742d7468652d67617465776160008201527f7900000000000000000000000000000000000000000000000000000000000000602082015250565b600061850a602183617741565b9150618515826184ae565b604082019050919050565b60006020820190508181036000830152618539816184fd565b9050919050565b7f496e766573746d656e744d616e616765722f7a65726f2d696e76657374000000600082015250565b6000618576601d83617741565b915061858182618540565b602082019050919050565b600060208201905081810360008301526185a581618569565b9050919050565b7f496e766573746d656e744d616e616765722f7472616e6368652d646f65732d6e60008201527f6f742d6578697374000000000000000000000000000000000000000000000000602082015250565b6000618608602883617741565b9150618613826185ac565b604082019050919050565b60006020820190508181036000830152618637816185fb565b9050919050565b7f4e487b7100000000000000000000000000000000000000000000000000000000600052601160045260246000fd5b600061867882617893565b915061868383617893565b925082820190506fffffffffffffffffffffffffffffffff8111156186ab576186aa61863e565b5b92915050565b60006186cc6186c76186c284617893565b6179d4565b61771d565b9050919050565b6186dc816186b1565b82525050565b60006040820190506186f76000830185617bdb565b61870460208301846186d3565b9392505050565b7f6e6f742d617574686f72697a6564000000000000000000000000000000000000600082015250565b6000618741600e83617741565b915061874c8261870b565b602082019050919050565b6000602082019050818103600083015261877081618734565b9050919050565b6000815190506187868161761f565b92915050565b6000602082840312156187a2576187a1617601565b5b60006187b084828501618777565b91505092915050565b6000815190506187c881617867565b92915050565b6000602082840312156187e4576187e3617601565b5b60006187f2848285016187b9565b91505092915050565b7f496e766573746d656e744d616e616765722f63757272656e63792d6e6f742d7360008201527f7570706f72746564000000000000000000000000000000000000000000000000602082015250565b6000618857602883617741565b9150618862826187fb565b604082019050919050565b600060208201905081810360008301526188868161884a565b9050919050565b60008151905061889c81617677565b92915050565b6000602082840312156188b8576188b7617601565b5b60006188c68482850161888d565b91505092915050565b7f496e766573746d656e744d616e616765722f7472616e6368652d746f6b656e7360008201527f2d6e6f742d737570706f72746564000000000000000000000000000000000000602082015250565b600061892b602e83617741565b9150618936826188cf565b604082019050919050565b6000602082019050818103600083015261895a8161891e565b9050919050565b600061896c82617893565b915061897783617893565b925082820261898581617893565b91508082146189975761899661863e565b5b5092915050565b60006189a982617893565b91506189b483617893565b925082820390506fffffffffffffffffffffffffffffffff8111156189dc576189db61863e565b5b92915050565b6000815190506189f181617968565b92915050565b600060208284031215618a0d57618a0c617601565b5b6000618a1b848285016189e2565b91505092915050565b7f496e766573746d656e744d616e616765722f696e73756666696369656e742d7460008201527f72616e6368652d746f6b656e2d62616c616e6365000000000000000000000000602082015250565b6000618a80603483617741565b9150618a8b82618a24565b604082019050919050565b60006020820190508181036000830152618aaf81618a73565b9050919050565b6000606082019050618acb6000830186617bdb565b618ad86020830185617bdb565b618ae56040830184617727565b949350505050565b618af681617e15565b8114618b0157600080fd5b50565b600081519050618b1381618aed565b92915050565b600060208284031215618b2f57618b2e617601565b5b6000618b3d84828501618b04565b91505092915050565b7f496e766573746d656e744d616e616765722f7472616e6368652d746f6b656e2d60008201527f7472616e736665722d6661696c65640000000000000000000000000000000000602082015250565b6000618ba2602f83617741565b9150618bad82618b46565b604082019050919050565b60006020820190508181036000830152618bd181618b95565b9050919050565b600060a082019050618bed60008301886176e3565b618bfa60208301876176f2565b618c076040830186617bdb565b618c146060830185617b84565b618c216080830184617b84565b9695505050505050565b7f496e766573746d656e744d616e616765722f756e6b6e6f776e2d63757272656e60008201527f6379000000000000000000000000000000000000000000000000000000000000602082015250565b6000618c87602283617741565b9150618c9282618c2b565b604082019050919050565b60006020820190508181036000830152618cb681618c7a565b9050919050565b7f496e766573746d656e744d616e616765722f696e73756666696369656e742d6260008201527f616c616e63650000000000000000000000000000000000000000000000000000602082015250565b6000618d19602683617741565b9150618d2482618cbd565b604082019050919050565b60006020820190508181036000830152618d4881618d0c565b9050919050565b6000606082019050618d646000830186617bdb565b618d716020830185617bdb565b618d7e60408301846186d3565b949350505050565b7f496e766573746d656e744d616e616765722f63757272656e63792d7472616e7360008201527f6665722d6661696c656400000000000000000000000000000000000000000000602082015250565b6000618de2602a83617741565b9150618ded82618d86565b604082019050919050565b60006020820190508181036000830152618e1181618dd5565b9050919050565b618e2181617a4e565b82525050565b6000608082019050618e3c6000830187617b84565b618e496020830186617bdb565b618e566040830185618e18565b618e636060830184617b84565b95945050505050565b7f496e766573746d656e744d616e616765722f696e76616c69642d706f6f6c0000600082015250565b6000618ea2601e83617741565b9150618ead82618e6c565b602082019050919050565b60006020820190508181036000830152618ed181618e95565b9050919050565b7f4e487b7100000000000000000000000000000000000000000000000000000000600052601260045260246000fd5b6000618f1282617893565b9150618f1d83617893565b925082618f2d57618f2c618ed8565b5b828204905092915050565b7f496e766573746d656e744d616e616765722f706f6f6c2d616c72656164792d6160008201527f6464656400000000000000000000000000000000000000000000000000000000602082015250565b6000618f94602483617741565b9150618f9f82618f38565b604082019050919050565b60006020820190508181036000830152618fc381618f87565b9050919050565b7f496e766573746d656e744d616e616765722f7a65726f2d7061796f7574000000600082015250565b6000619000601d83617741565b915061900b82618fca565b602082019050919050565b6000602082019050818103600083015261902f81618ff3565b9050919050565b7f496e766573746d656e744d616e616765722f706f6f6c2d63757272656e63792d60008201527f6e6f742d616c6c6f776564000000000000000000000000000000000000000000602082015250565b6000619092602b83617741565b915061909d82619036565b604082019050919050565b600060208201905081810360008301526190c181619085565b9050919050565b7f496e766573746d656e744d616e616765722f6e6f742d7472616e6368652d637560008201527f7272656e63790000000000000000000000000000000000000000000000000000602082015250565b6000619124602683617741565b915061912f826190c8565b604082019050919050565b6000602082019050818103600083015261915381619117565b9050919050565b7f496e766573746d656e744d616e616765722f616d6f756e742d6578636565647360008201527f2d72656465656d2d6c696d697473000000000000000000000000000000000000602082015250565b60006191b6602e83617741565b91506191c18261915a565b604082019050919050565b600060208201905081810360008301526191e5816191a9565b9050919050565b7f496e766573746d656e744d616e616765722f63757272656e63792d69642d686160008201527f732d746f2d62652d677265617465722d7468616e2d3000000000000000000000602082015250565b6000619248603683617741565b9150619253826191ec565b604082019050919050565b600060208201905081810360008301526192778161923b565b9050919050565b7f496e766573746d656e744d616e616765722f63757272656e63792d69642d696e60008201527f2d75736500000000000000000000000000000000000000000000000000000000602082015250565b60006192da602483617741565b91506192e58261927e565b604082019050919050565b60006020820190508181036000830152619309816192cd565b9050919050565b7f496e766573746d656e744d616e616765722f63757272656e63792d616464726560008201527f73732d696e2d7573650000000000000000000000000000000000000000000000602082015250565b600061936c602983617741565b915061937782619310565b604082019050919050565b6000602082019050818103600083015261939b8161935f565b9050919050565b7f496e766573746d656e744d616e616765722f6e6f742d612d6d656d6265720000600082015250565b60006193d8601e83617741565b91506193e3826193a2565b602082019050919050565b60006020820190508181036000830152619407816193cb565b9050919050565b7f496e766573746d656e744d616e616765722f7472616e636865546f6b656e732d60008201527f7472616e736665722d6661696c65640000000000000000000000000000000000602082015250565b600061946a602f83617741565b91506194758261940e565b604082019050919050565b600060208201905081810360008301526194998161945d565b9050919050565b60006080820190506194b560008301876176e3565b6194c260208301866176f2565b6194cf6040830185617bdb565b6194dc6060830184617b84565b95945050505050565b7f496e766573746d656e744d616e616765722f6c6971756964697479506f6f6c2d60008201527f616c72656164792d6465706c6f79656400000000000000000000000000000000602082015250565b6000619541603083617741565b915061954c826194e5565b604082019050919050565b6000602082019050818103600083015261957081619534565b9050919050565b7f496e766573746d656e744d616e616765722f706f6f6c2d646f65732d6e6f742d60008201527f6578697374000000000000000000000000000000000000000000000000000000602082015250565b60006195d3602583617741565b91506195de82619577565b604082019050919050565b60006020820190508181036000830152619602816195c6565b9050919050565b600060408201905061961e6000830185617bdb565b61962b6020830184617bdb565b9392505050565b60006040820190506196476000830185617bdb565b6196546020830184617727565b9392505050565b60008190508160005260206000209050919050565b6000815461967d8161847d565b6196878186617741565b945060018216600081146196a257600181146196b8576196eb565b60ff1983168652811515602002860193506196eb565b6196c18561965b565b60005b838110156196e3578154818901526001820191506020810190506196c4565b808801955050505b50505092915050565b60006101408201905061970a600083018d6176e3565b619717602083018c6176f2565b619724604083018b617b84565b619731606083018a617bdb565b61973e6080830189617bdb565b61974b60a0830188617bdb565b61975860c0830187617bdb565b81810360e083015261976a8186619670565b905081810361010083015261977f8185619670565b905061978f61012083018461770e565b9b9a5050505050505050505050565b7f496e766573746d656e744d616e616765722f7a65726f2d72656465656d000000600082015250565b60006197d4601d83617741565b91506197df8261979e565b602082019050919050565b60006020820190508181036000830152619803816197c7565b9050919050565b7f496e766573746d656e744d616e616765722f696e76616c69642d706f6f6c2d6f60008201527f722d7472616e6368650000000000000000000000000000000000000000000000602082015250565b6000619866602983617741565b91506198718261980a565b604082019050919050565b6000602082019050818103600083015261989581619859565b9050919050565b7f4e487b7100000000000000000000000000000000000000000000000000000000600052603260045260246000fd5b7f496e766573746d656e744d616e616765722f696e76616c69642d6c697175696460008201527f6974792d706f6f6c000000000000000000000000000000000000000000000000602082015250565b6000619927602883617741565b9150619932826198cb565b604082019050919050565b600060208201905081810360008301526199568161991a565b9050919050565b60006199688261771d565b91507fffffffffffffffffffffffffffffffffffffffffffffffffffffffffffffffff820361999a5761999961863e565b5b600182019050919050565b7f496e766573746d656e744d616e616765722f7472616e6368652d616c7265616460008201527f792d657869737473000000000000000000000000000000000000000000000000602082015250565b6000619a01602883617741565b9150619a0c826199a5565b604082019050919050565b60006020820190508181036000830152619a30816199f4565b9050919050565b60006020601f8301049050919050565b600082821b905092915050565b600060088302619a847fffffffffffffffffffffffffffffffffffffffffffffffffffffffffffffffff82619a47565b619a8e8683619a47565b95508019841693508086168417925050509392505050565b6000619ac1619abc619ab78461771d565b6179d4565b61771d565b9050919050565b6000819050919050565b619adb83619aa6565b619aef619ae782619ac8565b848454619a54565b825550505050565b600090565b619b04619af7565b619b0f818484619ad2565b505050565b5b81811015619b3357619b28600082619afc565b600181019050619b15565b5050565b601f821115619b7857619b498161965b565b619b5284619a37565b81016020851015619b61578190505b619b75619b6d85619a37565b830182619b14565b50505b505050565b600082821c905092915050565b6000619b9b60001984600802619b7d565b1980831691505092915050565b6000619bb48383619b8a565b9150826002028217905092915050565b619bcd82617736565b67ffffffffffffffff811115619be657619be5617f53565b5b619bf0825461847d565b619bfb828285619b37565b600060209050601f831160018114619c2e5760008415619c1c578287015190505b619c268582619ba8565b865550619c8e565b601f198416619c3c8661965b565b60005b82811015619c6457848901518255600182019150602085019450602081019050619c3f565b86831015619c815784890151619c7d601f891682619b8a565b8355505b6001600288020188555050505b505050505050565b7f496e766573746d656e744d616e616765722f616d6f756e742d6578636565647360008201527f2d6465706f7369742d6c696d6974730000000000000000000000000000000000602082015250565b6000619cf2602f83617741565b9150619cfd82619c96565b604082019050919050565b60006020820190508181036000830152619d2181619ce5565b9050919050565b7f4c6971756964697479506f6f6c2f616d6f756e742d657863656564732d64657060008201527f6f7369742d6c696d697473000000000000000000000000000000000000000000602082015250565b6000619d84602b83617741565b9150619d8f82619d28565b604082019050919050565b60006020820190508181036000830152619db381619d77565b9050919050565b7f496e766573746d656e744d616e616765722f7472616e636865546f6b656e732d60008201527f6e6f742d612d6d656d6265720000000000000000000000000000000000000000602082015250565b6000619e16602c83617741565b9150619e2182619dba565b604082019050919050565b60006020820190508181036000830152619e4581619e09565b9050919050565b6000619e67619e62619e5d8461760b565b6179d4565b61771d565b9050919050565b619e7781619e4c565b82525050565b6000604082019050619e926000830185617bdb565b619e9f6020830184619e6e565b9392505050565b7f496e766573746d656e744d616e616765722f66696c652d756e7265636f676e6960008201527f7a65642d706172616d0000000000000000000000000000000000000000000000602082015250565b6000619f02602983617741565b9150619f0d82619ea6565b604082019050919050565b60006020820190508181036000830152619f3181619ef5565b9050919050565b7f496e766573746d656e744d616e616765722f616d6f756e742d6578636565647360008201527f2d77697468647261772d6c696d69747300000000000000000000000000000000602082015250565b6000619f94603083617741565b9150619f9f82619f38565b604082019050919050565b60006020820190508181036000830152619fc381619f87565b9050919050565b7f496e766573746d656e744d616e616765722f616d6f756e742d6578636565647360008201527f2d6d696e742d6c696d6974730000000000000000000000000000000000000000602082015250565b600061a026602c83617741565b915061a03182619fca565b604082019050919050565b6000602082019050818103600083015261a0558161a019565b9050919050565b7f4c6971756964697479506f6f6c2f616d6f756e742d657863656564732d6d696e60008201527f742d6c696d697473000000000000000000000000000000000000000000000000602082015250565b600061a0b8602883617741565b915061a0c38261a05c565b604082019050919050565b6000602082019050818103600083015261a0e78161a0ab565b9050919050565b7f496e766573746d656e744d616e616765722f756e6b6e6f776e2d6c697175696460008201527f6974792d706f6f6c000000000000000000000000000000000000000000000000602082015250565b600061a14a602883617741565b915061a1558261a0ee565b604082019050919050565b6000602082019050818103600083015261a1798161a13d565b9050919050565b7f4c6971756964697479506f6f6c2f72656465656d2d746f6b656e2d707269636560008201527f2d30000000000000000000000000000000000000000000000000000000000000602082015250565b600061a1dc602283617741565b915061a1e78261a180565b604082019050919050565b6000602082019050818103600083015261a20b8161a1cf565b9050919050565b7f496e766573746d656e744d616e616765722f7368617265732d7472616e73666560008201527f722d6661696c6564000000000000000000000000000000000000000000000000602082015250565b600061a26e602883617741565b915061a2798261a212565b604082019050919050565b6000602082019050818103600083015261a29d8161a261565b905091905056fea2646970667358221220404bc6eade3875c0f9d74c2b6b304a3b588a088e1e1c9f582732c355e63508b564736f6c63430008120033",
    "linkReferences": {}
  },
  "methodIdentifiers": {
    "addCurrency(uint128,address)": "6ddf78ec",
    "addPool(uint64)": "2b896101",
    "addTranche(uint64,bytes16,string,string,uint8,uint128)": "bcd914f1",
    "allowPoolCurrency(uint64,uint128)": "2648cf74",
    "allowedPoolCurrencies(uint64,address)": "ca03fb59",
    "calcDepositTrancheTokenPrice(address,address)": "36e00101",
    "calcRedeemTokenPrice(address,address)": "96831440",
    "collectInvest(uint64,bytes16,address,address)": "76c958a7",
    "collectRedeem(uint64,bytes16,address,address)": "ebb730cc",
    "currencyAddressToId(address)": "8246a451",
    "currencyIdToAddress(uint128)": "4093cb57",
    "deny(address)": "9c52a7f1",
    "deployLiquidityPool(uint64,bytes16,address)": "777eeda1",
    "escrow()": "e2fdcc17",
    "file(bytes32,address)": "d4e8be83",
    "gateway()": "116191b6",
    "getLiquidityPoolsForTranche(uint64,bytes16)": "e0fa12c8",
    "handleExecutedCollectInvest(uint64,bytes16,address,uint128,uint128,uint128)": "0e7cf2ba",
    "handleExecutedCollectRedeem(uint64,bytes16,address,uint128,uint128,uint128)": "9875dcc1",
    "handleExecutedDecreaseInvestOrder(uint64,bytes16,address,uint128,uint128)": "43ebad08",
    "handleExecutedDecreaseRedeemOrder(uint64,bytes16,address,uint128,uint128)": "74a403b7",
    "handleTransfer(uint128,address,uint128)": "a096bf57",
    "liquidityPoolFactory()": "e75d75d5",
    "liquidityPoolWards(address)": "ac417138",
    "liquidityPools(uint64,bytes16,address)": "648df066",
    "maxDeposit(address,address)": "76016870",
    "maxMint(address,address)": "f2e586db",
    "maxRedeem(address,address)": "95b734fb",
    "maxWithdraw(address,address)": "8c22e9b0",
    "memberlistFactory()": "8f953775",
    "orderbook(address,address)": "f68378ad",
    "pools(uint64)": "89a5f084",
    "processDeposit(address,uint256)": "c8cd65e5",
    "processMint(address,uint256)": "fbadceca",
    "processRedeem(uint256,address,address)": "60af6ad3",
    "processWithdraw(uint256,address,address)": "e345f4b6",
    "rely(address)": "65fae35e",
    "requestDeposit(uint256,address)": "29344f08",
    "requestRedeem(uint256,address)": "107703ab",
    "tranches(uint64,bytes16)": "04afc93b",
    "transfer(address,bytes32,uint128)": "20c32f86",
    "updateMember(uint64,bytes16,address,uint64)": "cb5cbeef",
    "updateTokenPrice(uint64,bytes16,uint128)": "ae1a9aac",
    "wards(address)": "bf353dbb"
  },
  "id": 24
}