{
  "abi": [
    {
      "inputs": [
        {
          "internalType": "address",
          "name": "_admin",
          "type": "address"
        },
        {
          "internalType": "address",
          "name": "_investmentManager",
          "type": "address"
        }
      ],
      "name": "newMemberlist",
      "outputs": [
        {
          "internalType": "address",
          "name": "memberList",
          "type": "address"
        }
      ],
      "stateMutability": "nonpayable",
      "type": "function"
    }
  ],
  "bytecode": {
    "object": "0x608060405234801561001057600080fd5b50611046806100206000396000f3fe608060405234801561001057600080fd5b506004361061002b5760003560e01c8063ab8ebe6c14610030575b600080fd5b61004a600480360381019061004591906102b4565b610060565b6040516100579190610303565b60405180910390f35b60008060405161006f90610244565b604051809103906000f08015801561008b573d6000803e3d6000fd5b5090508073ffffffffffffffffffffffffffffffffffffffff16639c52a7f1336040518263ffffffff1660e01b81526004016100c79190610303565b600060405180830381600087803b1580156100e157600080fd5b505af11580156100f5573d6000803e3d6000fd5b505050508073ffffffffffffffffffffffffffffffffffffffff166365fae35e856040518263ffffffff1660e01b81526004016101329190610303565b600060405180830381600087803b15801561014c57600080fd5b505af1158015610160573d6000803e3d6000fd5b505050508073ffffffffffffffffffffffffffffffffffffffff166365fae35e846040518263ffffffff1660e01b815260040161019d9190610303565b600060405180830381600087803b1580156101b757600080fd5b505af11580156101cb573d6000803e3d6000fd5b505050508073ffffffffffffffffffffffffffffffffffffffff16639c52a7f1306040518263ffffffff1660e01b81526004016102089190610303565b600060405180830381600087803b15801561022257600080fd5b505af1158015610236573d6000803e3d6000fd5b505050508091505092915050565b610cf28061031f83390190565b600080fd5b600073ffffffffffffffffffffffffffffffffffffffff82169050919050565b600061028182610256565b9050919050565b61029181610276565b811461029c57600080fd5b50565b6000813590506102ae81610288565b92915050565b600080604083850312156102cb576102ca610251565b5b60006102d98582860161029f565b92505060206102ea8582860161029f565b9150509250929050565b6102fd81610276565b82525050565b600060208201905061031860008301846102f4565b9291505056fe608060405234801561001057600080fd5b5060016000803373ffffffffffffffffffffffffffffffffffffffff1673ffffffffffffffffffffffffffffffffffffffff168152602001908152602001600020819055503373ffffffffffffffffffffffffffffffffffffffff167fdd0e34038ac38b2a1ce960229778ac48a8719bc900b6c4f8d0475c6e8b385a6060405160405180910390a2610c4b806100a76000396000f3fe608060405234801561001057600080fd5b50600436106100885760003560e01c80637adaa5041161005b5780637adaa504146101255780639c52a7f114610141578063bf353dbb1461015d578063e7d4539e1461018d57610088565b806308ae4b0c1461008d57806312d42835146100bd578063336137c8146100ed57806365fae35e14610109575b600080fd5b6100a760048036038101906100a29190610716565b6101a9565b6040516100b4919061075c565b60405180910390f35b6100d760048036038101906100d29190610716565b6101c1565b6040516100e49190610792565b60405180910390f35b610107600480360381019061010291906107d9565b61021c565b005b610123600480360381019061011e9190610716565b610328565b005b61013f600480360381019061013a9190610972565b610433565b005b61015b60048036038101906101569190610716565b6104fc565b005b61017760048036038101906101729190610716565b610607565b604051610184919061075c565b60405180910390f35b6101a760048036038101906101a29190610716565b61061f565b005b60016020528060005260406000206000915090505481565b600042600160008473ffffffffffffffffffffffffffffffffffffffff1673ffffffffffffffffffffffffffffffffffffffff16815260200190815260200160002054106102125760019050610217565b600090505b919050565b60016000803373ffffffffffffffffffffffffffffffffffffffff1673ffffffffffffffffffffffffffffffffffffffff168152602001908152602001600020541461029d576040517f08c379a000000000000000000000000000000000000000000000000000000000815260040161029490610a2b565b60405180910390fd5b804211156102e0576040517f08c379a00000000000000000000000000000000000000000000000000000000081526004016102d790610abd565b60405180910390fd5b80600160008473ffffffffffffffffffffffffffffffffffffffff1673ffffffffffffffffffffffffffffffffffffffff168152602001908152602001600020819055505050565b60016000803373ffffffffffffffffffffffffffffffffffffffff1673ffffffffffffffffffffffffffffffffffffffff16815260200190815260200160002054146103a9576040517f08c379a00000000000000000000000000000000000000000000000000000000081526004016103a090610a2b565b60405180910390fd5b60016000808373ffffffffffffffffffffffffffffffffffffffff1673ffffffffffffffffffffffffffffffffffffffff168152602001908152602001600020819055508073ffffffffffffffffffffffffffffffffffffffff167fdd0e34038ac38b2a1ce960229778ac48a8719bc900b6c4f8d0475c6e8b385a6060405160405180910390a250565b60016000803373ffffffffffffffffffffffffffffffffffffffff1673ffffffffffffffffffffffffffffffffffffffff16815260200190815260200160002054146104b4576040517f08c379a00000000000000000000000000000000000000000000000000000000081526004016104ab90610a2b565b60405180910390fd5b60005b82518110156104f7576104e48382815181106104d6576104d5610add565b5b60200260200101518361021c565b80806104ef90610b3b565b9150506104b7565b505050565b60016000803373ffffffffffffffffffffffffffffffffffffffff1673ffffffffffffffffffffffffffffffffffffffff168152602001908152602001600020541461057d576040517f08c379a000000000000000000000000000000000000000000000000000000000815260040161057490610a2b565b60405180910390fd5b60008060008373ffffffffffffffffffffffffffffffffffffffff1673ffffffffffffffffffffffffffffffffffffffff168152602001908152602001600020819055508073ffffffffffffffffffffffffffffffffffffffff167f184450df2e323acec0ed3b5c7531b81f9b4cdef7914dfd4c0a4317416bb5251b60405160405180910390a250565b60006020528060005260406000206000915090505481565b42600160008373ffffffffffffffffffffffffffffffffffffffff1673ffffffffffffffffffffffffffffffffffffffff1681526020019081526020016000205410156106a1576040517f08c379a000000000000000000000000000000000000000000000000000000000815260040161069890610bf5565b60405180910390fd5b50565b6000604051905090565b600080fd5b600080fd5b600073ffffffffffffffffffffffffffffffffffffffff82169050919050565b60006106e3826106b8565b9050919050565b6106f3816106d8565b81146106fe57600080fd5b50565b600081359050610710816106ea565b92915050565b60006020828403121561072c5761072b6106ae565b5b600061073a84828501610701565b91505092915050565b6000819050919050565b61075681610743565b82525050565b6000602082019050610771600083018461074d565b92915050565b60008115159050919050565b61078c81610777565b82525050565b60006020820190506107a76000830184610783565b92915050565b6107b681610743565b81146107c157600080fd5b50565b6000813590506107d3816107ad565b92915050565b600080604083850312156107f0576107ef6106ae565b5b60006107fe85828601610701565b925050602061080f858286016107c4565b9150509250929050565b600080fd5b6000601f19601f8301169050919050565b7f4e487b7100000000000000000000000000000000000000000000000000000000600052604160045260246000fd5b6108678261081e565b810181811067ffffffffffffffff821117156108865761088561082f565b5b80604052505050565b60006108996106a4565b90506108a5828261085e565b919050565b600067ffffffffffffffff8211156108c5576108c461082f565b5b602082029050602081019050919050565b600080fd5b60006108ee6108e9846108aa565b61088f565b90508083825260208201905060208402830185811115610911576109106108d6565b5b835b8181101561093a57806109268882610701565b845260208401935050602081019050610913565b5050509392505050565b600082601f83011261095957610958610819565b5b81356109698482602086016108db565b91505092915050565b60008060408385031215610989576109886106ae565b5b600083013567ffffffffffffffff8111156109a7576109a66106b3565b5b6109b385828601610944565b92505060206109c4858286016107c4565b9150509250929050565b600082825260208201905092915050565b7f6e6f742d617574686f72697a6564000000000000000000000000000000000000600082015250565b6000610a15600e836109ce565b9150610a20826109df565b602082019050919050565b60006020820190508181036000830152610a4481610a08565b9050919050565b7f52657374726963746564546f6b656e2f696e76616c69642d76616c6964556e7460008201527f696c000000000000000000000000000000000000000000000000000000000000602082015250565b6000610aa76022836109ce565b9150610ab282610a4b565b604082019050919050565b60006020820190508181036000830152610ad681610a9a565b9050919050565b7f4e487b7100000000000000000000000000000000000000000000000000000000600052603260045260246000fd5b7f4e487b7100000000000000000000000000000000000000000000000000000000600052601160045260246000fd5b6000610b4682610743565b91507fffffffffffffffffffffffffffffffffffffffffffffffffffffffffffffffff8203610b7857610b77610b0c565b5b600182019050919050565b7f52657374726963746564546f6b656e2f6e6f742d616c6c6f7765642d746f2d6860008201527f6f6c642d746f6b656e0000000000000000000000000000000000000000000000602082015250565b6000610bdf6029836109ce565b9150610bea82610b83565b604082019050919050565b60006020820190508181036000830152610c0e81610bd2565b905091905056fea2646970667358221220eb5bff2085542b6a8db404c42d34fb77adff1e3ca8ac2203e3812eb5c63b4a5c64736f6c63430008120033a2646970667358221220d4c19a1bfe3614b84dd7467605a0e481695aee8125c6d7229a5dfe9b9e3ca11864736f6c63430008120033",
    "linkReferences": {}
  },
  "methodIdentifiers": {
    "newMemberlist(address,address)": "ab8ebe6c"
  },
  "id": 29
}