{
  "abi": [
    {
      "inputs": [
        {
          "internalType": "address",
          "name": "investmentManager_",
          "type": "address"
        },
        {
          "internalType": "address",
          "name": "axelarGateway_",
          "type": "address"
        }
      ],
      "stateMutability": "nonpayable",
      "type": "constructor"
    },
    {
      "anonymous": false,
      "inputs": [
        {
          "indexed": true,
          "internalType": "address",
          "name": "user",
          "type": "address"
        }
      ],
      "name": "Deny",
      "type": "event"
    },
    {
      "anonymous": false,
      "inputs": [
        {
          "indexed": true,
          "internalType": "bytes32",
          "name": "what",
          "type": "bytes32"
        },
        {
          "indexed": false,
          "internalType": "address",
          "name": "addr",
          "type": "address"
        }
      ],
      "name": "File",
      "type": "event"
    },
    {
      "anonymous": false,
      "inputs": [
        {
          "indexed": true,
          "internalType": "address",
          "name": "user",
          "type": "address"
        }
      ],
      "name": "Rely",
      "type": "event"
    },
    {
      "inputs": [],
      "name": "axelarCentrifugeChainAddress",
      "outputs": [
        {
          "internalType": "string",
          "name": "",
          "type": "string"
        }
      ],
      "stateMutability": "view",
      "type": "function"
    },
    {
      "inputs": [],
      "name": "axelarCentrifugeChainId",
      "outputs": [
        {
          "internalType": "string",
          "name": "",
          "type": "string"
        }
      ],
      "stateMutability": "view",
      "type": "function"
    },
    {
      "inputs": [],
      "name": "axelarGateway",
      "outputs": [
        {
          "internalType": "contract AxelarGatewayLike",
          "name": "",
          "type": "address"
        }
      ],
      "stateMutability": "view",
      "type": "function"
    },
    {
      "inputs": [
        {
          "internalType": "address",
          "name": "user",
          "type": "address"
        }
      ],
      "name": "deny",
      "outputs": [],
      "stateMutability": "nonpayable",
      "type": "function"
    },
    {
      "inputs": [
        {
          "internalType": "bytes32",
          "name": "",
          "type": "bytes32"
        },
        {
          "internalType": "string",
          "name": "sourceChain",
          "type": "string"
        },
        {
          "internalType": "string",
          "name": "",
          "type": "string"
        },
        {
          "internalType": "bytes",
          "name": "payload",
          "type": "bytes"
        }
      ],
      "name": "execute",
      "outputs": [],
      "stateMutability": "nonpayable",
      "type": "function"
    },
    {
      "inputs": [
        {
          "internalType": "bytes32",
          "name": "what",
          "type": "bytes32"
        },
        {
          "internalType": "address",
          "name": "gateway_",
          "type": "address"
        }
      ],
      "name": "file",
      "outputs": [],
      "stateMutability": "nonpayable",
      "type": "function"
    },
    {
      "inputs": [],
      "name": "gateway",
      "outputs": [
        {
          "internalType": "contract GatewayLike",
          "name": "",
          "type": "address"
        }
      ],
      "stateMutability": "view",
      "type": "function"
    },
    {
      "inputs": [],
      "name": "investmentManager",
      "outputs": [
        {
          "internalType": "contract InvestmentManagerLike",
          "name": "",
          "type": "address"
        }
      ],
      "stateMutability": "view",
      "type": "function"
    },
    {
      "inputs": [
        {
          "internalType": "address",
          "name": "user",
          "type": "address"
        }
      ],
      "name": "rely",
      "outputs": [],
      "stateMutability": "nonpayable",
      "type": "function"
    },
    {
      "inputs": [
        {
          "internalType": "bytes",
          "name": "message",
          "type": "bytes"
        }
      ],
      "name": "send",
      "outputs": [],
      "stateMutability": "nonpayable",
      "type": "function"
    },
    {
      "inputs": [
        {
          "internalType": "address",
          "name": "",
          "type": "address"
        }
      ],
      "name": "wards",
      "outputs": [
        {
          "internalType": "uint256",
          "name": "",
          "type": "uint256"
        }
      ],
      "stateMutability": "view",
      "type": "function"
    }
  ],
  "bytecode": {
    "object": "0x60c06040523480156200001157600080fd5b50604051620014bd380380620014bd833981810160405281019062000037919062000198565b8173ffffffffffffffffffffffffffffffffffffffff1660808173ffffffffffffffffffffffffffffffffffffffff16815250508073ffffffffffffffffffffffffffffffffffffffff1660a08173ffffffffffffffffffffffffffffffffffffffff168152505060016000803373ffffffffffffffffffffffffffffffffffffffff1673ffffffffffffffffffffffffffffffffffffffff168152602001908152602001600020819055503373ffffffffffffffffffffffffffffffffffffffff167fdd0e34038ac38b2a1ce960229778ac48a8719bc900b6c4f8d0475c6e8b385a6060405160405180910390a25050620001df565b600080fd5b600073ffffffffffffffffffffffffffffffffffffffff82169050919050565b6000620001608262000133565b9050919050565b620001728162000153565b81146200017e57600080fd5b50565b600081519050620001928162000167565b92915050565b60008060408385031215620001b257620001b16200012e565b5b6000620001c28582860162000181565b9250506020620001d58582860162000181565b9150509250929050565b60805160a0516112a36200021a60003960008181610228015281816102da015261040801526000818161024c015261057d01526112a36000f3fe608060405234801561001057600080fd5b50600436106100a95760003560e01c80634b31bb10116100715780634b31bb101461014057806365fae35e1461015e5780639c52a7f11461017a578063bf353dbb14610196578063d4e8be83146101c6578063eb4ebefd146101e2576100a9565b8063116191b6146100ae57806314099c58146100cc5780632bb1ae7c146100ea5780633146ef29146101065780634916065814610124575b600080fd5b6100b6610200565b6040516100c391906109ea565b60405180910390f35b6100d4610226565b6040516100e19190610a26565b60405180910390f35b61010460048036038101906100ff9190610b9b565b61024a565b005b61010e6103ae565b60405161011b9190610c63565b60405180910390f35b61013e60048036038101906101399190610d71565b6103c1565b005b61014861057b565b6040516101559190610e5b565b60405180910390f35b61017860048036038101906101739190610eb4565b61059f565b005b610194600480360381019061018f9190610eb4565b6106aa565b005b6101b060048036038101906101ab9190610eb4565b6107b5565b6040516101bd9190610efa565b60405180910390f35b6101e060048036038101906101db9190610f15565b6107cd565b005b6101ea610932565b6040516101f79190610c63565b60405180910390f35b600160009054906101000a900473ffffffffffffffffffffffffffffffffffffffff1681565b7f000000000000000000000000000000000000000000000000000000000000000081565b7f000000000000000000000000000000000000000000000000000000000000000073ffffffffffffffffffffffffffffffffffffffff163373ffffffffffffffffffffffffffffffffffffffff16146102d8576040517f08c379a00000000000000000000000000000000000000000000000000000000081526004016102cf90610fc7565b60405180910390fd5b7f000000000000000000000000000000000000000000000000000000000000000073ffffffffffffffffffffffffffffffffffffffff16631c92115f6040518060400160405280600a81526020017f43656e747269667567650000000000000000000000000000000000000000000081525060405180602001604052806000815250846040518463ffffffff1660e01b81526004016103799392919061103c565b600060405180830381600087803b15801561039357600080fd5b505af11580156103a7573d6000803e3d6000fd5b5050505050565b6040518060200160405280600081525081565b85858080601f016020809104026020016040519081016040528093929190818152602001838380828437600081840152601f19601f820116905080830192505050505050507f000000000000000000000000000000000000000000000000000000000000000073ffffffffffffffffffffffffffffffffffffffff163373ffffffffffffffffffffffffffffffffffffffff161480156104a3575080805190602001206040518060400160405280600a81526020017f43656e747269667567650000000000000000000000000000000000000000000081525080519060200120145b6104e2576040517f08c379a00000000000000000000000000000000000000000000000000000000081526004016104d9906110d4565b60405180910390fd5b600160009054906101000a900473ffffffffffffffffffffffffffffffffffffffff1673ffffffffffffffffffffffffffffffffffffffff1663bf48bcb684846040518363ffffffff1660e01b815260040161053f929190611121565b600060405180830381600087803b15801561055957600080fd5b505af115801561056d573d6000803e3d6000fd5b505050505050505050505050565b7f000000000000000000000000000000000000000000000000000000000000000081565b60016000803373ffffffffffffffffffffffffffffffffffffffff1673ffffffffffffffffffffffffffffffffffffffff1681526020019081526020016000205414610620576040517f08c379a000000000000000000000000000000000000000000000000000000000815260040161061790611191565b60405180910390fd5b60016000808373ffffffffffffffffffffffffffffffffffffffff1673ffffffffffffffffffffffffffffffffffffffff168152602001908152602001600020819055508073ffffffffffffffffffffffffffffffffffffffff167fdd0e34038ac38b2a1ce960229778ac48a8719bc900b6c4f8d0475c6e8b385a6060405160405180910390a250565b60016000803373ffffffffffffffffffffffffffffffffffffffff1673ffffffffffffffffffffffffffffffffffffffff168152602001908152602001600020541461072b576040517f08c379a000000000000000000000000000000000000000000000000000000000815260040161072290611191565b60405180910390fd5b60008060008373ffffffffffffffffffffffffffffffffffffffff1673ffffffffffffffffffffffffffffffffffffffff168152602001908152602001600020819055508073ffffffffffffffffffffffffffffffffffffffff167f184450df2e323acec0ed3b5c7531b81f9b4cdef7914dfd4c0a4317416bb5251b60405160405180910390a250565b60006020528060005260406000206000915090505481565b60016000803373ffffffffffffffffffffffffffffffffffffffff1673ffffffffffffffffffffffffffffffffffffffff168152602001908152602001600020541461084e576040517f08c379a000000000000000000000000000000000000000000000000000000000815260040161084590611191565b60405180910390fd5b7f676174657761790000000000000000000000000000000000000000000000000082036108bb5780600160006101000a81548173ffffffffffffffffffffffffffffffffffffffff021916908373ffffffffffffffffffffffffffffffffffffffff1602179055506108f6565b6040517f08c379a00000000000000000000000000000000000000000000000000000000081526004016108ed90611223565b60405180910390fd5b817f8fef588b5fc1afbf5b2f06c1a435d513f208da2e6704c3d8f0e0ec91167066ba826040516109269190611252565b60405180910390a25050565b6040518060400160405280600a81526020017f43656e747269667567650000000000000000000000000000000000000000000081525081565b600073ffffffffffffffffffffffffffffffffffffffff82169050919050565b6000819050919050565b60006109b06109ab6109a68461096b565b61098b565b61096b565b9050919050565b60006109c282610995565b9050919050565b60006109d4826109b7565b9050919050565b6109e4816109c9565b82525050565b60006020820190506109ff60008301846109db565b92915050565b6000610a10826109b7565b9050919050565b610a2081610a05565b82525050565b6000602082019050610a3b6000830184610a17565b92915050565b6000604051905090565b600080fd5b600080fd5b600080fd5b600080fd5b6000601f19601f8301169050919050565b7f4e487b7100000000000000000000000000000000000000000000000000000000600052604160045260246000fd5b610aa882610a5f565b810181811067ffffffffffffffff82111715610ac757610ac6610a70565b5b80604052505050565b6000610ada610a41565b9050610ae68282610a9f565b919050565b600067ffffffffffffffff821115610b0657610b05610a70565b5b610b0f82610a5f565b9050602081019050919050565b82818337600083830152505050565b6000610b3e610b3984610aeb565b610ad0565b905082815260208101848484011115610b5a57610b59610a5a565b5b610b65848285610b1c565b509392505050565b600082601f830112610b8257610b81610a55565b5b8135610b92848260208601610b2b565b91505092915050565b600060208284031215610bb157610bb0610a4b565b5b600082013567ffffffffffffffff811115610bcf57610bce610a50565b5b610bdb84828501610b6d565b91505092915050565b600081519050919050565b600082825260208201905092915050565b60005b83811015610c1e578082015181840152602081019050610c03565b60008484015250505050565b6000610c3582610be4565b610c3f8185610bef565b9350610c4f818560208601610c00565b610c5881610a5f565b840191505092915050565b60006020820190508181036000830152610c7d8184610c2a565b905092915050565b6000819050919050565b610c9881610c85565b8114610ca357600080fd5b50565b600081359050610cb581610c8f565b92915050565b600080fd5b600080fd5b60008083601f840112610cdb57610cda610a55565b5b8235905067ffffffffffffffff811115610cf857610cf7610cbb565b5b602083019150836001820283011115610d1457610d13610cc0565b5b9250929050565b60008083601f840112610d3157610d30610a55565b5b8235905067ffffffffffffffff811115610d4e57610d4d610cbb565b5b602083019150836001820283011115610d6a57610d69610cc0565b5b9250929050565b60008060008060008060006080888a031215610d9057610d8f610a4b565b5b6000610d9e8a828b01610ca6565b975050602088013567ffffffffffffffff811115610dbf57610dbe610a50565b5b610dcb8a828b01610cc5565b9650965050604088013567ffffffffffffffff811115610dee57610ded610a50565b5b610dfa8a828b01610cc5565b9450945050606088013567ffffffffffffffff811115610e1d57610e1c610a50565b5b610e298a828b01610d1b565b925092505092959891949750929550565b6000610e45826109b7565b9050919050565b610e5581610e3a565b82525050565b6000602082019050610e706000830184610e4c565b92915050565b6000610e818261096b565b9050919050565b610e9181610e76565b8114610e9c57600080fd5b50565b600081359050610eae81610e88565b92915050565b600060208284031215610eca57610ec9610a4b565b5b6000610ed884828501610e9f565b91505092915050565b6000819050919050565b610ef481610ee1565b82525050565b6000602082019050610f0f6000830184610eeb565b92915050565b60008060408385031215610f2c57610f2b610a4b565b5b6000610f3a85828601610ca6565b9250506020610f4b85828601610e9f565b9150509250929050565b7f4178656c6172526f757465722f6f6e6c792d696e766573746d656e744d616e6160008201527f6765722d616c6c6f7765642d746f2d63616c6c00000000000000000000000000602082015250565b6000610fb1603383610bef565b9150610fbc82610f55565b604082019050919050565b60006020820190508181036000830152610fe081610fa4565b9050919050565b600081519050919050565b600082825260208201905092915050565b600061100e82610fe7565b6110188185610ff2565b9350611028818560208601610c00565b61103181610a5f565b840191505092915050565b600060608201905081810360008301526110568186610c2a565b9050818103602083015261106a8185610c2a565b9050818103604083015261107e8184611003565b9050949350505050565b7f4178656c6172526f757465722f696e76616c69642d6f726967696e0000000000600082015250565b60006110be601b83610bef565b91506110c982611088565b602082019050919050565b600060208201905081810360008301526110ed816110b1565b9050919050565b60006111008385610ff2565b935061110d838584610b1c565b61111683610a5f565b840190509392505050565b6000602082019050818103600083015261113c8184866110f4565b90509392505050565b7f4178656c6172526f757465722f6e6f742d617574686f72697a65640000000000600082015250565b600061117b601b83610bef565b915061118682611145565b602082019050919050565b600060208201905081810360008301526111aa8161116e565b9050919050565b7f436f6e6e6563746f7258434d526f757465722f66696c652d756e7265636f676e60008201527f697a65642d706172616d00000000000000000000000000000000000000000000602082015250565b600061120d602a83610bef565b9150611218826111b1565b604082019050919050565b6000602082019050818103600083015261123c81611200565b9050919050565b61124c81610e76565b82525050565b60006020820190506112676000830184611243565b9291505056fea2646970667358221220fc98438951b352a8bf362da956403a4289b01ff6d6bfbcd0ee683a36b80c9b0a64736f6c63430008120033",
    "linkReferences": {}
  },
  "methodIdentifiers": {
    "axelarCentrifugeChainAddress()": "3146ef29",
    "axelarCentrifugeChainId()": "eb4ebefd",
    "axelarGateway()": "14099c58",
    "deny(address)": "9c52a7f1",
    "execute(bytes32,string,string,bytes)": "49160658",
    "file(bytes32,address)": "d4e8be83",
    "gateway()": "116191b6",
    "investmentManager()": "4b31bb10",
    "rely(address)": "65fae35e",
    "send(bytes)": "2bb1ae7c",
    "wards(address)": "bf353dbb"
  },
  "id": 31
}