{
  "abi": [
    {
      "inputs": [
        {
          "internalType": "uint64",
          "name": "_poolId",
          "type": "uint64"
        },
        {
          "internalType": "bytes16",
          "name": "_trancheId",
          "type": "bytes16"
        },
        {
          "internalType": "uint128",
          "name": "_currencyId",
          "type": "uint128"
        },
        {
          "internalType": "address",
          "name": "_asset",
          "type": "address"
        },
        {
          "internalType": "address",
          "name": "_investmentManager",
          "type": "address"
        },
        {
          "internalType": "address",
          "name": "_admin",
          "type": "address"
        },
        {
          "internalType": "address",
          "name": "_memberlist",
          "type": "address"
        },
        {
          "internalType": "string",
          "name": "_name",
          "type": "string"
        },
        {
          "internalType": "string",
          "name": "_symbol",
          "type": "string"
        },
        {
          "internalType": "uint8",
          "name": "_decimals",
          "type": "uint8"
        }
      ],
      "name": "newLiquidityPool",
      "outputs": [
        {
          "internalType": "address",
          "name": "",
          "type": "address"
        }
      ],
      "stateMutability": "nonpayable",
      "type": "function"
    }
  ],
  "bytecode": {
    "object": "0x608060405234801561001057600080fd5b506165eb806100206000396000f3fe60806040523480156200001157600080fd5b50600436106200002e5760003560e01c8063293536621462000033575b600080fd5b6200005160048036038101906200004b91906200085e565b62000069565b604051620000609190620009a3565b60405180910390f35b6000808b8b8b604051602001620000839392919062000a5d565b60405160208183030381529060405280519060200120905060008184604051620000ad9062000548565b620000b9919062000ab1565b8190604051809103906000f5905080158015620000da573d6000803e3d6000fd5b5090508073ffffffffffffffffffffffffffffffffffffffff1663097ac46e876040518263ffffffff1660e01b815260040162000118919062000b7d565b600060405180830381600087803b1580156200013357600080fd5b505af115801562000148573d6000803e3d6000fd5b505050508073ffffffffffffffffffffffffffffffffffffffff1663097ac46e866040518263ffffffff1660e01b815260040162000187919062000bd5565b600060405180830381600087803b158015620001a257600080fd5b505af1158015620001b7573d6000803e3d6000fd5b505050508073ffffffffffffffffffffffffffffffffffffffff1663d4e8be838a6040518263ffffffff1660e01b8152600401620001f6919062000c2d565b600060405180830381600087803b1580156200021157600080fd5b505af115801562000226573d6000803e3d6000fd5b505050508073ffffffffffffffffffffffffffffffffffffffff1663d4e8be838b6040518263ffffffff1660e01b815260040162000265919062000c7e565b600060405180830381600087803b1580156200028057600080fd5b505af115801562000295573d6000803e3d6000fd5b505050508073ffffffffffffffffffffffffffffffffffffffff1663d4e8be83886040518263ffffffff1660e01b8152600401620002d4919062000ccf565b600060405180830381600087803b158015620002ef57600080fd5b505af115801562000304573d6000803e3d6000fd5b505050508073ffffffffffffffffffffffffffffffffffffffff16630bb548ed8e8e6040518363ffffffff1660e01b81526004016200034592919062000d1c565b600060405180830381600087803b1580156200036057600080fd5b505af115801562000375573d6000803e3d6000fd5b505050508073ffffffffffffffffffffffffffffffffffffffff16639c52a7f1336040518263ffffffff1660e01b8152600401620003b49190620009a3565b600060405180830381600087803b158015620003cf57600080fd5b505af1158015620003e4573d6000803e3d6000fd5b505050508073ffffffffffffffffffffffffffffffffffffffff166365fae35e896040518263ffffffff1660e01b8152600401620004239190620009a3565b600060405180830381600087803b1580156200043e57600080fd5b505af115801562000453573d6000803e3d6000fd5b505050508073ffffffffffffffffffffffffffffffffffffffff166365fae35e8a6040518263ffffffff1660e01b8152600401620004929190620009a3565b600060405180830381600087803b158015620004ad57600080fd5b505af1158015620004c2573d6000803e3d6000fd5b505050508073ffffffffffffffffffffffffffffffffffffffff16639c52a7f1306040518263ffffffff1660e01b8152600401620005019190620009a3565b600060405180830381600087803b1580156200051c57600080fd5b505af115801562000531573d6000803e3d6000fd5b5050505080925050509a9950505050505050505050565b61586c8062000d4a83390190565b6000604051905090565b600080fd5b600080fd5b600067ffffffffffffffff82169050919050565b62000589816200056a565b81146200059557600080fd5b50565b600081359050620005a9816200057e565b92915050565b60007fffffffffffffffffffffffffffffffff0000000000000000000000000000000082169050919050565b620005e681620005af565b8114620005f257600080fd5b50565b6000813590506200060681620005db565b92915050565b60006fffffffffffffffffffffffffffffffff82169050919050565b62000633816200060c565b81146200063f57600080fd5b50565b600081359050620006538162000628565b92915050565b600073ffffffffffffffffffffffffffffffffffffffff82169050919050565b6000620006868262000659565b9050919050565b620006988162000679565b8114620006a457600080fd5b50565b600081359050620006b8816200068d565b92915050565b600080fd5b600080fd5b6000601f19601f8301169050919050565b7f4e487b7100000000000000000000000000000000000000000000000000000000600052604160045260246000fd5b6200071382620006c8565b810181811067ffffffffffffffff82111715620007355762000734620006d9565b5b80604052505050565b60006200074a62000556565b905062000758828262000708565b919050565b600067ffffffffffffffff8211156200077b576200077a620006d9565b5b6200078682620006c8565b9050602081019050919050565b82818337600083830152505050565b6000620007b9620007b3846200075d565b6200073e565b905082815260208101848484011115620007d857620007d7620006c3565b5b620007e584828562000793565b509392505050565b600082601f830112620008055762000804620006be565b5b813562000817848260208601620007a2565b91505092915050565b600060ff82169050919050565b620008388162000820565b81146200084457600080fd5b50565b60008135905062000858816200082d565b92915050565b6000806000806000806000806000806101408b8d03121562000885576200088462000560565b5b6000620008958d828e0162000598565b9a50506020620008a88d828e01620005f5565b9950506040620008bb8d828e0162000642565b9850506060620008ce8d828e01620006a7565b9750506080620008e18d828e01620006a7565b96505060a0620008f48d828e01620006a7565b95505060c0620009078d828e01620006a7565b94505060e08b013567ffffffffffffffff8111156200092b576200092a62000565565b5b620009398d828e01620007ed565b9350506101008b013567ffffffffffffffff8111156200095e576200095d62000565565b5b6200096c8d828e01620007ed565b925050610120620009808d828e0162000847565b9150509295989b9194979a5092959850565b6200099d8162000679565b82525050565b6000602082019050620009ba600083018462000992565b92915050565b60008160c01b9050919050565b6000620009da82620009c0565b9050919050565b620009f6620009f0826200056a565b620009cd565b82525050565b6000819050919050565b62000a1b62000a1582620005af565b620009fc565b82525050565b60008160801b9050919050565b600062000a3b8262000a21565b9050919050565b62000a5762000a51826200060c565b62000a2e565b82525050565b600062000a6b8286620009e1565b60088201915062000a7d828562000a06565b60108201915062000a8f828462000a42565b601082019150819050949350505050565b62000aab8162000820565b82525050565b600060208201905062000ac8600083018462000aa0565b92915050565b7f6e616d6500000000000000000000000000000000000000000000000000000000815250565b600081519050919050565b600082825260208201905092915050565b60005b8381101562000b3057808201518184015260208101905062000b13565b60008484015250505050565b600062000b498262000af4565b62000b55818562000aff565b935062000b6781856020860162000b10565b62000b7281620006c8565b840191505092915050565b600060408201905062000b936000830162000ace565b818103602083015262000ba7818462000b3c565b905092915050565b7f73796d626f6c0000000000000000000000000000000000000000000000000000815250565b600060408201905062000beb6000830162000baf565b818103602083015262000bff818462000b3c565b905092915050565b7f696e766573746d656e744d616e61676572000000000000000000000000000000815250565b600060408201905062000c436000830162000c07565b62000c52602083018462000992565b92915050565b7f6173736574000000000000000000000000000000000000000000000000000000815250565b600060408201905062000c946000830162000c58565b62000ca3602083018462000992565b92915050565b7f6d656d6265726c69737400000000000000000000000000000000000000000000815250565b600060408201905062000ce56000830162000ca9565b62000cf4602083018462000992565b92915050565b62000d05816200056a565b82525050565b62000d1681620005af565b82525050565b600060408201905062000d33600083018562000cfa565b62000d42602083018462000d0b565b939250505056fe60e06040523480156200001157600080fd5b506040516200586c3803806200586c8339818101604052810190620000379190620001a5565b80808060ff1660808160ff168152505060016000803373ffffffffffffffffffffffffffffffffffffffff1673ffffffffffffffffffffffffffffffffffffffff168152602001908152602001600020819055504660a08181525050620000a446620000b460201b60201c565b60c08181525050505050620003db565b60007f8b73c3c69bb8fe3d512ecc4cf759cc79239f7b179b0ffacaa9a75d522b39400f6001604051620000e89190620002ea565b60405180910390206040518060400160405280600181526020017f3300000000000000000000000000000000000000000000000000000000000000815250805190602001208430604051602001620001459594939291906200037e565b604051602081830303815290604052805190602001209050919050565b600080fd5b600060ff82169050919050565b6200017f8162000167565b81146200018b57600080fd5b50565b6000815190506200019f8162000174565b92915050565b600060208284031215620001be57620001bd62000162565b5b6000620001ce848285016200018e565b91505092915050565b7f4e487b7100000000000000000000000000000000000000000000000000000000600052602260045260246000fd5b600060028204905060018216806200021f57607f821691505b602082108103620002355762000234620001d7565b5b50919050565b600081905092915050565b60008190508160005260206000209050919050565b600081546200026a8162000206565b6200027681866200023b565b94506001821660008114620002945760018114620002aa57620002e1565b60ff1983168652811515820286019350620002e1565b620002b58562000246565b60005b83811015620002d957815481890152600182019150602081019050620002b8565b838801955050505b50505092915050565b6000620002f882846200025b565b915081905092915050565b6000819050919050565b620003188162000303565b82525050565b6000819050919050565b62000333816200031e565b82525050565b600073ffffffffffffffffffffffffffffffffffffffff82169050919050565b6000620003668262000339565b9050919050565b620003788162000359565b82525050565b600060a0820190506200039560008301886200030d565b620003a460208301876200030d565b620003b360408301866200030d565b620003c2606083018562000328565b620003d160808301846200036d565b9695505050505050565b60805160a05160c05161544c620004206000396000818161125a0152611ffc01526000818161122501528181611fc70152612a27015260006111ff015261544c6000f3fe608060405234801561001057600080fd5b50600436106103425760003560e01c80638ed1ef35116101b8578063b460af9411610104578063ce96cb77116100a2578063d905777e1161007c578063d905777e14610a83578063dd62ed3e14610ab3578063ef8b30f714610ae3578063f458b60914610b1357610342565b8063ce96cb7714610a1b578063d4e8be8314610a4b578063d505accf14610a6757610342565b8063bf353dbb116100de578063bf353dbb1461096d578063c63d75b61461099d578063c6e6f592146109cd578063cd0d0096146109fd57610342565b8063b460af94146108ef578063b7adb4c51461091f578063ba0876521461093d57610342565b80639fd5a6cf11610171578063a457c2d71161014b578063a457c2d714610843578063a9059cbb14610873578063aa2f892d146108a3578063b3d7f6b9146108bf57610342565b80639fd5a6cf146107ed578063a2b3e04e14610809578063a3e6ba941461082557610342565b80638ed1ef351461072d57806394bf804d1461074b57806395d89b411461077b578063970982bf146107995780639c52a7f1146107b55780639dc29fac146107d157610342565b80633644e515116102925780634cdad506116102305780636949faeb1161020a5780636949faeb1461067f5780636e553f651461069d57806370a08231146106cd5780637ecebe00146106fd57610342565b80634cdad5061461061557806354fd4d501461064557806365fae35e1461066357610342565b80633e0dc34e1161026c5780633e0dc34e1461058d578063402d267d146105ab57806340c10f19146105db5780634b31bb10146105f757610342565b80633644e5151461052157806338d52e0f1461053f578063395093511461055d57610342565b80630bb548ed116102ff57806318160ddd116102d957806318160ddd1461049757806323b872dd146104b557806330adf81f146104e5578063313ce5671461050357610342565b80630bb548ed1461042f5780630d1e66671461044b57806312d428351461046757610342565b806301e1d1141461034757806306fdde031461036557806307a2d13a14610383578063095ea7b3146103b3578063097ac46e146103e35780630a28a477146103ff575b600080fd5b61034f610b2f565b60405161035c9190613a39565b60405180910390f35b61036d610b74565b60405161037a9190613ae4565b60405180910390f35b61039d60048036038101906103989190613b46565b610c02565b6040516103aa9190613a39565b60405180910390f35b6103cd60048036038101906103c89190613bd1565b610c47565b6040516103da9190613c2c565b60405180910390f35b6103fd60048036038101906103f89190613db2565b610d39565b005b61041960048036038101906104149190613b46565b610eaa565b6040516104269190613a39565b60405180910390f35b61044960048036038101906104449190613ea6565b610ebc565b005b61046560048036038101906104609190613b46565b610ff7565b005b610481600480360381019061047c9190613ee6565b611089565b60405161048e9190613c2c565b60405180910390f35b61049f61112e565b6040516104ac9190613a39565b60405180910390f35b6104cf60048036038101906104ca9190613f13565b611134565b6040516104dc9190613c2c565b60405180910390f35b6104ed6111d9565b6040516104fa9190613f75565b60405180910390f35b61050b6111fd565b6040516105189190613fac565b60405180910390f35b610529611221565b6040516105369190613f75565b60405180910390f35b61054761127f565b6040516105549190613fd6565b60405180910390f35b61057760048036038101906105729190613bd1565b6112a5565b6040516105849190613c2c565b60405180910390f35b610595611423565b6040516105a29190614000565b60405180910390f35b6105c560048036038101906105c09190613ee6565b61143d565b6040516105d29190613a39565b60405180910390f35b6105f560048036038101906105f09190613bd1565b6114e4565b005b6105ff611581565b60405161060c919061407a565b60405180910390f35b61062f600480360381019061062a9190613b46565b6115a7565b60405161063c9190613a39565b60405180910390f35b61064d6115b9565b60405161065a9190613ae4565b60405180910390f35b61067d60048036038101906106789190613ee6565b6115f2565b005b6106876116fd565b6040516106949190613a39565b60405180910390f35b6106b760048036038101906106b29190614095565b611703565b6040516106c49190613a39565b60405180910390f35b6106e760048036038101906106e29190613ee6565b611814565b6040516106f49190613a39565b60405180910390f35b61071760048036038101906107129190613ee6565b61182c565b6040516107249190613a39565b60405180910390f35b610735611844565b60405161074291906140f6565b60405180910390f35b61076560048036038101906107609190614095565b61186a565b6040516107729190613a39565b60405180910390f35b61078361197b565b6040516107909190613ae4565b60405180910390f35b6107b360048036038101906107ae9190614159565b611a09565b005b6107cf60048036038101906107ca9190613ee6565b611acd565b005b6107eb60048036038101906107e69190613bd1565b611bd8565b005b61080760048036038101906108029190614227565b611ebf565b005b610823600480360381019061081e9190613ee6565b6121cf565b005b61082d6122ac565b60405161083a91906142cd565b60405180910390f35b61085d60048036038101906108589190613bd1565b6122ce565b60405161086a9190613c2c565b60405180910390f35b61088d60048036038101906108889190613bd1565b612489565b60405161089a9190613c2c565b60405180910390f35b6108bd60048036038101906108b89190613b46565b61252c565b005b6108d960048036038101906108d49190613b46565b6125be565b6040516108e69190613a39565b60405180910390f35b610909600480360381019061090491906142e8565b6125d0565b6040516109169190613a39565b60405180910390f35b61092761276f565b604051610934919061434a565b60405180910390f35b610957600480360381019061095291906142e8565b612782565b6040516109649190613a39565b60405180910390f35b61098760048036038101906109829190613ee6565b612921565b6040516109949190613a39565b60405180910390f35b6109b760048036038101906109b29190613ee6565b612939565b6040516109c49190613a39565b60405180910390f35b6109e760048036038101906109e29190613b46565b6129e0565b6040516109f49190613a39565b60405180910390f35b610a05612a25565b604051610a129190613a39565b60405180910390f35b610a356004803603810190610a309190613ee6565b612a49565b604051610a429190613a39565b60405180910390f35b610a656004803603810190610a609190614365565b612af0565b005b610a816004803603810190610a7c91906143d1565b612d31565b005b610a9d6004803603810190610a989190613ee6565b612d6a565b604051610aaa9190613a39565b60405180910390f35b610acd6004803603810190610ac89190614473565b612e11565b604051610ada9190613a39565b60405180910390f35b610afd6004803603810190610af89190613b46565b612e36565b604051610b0a9190613a39565b60405180910390f35b610b2d6004803603810190610b289190613ee6565b612e48565b005b6000600a60009054906101000a90046fffffffffffffffffffffffffffffffff166fffffffffffffffffffffffffffffffff16600354610b6f91906144e2565b905090565b60018054610b8190614553565b80601f0160208091040260200160405190810160405280929190818152602001828054610bad90614553565b8015610bfa5780601f10610bcf57610100808354040283529160200191610bfa565b820191906000526020600020905b815481529060010190602001808311610bdd57829003601f168201915b505050505081565b6000600a60009054906101000a90046fffffffffffffffffffffffffffffffff166fffffffffffffffffffffffffffffffff1682610c4091906144e2565b9050919050565b600081600560003373ffffffffffffffffffffffffffffffffffffffff1673ffffffffffffffffffffffffffffffffffffffff16815260200190815260200160002060008573ffffffffffffffffffffffffffffffffffffffff1673ffffffffffffffffffffffffffffffffffffffff168152602001908152602001600020819055508273ffffffffffffffffffffffffffffffffffffffff163373ffffffffffffffffffffffffffffffffffffffff167f8c5be1e5ebec7d5bd14f71427d1e84f3dd0314c0f7b2291e5b200ac8c7c3b92584604051610d279190613a39565b60405180910390a36001905092915050565b60016000803373ffffffffffffffffffffffffffffffffffffffff1673ffffffffffffffffffffffffffffffffffffffff1681526020019081526020016000205414610dba576040517f08c379a0000000000000000000000000000000000000000000000000000000008152600401610db1906145d0565b60405180910390fd5b7f6e616d65000000000000000000000000000000000000000000000000000000008203610df6578060019081610df09190614792565b50610e6e565b7f73796d626f6c00000000000000000000000000000000000000000000000000008203610e32578060029081610e2c9190614792565b50610e6d565b6040517f08c379a0000000000000000000000000000000000000000000000000000000008152600401610e64906148b0565b60405180910390fd5b5b817fe42e0b9a029dc87ccb1029c632e6359090acd0eb032b2b59c811e3ec70160dc682604051610e9e9190613ae4565b60405180910390a25050565b6000610eb5826129e0565b9050919050565b60016000803373ffffffffffffffffffffffffffffffffffffffff1673ffffffffffffffffffffffffffffffffffffffff1681526020019081526020016000205414610f3d576040517f08c379a0000000000000000000000000000000000000000000000000000000008152600401610f34906145d0565b60405180910390fd5b6000600c60009054906101000a900467ffffffffffffffff1667ffffffffffffffff1614610fa0576040517f08c379a0000000000000000000000000000000000000000000000000000000008152600401610f9790614942565b60405180910390fd5b81600c60006101000a81548167ffffffffffffffff021916908367ffffffffffffffff16021790555080600c60086101000a8154816fffffffffffffffffffffffffffffffff021916908360801c02179055505050565b600860009054906101000a900473ffffffffffffffffffffffffffffffffffffffff1673ffffffffffffffffffffffffffffffffffffffff166329344f0882336040518363ffffffff1660e01b8152600401611054929190614962565b600060405180830381600087803b15801561106e57600080fd5b505af1158015611082573d6000803e3d6000fd5b5050505050565b6000600760009054906101000a900473ffffffffffffffffffffffffffffffffffffffff1673ffffffffffffffffffffffffffffffffffffffff166312d42835836040518263ffffffff1660e01b81526004016110e69190613fd6565b602060405180830381865afa158015611103573d6000803e3d6000fd5b505050506040513d601f19601f8201168201806040525081019061112791906149b7565b9050919050565b60035481565b600082600760009054906101000a900473ffffffffffffffffffffffffffffffffffffffff1673ffffffffffffffffffffffffffffffffffffffff1663e7d4539e826040518263ffffffff1660e01b81526004016111929190613fd6565b600060405180830381600087803b1580156111ac57600080fd5b505af11580156111c0573d6000803e3d6000fd5b505050506111cf858585612f25565b9150509392505050565b7f6e71edae12b1b97f4d1f60370fef10105fa2faae0126114a169c64845d6126c981565b7f000000000000000000000000000000000000000000000000000000000000000081565b60007f0000000000000000000000000000000000000000000000000000000000000000461461125857611253466132fd565b61127a565b7f00000000000000000000000000000000000000000000000000000000000000005b905090565b600960009054906101000a900473ffffffffffffffffffffffffffffffffffffffff1681565b60008082600560003373ffffffffffffffffffffffffffffffffffffffff1673ffffffffffffffffffffffffffffffffffffffff16815260200190815260200160002060008673ffffffffffffffffffffffffffffffffffffffff1673ffffffffffffffffffffffffffffffffffffffff1681526020019081526020016000205461133091906149e4565b905080600560003373ffffffffffffffffffffffffffffffffffffffff1673ffffffffffffffffffffffffffffffffffffffff16815260200190815260200160002060008673ffffffffffffffffffffffffffffffffffffffff1673ffffffffffffffffffffffffffffffffffffffff168152602001908152602001600020819055508373ffffffffffffffffffffffffffffffffffffffff163373ffffffffffffffffffffffffffffffffffffffff167f8c5be1e5ebec7d5bd14f71427d1e84f3dd0314c0f7b2291e5b200ac8c7c3b925836040516114109190613a39565b60405180910390a3600191505092915050565b600c60009054906101000a900467ffffffffffffffff1681565b6000600860009054906101000a900473ffffffffffffffffffffffffffffffffffffffff1673ffffffffffffffffffffffffffffffffffffffff16637601687083306040518363ffffffff1660e01b815260040161149c929190614a18565b602060405180830381865afa1580156114b9573d6000803e3d6000fd5b505050506040513d601f19601f820116820180604052508101906114dd9190614a56565b9050919050565b81600760009054906101000a900473ffffffffffffffffffffffffffffffffffffffff1673ffffffffffffffffffffffffffffffffffffffff1663e7d4539e826040518263ffffffff1660e01b81526004016115409190613fd6565b600060405180830381600087803b15801561155a57600080fd5b505af115801561156e573d6000803e3d6000fd5b5050505061157c83836133a7565b505050565b600860009054906101000a900473ffffffffffffffffffffffffffffffffffffffff1681565b60006115b282610c02565b9050919050565b6040518060400160405280600181526020017f330000000000000000000000000000000000000000000000000000000000000081525081565b60016000803373ffffffffffffffffffffffffffffffffffffffff1673ffffffffffffffffffffffffffffffffffffffff1681526020019081526020016000205414611673576040517f08c379a000000000000000000000000000000000000000000000000000000000815260040161166a906145d0565b60405180910390fd5b60016000808373ffffffffffffffffffffffffffffffffffffffff1673ffffffffffffffffffffffffffffffffffffffff168152602001908152602001600020819055508073ffffffffffffffffffffffffffffffffffffffff167fdd0e34038ac38b2a1ce960229778ac48a8719bc900b6c4f8d0475c6e8b385a6060405160405180910390a250565b600b5481565b6000600860009054906101000a900473ffffffffffffffffffffffffffffffffffffffff1673ffffffffffffffffffffffffffffffffffffffff1663c8cd65e583856040518363ffffffff1660e01b8152600401611762929190614a83565b6020604051808303816000875af1158015611781573d6000803e3d6000fd5b505050506040513d601f19601f820116820180604052508101906117a59190614a56565b90508173ffffffffffffffffffffffffffffffffffffffff163073ffffffffffffffffffffffffffffffffffffffff167fdcbc1c05240f31ff3ad067ef1ee35ce4997762752e3a095284754544f4c709d78584604051611806929190614aac565b60405180910390a392915050565b60046020528060005260406000206000915090505481565b60066020528060005260406000206000915090505481565b600760009054906101000a900473ffffffffffffffffffffffffffffffffffffffff1681565b6000600860009054906101000a900473ffffffffffffffffffffffffffffffffffffffff1673ffffffffffffffffffffffffffffffffffffffff1663fbadceca83856040518363ffffffff1660e01b81526004016118c9929190614a83565b6020604051808303816000875af11580156118e8573d6000803e3d6000fd5b505050506040513d601f19601f8201168201806040525081019061190c9190614a56565b90508173ffffffffffffffffffffffffffffffffffffffff163073ffffffffffffffffffffffffffffffffffffffff167fdcbc1c05240f31ff3ad067ef1ee35ce4997762752e3a095284754544f4c709d7838660405161196d929190614aac565b60405180910390a392915050565b6002805461198890614553565b80601f01602080910402602001604051908101604052809291908181526020018280546119b490614553565b8015611a015780601f106119d657610100808354040283529160200191611a01565b820191906000526020600020905b8154815290600101906020018083116119e457829003601f168201915b505050505081565b60016000803373ffffffffffffffffffffffffffffffffffffffff1673ffffffffffffffffffffffffffffffffffffffff1681526020019081526020016000205414611a8a576040517f08c379a0000000000000000000000000000000000000000000000000000000008152600401611a81906145d0565b60405180910390fd5b80600a60006101000a8154816fffffffffffffffffffffffffffffffff02191690836fffffffffffffffffffffffffffffffff16021790555042600b8190555050565b60016000803373ffffffffffffffffffffffffffffffffffffffff1673ffffffffffffffffffffffffffffffffffffffff1681526020019081526020016000205414611b4e576040517f08c379a0000000000000000000000000000000000000000000000000000000008152600401611b45906145d0565b60405180910390fd5b60008060008373ffffffffffffffffffffffffffffffffffffffff1673ffffffffffffffffffffffffffffffffffffffff168152602001908152602001600020819055508073ffffffffffffffffffffffffffffffffffffffff167f184450df2e323acec0ed3b5c7531b81f9b4cdef7914dfd4c0a4317416bb5251b60405160405180910390a250565b6000600460008473ffffffffffffffffffffffffffffffffffffffff1673ffffffffffffffffffffffffffffffffffffffff16815260200190815260200160002054905081811015611c5f576040517f08c379a0000000000000000000000000000000000000000000000000000000008152600401611c5690614b21565b60405180910390fd5b3373ffffffffffffffffffffffffffffffffffffffff168373ffffffffffffffffffffffffffffffffffffffff1614611e03576000600560008573ffffffffffffffffffffffffffffffffffffffff1673ffffffffffffffffffffffffffffffffffffffff16815260200190815260200160002060003373ffffffffffffffffffffffffffffffffffffffff1673ffffffffffffffffffffffffffffffffffffffff1681526020019081526020016000205490507fffffffffffffffffffffffffffffffffffffffffffffffffffffffffffffffff8114611e015782811015611d7d576040517f08c379a0000000000000000000000000000000000000000000000000000000008152600401611d7490614b8d565b60405180910390fd5b828103600560008673ffffffffffffffffffffffffffffffffffffffff1673ffffffffffffffffffffffffffffffffffffffff16815260200190815260200160002060003373ffffffffffffffffffffffffffffffffffffffff1673ffffffffffffffffffffffffffffffffffffffff168152602001908152602001600020819055505b505b818103600460008573ffffffffffffffffffffffffffffffffffffffff1673ffffffffffffffffffffffffffffffffffffffff168152602001908152602001600020819055508160035403600381905550600073ffffffffffffffffffffffffffffffffffffffff168373ffffffffffffffffffffffffffffffffffffffff167fddf252ad1be2c89b69c2b068fc378daa952ba7f163c4a11628f55a4df523b3ef84604051611eb29190613a39565b60405180910390a3505050565b81421115611f02576040517f08c379a0000000000000000000000000000000000000000000000000000000008152600401611ef990614bf9565b60405180910390fd5b600073ffffffffffffffffffffffffffffffffffffffff168573ffffffffffffffffffffffffffffffffffffffff1603611f71576040517f08c379a0000000000000000000000000000000000000000000000000000000008152600401611f6890614c65565b60405180910390fd5b6000600660008773ffffffffffffffffffffffffffffffffffffffff1673ffffffffffffffffffffffffffffffffffffffff168152602001908152602001600020600081548092919060010191905055905060007f00000000000000000000000000000000000000000000000000000000000000004614611ffa57611ff5466132fd565b61201c565b7f00000000000000000000000000000000000000000000000000000000000000005b7f6e71edae12b1b97f4d1f60370fef10105fa2faae0126114a169c64845d6126c9888888868960405160200161205796959493929190614c85565b6040516020818303038152906040528051906020012060405160200161207e929190614d5e565b6040516020818303038152906040528051906020012090506120a18782856135d3565b6120e0576040517f08c379a00000000000000000000000000000000000000000000000000000000081526004016120d790614de1565b60405180910390fd5b84600560008973ffffffffffffffffffffffffffffffffffffffff1673ffffffffffffffffffffffffffffffffffffffff16815260200190815260200160002060008873ffffffffffffffffffffffffffffffffffffffff1673ffffffffffffffffffffffffffffffffffffffff168152602001908152602001600020819055508573ffffffffffffffffffffffffffffffffffffffff168773ffffffffffffffffffffffffffffffffffffffff167f8c5be1e5ebec7d5bd14f71427d1e84f3dd0314c0f7b2291e5b200ac8c7c3b925876040516121be9190613a39565b60405180910390a350505050505050565b600860009054906101000a900473ffffffffffffffffffffffffffffffffffffffff1673ffffffffffffffffffffffffffffffffffffffff166376c958a7600c60009054906101000a900467ffffffffffffffff16600c60089054906101000a900460801b84600960009054906101000a900473ffffffffffffffffffffffffffffffffffffffff166040518563ffffffff1660e01b81526004016122779493929190614e01565b600060405180830381600087803b15801561229157600080fd5b505af11580156122a5573d6000803e3d6000fd5b5050505050565b600a60009054906101000a90046fffffffffffffffffffffffffffffffff1681565b600080600560003373ffffffffffffffffffffffffffffffffffffffff1673ffffffffffffffffffffffffffffffffffffffff16815260200190815260200160002060008573ffffffffffffffffffffffffffffffffffffffff1673ffffffffffffffffffffffffffffffffffffffff16815260200190815260200160002054905082811015612393576040517f08c379a000000000000000000000000000000000000000000000000000000000815260040161238a90614b8d565b60405180910390fd5b828103905080600560003373ffffffffffffffffffffffffffffffffffffffff1673ffffffffffffffffffffffffffffffffffffffff16815260200190815260200160002060008673ffffffffffffffffffffffffffffffffffffffff1673ffffffffffffffffffffffffffffffffffffffff168152602001908152602001600020819055508373ffffffffffffffffffffffffffffffffffffffff163373ffffffffffffffffffffffffffffffffffffffff167f8c5be1e5ebec7d5bd14f71427d1e84f3dd0314c0f7b2291e5b200ac8c7c3b925836040516124769190613a39565b60405180910390a3600191505092915050565b600082600760009054906101000a900473ffffffffffffffffffffffffffffffffffffffff1673ffffffffffffffffffffffffffffffffffffffff1663e7d4539e826040518263ffffffff1660e01b81526004016124e79190613fd6565b600060405180830381600087803b15801561250157600080fd5b505af1158015612515573d6000803e3d6000fd5b5050505061252384846137ed565b91505092915050565b600860009054906101000a900473ffffffffffffffffffffffffffffffffffffffff1673ffffffffffffffffffffffffffffffffffffffff1663107703ab82336040518363ffffffff1660e01b8152600401612589929190614962565b600060405180830381600087803b1580156125a357600080fd5b505af11580156125b7573d6000803e3d6000fd5b5050505050565b60006125c982610c02565b9050919050565b60003373ffffffffffffffffffffffffffffffffffffffff168273ffffffffffffffffffffffffffffffffffffffff1614612640576040517f08c379a000000000000000000000000000000000000000000000000000000000815260040161263790614eb8565b60405180910390fd5b6000600860009054906101000a900473ffffffffffffffffffffffffffffffffffffffff1673ffffffffffffffffffffffffffffffffffffffff1663e345f4b68686866040518463ffffffff1660e01b81526004016126a193929190614ed8565b6020604051808303816000875af11580156126c0573d6000803e3d6000fd5b505050506040513d601f19601f820116820180604052508101906126e49190614a56565b90508273ffffffffffffffffffffffffffffffffffffffff168473ffffffffffffffffffffffffffffffffffffffff163073ffffffffffffffffffffffffffffffffffffffff167ffbde797d201c681b91056529119e0b02407c7bb96a4a2c75c01fc9667232c8db888560405161275c929190614aac565b60405180910390a4809150509392505050565b600c60089054906101000a900460801b81565b60003373ffffffffffffffffffffffffffffffffffffffff168273ffffffffffffffffffffffffffffffffffffffff16146127f2576040517f08c379a00000000000000000000000000000000000000000000000000000000081526004016127e990614f81565b60405180910390fd5b6000600860009054906101000a900473ffffffffffffffffffffffffffffffffffffffff1673ffffffffffffffffffffffffffffffffffffffff166360af6ad38686866040518463ffffffff1660e01b815260040161285393929190614ed8565b6020604051808303816000875af1158015612872573d6000803e3d6000fd5b505050506040513d601f19601f820116820180604052508101906128969190614a56565b90508273ffffffffffffffffffffffffffffffffffffffff168473ffffffffffffffffffffffffffffffffffffffff163073ffffffffffffffffffffffffffffffffffffffff167ffbde797d201c681b91056529119e0b02407c7bb96a4a2c75c01fc9667232c8db848960405161290e929190614aac565b60405180910390a4809150509392505050565b60006020528060005260406000206000915090505481565b6000600860009054906101000a900473ffffffffffffffffffffffffffffffffffffffff1673ffffffffffffffffffffffffffffffffffffffff1663f2e586db83306040518363ffffffff1660e01b8152600401612998929190614a18565b602060405180830381865afa1580156129b5573d6000803e3d6000fd5b505050506040513d601f19601f820116820180604052508101906129d99190614a56565b9050919050565b6000600a60009054906101000a90046fffffffffffffffffffffffffffffffff166fffffffffffffffffffffffffffffffff1682612a1e9190614fd0565b9050919050565b7f000000000000000000000000000000000000000000000000000000000000000081565b6000600860009054906101000a900473ffffffffffffffffffffffffffffffffffffffff1673ffffffffffffffffffffffffffffffffffffffff16638c22e9b083306040518363ffffffff1660e01b8152600401612aa8929190614a18565b602060405180830381865afa158015612ac5573d6000803e3d6000fd5b505050506040513d601f19601f82011682018060405250810190612ae99190614a56565b9050919050565b60016000803373ffffffffffffffffffffffffffffffffffffffff1673ffffffffffffffffffffffffffffffffffffffff1681526020019081526020016000205414612b71576040517f08c379a0000000000000000000000000000000000000000000000000000000008152600401612b68906145d0565b60405180910390fd5b7f696e766573746d656e744d616e616765720000000000000000000000000000008203612bde5780600860006101000a81548173ffffffffffffffffffffffffffffffffffffffff021916908373ffffffffffffffffffffffffffffffffffffffff160217905550612cf5565b7f61737365740000000000000000000000000000000000000000000000000000008203612c4b5780600960006101000a81548173ffffffffffffffffffffffffffffffffffffffff021916908373ffffffffffffffffffffffffffffffffffffffff160217905550612cf4565b7f6d656d6265726c697374000000000000000000000000000000000000000000008203612cb85780600760006101000a81548173ffffffffffffffffffffffffffffffffffffffff021916908373ffffffffffffffffffffffffffffffffffffffff160217905550612cf3565b6040517f08c379a0000000000000000000000000000000000000000000000000000000008152600401612cea90615073565b60405180910390fd5b5b5b817f8fef588b5fc1afbf5b2f06c1a435d513f208da2e6704c3d8f0e0ec91167066ba82604051612d259190613fd6565b60405180910390a25050565b612d6187878787868689604051602001612d4d939291906150c9565b604051602081830303815290604052611ebf565b50505050505050565b6000600860009054906101000a900473ffffffffffffffffffffffffffffffffffffffff1673ffffffffffffffffffffffffffffffffffffffff166395b734fb83306040518363ffffffff1660e01b8152600401612dc9929190614a18565b602060405180830381865afa158015612de6573d6000803e3d6000fd5b505050506040513d601f19601f82011682018060405250810190612e0a9190614a56565b9050919050565b6005602052816000526040600020602052806000526040600020600091509150505481565b6000612e41826129e0565b9050919050565b600860009054906101000a900473ffffffffffffffffffffffffffffffffffffffff1673ffffffffffffffffffffffffffffffffffffffff1663ebb730cc600c60009054906101000a900467ffffffffffffffff16600c60089054906101000a900460801b84600960009054906101000a900473ffffffffffffffffffffffffffffffffffffffff166040518563ffffffff1660e01b8152600401612ef09493929190614e01565b600060405180830381600087803b158015612f0a57600080fd5b505af1158015612f1e573d6000803e3d6000fd5b5050505050565b60008073ffffffffffffffffffffffffffffffffffffffff168373ffffffffffffffffffffffffffffffffffffffff1614158015612f8f57503073ffffffffffffffffffffffffffffffffffffffff168373ffffffffffffffffffffffffffffffffffffffff1614155b612fce576040517f08c379a0000000000000000000000000000000000000000000000000000000008152600401612fc590615152565b60405180910390fd5b6000600460008673ffffffffffffffffffffffffffffffffffffffff1673ffffffffffffffffffffffffffffffffffffffff16815260200190815260200160002054905082811015613055576040517f08c379a000000000000000000000000000000000000000000000000000000000815260040161304c90614b21565b60405180910390fd5b3373ffffffffffffffffffffffffffffffffffffffff168573ffffffffffffffffffffffffffffffffffffffff16146131f9576000600560008773ffffffffffffffffffffffffffffffffffffffff1673ffffffffffffffffffffffffffffffffffffffff16815260200190815260200160002060003373ffffffffffffffffffffffffffffffffffffffff1673ffffffffffffffffffffffffffffffffffffffff1681526020019081526020016000205490507fffffffffffffffffffffffffffffffffffffffffffffffffffffffffffffffff81146131f75783811015613173576040517f08c379a000000000000000000000000000000000000000000000000000000000815260040161316a90614b8d565b60405180910390fd5b838103600560008873ffffffffffffffffffffffffffffffffffffffff1673ffffffffffffffffffffffffffffffffffffffff16815260200190815260200160002060003373ffffffffffffffffffffffffffffffffffffffff1673ffffffffffffffffffffffffffffffffffffffff168152602001908152602001600020819055505b505b828103600460008773ffffffffffffffffffffffffffffffffffffffff1673ffffffffffffffffffffffffffffffffffffffff1681526020019081526020016000208190555082600460008673ffffffffffffffffffffffffffffffffffffffff1673ffffffffffffffffffffffffffffffffffffffff168152602001908152602001600020600082825401925050819055508373ffffffffffffffffffffffffffffffffffffffff168573ffffffffffffffffffffffffffffffffffffffff167fddf252ad1be2c89b69c2b068fc378daa952ba7f163c4a11628f55a4df523b3ef856040516132e99190613a39565b60405180910390a360019150509392505050565b60007f8b73c3c69bb8fe3d512ecc4cf759cc79239f7b179b0ffacaa9a75d522b39400f600160405161332f9190615215565b60405180910390206040518060400160405280600181526020017f330000000000000000000000000000000000000000000000000000000000000081525080519060200120843060405160200161338a95949392919061522c565b604051602081830303815290604052805190602001209050919050565b60016000803373ffffffffffffffffffffffffffffffffffffffff1673ffffffffffffffffffffffffffffffffffffffff1681526020019081526020016000205414613428576040517f08c379a000000000000000000000000000000000000000000000000000000000815260040161341f906145d0565b60405180910390fd5b600073ffffffffffffffffffffffffffffffffffffffff168273ffffffffffffffffffffffffffffffffffffffff161415801561349157503073ffffffffffffffffffffffffffffffffffffffff168273ffffffffffffffffffffffffffffffffffffffff1614155b6134d0576040517f08c379a00000000000000000000000000000000000000000000000000000000081526004016134c790615152565b60405180910390fd5b80600460008473ffffffffffffffffffffffffffffffffffffffff1673ffffffffffffffffffffffffffffffffffffffff1681526020019081526020016000205401600460008473ffffffffffffffffffffffffffffffffffffffff1673ffffffffffffffffffffffffffffffffffffffff168152602001908152602001600020819055508060035461356391906149e4565b6003819055508173ffffffffffffffffffffffffffffffffffffffff16600073ffffffffffffffffffffffffffffffffffffffff167fddf252ad1be2c89b69c2b068fc378daa952ba7f163c4a11628f55a4df523b3ef836040516135c79190613a39565b60405180910390a35050565b6000604182510361368c5760008060006020850151925060408501519150606085015160001a90506001868285856040516000815260200160405260405161361e949392919061527f565b6020604051602081039080840390855afa158015613640573d6000803e3d6000fd5b5050506020604051035173ffffffffffffffffffffffffffffffffffffffff168773ffffffffffffffffffffffffffffffffffffffff160361368857600193505050506137e6565b5050505b6000808573ffffffffffffffffffffffffffffffffffffffff16631626ba7e60e01b86866040516024016136c1929190615319565b604051602081830303815290604052907bffffffffffffffffffffffffffffffffffffffffffffffffffffffff19166020820180517bffffffffffffffffffffffffffffffffffffffffffffffffffffffff838183161783525050505060405161372b919061537a565b600060405180830381855afa9150503d8060008114613766576040519150601f19603f3d011682016040523d82523d6000602084013e61376b565b606091505b509150915081801561377e575060208151145b80156137e15750631626ba7e60e01b7bffffffffffffffffffffffffffffffffffffffffffffffffffffffff1916818060200190518101906137c091906153e9565b7bffffffffffffffffffffffffffffffffffffffffffffffffffffffff1916145b925050505b9392505050565b60008073ffffffffffffffffffffffffffffffffffffffff168373ffffffffffffffffffffffffffffffffffffffff161415801561385757503073ffffffffffffffffffffffffffffffffffffffff168373ffffffffffffffffffffffffffffffffffffffff1614155b613896576040517f08c379a000000000000000000000000000000000000000000000000000000000815260040161388d90615152565b60405180910390fd5b6000600460003373ffffffffffffffffffffffffffffffffffffffff1673ffffffffffffffffffffffffffffffffffffffff1681526020019081526020016000205490508281101561391d576040517f08c379a000000000000000000000000000000000000000000000000000000000815260040161391490614b21565b60405180910390fd5b828103600460003373ffffffffffffffffffffffffffffffffffffffff1673ffffffffffffffffffffffffffffffffffffffff1681526020019081526020016000208190555082600460008673ffffffffffffffffffffffffffffffffffffffff1673ffffffffffffffffffffffffffffffffffffffff168152602001908152602001600020600082825401925050819055508373ffffffffffffffffffffffffffffffffffffffff163373ffffffffffffffffffffffffffffffffffffffff167fddf252ad1be2c89b69c2b068fc378daa952ba7f163c4a11628f55a4df523b3ef85604051613a0d9190613a39565b60405180910390a3600191505092915050565b6000819050919050565b613a3381613a20565b82525050565b6000602082019050613a4e6000830184613a2a565b92915050565b600081519050919050565b600082825260208201905092915050565b60005b83811015613a8e578082015181840152602081019050613a73565b60008484015250505050565b6000601f19601f8301169050919050565b6000613ab682613a54565b613ac08185613a5f565b9350613ad0818560208601613a70565b613ad981613a9a565b840191505092915050565b60006020820190508181036000830152613afe8184613aab565b905092915050565b6000604051905090565b600080fd5b600080fd5b613b2381613a20565b8114613b2e57600080fd5b50565b600081359050613b4081613b1a565b92915050565b600060208284031215613b5c57613b5b613b10565b5b6000613b6a84828501613b31565b91505092915050565b600073ffffffffffffffffffffffffffffffffffffffff82169050919050565b6000613b9e82613b73565b9050919050565b613bae81613b93565b8114613bb957600080fd5b50565b600081359050613bcb81613ba5565b92915050565b60008060408385031215613be857613be7613b10565b5b6000613bf685828601613bbc565b9250506020613c0785828601613b31565b9150509250929050565b60008115159050919050565b613c2681613c11565b82525050565b6000602082019050613c416000830184613c1d565b92915050565b6000819050919050565b613c5a81613c47565b8114613c6557600080fd5b50565b600081359050613c7781613c51565b92915050565b600080fd5b600080fd5b7f4e487b7100000000000000000000000000000000000000000000000000000000600052604160045260246000fd5b613cbf82613a9a565b810181811067ffffffffffffffff82111715613cde57613cdd613c87565b5b80604052505050565b6000613cf1613b06565b9050613cfd8282613cb6565b919050565b600067ffffffffffffffff821115613d1d57613d1c613c87565b5b613d2682613a9a565b9050602081019050919050565b82818337600083830152505050565b6000613d55613d5084613d02565b613ce7565b905082815260208101848484011115613d7157613d70613c82565b5b613d7c848285613d33565b509392505050565b600082601f830112613d9957613d98613c7d565b5b8135613da9848260208601613d42565b91505092915050565b60008060408385031215613dc957613dc8613b10565b5b6000613dd785828601613c68565b925050602083013567ffffffffffffffff811115613df857613df7613b15565b5b613e0485828601613d84565b9150509250929050565b600067ffffffffffffffff82169050919050565b613e2b81613e0e565b8114613e3657600080fd5b50565b600081359050613e4881613e22565b92915050565b60007fffffffffffffffffffffffffffffffff0000000000000000000000000000000082169050919050565b613e8381613e4e565b8114613e8e57600080fd5b50565b600081359050613ea081613e7a565b92915050565b60008060408385031215613ebd57613ebc613b10565b5b6000613ecb85828601613e39565b9250506020613edc85828601613e91565b9150509250929050565b600060208284031215613efc57613efb613b10565b5b6000613f0a84828501613bbc565b91505092915050565b600080600060608486031215613f2c57613f2b613b10565b5b6000613f3a86828701613bbc565b9350506020613f4b86828701613bbc565b9250506040613f5c86828701613b31565b9150509250925092565b613f6f81613c47565b82525050565b6000602082019050613f8a6000830184613f66565b92915050565b600060ff82169050919050565b613fa681613f90565b82525050565b6000602082019050613fc16000830184613f9d565b92915050565b613fd081613b93565b82525050565b6000602082019050613feb6000830184613fc7565b92915050565b613ffa81613e0e565b82525050565b60006020820190506140156000830184613ff1565b92915050565b6000819050919050565b600061404061403b61403684613b73565b61401b565b613b73565b9050919050565b600061405282614025565b9050919050565b600061406482614047565b9050919050565b61407481614059565b82525050565b600060208201905061408f600083018461406b565b92915050565b600080604083850312156140ac576140ab613b10565b5b60006140ba85828601613b31565b92505060206140cb85828601613bbc565b9150509250929050565b60006140e082614047565b9050919050565b6140f0816140d5565b82525050565b600060208201905061410b60008301846140e7565b92915050565b60006fffffffffffffffffffffffffffffffff82169050919050565b61413681614111565b811461414157600080fd5b50565b6000813590506141538161412d565b92915050565b60006020828403121561416f5761416e613b10565b5b600061417d84828501614144565b91505092915050565b600067ffffffffffffffff8211156141a1576141a0613c87565b5b6141aa82613a9a565b9050602081019050919050565b60006141ca6141c584614186565b613ce7565b9050828152602081018484840111156141e6576141e5613c82565b5b6141f1848285613d33565b509392505050565b600082601f83011261420e5761420d613c7d565b5b813561421e8482602086016141b7565b91505092915050565b600080600080600060a0868803121561424357614242613b10565b5b600061425188828901613bbc565b955050602061426288828901613bbc565b945050604061427388828901613b31565b935050606061428488828901613b31565b925050608086013567ffffffffffffffff8111156142a5576142a4613b15565b5b6142b1888289016141f9565b9150509295509295909350565b6142c781614111565b82525050565b60006020820190506142e260008301846142be565b92915050565b60008060006060848603121561430157614300613b10565b5b600061430f86828701613b31565b935050602061432086828701613bbc565b925050604061433186828701613bbc565b9150509250925092565b61434481613e4e565b82525050565b600060208201905061435f600083018461433b565b92915050565b6000806040838503121561437c5761437b613b10565b5b600061438a85828601613c68565b925050602061439b85828601613bbc565b9150509250929050565b6143ae81613f90565b81146143b957600080fd5b50565b6000813590506143cb816143a5565b92915050565b600080600080600080600060e0888a0312156143f0576143ef613b10565b5b60006143fe8a828b01613bbc565b975050602061440f8a828b01613bbc565b96505060406144208a828b01613b31565b95505060606144318a828b01613b31565b94505060806144428a828b016143bc565b93505060a06144538a828b01613c68565b92505060c06144648a828b01613c68565b91505092959891949750929550565b6000806040838503121561448a57614489613b10565b5b600061449885828601613bbc565b92505060206144a985828601613bbc565b9150509250929050565b7f4e487b7100000000000000000000000000000000000000000000000000000000600052601160045260246000fd5b60006144ed82613a20565b91506144f883613a20565b925082820261450681613a20565b9150828204841483151761451d5761451c6144b3565b5b5092915050565b7f4e487b7100000000000000000000000000000000000000000000000000000000600052602260045260246000fd5b6000600282049050600182168061456b57607f821691505b60208210810361457e5761457d614524565b5b50919050565b7f6e6f742d617574686f72697a6564000000000000000000000000000000000000600082015250565b60006145ba600e83613a5f565b91506145c582614584565b602082019050919050565b600060208201905081810360008301526145e9816145ad565b9050919050565b60008190508160005260206000209050919050565b60006020601f8301049050919050565b600082821b905092915050565b6000600883026146527fffffffffffffffffffffffffffffffffffffffffffffffffffffffffffffffff82614615565b61465c8683614615565b95508019841693508086168417925050509392505050565b600061468f61468a61468584613a20565b61401b565b613a20565b9050919050565b6000819050919050565b6146a983614674565b6146bd6146b582614696565b848454614622565b825550505050565b600090565b6146d26146c5565b6146dd8184846146a0565b505050565b5b81811015614701576146f66000826146ca565b6001810190506146e3565b5050565b601f82111561474657614717816145f0565b61472084614605565b8101602085101561472f578190505b61474361473b85614605565b8301826146e2565b50505b505050565b600082821c905092915050565b60006147696000198460080261474b565b1980831691505092915050565b60006147828383614758565b9150826002028217905092915050565b61479b82613a54565b67ffffffffffffffff8111156147b4576147b3613c87565b5b6147be8254614553565b6147c9828285614705565b600060209050601f8311600181146147fc57600084156147ea578287015190505b6147f48582614776565b86555061485c565b601f19841661480a866145f0565b60005b828110156148325784890151825560018201915060208501945060208101905061480d565b8683101561484f578489015161484b601f891682614758565b8355505b6001600288020188555050505b505050505050565b7f45524332302f66696c652d756e7265636f676e697a65642d706172616d000000600082015250565b600061489a601d83613a5f565b91506148a582614864565b602082019050919050565b600060208201905081810360008301526148c98161488d565b9050919050565b7f4c6971756964697479506f6f6c2f706f6f6c2d64657461696c732d616c72656160008201527f64792d7365740000000000000000000000000000000000000000000000000000602082015250565b600061492c602683613a5f565b9150614937826148d0565b604082019050919050565b6000602082019050818103600083015261495b8161491f565b9050919050565b60006040820190506149776000830185613a2a565b6149846020830184613fc7565b9392505050565b61499481613c11565b811461499f57600080fd5b50565b6000815190506149b18161498b565b92915050565b6000602082840312156149cd576149cc613b10565b5b60006149db848285016149a2565b91505092915050565b60006149ef82613a20565b91506149fa83613a20565b9250828201905080821115614a1257614a116144b3565b5b92915050565b6000604082019050614a2d6000830185613fc7565b614a3a6020830184613fc7565b9392505050565b600081519050614a5081613b1a565b92915050565b600060208284031215614a6c57614a6b613b10565b5b6000614a7a84828501614a41565b91505092915050565b6000604082019050614a986000830185613fc7565b614aa56020830184613a2a565b9392505050565b6000604082019050614ac16000830185613a2a565b614ace6020830184613a2a565b9392505050565b7f45524332302f696e73756666696369656e742d62616c616e6365000000000000600082015250565b6000614b0b601a83613a5f565b9150614b1682614ad5565b602082019050919050565b60006020820190508181036000830152614b3a81614afe565b9050919050565b7f45524332302f696e73756666696369656e742d616c6c6f77616e636500000000600082015250565b6000614b77601c83613a5f565b9150614b8282614b41565b602082019050919050565b60006020820190508181036000830152614ba681614b6a565b9050919050565b7f45524332302f7065726d69742d65787069726564000000000000000000000000600082015250565b6000614be3601483613a5f565b9150614bee82614bad565b602082019050919050565b60006020820190508181036000830152614c1281614bd6565b9050919050565b7f45524332302f696e76616c69642d6f776e657200000000000000000000000000600082015250565b6000614c4f601383613a5f565b9150614c5a82614c19565b602082019050919050565b60006020820190508181036000830152614c7e81614c42565b9050919050565b600060c082019050614c9a6000830189613f66565b614ca76020830188613fc7565b614cb46040830187613fc7565b614cc16060830186613a2a565b614cce6080830185613a2a565b614cdb60a0830184613a2a565b979650505050505050565b600081905092915050565b7f1901000000000000000000000000000000000000000000000000000000000000600082015250565b6000614d27600283614ce6565b9150614d3282614cf1565b600282019050919050565b6000819050919050565b614d58614d5382613c47565b614d3d565b82525050565b6000614d6982614d1a565b9150614d758285614d47565b602082019150614d858284614d47565b6020820191508190509392505050565b7f45524332302f696e76616c69642d7065726d6974000000000000000000000000600082015250565b6000614dcb601483613a5f565b9150614dd682614d95565b602082019050919050565b60006020820190508181036000830152614dfa81614dbe565b9050919050565b6000608082019050614e166000830187613ff1565b614e23602083018661433b565b614e306040830185613fc7565b614e3d6060830184613fc7565b95945050505050565b7f4c6971756964697479506f6f6c2f6e6f742d617574686f72697a65642d746f2d60008201527f7769746864726177000000000000000000000000000000000000000000000000602082015250565b6000614ea2602883613a5f565b9150614ead82614e46565b604082019050919050565b60006020820190508181036000830152614ed181614e95565b9050919050565b6000606082019050614eed6000830186613a2a565b614efa6020830185613fc7565b614f076040830184613fc7565b949350505050565b7f4c6971756964697479506f6f6c2f6e6f742d617574686f72697a65642d746f2d60008201527f72656465656d0000000000000000000000000000000000000000000000000000602082015250565b6000614f6b602683613a5f565b9150614f7682614f0f565b604082019050919050565b60006020820190508181036000830152614f9a81614f5e565b9050919050565b7f4e487b7100000000000000000000000000000000000000000000000000000000600052601260045260246000fd5b6000614fdb82613a20565b9150614fe683613a20565b925082614ff657614ff5614fa1565b5b828204905092915050565b7f4c6971756964697479506f6f6c2f66696c652d756e7265636f676e697a65642d60008201527f706172616d000000000000000000000000000000000000000000000000000000602082015250565b600061505d602583613a5f565b915061506882615001565b604082019050919050565b6000602082019050818103600083015261508c81615050565b9050919050565b60008160f81b9050919050565b60006150ab82615093565b9050919050565b6150c36150be82613f90565b6150a0565b82525050565b60006150d58286614d47565b6020820191506150e58285614d47565b6020820191506150f582846150b2565b600182019150819050949350505050565b7f45524332302f696e76616c69642d616464726573730000000000000000000000600082015250565b600061513c601583613a5f565b915061514782615106565b602082019050919050565b6000602082019050818103600083015261516b8161512f565b9050919050565b600081905092915050565b60008190508160005260206000209050919050565b6000815461519f81614553565b6151a98186615172565b945060018216600081146151c457600181146151d95761520c565b60ff198316865281151582028601935061520c565b6151e28561517d565b60005b83811015615204578154818901526001820191506020810190506151e5565b838801955050505b50505092915050565b60006152218284615192565b915081905092915050565b600060a0820190506152416000830188613f66565b61524e6020830187613f66565b61525b6040830186613f66565b6152686060830185613a2a565b6152756080830184613fc7565b9695505050505050565b60006080820190506152946000830187613f66565b6152a16020830186613f9d565b6152ae6040830185613f66565b6152bb6060830184613f66565b95945050505050565b600081519050919050565b600082825260208201905092915050565b60006152eb826152c4565b6152f581856152cf565b9350615305818560208601613a70565b61530e81613a9a565b840191505092915050565b600060408201905061532e6000830185613f66565b818103602083015261534081846152e0565b90509392505050565b6000615354826152c4565b61535e8185615172565b935061536e818560208601613a70565b80840191505092915050565b60006153868284615349565b915081905092915050565b60007fffffffff0000000000000000000000000000000000000000000000000000000082169050919050565b6153c681615391565b81146153d157600080fd5b50565b6000815190506153e3816153bd565b92915050565b6000602082840312156153ff576153fe613b10565b5b600061540d848285016153d4565b9150509291505056fea26469706673582212208c367a17aa88e2233378339d0c5542799216b32d90d01247facb26f9e7fa665364736f6c63430008120033a264697066735822122016186f6782a4b3083e89ddbf5bd4af14ad2d43eb162350e0d540e6c49904a98a64736f6c63430008120033",
    "linkReferences": {}
  },
  "methodIdentifiers": {
    "newLiquidityPool(uint64,bytes16,uint128,address,address,address,address,string,string,uint8)": "29353662"
  },
  "id": 29
}