{
  "abi": [
    {
      "inputs": [
        {
          "internalType": "uint64",
          "name": "poolId",
          "type": "uint64"
        },
        {
          "internalType": "bytes16",
          "name": "trancheId",
          "type": "bytes16"
        },
        {
          "internalType": "string",
          "name": "name",
          "type": "string"
        },
        {
          "internalType": "string",
          "name": "symbol",
          "type": "string"
        },
        {
          "internalType": "uint8",
          "name": "decimals",
          "type": "uint8"
        }
      ],
      "name": "newTrancheToken",
      "outputs": [
        {
          "internalType": "address",
          "name": "",
          "type": "address"
        }
      ],
      "stateMutability": "nonpayable",
      "type": "function"
    }
  ],
  "bytecode": {
    "object": "0x608060405234801561001057600080fd5b50614502806100206000396000f3fe60806040523480156200001157600080fd5b50600436106200002e5760003560e01c80639664e4361462000033575b600080fd5b6200005160048036038101906200004b919062000509565b62000069565b60405162000060919062000614565b60405180910390f35b60008086866040516020016200008192919062000692565b60405160208183030381529060405280519060200120905060008184604051620000ab90620002a5565b620000b79190620006d3565b8190604051809103906000f5905080158015620000d8573d6000803e3d6000fd5b5090508073ffffffffffffffffffffffffffffffffffffffff1663097ac46e876040518263ffffffff1660e01b81526004016200011691906200079f565b600060405180830381600087803b1580156200013157600080fd5b505af115801562000146573d6000803e3d6000fd5b505050508073ffffffffffffffffffffffffffffffffffffffff1663097ac46e866040518263ffffffff1660e01b8152600401620001859190620007f7565b600060405180830381600087803b158015620001a057600080fd5b505af1158015620001b5573d6000803e3d6000fd5b505050508073ffffffffffffffffffffffffffffffffffffffff166365fae35e336040518263ffffffff1660e01b8152600401620001f4919062000614565b600060405180830381600087803b1580156200020f57600080fd5b505af115801562000224573d6000803e3d6000fd5b505050508073ffffffffffffffffffffffffffffffffffffffff16639c52a7f1306040518263ffffffff1660e01b815260040162000263919062000614565b600060405180830381600087803b1580156200027e57600080fd5b505af115801562000293573d6000803e3d6000fd5b50505050809250505095945050505050565b613ca3806200082a83390190565b6000604051905090565b600080fd5b600080fd5b600067ffffffffffffffff82169050919050565b620002e681620002c7565b8114620002f257600080fd5b50565b6000813590506200030681620002db565b92915050565b60007fffffffffffffffffffffffffffffffff0000000000000000000000000000000082169050919050565b62000343816200030c565b81146200034f57600080fd5b50565b600081359050620003638162000338565b92915050565b600080fd5b600080fd5b6000601f19601f8301169050919050565b7f4e487b7100000000000000000000000000000000000000000000000000000000600052604160045260246000fd5b620003be8262000373565b810181811067ffffffffffffffff82111715620003e057620003df62000384565b5b80604052505050565b6000620003f5620002b3565b9050620004038282620003b3565b919050565b600067ffffffffffffffff82111562000426576200042562000384565b5b620004318262000373565b9050602081019050919050565b82818337600083830152505050565b6000620004646200045e8462000408565b620003e9565b9050828152602081018484840111156200048357620004826200036e565b5b620004908482856200043e565b509392505050565b600082601f830112620004b057620004af62000369565b5b8135620004c28482602086016200044d565b91505092915050565b600060ff82169050919050565b620004e381620004cb565b8114620004ef57600080fd5b50565b6000813590506200050381620004d8565b92915050565b600080600080600060a08688031215620005285762000527620002bd565b5b60006200053888828901620002f5565b95505060206200054b8882890162000352565b945050604086013567ffffffffffffffff8111156200056f576200056e620002c2565b5b6200057d8882890162000498565b935050606086013567ffffffffffffffff811115620005a157620005a0620002c2565b5b620005af8882890162000498565b9250506080620005c288828901620004f2565b9150509295509295909350565b600073ffffffffffffffffffffffffffffffffffffffff82169050919050565b6000620005fc82620005cf565b9050919050565b6200060e81620005ef565b82525050565b60006020820190506200062b600083018462000603565b92915050565b60008160c01b9050919050565b60006200064b8262000631565b9050919050565b620006676200066182620002c7565b6200063e565b82525050565b6000819050919050565b6200068c62000686826200030c565b6200066d565b82525050565b6000620006a0828562000652565b600882019150620006b2828462000677565b6010820191508190509392505050565b620006cd81620004cb565b82525050565b6000602082019050620006ea6000830184620006c2565b92915050565b7f6e616d6500000000000000000000000000000000000000000000000000000000815250565b600081519050919050565b600082825260208201905092915050565b60005b838110156200075257808201518184015260208101905062000735565b60008484015250505050565b60006200076b8262000716565b62000777818562000721565b93506200078981856020860162000732565b620007948162000373565b840191505092915050565b6000604082019050620007b560008301620006f0565b8181036020830152620007c981846200075e565b905092915050565b7f73796d626f6c0000000000000000000000000000000000000000000000000000815250565b60006040820190506200080d60008301620007d1565b81810360208301526200082181846200075e565b90509291505056fe60e06040523480156200001157600080fd5b5060405162003ca338038062003ca38339818101604052810190620000379190620001a3565b808060ff1660808160ff168152505060016000803373ffffffffffffffffffffffffffffffffffffffff1673ffffffffffffffffffffffffffffffffffffffff168152602001908152602001600020819055504660a08181525050620000a346620000b260201b60201c565b60c081815250505050620003d9565b60007f8b73c3c69bb8fe3d512ecc4cf759cc79239f7b179b0ffacaa9a75d522b39400f6001604051620000e69190620002e8565b60405180910390206040518060400160405280600181526020017f3300000000000000000000000000000000000000000000000000000000000000815250805190602001208430604051602001620001439594939291906200037c565b604051602081830303815290604052805190602001209050919050565b600080fd5b600060ff82169050919050565b6200017d8162000165565b81146200018957600080fd5b50565b6000815190506200019d8162000172565b92915050565b600060208284031215620001bc57620001bb62000160565b5b6000620001cc848285016200018c565b91505092915050565b7f4e487b7100000000000000000000000000000000000000000000000000000000600052602260045260246000fd5b600060028204905060018216806200021d57607f821691505b602082108103620002335762000232620001d5565b5b50919050565b600081905092915050565b60008190508160005260206000209050919050565b60008154620002688162000204565b62000274818662000239565b94506001821660008114620002925760018114620002a857620002df565b60ff1983168652811515820286019350620002df565b620002b38562000244565b60005b83811015620002d757815481890152600182019150602081019050620002b6565b838801955050505b50505092915050565b6000620002f6828462000259565b915081905092915050565b6000819050919050565b620003168162000301565b82525050565b6000819050919050565b62000331816200031c565b82525050565b600073ffffffffffffffffffffffffffffffffffffffff82169050919050565b6000620003648262000337565b9050919050565b620003768162000357565b82525050565b600060a0820190506200039360008301886200030b565b620003a260208301876200030b565b620003b160408301866200030b565b620003c0606083018562000326565b620003cf60808301846200036b565b9695505050505050565b60805160a05160c0516138856200041e60003960008181610a3e01526113d5015260008181610a09015281816113a00152611820015260006109e301526138856000f3fe608060405234801561001057600080fd5b50600436106101a95760003560e01c806370a08231116100f9578063a457c2d711610097578063cd0d009611610071578063cd0d0096146104f6578063d4e8be8314610514578063d505accf14610530578063dd62ed3e1461054c576101a9565b8063a457c2d714610466578063a9059cbb14610496578063bf353dbb146104c6576101a9565b806395d89b41116100d357806395d89b41146103f45780639c52a7f1146104125780639dc29fac1461042e5780639fd5a6cf1461044a576101a9565b806370a08231146103765780637ecebe00146103a65780638ed1ef35146103d6576101a9565b806330adf81f11610166578063395093511161014057806339509351146102f057806340c10f191461032057806354fd4d501461033c57806365fae35e1461035a576101a9565b806330adf81f14610296578063313ce567146102b45780633644e515146102d2576101a9565b806306fdde03146101ae578063095ea7b3146101cc578063097ac46e146101fc57806312d428351461021857806318160ddd1461024857806323b872dd14610266575b600080fd5b6101b661057c565b6040516101c39190612590565b60405180910390f35b6101e660048036038101906101e1919061265a565b61060a565b6040516101f391906126b5565b60405180910390f35b6102166004803603810190610211919061283b565b6106fc565b005b610232600480360381019061022d9190612897565b61086d565b60405161023f91906126b5565b60405180910390f35b610250610912565b60405161025d91906128d3565b60405180910390f35b610280600480360381019061027b91906128ee565b610918565b60405161028d91906126b5565b60405180910390f35b61029e6109bd565b6040516102ab9190612950565b60405180910390f35b6102bc6109e1565b6040516102c99190612987565b60405180910390f35b6102da610a05565b6040516102e79190612950565b60405180910390f35b61030a6004803603810190610305919061265a565b610a63565b60405161031791906126b5565b60405180910390f35b61033a6004803603810190610335919061265a565b610be1565b005b610344610c7e565b6040516103519190612590565b60405180910390f35b610374600480360381019061036f9190612897565b610cb7565b005b610390600480360381019061038b9190612897565b610dc2565b60405161039d91906128d3565b60405180910390f35b6103c060048036038101906103bb9190612897565b610dda565b6040516103cd91906128d3565b60405180910390f35b6103de610df2565b6040516103eb9190612a01565b60405180910390f35b6103fc610e18565b6040516104099190612590565b60405180910390f35b61042c60048036038101906104279190612897565b610ea6565b005b6104486004803603810190610443919061265a565b610fb1565b005b610464600480360381019061045f9190612abd565b611298565b005b610480600480360381019061047b919061265a565b6115a8565b60405161048d91906126b5565b60405180910390f35b6104b060048036038101906104ab919061265a565b611763565b6040516104bd91906126b5565b60405180910390f35b6104e060048036038101906104db9190612897565b611806565b6040516104ed91906128d3565b60405180910390f35b6104fe61181e565b60405161050b91906128d3565b60405180910390f35b61052e60048036038101906105299190612b54565b611842565b005b61054a60048036038101906105459190612bc0565b6119a7565b005b61056660048036038101906105619190612c62565b6119e0565b60405161057391906128d3565b60405180910390f35b6001805461058990612cd1565b80601f01602080910402602001604051908101604052809291908181526020018280546105b590612cd1565b80156106025780601f106105d757610100808354040283529160200191610602565b820191906000526020600020905b8154815290600101906020018083116105e557829003601f168201915b505050505081565b600081600560003373ffffffffffffffffffffffffffffffffffffffff1673ffffffffffffffffffffffffffffffffffffffff16815260200190815260200160002060008573ffffffffffffffffffffffffffffffffffffffff1673ffffffffffffffffffffffffffffffffffffffff168152602001908152602001600020819055508273ffffffffffffffffffffffffffffffffffffffff163373ffffffffffffffffffffffffffffffffffffffff167f8c5be1e5ebec7d5bd14f71427d1e84f3dd0314c0f7b2291e5b200ac8c7c3b925846040516106ea91906128d3565b60405180910390a36001905092915050565b60016000803373ffffffffffffffffffffffffffffffffffffffff1673ffffffffffffffffffffffffffffffffffffffff168152602001908152602001600020541461077d576040517f08c379a000000000000000000000000000000000000000000000000000000000815260040161077490612d4e565b60405180910390fd5b7f6e616d650000000000000000000000000000000000000000000000000000000082036107b95780600190816107b39190612f10565b50610831565b7f73796d626f6c000000000000000000000000000000000000000000000000000082036107f55780600290816107ef9190612f10565b50610830565b6040517f08c379a00000000000000000000000000000000000000000000000000000000081526004016108279061302e565b60405180910390fd5b5b817fe42e0b9a029dc87ccb1029c632e6359090acd0eb032b2b59c811e3ec70160dc6826040516108619190612590565b60405180910390a25050565b6000600760009054906101000a900473ffffffffffffffffffffffffffffffffffffffff1673ffffffffffffffffffffffffffffffffffffffff166312d42835836040518263ffffffff1660e01b81526004016108ca919061305d565b602060405180830381865afa1580156108e7573d6000803e3d6000fd5b505050506040513d601f19601f8201168201806040525081019061090b91906130a4565b9050919050565b60035481565b600082600760009054906101000a900473ffffffffffffffffffffffffffffffffffffffff1673ffffffffffffffffffffffffffffffffffffffff1663e7d4539e826040518263ffffffff1660e01b8152600401610976919061305d565b600060405180830381600087803b15801561099057600080fd5b505af11580156109a4573d6000803e3d6000fd5b505050506109b3858585611a05565b9150509392505050565b7f6e71edae12b1b97f4d1f60370fef10105fa2faae0126114a169c64845d6126c981565b7f000000000000000000000000000000000000000000000000000000000000000081565b60007f00000000000000000000000000000000000000000000000000000000000000004614610a3c57610a3746611ddd565b610a5e565b7f00000000000000000000000000000000000000000000000000000000000000005b905090565b60008082600560003373ffffffffffffffffffffffffffffffffffffffff1673ffffffffffffffffffffffffffffffffffffffff16815260200190815260200160002060008673ffffffffffffffffffffffffffffffffffffffff1673ffffffffffffffffffffffffffffffffffffffff16815260200190815260200160002054610aee9190613100565b905080600560003373ffffffffffffffffffffffffffffffffffffffff1673ffffffffffffffffffffffffffffffffffffffff16815260200190815260200160002060008673ffffffffffffffffffffffffffffffffffffffff1673ffffffffffffffffffffffffffffffffffffffff168152602001908152602001600020819055508373ffffffffffffffffffffffffffffffffffffffff163373ffffffffffffffffffffffffffffffffffffffff167f8c5be1e5ebec7d5bd14f71427d1e84f3dd0314c0f7b2291e5b200ac8c7c3b92583604051610bce91906128d3565b60405180910390a3600191505092915050565b81600760009054906101000a900473ffffffffffffffffffffffffffffffffffffffff1673ffffffffffffffffffffffffffffffffffffffff1663e7d4539e826040518263ffffffff1660e01b8152600401610c3d919061305d565b600060405180830381600087803b158015610c5757600080fd5b505af1158015610c6b573d6000803e3d6000fd5b50505050610c798383611e87565b505050565b6040518060400160405280600181526020017f330000000000000000000000000000000000000000000000000000000000000081525081565b60016000803373ffffffffffffffffffffffffffffffffffffffff1673ffffffffffffffffffffffffffffffffffffffff1681526020019081526020016000205414610d38576040517f08c379a0000000000000000000000000000000000000000000000000000000008152600401610d2f90612d4e565b60405180910390fd5b60016000808373ffffffffffffffffffffffffffffffffffffffff1673ffffffffffffffffffffffffffffffffffffffff168152602001908152602001600020819055508073ffffffffffffffffffffffffffffffffffffffff167fdd0e34038ac38b2a1ce960229778ac48a8719bc900b6c4f8d0475c6e8b385a6060405160405180910390a250565b60046020528060005260406000206000915090505481565b60066020528060005260406000206000915090505481565b600760009054906101000a900473ffffffffffffffffffffffffffffffffffffffff1681565b60028054610e2590612cd1565b80601f0160208091040260200160405190810160405280929190818152602001828054610e5190612cd1565b8015610e9e5780601f10610e7357610100808354040283529160200191610e9e565b820191906000526020600020905b815481529060010190602001808311610e8157829003601f168201915b505050505081565b60016000803373ffffffffffffffffffffffffffffffffffffffff1673ffffffffffffffffffffffffffffffffffffffff1681526020019081526020016000205414610f27576040517f08c379a0000000000000000000000000000000000000000000000000000000008152600401610f1e90612d4e565b60405180910390fd5b60008060008373ffffffffffffffffffffffffffffffffffffffff1673ffffffffffffffffffffffffffffffffffffffff168152602001908152602001600020819055508073ffffffffffffffffffffffffffffffffffffffff167f184450df2e323acec0ed3b5c7531b81f9b4cdef7914dfd4c0a4317416bb5251b60405160405180910390a250565b6000600460008473ffffffffffffffffffffffffffffffffffffffff1673ffffffffffffffffffffffffffffffffffffffff16815260200190815260200160002054905081811015611038576040517f08c379a000000000000000000000000000000000000000000000000000000000815260040161102f90613180565b60405180910390fd5b3373ffffffffffffffffffffffffffffffffffffffff168373ffffffffffffffffffffffffffffffffffffffff16146111dc576000600560008573ffffffffffffffffffffffffffffffffffffffff1673ffffffffffffffffffffffffffffffffffffffff16815260200190815260200160002060003373ffffffffffffffffffffffffffffffffffffffff1673ffffffffffffffffffffffffffffffffffffffff1681526020019081526020016000205490507fffffffffffffffffffffffffffffffffffffffffffffffffffffffffffffffff81146111da5782811015611156576040517f08c379a000000000000000000000000000000000000000000000000000000000815260040161114d906131ec565b60405180910390fd5b828103600560008673ffffffffffffffffffffffffffffffffffffffff1673ffffffffffffffffffffffffffffffffffffffff16815260200190815260200160002060003373ffffffffffffffffffffffffffffffffffffffff1673ffffffffffffffffffffffffffffffffffffffff168152602001908152602001600020819055505b505b818103600460008573ffffffffffffffffffffffffffffffffffffffff1673ffffffffffffffffffffffffffffffffffffffff168152602001908152602001600020819055508160035403600381905550600073ffffffffffffffffffffffffffffffffffffffff168373ffffffffffffffffffffffffffffffffffffffff167fddf252ad1be2c89b69c2b068fc378daa952ba7f163c4a11628f55a4df523b3ef8460405161128b91906128d3565b60405180910390a3505050565b814211156112db576040517f08c379a00000000000000000000000000000000000000000000000000000000081526004016112d290613258565b60405180910390fd5b600073ffffffffffffffffffffffffffffffffffffffff168573ffffffffffffffffffffffffffffffffffffffff160361134a576040517f08c379a0000000000000000000000000000000000000000000000000000000008152600401611341906132c4565b60405180910390fd5b6000600660008773ffffffffffffffffffffffffffffffffffffffff1673ffffffffffffffffffffffffffffffffffffffff168152602001908152602001600020600081548092919060010191905055905060007f000000000000000000000000000000000000000000000000000000000000000046146113d3576113ce46611ddd565b6113f5565b7f00000000000000000000000000000000000000000000000000000000000000005b7f6e71edae12b1b97f4d1f60370fef10105fa2faae0126114a169c64845d6126c98888888689604051602001611430969594939291906132e4565b604051602081830303815290604052805190602001206040516020016114579291906133bd565b60405160208183030381529060405280519060200120905061147a8782856120b3565b6114b9576040517f08c379a00000000000000000000000000000000000000000000000000000000081526004016114b090613440565b60405180910390fd5b84600560008973ffffffffffffffffffffffffffffffffffffffff1673ffffffffffffffffffffffffffffffffffffffff16815260200190815260200160002060008873ffffffffffffffffffffffffffffffffffffffff1673ffffffffffffffffffffffffffffffffffffffff168152602001908152602001600020819055508573ffffffffffffffffffffffffffffffffffffffff168773ffffffffffffffffffffffffffffffffffffffff167f8c5be1e5ebec7d5bd14f71427d1e84f3dd0314c0f7b2291e5b200ac8c7c3b9258760405161159791906128d3565b60405180910390a350505050505050565b600080600560003373ffffffffffffffffffffffffffffffffffffffff1673ffffffffffffffffffffffffffffffffffffffff16815260200190815260200160002060008573ffffffffffffffffffffffffffffffffffffffff1673ffffffffffffffffffffffffffffffffffffffff1681526020019081526020016000205490508281101561166d576040517f08c379a0000000000000000000000000000000000000000000000000000000008152600401611664906131ec565b60405180910390fd5b828103905080600560003373ffffffffffffffffffffffffffffffffffffffff1673ffffffffffffffffffffffffffffffffffffffff16815260200190815260200160002060008673ffffffffffffffffffffffffffffffffffffffff1673ffffffffffffffffffffffffffffffffffffffff168152602001908152602001600020819055508373ffffffffffffffffffffffffffffffffffffffff163373ffffffffffffffffffffffffffffffffffffffff167f8c5be1e5ebec7d5bd14f71427d1e84f3dd0314c0f7b2291e5b200ac8c7c3b9258360405161175091906128d3565b60405180910390a3600191505092915050565b600082600760009054906101000a900473ffffffffffffffffffffffffffffffffffffffff1673ffffffffffffffffffffffffffffffffffffffff1663e7d4539e826040518263ffffffff1660e01b81526004016117c1919061305d565b600060405180830381600087803b1580156117db57600080fd5b505af11580156117ef573d6000803e3d6000fd5b505050506117fd84846122cd565b91505092915050565b60006020528060005260406000206000915090505481565b7f000000000000000000000000000000000000000000000000000000000000000081565b60016000803373ffffffffffffffffffffffffffffffffffffffff1673ffffffffffffffffffffffffffffffffffffffff16815260200190815260200160002054146118c3576040517f08c379a00000000000000000000000000000000000000000000000000000000081526004016118ba90612d4e565b60405180910390fd5b7f6d656d6265726c6973740000000000000000000000000000000000000000000082036119305780600760006101000a81548173ffffffffffffffffffffffffffffffffffffffff021916908373ffffffffffffffffffffffffffffffffffffffff16021790555061196b565b6040517f08c379a0000000000000000000000000000000000000000000000000000000008152600401611962906134ac565b60405180910390fd5b817f8fef588b5fc1afbf5b2f06c1a435d513f208da2e6704c3d8f0e0ec91167066ba8260405161199b919061305d565b60405180910390a25050565b6119d7878787878686896040516020016119c393929190613502565b604051602081830303815290604052611298565b50505050505050565b6005602052816000526040600020602052806000526040600020600091509150505481565b60008073ffffffffffffffffffffffffffffffffffffffff168373ffffffffffffffffffffffffffffffffffffffff1614158015611a6f57503073ffffffffffffffffffffffffffffffffffffffff168373ffffffffffffffffffffffffffffffffffffffff1614155b611aae576040517f08c379a0000000000000000000000000000000000000000000000000000000008152600401611aa59061358b565b60405180910390fd5b6000600460008673ffffffffffffffffffffffffffffffffffffffff1673ffffffffffffffffffffffffffffffffffffffff16815260200190815260200160002054905082811015611b35576040517f08c379a0000000000000000000000000000000000000000000000000000000008152600401611b2c90613180565b60405180910390fd5b3373ffffffffffffffffffffffffffffffffffffffff168573ffffffffffffffffffffffffffffffffffffffff1614611cd9576000600560008773ffffffffffffffffffffffffffffffffffffffff1673ffffffffffffffffffffffffffffffffffffffff16815260200190815260200160002060003373ffffffffffffffffffffffffffffffffffffffff1673ffffffffffffffffffffffffffffffffffffffff1681526020019081526020016000205490507fffffffffffffffffffffffffffffffffffffffffffffffffffffffffffffffff8114611cd75783811015611c53576040517f08c379a0000000000000000000000000000000000000000000000000000000008152600401611c4a906131ec565b60405180910390fd5b838103600560008873ffffffffffffffffffffffffffffffffffffffff1673ffffffffffffffffffffffffffffffffffffffff16815260200190815260200160002060003373ffffffffffffffffffffffffffffffffffffffff1673ffffffffffffffffffffffffffffffffffffffff168152602001908152602001600020819055505b505b828103600460008773ffffffffffffffffffffffffffffffffffffffff1673ffffffffffffffffffffffffffffffffffffffff1681526020019081526020016000208190555082600460008673ffffffffffffffffffffffffffffffffffffffff1673ffffffffffffffffffffffffffffffffffffffff168152602001908152602001600020600082825401925050819055508373ffffffffffffffffffffffffffffffffffffffff168573ffffffffffffffffffffffffffffffffffffffff167fddf252ad1be2c89b69c2b068fc378daa952ba7f163c4a11628f55a4df523b3ef85604051611dc991906128d3565b60405180910390a360019150509392505050565b60007f8b73c3c69bb8fe3d512ecc4cf759cc79239f7b179b0ffacaa9a75d522b39400f6001604051611e0f919061364e565b60405180910390206040518060400160405280600181526020017f3300000000000000000000000000000000000000000000000000000000000000815250805190602001208430604051602001611e6a959493929190613665565b604051602081830303815290604052805190602001209050919050565b60016000803373ffffffffffffffffffffffffffffffffffffffff1673ffffffffffffffffffffffffffffffffffffffff1681526020019081526020016000205414611f08576040517f08c379a0000000000000000000000000000000000000000000000000000000008152600401611eff90612d4e565b60405180910390fd5b600073ffffffffffffffffffffffffffffffffffffffff168273ffffffffffffffffffffffffffffffffffffffff1614158015611f7157503073ffffffffffffffffffffffffffffffffffffffff168273ffffffffffffffffffffffffffffffffffffffff1614155b611fb0576040517f08c379a0000000000000000000000000000000000000000000000000000000008152600401611fa79061358b565b60405180910390fd5b80600460008473ffffffffffffffffffffffffffffffffffffffff1673ffffffffffffffffffffffffffffffffffffffff1681526020019081526020016000205401600460008473ffffffffffffffffffffffffffffffffffffffff1673ffffffffffffffffffffffffffffffffffffffff16815260200190815260200160002081905550806003546120439190613100565b6003819055508173ffffffffffffffffffffffffffffffffffffffff16600073ffffffffffffffffffffffffffffffffffffffff167fddf252ad1be2c89b69c2b068fc378daa952ba7f163c4a11628f55a4df523b3ef836040516120a791906128d3565b60405180910390a35050565b6000604182510361216c5760008060006020850151925060408501519150606085015160001a9050600186828585604051600081526020016040526040516120fe94939291906136b8565b6020604051602081039080840390855afa158015612120573d6000803e3d6000fd5b5050506020604051035173ffffffffffffffffffffffffffffffffffffffff168773ffffffffffffffffffffffffffffffffffffffff160361216857600193505050506122c6565b5050505b6000808573ffffffffffffffffffffffffffffffffffffffff16631626ba7e60e01b86866040516024016121a1929190613752565b604051602081830303815290604052907bffffffffffffffffffffffffffffffffffffffffffffffffffffffff19166020820180517bffffffffffffffffffffffffffffffffffffffffffffffffffffffff838183161783525050505060405161220b91906137b3565b600060405180830381855afa9150503d8060008114612246576040519150601f19603f3d011682016040523d82523d6000602084013e61224b565b606091505b509150915081801561225e575060208151145b80156122c15750631626ba7e60e01b7bffffffffffffffffffffffffffffffffffffffffffffffffffffffff1916818060200190518101906122a09190613822565b7bffffffffffffffffffffffffffffffffffffffffffffffffffffffff1916145b925050505b9392505050565b60008073ffffffffffffffffffffffffffffffffffffffff168373ffffffffffffffffffffffffffffffffffffffff161415801561233757503073ffffffffffffffffffffffffffffffffffffffff168373ffffffffffffffffffffffffffffffffffffffff1614155b612376576040517f08c379a000000000000000000000000000000000000000000000000000000000815260040161236d9061358b565b60405180910390fd5b6000600460003373ffffffffffffffffffffffffffffffffffffffff1673ffffffffffffffffffffffffffffffffffffffff168152602001908152602001600020549050828110156123fd576040517f08c379a00000000000000000000000000000000000000000000000000000000081526004016123f490613180565b60405180910390fd5b828103600460003373ffffffffffffffffffffffffffffffffffffffff1673ffffffffffffffffffffffffffffffffffffffff1681526020019081526020016000208190555082600460008673ffffffffffffffffffffffffffffffffffffffff1673ffffffffffffffffffffffffffffffffffffffff168152602001908152602001600020600082825401925050819055508373ffffffffffffffffffffffffffffffffffffffff163373ffffffffffffffffffffffffffffffffffffffff167fddf252ad1be2c89b69c2b068fc378daa952ba7f163c4a11628f55a4df523b3ef856040516124ed91906128d3565b60405180910390a3600191505092915050565b600081519050919050565b600082825260208201905092915050565b60005b8381101561253a57808201518184015260208101905061251f565b60008484015250505050565b6000601f19601f8301169050919050565b600061256282612500565b61256c818561250b565b935061257c81856020860161251c565b61258581612546565b840191505092915050565b600060208201905081810360008301526125aa8184612557565b905092915050565b6000604051905090565b600080fd5b600080fd5b600073ffffffffffffffffffffffffffffffffffffffff82169050919050565b60006125f1826125c6565b9050919050565b612601816125e6565b811461260c57600080fd5b50565b60008135905061261e816125f8565b92915050565b6000819050919050565b61263781612624565b811461264257600080fd5b50565b6000813590506126548161262e565b92915050565b60008060408385031215612671576126706125bc565b5b600061267f8582860161260f565b925050602061269085828601612645565b9150509250929050565b60008115159050919050565b6126af8161269a565b82525050565b60006020820190506126ca60008301846126a6565b92915050565b6000819050919050565b6126e3816126d0565b81146126ee57600080fd5b50565b600081359050612700816126da565b92915050565b600080fd5b600080fd5b7f4e487b7100000000000000000000000000000000000000000000000000000000600052604160045260246000fd5b61274882612546565b810181811067ffffffffffffffff8211171561276757612766612710565b5b80604052505050565b600061277a6125b2565b9050612786828261273f565b919050565b600067ffffffffffffffff8211156127a6576127a5612710565b5b6127af82612546565b9050602081019050919050565b82818337600083830152505050565b60006127de6127d98461278b565b612770565b9050828152602081018484840111156127fa576127f961270b565b5b6128058482856127bc565b509392505050565b600082601f83011261282257612821612706565b5b81356128328482602086016127cb565b91505092915050565b60008060408385031215612852576128516125bc565b5b6000612860858286016126f1565b925050602083013567ffffffffffffffff811115612881576128806125c1565b5b61288d8582860161280d565b9150509250929050565b6000602082840312156128ad576128ac6125bc565b5b60006128bb8482850161260f565b91505092915050565b6128cd81612624565b82525050565b60006020820190506128e860008301846128c4565b92915050565b600080600060608486031215612907576129066125bc565b5b60006129158682870161260f565b93505060206129268682870161260f565b925050604061293786828701612645565b9150509250925092565b61294a816126d0565b82525050565b60006020820190506129656000830184612941565b92915050565b600060ff82169050919050565b6129818161296b565b82525050565b600060208201905061299c6000830184612978565b92915050565b6000819050919050565b60006129c76129c26129bd846125c6565b6129a2565b6125c6565b9050919050565b60006129d9826129ac565b9050919050565b60006129eb826129ce565b9050919050565b6129fb816129e0565b82525050565b6000602082019050612a1660008301846129f2565b92915050565b600067ffffffffffffffff821115612a3757612a36612710565b5b612a4082612546565b9050602081019050919050565b6000612a60612a5b84612a1c565b612770565b905082815260208101848484011115612a7c57612a7b61270b565b5b612a878482856127bc565b509392505050565b600082601f830112612aa457612aa3612706565b5b8135612ab4848260208601612a4d565b91505092915050565b600080600080600060a08688031215612ad957612ad86125bc565b5b6000612ae78882890161260f565b9550506020612af88882890161260f565b9450506040612b0988828901612645565b9350506060612b1a88828901612645565b925050608086013567ffffffffffffffff811115612b3b57612b3a6125c1565b5b612b4788828901612a8f565b9150509295509295909350565b60008060408385031215612b6b57612b6a6125bc565b5b6000612b79858286016126f1565b9250506020612b8a8582860161260f565b9150509250929050565b612b9d8161296b565b8114612ba857600080fd5b50565b600081359050612bba81612b94565b92915050565b600080600080600080600060e0888a031215612bdf57612bde6125bc565b5b6000612bed8a828b0161260f565b9750506020612bfe8a828b0161260f565b9650506040612c0f8a828b01612645565b9550506060612c208a828b01612645565b9450506080612c318a828b01612bab565b93505060a0612c428a828b016126f1565b92505060c0612c538a828b016126f1565b91505092959891949750929550565b60008060408385031215612c7957612c786125bc565b5b6000612c878582860161260f565b9250506020612c988582860161260f565b9150509250929050565b7f4e487b7100000000000000000000000000000000000000000000000000000000600052602260045260246000fd5b60006002820490506001821680612ce957607f821691505b602082108103612cfc57612cfb612ca2565b5b50919050565b7f6e6f742d617574686f72697a6564000000000000000000000000000000000000600082015250565b6000612d38600e8361250b565b9150612d4382612d02565b602082019050919050565b60006020820190508181036000830152612d6781612d2b565b9050919050565b60008190508160005260206000209050919050565b60006020601f8301049050919050565b600082821b905092915050565b600060088302612dd07fffffffffffffffffffffffffffffffffffffffffffffffffffffffffffffffff82612d93565b612dda8683612d93565b95508019841693508086168417925050509392505050565b6000612e0d612e08612e0384612624565b6129a2565b612624565b9050919050565b6000819050919050565b612e2783612df2565b612e3b612e3382612e14565b848454612da0565b825550505050565b600090565b612e50612e43565b612e5b818484612e1e565b505050565b5b81811015612e7f57612e74600082612e48565b600181019050612e61565b5050565b601f821115612ec457612e9581612d6e565b612e9e84612d83565b81016020851015612ead578190505b612ec1612eb985612d83565b830182612e60565b50505b505050565b600082821c905092915050565b6000612ee760001984600802612ec9565b1980831691505092915050565b6000612f008383612ed6565b9150826002028217905092915050565b612f1982612500565b67ffffffffffffffff811115612f3257612f31612710565b5b612f3c8254612cd1565b612f47828285612e83565b600060209050601f831160018114612f7a5760008415612f68578287015190505b612f728582612ef4565b865550612fda565b601f198416612f8886612d6e565b60005b82811015612fb057848901518255600182019150602085019450602081019050612f8b565b86831015612fcd5784890151612fc9601f891682612ed6565b8355505b6001600288020188555050505b505050505050565b7f45524332302f66696c652d756e7265636f676e697a65642d706172616d000000600082015250565b6000613018601d8361250b565b915061302382612fe2565b602082019050919050565b600060208201905081810360008301526130478161300b565b9050919050565b613057816125e6565b82525050565b6000602082019050613072600083018461304e565b92915050565b6130818161269a565b811461308c57600080fd5b50565b60008151905061309e81613078565b92915050565b6000602082840312156130ba576130b96125bc565b5b60006130c88482850161308f565b91505092915050565b7f4e487b7100000000000000000000000000000000000000000000000000000000600052601160045260246000fd5b600061310b82612624565b915061311683612624565b925082820190508082111561312e5761312d6130d1565b5b92915050565b7f45524332302f696e73756666696369656e742d62616c616e6365000000000000600082015250565b600061316a601a8361250b565b915061317582613134565b602082019050919050565b600060208201905081810360008301526131998161315d565b9050919050565b7f45524332302f696e73756666696369656e742d616c6c6f77616e636500000000600082015250565b60006131d6601c8361250b565b91506131e1826131a0565b602082019050919050565b60006020820190508181036000830152613205816131c9565b9050919050565b7f45524332302f7065726d69742d65787069726564000000000000000000000000600082015250565b600061324260148361250b565b915061324d8261320c565b602082019050919050565b6000602082019050818103600083015261327181613235565b9050919050565b7f45524332302f696e76616c69642d6f776e657200000000000000000000000000600082015250565b60006132ae60138361250b565b91506132b982613278565b602082019050919050565b600060208201905081810360008301526132dd816132a1565b9050919050565b600060c0820190506132f96000830189612941565b613306602083018861304e565b613313604083018761304e565b61332060608301866128c4565b61332d60808301856128c4565b61333a60a08301846128c4565b979650505050505050565b600081905092915050565b7f1901000000000000000000000000000000000000000000000000000000000000600082015250565b6000613386600283613345565b915061339182613350565b600282019050919050565b6000819050919050565b6133b76133b2826126d0565b61339c565b82525050565b60006133c882613379565b91506133d482856133a6565b6020820191506133e482846133a6565b6020820191508190509392505050565b7f45524332302f696e76616c69642d7065726d6974000000000000000000000000600082015250565b600061342a60148361250b565b9150613435826133f4565b602082019050919050565b600060208201905081810360008301526134598161341d565b9050919050565b7f66696c652d756e7265636f676e697a65642d706172616d000000000000000000600082015250565b600061349660178361250b565b91506134a182613460565b602082019050919050565b600060208201905081810360008301526134c581613489565b9050919050565b60008160f81b9050919050565b60006134e4826134cc565b9050919050565b6134fc6134f78261296b565b6134d9565b82525050565b600061350e82866133a6565b60208201915061351e82856133a6565b60208201915061352e82846134eb565b600182019150819050949350505050565b7f45524332302f696e76616c69642d616464726573730000000000000000000000600082015250565b600061357560158361250b565b91506135808261353f565b602082019050919050565b600060208201905081810360008301526135a481613568565b9050919050565b600081905092915050565b60008190508160005260206000209050919050565b600081546135d881612cd1565b6135e281866135ab565b945060018216600081146135fd576001811461361257613645565b60ff1983168652811515820286019350613645565b61361b856135b6565b60005b8381101561363d5781548189015260018201915060208101905061361e565b838801955050505b50505092915050565b600061365a82846135cb565b915081905092915050565b600060a08201905061367a6000830188612941565b6136876020830187612941565b6136946040830186612941565b6136a160608301856128c4565b6136ae608083018461304e565b9695505050505050565b60006080820190506136cd6000830187612941565b6136da6020830186612978565b6136e76040830185612941565b6136f46060830184612941565b95945050505050565b600081519050919050565b600082825260208201905092915050565b6000613724826136fd565b61372e8185613708565b935061373e81856020860161251c565b61374781612546565b840191505092915050565b60006040820190506137676000830185612941565b81810360208301526137798184613719565b90509392505050565b600061378d826136fd565b61379781856135ab565b93506137a781856020860161251c565b80840191505092915050565b60006137bf8284613782565b915081905092915050565b60007fffffffff0000000000000000000000000000000000000000000000000000000082169050919050565b6137ff816137ca565b811461380a57600080fd5b50565b60008151905061381c816137f6565b92915050565b600060208284031215613838576138376125bc565b5b60006138468482850161380d565b9150509291505056fea264697066735822122038de0ce4e7004e57e794a6ccbe9b2e178b498e4693aead937e88c2df2b3982c464736f6c63430008120033a26469706673582212201646596253ec4b2c7caec2423c90940356394de3030407cab3286671f9f147f064736f6c63430008120033",
    "linkReferences": {}
  },
  "methodIdentifiers": {
    "newTrancheToken(uint64,bytes16,string,string,uint8)": "9664e436"
  },
  "id": 36
}