{
  "abi": [
    {
      "inputs": [
        {
          "internalType": "enum Messages.Domain",
          "name": "domain",
          "type": "Messages.Domain"
        },
        {
          "internalType": "uint64",
          "name": "chainId",
          "type": "uint64"
        }
      ],
      "name": "formatDomain",
      "outputs": [
        {
          "internalType": "bytes9",
          "name": "",
          "type": "bytes9"
        }
      ],
      "stateMutability": "pure",
      "type": "function"
    },
    {
      "inputs": [
        {
          "internalType": "enum Messages.Domain",
          "name": "domain",
          "type": "Messages.Domain"
        }
      ],
      "name": "formatDomain",
      "outputs": [
        {
          "internalType": "bytes9",
          "name": "",
          "type": "bytes9"
        }
      ],
      "stateMutability": "pure",
      "type": "function"
    }
  ],
  "bytecode": {
    "object": "0x610c49610053600b82828239805160001a607314610046577f4e487b7100000000000000000000000000000000000000000000000000000000600052600060045260246000fd5b30600052607381538281f3fe73000000000000000000000000000000000000000030146080604052600436106100405760003560e01c806324ead92b1461004557806357d1607114610075575b600080fd5b61005f600480360381019061005a919061060b565b6100a5565b60405161006c9190610686565b60405180910390f35b61008f600480360381019061008a91906106a1565b610112565b60405161009c9190610686565b60405180910390f35b600061010a600060096100f560008760018111156100c6576100c56106ce565b5b876040516020016100d8929190610776565b60405160208183030381529060405261015390919063ffffffff16565b62ffffff191661017e9092919063ffffffff16565b905092915050565b6000816001811115610127576101266106ce565b5b60f81b7effffffffffffffffffffffffffffffffffffffffffffffffffffffffffffff19169050919050565b6000808351905060006020850190506101748464ffffffffff1682846102c2565b9250505092915050565b6000808260ff1603610195576000801b90506102bb565b61019e84610329565b6bffffffffffffffffffffffff168260ff16846101bb91906107db565b1115610238576101fc6101cd8561034f565b6bffffffffffffffffffffffff166101e486610329565b6bffffffffffffffffffffffff16858560ff16610378565b6040517f08c379a000000000000000000000000000000000000000000000000000000000815260040161022f919061089f565b60405180910390fd5b60208260ff16111561027f576040517f08c379a000000000000000000000000000000000000000000000000000000000815260040161027690610933565b60405180910390fd5b600060088302905060006102928661034f565b6bffffffffffffffffffffffff16905060006102ad836103e6565b905080868301511693505050505b9392505050565b60008082846102d191906107db565b90506040518111156102e257600090505b60008103610313577fffffffffffffffffffffffffffffffffffffffffffffffffffffffffff000000915050610322565b61031e858585610415565b9150505b9392505050565b6000806bffffffffffffffffffffffff90506000601890508184821c1692505050919050565b6000806bffffffffffffffffffffffff90506000607860ff1690508184821c1692505050919050565b6060600061038586610440565b915050600061039386610440565b91505060006103a186610440565b91505060006103af86610440565b915050838383836040516020016103c99493929190610b22565b604051602081830303815290604052945050505050949350505050565b60007f8000000000000000000000000000000000000000000000000000000000000000600183031d9050919050565b60008060609050600060189050858317821b9250848317821b9250838317811b925050509392505050565b6000806000601f90505b600f8160ff16111561049d5760006008826104659190610ba7565b60ff1685901c9050610476816104fe565b61ffff168417935060108260ff161461049157601084901b93505b6001820391505061044a565b506000600f90505b60ff8160ff1610156104f85760006008826104c09190610ba7565b60ff1685901c90506104d1816104fe565b61ffff168317925060008260ff16146104ec57601083901b92505b600182039150506104a5565b50915091565b600061051060048360ff16901c610537565b60ff168117905060088161ffff16901b905061052b82610537565b60ff1681179050919050565b600080600f831690506040518060400160405280601081526020017f30313233343536373839616263646566000000000000000000000000000000008152508160ff168151811061058b5761058a610be4565b5b602001015160f81c60f81b60f81c915050919050565b600080fd5b600281106105b357600080fd5b50565b6000813590506105c5816105a6565b92915050565b600067ffffffffffffffff82169050919050565b6105e8816105cb565b81146105f357600080fd5b50565b600081359050610605816105df565b92915050565b60008060408385031215610622576106216105a1565b5b6000610630858286016105b6565b9250506020610641858286016105f6565b9150509250929050565b60007fffffffffffffffffff000000000000000000000000000000000000000000000082169050919050565b6106808161064b565b82525050565b600060208201905061069b6000830184610677565b92915050565b6000602082840312156106b7576106b66105a1565b5b60006106c5848285016105b6565b91505092915050565b7f4e487b7100000000000000000000000000000000000000000000000000000000600052602160045260246000fd5b600060ff82169050919050565b60008160f81b9050919050565b60006107228261070a565b9050919050565b61073a610735826106fd565b610717565b82525050565b60008160c01b9050919050565b600061075882610740565b9050919050565b61077061076b826105cb565b61074d565b82525050565b60006107828285610729565b600182019150610792828461075f565b6008820191508190509392505050565b6000819050919050565b7f4e487b7100000000000000000000000000000000000000000000000000000000600052601160045260246000fd5b60006107e6826107a2565b91506107f1836107a2565b9250828201905080821115610809576108086107ac565b5b92915050565b600081519050919050565b600082825260208201905092915050565b60005b8381101561084957808201518184015260208101905061082e565b60008484015250505050565b6000601f19601f8301169050919050565b60006108718261080f565b61087b818561081a565b935061088b81856020860161082b565b61089481610855565b840191505092915050565b600060208201905081810360008301526108b98184610866565b905092915050565b7f54797065644d656d566965772f696e646578202d20417474656d70746564207460008201527f6f20696e646578206d6f7265207468616e203332206279746573000000000000602082015250565b600061091d603a8361081a565b9150610928826108c1565b604082019050919050565b6000602082019050818103600083015261094c81610910565b9050919050565b600081905092915050565b7f54797065644d656d566965772f696e646578202d204f76657272616e2074686560008201527f20766965772e20536c6963652069732061742030780000000000000000000000602082015250565b60006109ba603583610953565b91506109c58261095e565b603582019050919050565b600065ffffffffffff82169050919050565b60008160d01b9050919050565b60006109fa826109e2565b9050919050565b610a12610a0d826109d0565b6109ef565b82525050565b7f2077697468206c656e6774682030780000000000000000000000000000000000600082015250565b6000610a4e600f83610953565b9150610a5982610a18565b600f82019050919050565b7f2e20417474656d7074656420746f20696e646578206174206f6666736574203060008201527f7800000000000000000000000000000000000000000000000000000000000000602082015250565b6000610ac0602183610953565b9150610acb82610a64565b602182019050919050565b7f2e00000000000000000000000000000000000000000000000000000000000000600082015250565b6000610b0c600183610953565b9150610b1782610ad6565b600182019050919050565b6000610b2d826109ad565b9150610b398287610a01565b600682019150610b4882610a41565b9150610b548286610a01565b600682019150610b6382610ab3565b9150610b6f8285610a01565b600682019150610b7e82610a41565b9150610b8a8284610a01565b600682019150610b9982610aff565b915081905095945050505050565b6000610bb2826106fd565b9150610bbd836106fd565b9250828202610bcb816106fd565b9150808214610bdd57610bdc6107ac565b5b5092915050565b7f4e487b7100000000000000000000000000000000000000000000000000000000600052603260045260246000fdfea2646970667358221220110b81a8af34c3312824a336aa8ebac0fb42fc362d1d5d813752ef9c7ee46ecb64736f6c63430008120033",
    "linkReferences": {}
  },
  "methodIdentifiers": {
    "formatDomain(Messages.Domain)": "57d16071",
    "formatDomain(Messages.Domain,uint64)": "24ead92b"
  },
  "id": 25
}