{
  "abi": [
    {
      "anonymous": false,
      "inputs": [
        {
          "indexed": true,
          "internalType": "address",
          "name": "usr",
          "type": "address"
        }
      ],
      "name": "Deny",
      "type": "event"
    },
    {
      "anonymous": false,
      "inputs": [
        {
          "indexed": true,
          "internalType": "address",
          "name": "usr",
          "type": "address"
        }
      ],
      "name": "Rely",
      "type": "event"
    },
    {
      "inputs": [
        {
          "internalType": "address",
          "name": "usr",
          "type": "address"
        }
      ],
      "name": "deny",
      "outputs": [],
      "stateMutability": "nonpayable",
      "type": "function"
    },
    {
      "inputs": [
        {
          "internalType": "address",
          "name": "usr",
          "type": "address"
        }
      ],
      "name": "rely",
      "outputs": [],
      "stateMutability": "nonpayable",
      "type": "function"
    },
    {
      "inputs": [
        {
          "internalType": "address",
          "name": "",
          "type": "address"
        }
      ],
      "name": "wards",
      "outputs": [
        {
          "internalType": "uint256",
          "name": "",
          "type": "uint256"
        }
      ],
      "stateMutability": "view",
      "type": "function"
    }
  ],
  "bytecode": {
    "object": "0x608060405234801561001057600080fd5b50610453806100206000396000f3fe608060405234801561001057600080fd5b50600436106100415760003560e01c806365fae35e146100465780639c52a7f114610062578063bf353dbb1461007e575b600080fd5b610060600480360381019061005b919061033f565b6100ae565b005b61007c6004803603810190610077919061033f565b6101b9565b005b6100986004803603810190610093919061033f565b6102c4565b6040516100a59190610385565b60405180910390f35b60016000803373ffffffffffffffffffffffffffffffffffffffff1673ffffffffffffffffffffffffffffffffffffffff168152602001908152602001600020541461012f576040517f08c379a0000000000000000000000000000000000000000000000000000000008152600401610126906103fd565b60405180910390fd5b60016000808373ffffffffffffffffffffffffffffffffffffffff1673ffffffffffffffffffffffffffffffffffffffff168152602001908152602001600020819055508073ffffffffffffffffffffffffffffffffffffffff167fdd0e34038ac38b2a1ce960229778ac48a8719bc900b6c4f8d0475c6e8b385a6060405160405180910390a250565b60016000803373ffffffffffffffffffffffffffffffffffffffff1673ffffffffffffffffffffffffffffffffffffffff168152602001908152602001600020541461023a576040517f08c379a0000000000000000000000000000000000000000000000000000000008152600401610231906103fd565b60405180910390fd5b60008060008373ffffffffffffffffffffffffffffffffffffffff1673ffffffffffffffffffffffffffffffffffffffff168152602001908152602001600020819055508073ffffffffffffffffffffffffffffffffffffffff167f184450df2e323acec0ed3b5c7531b81f9b4cdef7914dfd4c0a4317416bb5251b60405160405180910390a250565b60006020528060005260406000206000915090505481565b600080fd5b600073ffffffffffffffffffffffffffffffffffffffff82169050919050565b600061030c826102e1565b9050919050565b61031c81610301565b811461032757600080fd5b50565b60008135905061033981610313565b92915050565b600060208284031215610355576103546102dc565b5b60006103638482850161032a565b91505092915050565b6000819050919050565b61037f8161036c565b82525050565b600060208201905061039a6000830184610376565b92915050565b600082825260208201905092915050565b7f6e6f742d617574686f72697a6564000000000000000000000000000000000000600082015250565b60006103e7600e836103a0565b91506103f2826103b1565b602082019050919050565b60006020820190508181036000830152610416816103da565b905091905056fea2646970667358221220b8504999bb826513fc884bc467c850a90fdbfbb2a05c1b783d3562ff3ac6173264736f6c63430008120033",
    "linkReferences": {}
  },
  "methodIdentifiers": {
    "deny(address)": "9c52a7f1",
    "rely(address)": "65fae35e",
    "wards(address)": "bf353dbb"
  },
  "id": 28
}