{
  "abi": [
    {
      "inputs": [
        {
          "internalType": "uint8",
          "name": "decimals_",
          "type": "uint8"
        }
      ],
      "stateMutability": "nonpayable",
      "type": "constructor"
    },
    {
      "anonymous": false,
      "inputs": [
        {
          "indexed": true,
          "internalType": "address",
          "name": "owner",
          "type": "address"
        },
        {
          "indexed": true,
          "internalType": "address",
          "name": "spender",
          "type": "address"
        },
        {
          "indexed": false,
          "internalType": "uint256",
          "name": "value",
          "type": "uint256"
        }
      ],
      "name": "Approval",
      "type": "event"
    },
    {
      "anonymous": false,
      "inputs": [
        {
          "indexed": true,
          "internalType": "address",
          "name": "usr",
          "type": "address"
        }
      ],
      "name": "Deny",
      "type": "event"
    },
    {
      "anonymous": false,
      "inputs": [
        {
          "indexed": true,
          "internalType": "bytes32",
          "name": "what",
          "type": "bytes32"
        },
        {
          "indexed": false,
          "internalType": "string",
          "name": "data",
          "type": "string"
        }
      ],
      "name": "File",
      "type": "event"
    },
    {
      "anonymous": false,
      "inputs": [
        {
          "indexed": true,
          "internalType": "address",
          "name": "usr",
          "type": "address"
        }
      ],
      "name": "Rely",
      "type": "event"
    },
    {
      "anonymous": false,
      "inputs": [
        {
          "indexed": true,
          "internalType": "address",
          "name": "from",
          "type": "address"
        },
        {
          "indexed": true,
          "internalType": "address",
          "name": "to",
          "type": "address"
        },
        {
          "indexed": false,
          "internalType": "uint256",
          "name": "value",
          "type": "uint256"
        }
      ],
      "name": "Transfer",
      "type": "event"
    },
    {
      "inputs": [],
      "name": "DOMAIN_SEPARATOR",
      "outputs": [
        {
          "internalType": "bytes32",
          "name": "",
          "type": "bytes32"
        }
      ],
      "stateMutability": "view",
      "type": "function"
    },
    {
      "inputs": [],
      "name": "PERMIT_TYPEHASH",
      "outputs": [
        {
          "internalType": "bytes32",
          "name": "",
          "type": "bytes32"
        }
      ],
      "stateMutability": "view",
      "type": "function"
    },
    {
      "inputs": [
        {
          "internalType": "address",
          "name": "",
          "type": "address"
        },
        {
          "internalType": "address",
          "name": "",
          "type": "address"
        }
      ],
      "name": "allowance",
      "outputs": [
        {
          "internalType": "uint256",
          "name": "",
          "type": "uint256"
        }
      ],
      "stateMutability": "view",
      "type": "function"
    },
    {
      "inputs": [
        {
          "internalType": "address",
          "name": "spender",
          "type": "address"
        },
        {
          "internalType": "uint256",
          "name": "value",
          "type": "uint256"
        }
      ],
      "name": "approve",
      "outputs": [
        {
          "internalType": "bool",
          "name": "",
          "type": "bool"
        }
      ],
      "stateMutability": "nonpayable",
      "type": "function"
    },
    {
      "inputs": [
        {
          "internalType": "address",
          "name": "",
          "type": "address"
        }
      ],
      "name": "balanceOf",
      "outputs": [
        {
          "internalType": "uint256",
          "name": "",
          "type": "uint256"
        }
      ],
      "stateMutability": "view",
      "type": "function"
    },
    {
      "inputs": [
        {
          "internalType": "address",
          "name": "from",
          "type": "address"
        },
        {
          "internalType": "uint256",
          "name": "value",
          "type": "uint256"
        }
      ],
      "name": "burn",
      "outputs": [],
      "stateMutability": "nonpayable",
      "type": "function"
    },
    {
      "inputs": [],
      "name": "decimals",
      "outputs": [
        {
          "internalType": "uint8",
          "name": "",
          "type": "uint8"
        }
      ],
      "stateMutability": "view",
      "type": "function"
    },
    {
      "inputs": [
        {
          "internalType": "address",
          "name": "spender",
          "type": "address"
        },
        {
          "internalType": "uint256",
          "name": "subtractedValue",
          "type": "uint256"
        }
      ],
      "name": "decreaseAllowance",
      "outputs": [
        {
          "internalType": "bool",
          "name": "",
          "type": "bool"
        }
      ],
      "stateMutability": "nonpayable",
      "type": "function"
    },
    {
      "inputs": [
        {
          "internalType": "address",
          "name": "usr",
          "type": "address"
        }
      ],
      "name": "deny",
      "outputs": [],
      "stateMutability": "nonpayable",
      "type": "function"
    },
    {
      "inputs": [],
      "name": "deploymentChainId",
      "outputs": [
        {
          "internalType": "uint256",
          "name": "",
          "type": "uint256"
        }
      ],
      "stateMutability": "view",
      "type": "function"
    },
    {
      "inputs": [
        {
          "internalType": "bytes32",
          "name": "what",
          "type": "bytes32"
        },
        {
          "internalType": "string",
          "name": "data",
          "type": "string"
        }
      ],
      "name": "file",
      "outputs": [],
      "stateMutability": "nonpayable",
      "type": "function"
    },
    {
      "inputs": [
        {
          "internalType": "address",
          "name": "spender",
          "type": "address"
        },
        {
          "internalType": "uint256",
          "name": "addedValue",
          "type": "uint256"
        }
      ],
      "name": "increaseAllowance",
      "outputs": [
        {
          "internalType": "bool",
          "name": "",
          "type": "bool"
        }
      ],
      "stateMutability": "nonpayable",
      "type": "function"
    },
    {
      "inputs": [
        {
          "internalType": "address",
          "name": "to",
          "type": "address"
        },
        {
          "internalType": "uint256",
          "name": "value",
          "type": "uint256"
        }
      ],
      "name": "mint",
      "outputs": [],
      "stateMutability": "nonpayable",
      "type": "function"
    },
    {
      "inputs": [],
      "name": "name",
      "outputs": [
        {
          "internalType": "string",
          "name": "",
          "type": "string"
        }
      ],
      "stateMutability": "view",
      "type": "function"
    },
    {
      "inputs": [
        {
          "internalType": "address",
          "name": "",
          "type": "address"
        }
      ],
      "name": "nonces",
      "outputs": [
        {
          "internalType": "uint256",
          "name": "",
          "type": "uint256"
        }
      ],
      "stateMutability": "view",
      "type": "function"
    },
    {
      "inputs": [
        {
          "internalType": "address",
          "name": "owner",
          "type": "address"
        },
        {
          "internalType": "address",
          "name": "spender",
          "type": "address"
        },
        {
          "internalType": "uint256",
          "name": "value",
          "type": "uint256"
        },
        {
          "internalType": "uint256",
          "name": "deadline",
          "type": "uint256"
        },
        {
          "internalType": "bytes",
          "name": "signature",
          "type": "bytes"
        }
      ],
      "name": "permit",
      "outputs": [],
      "stateMutability": "nonpayable",
      "type": "function"
    },
    {
      "inputs": [
        {
          "internalType": "address",
          "name": "owner",
          "type": "address"
        },
        {
          "internalType": "address",
          "name": "spender",
          "type": "address"
        },
        {
          "internalType": "uint256",
          "name": "value",
          "type": "uint256"
        },
        {
          "internalType": "uint256",
          "name": "deadline",
          "type": "uint256"
        },
        {
          "internalType": "uint8",
          "name": "v",
          "type": "uint8"
        },
        {
          "internalType": "bytes32",
          "name": "r",
          "type": "bytes32"
        },
        {
          "internalType": "bytes32",
          "name": "s",
          "type": "bytes32"
        }
      ],
      "name": "permit",
      "outputs": [],
      "stateMutability": "nonpayable",
      "type": "function"
    },
    {
      "inputs": [
        {
          "internalType": "address",
          "name": "usr",
          "type": "address"
        }
      ],
      "name": "rely",
      "outputs": [],
      "stateMutability": "nonpayable",
      "type": "function"
    },
    {
      "inputs": [],
      "name": "symbol",
      "outputs": [
        {
          "internalType": "string",
          "name": "",
          "type": "string"
        }
      ],
      "stateMutability": "view",
      "type": "function"
    },
    {
      "inputs": [],
      "name": "totalSupply",
      "outputs": [
        {
          "internalType": "uint256",
          "name": "",
          "type": "uint256"
        }
      ],
      "stateMutability": "view",
      "type": "function"
    },
    {
      "inputs": [
        {
          "internalType": "address",
          "name": "to",
          "type": "address"
        },
        {
          "internalType": "uint256",
          "name": "value",
          "type": "uint256"
        }
      ],
      "name": "transfer",
      "outputs": [
        {
          "internalType": "bool",
          "name": "",
          "type": "bool"
        }
      ],
      "stateMutability": "nonpayable",
      "type": "function"
    },
    {
      "inputs": [
        {
          "internalType": "address",
          "name": "from",
          "type": "address"
        },
        {
          "internalType": "address",
          "name": "to",
          "type": "address"
        },
        {
          "internalType": "uint256",
          "name": "value",
          "type": "uint256"
        }
      ],
      "name": "transferFrom",
      "outputs": [
        {
          "internalType": "bool",
          "name": "",
          "type": "bool"
        }
      ],
      "stateMutability": "nonpayable",
      "type": "function"
    },
    {
      "inputs": [],
      "name": "version",
      "outputs": [
        {
          "internalType": "string",
          "name": "",
          "type": "string"
        }
      ],
      "stateMutability": "view",
      "type": "function"
    },
    {
      "inputs": [
        {
          "internalType": "address",
          "name": "",
          "type": "address"
        }
      ],
      "name": "wards",
      "outputs": [
        {
          "internalType": "uint256",
          "name": "",
          "type": "uint256"
        }
      ],
      "stateMutability": "view",
      "type": "function"
    }
  ],
  "bytecode": {
    "object": "0x60e06040523480156200001157600080fd5b5060405162003641380380620036418339818101604052810190620000379190620001a1565b8060ff1660808160ff168152505060016000803373ffffffffffffffffffffffffffffffffffffffff1673ffffffffffffffffffffffffffffffffffffffff168152602001908152602001600020819055504660a08181525050620000a246620000b060201b60201c565b60c0818152505050620003d7565b60007f8b73c3c69bb8fe3d512ecc4cf759cc79239f7b179b0ffacaa9a75d522b39400f6001604051620000e49190620002e6565b60405180910390206040518060400160405280600181526020017f3300000000000000000000000000000000000000000000000000000000000000815250805190602001208430604051602001620001419594939291906200037a565b604051602081830303815290604052805190602001209050919050565b600080fd5b600060ff82169050919050565b6200017b8162000163565b81146200018757600080fd5b50565b6000815190506200019b8162000170565b92915050565b600060208284031215620001ba57620001b96200015e565b5b6000620001ca848285016200018a565b91505092915050565b7f4e487b7100000000000000000000000000000000000000000000000000000000600052602260045260246000fd5b600060028204905060018216806200021b57607f821691505b602082108103620002315762000230620001d3565b5b50919050565b600081905092915050565b60008190508160005260206000209050919050565b60008154620002668162000202565b62000272818662000237565b94506001821660008114620002905760018114620002a657620002dd565b60ff1983168652811515820286019350620002dd565b620002b18562000242565b60005b83811015620002d557815481890152600182019150602081019050620002b4565b838801955050505b50505092915050565b6000620002f4828462000257565b915081905092915050565b6000819050919050565b6200031481620002ff565b82525050565b6000819050919050565b6200032f816200031a565b82525050565b600073ffffffffffffffffffffffffffffffffffffffff82169050919050565b6000620003628262000335565b9050919050565b620003748162000355565b82525050565b600060a08201905062000391600083018862000309565b620003a0602083018762000309565b620003af604083018662000309565b620003be606083018562000324565b620003cd608083018462000369565b9695505050505050565b60805160a05160c0516132256200041c60003960008181610c110152611711015260008181610bdc015281816116dc0152611cec01526000610bb601526132256000f3fe608060405234801561001057600080fd5b50600436106101585760003560e01c806370a08231116100c3578063a457c2d71161007c578063a457c2d7146103c7578063a9059cbb146103f7578063bf353dbb14610427578063cd0d009614610457578063d505accf14610475578063dd62ed3e1461049157610158565b806370a08231146102f55780637ecebe001461032557806395d89b41146103555780639c52a7f1146103735780639dc29fac1461038f5780639fd5a6cf146103ab57610158565b8063313ce56711610115578063313ce567146102335780633644e51514610251578063395093511461026f57806340c10f191461029f57806354fd4d50146102bb57806365fae35e146102d957610158565b806306fdde031461015d578063095ea7b31461017b578063097ac46e146101ab57806318160ddd146101c757806323b872dd146101e557806330adf81f14610215575b600080fd5b6101656104c1565b60405161017291906120c0565b60405180910390f35b6101956004803603810190610190919061218a565b61054f565b6040516101a291906121e5565b60405180910390f35b6101c560048036038101906101c0919061236b565b610641565b005b6101cf6107b2565b6040516101dc91906123d6565b60405180910390f35b6101ff60048036038101906101fa91906123f1565b6107b8565b60405161020c91906121e5565b60405180910390f35b61021d610b90565b60405161022a9190612453565b60405180910390f35b61023b610bb4565b604051610248919061248a565b60405180910390f35b610259610bd8565b6040516102669190612453565b60405180910390f35b6102896004803603810190610284919061218a565b610c36565b60405161029691906121e5565b60405180910390f35b6102b960048036038101906102b4919061218a565b610db4565b005b6102c3610fe0565b6040516102d091906120c0565b60405180910390f35b6102f360048036038101906102ee91906124a5565b611019565b005b61030f600480360381019061030a91906124a5565b611124565b60405161031c91906123d6565b60405180910390f35b61033f600480360381019061033a91906124a5565b61113c565b60405161034c91906123d6565b60405180910390f35b61035d611154565b60405161036a91906120c0565b60405180910390f35b61038d600480360381019061038891906124a5565b6111e2565b005b6103a960048036038101906103a4919061218a565b6112ed565b005b6103c560048036038101906103c09190612573565b6115d4565b005b6103e160048036038101906103dc919061218a565b6118e4565b6040516103ee91906121e5565b60405180910390f35b610411600480360381019061040c919061218a565b611a9f565b60405161041e91906121e5565b60405180910390f35b610441600480360381019061043c91906124a5565b611cd2565b60405161044e91906123d6565b60405180910390f35b61045f611cea565b60405161046c91906123d6565b60405180910390f35b61048f600480360381019061048a9190612636565b611d0e565b005b6104ab60048036038101906104a691906126d8565b611d47565b6040516104b891906123d6565b60405180910390f35b600180546104ce90612747565b80601f01602080910402602001604051908101604052809291908181526020018280546104fa90612747565b80156105475780601f1061051c57610100808354040283529160200191610547565b820191906000526020600020905b81548152906001019060200180831161052a57829003601f168201915b505050505081565b600081600560003373ffffffffffffffffffffffffffffffffffffffff1673ffffffffffffffffffffffffffffffffffffffff16815260200190815260200160002060008573ffffffffffffffffffffffffffffffffffffffff1673ffffffffffffffffffffffffffffffffffffffff168152602001908152602001600020819055508273ffffffffffffffffffffffffffffffffffffffff163373ffffffffffffffffffffffffffffffffffffffff167f8c5be1e5ebec7d5bd14f71427d1e84f3dd0314c0f7b2291e5b200ac8c7c3b9258460405161062f91906123d6565b60405180910390a36001905092915050565b60016000803373ffffffffffffffffffffffffffffffffffffffff1673ffffffffffffffffffffffffffffffffffffffff16815260200190815260200160002054146106c2576040517f08c379a00000000000000000000000000000000000000000000000000000000081526004016106b9906127c4565b60405180910390fd5b7f6e616d650000000000000000000000000000000000000000000000000000000082036106fe5780600190816106f89190612990565b50610776565b7f73796d626f6c0000000000000000000000000000000000000000000000000000820361073a5780600290816107349190612990565b50610775565b6040517f08c379a000000000000000000000000000000000000000000000000000000000815260040161076c90612aae565b60405180910390fd5b5b817fe42e0b9a029dc87ccb1029c632e6359090acd0eb032b2b59c811e3ec70160dc6826040516107a691906120c0565b60405180910390a25050565b60035481565b60008073ffffffffffffffffffffffffffffffffffffffff168373ffffffffffffffffffffffffffffffffffffffff161415801561082257503073ffffffffffffffffffffffffffffffffffffffff168373ffffffffffffffffffffffffffffffffffffffff1614155b610861576040517f08c379a000000000000000000000000000000000000000000000000000000000815260040161085890612b1a565b60405180910390fd5b6000600460008673ffffffffffffffffffffffffffffffffffffffff1673ffffffffffffffffffffffffffffffffffffffff168152602001908152602001600020549050828110156108e8576040517f08c379a00000000000000000000000000000000000000000000000000000000081526004016108df90612b86565b60405180910390fd5b3373ffffffffffffffffffffffffffffffffffffffff168573ffffffffffffffffffffffffffffffffffffffff1614610a8c576000600560008773ffffffffffffffffffffffffffffffffffffffff1673ffffffffffffffffffffffffffffffffffffffff16815260200190815260200160002060003373ffffffffffffffffffffffffffffffffffffffff1673ffffffffffffffffffffffffffffffffffffffff1681526020019081526020016000205490507fffffffffffffffffffffffffffffffffffffffffffffffffffffffffffffffff8114610a8a5783811015610a06576040517f08c379a00000000000000000000000000000000000000000000000000000000081526004016109fd90612bf2565b60405180910390fd5b838103600560008873ffffffffffffffffffffffffffffffffffffffff1673ffffffffffffffffffffffffffffffffffffffff16815260200190815260200160002060003373ffffffffffffffffffffffffffffffffffffffff1673ffffffffffffffffffffffffffffffffffffffff168152602001908152602001600020819055505b505b828103600460008773ffffffffffffffffffffffffffffffffffffffff1673ffffffffffffffffffffffffffffffffffffffff1681526020019081526020016000208190555082600460008673ffffffffffffffffffffffffffffffffffffffff1673ffffffffffffffffffffffffffffffffffffffff168152602001908152602001600020600082825401925050819055508373ffffffffffffffffffffffffffffffffffffffff168573ffffffffffffffffffffffffffffffffffffffff167fddf252ad1be2c89b69c2b068fc378daa952ba7f163c4a11628f55a4df523b3ef85604051610b7c91906123d6565b60405180910390a360019150509392505050565b7f6e71edae12b1b97f4d1f60370fef10105fa2faae0126114a169c64845d6126c981565b7f000000000000000000000000000000000000000000000000000000000000000081565b60007f00000000000000000000000000000000000000000000000000000000000000004614610c0f57610c0a46611d6c565b610c31565b7f00000000000000000000000000000000000000000000000000000000000000005b905090565b60008082600560003373ffffffffffffffffffffffffffffffffffffffff1673ffffffffffffffffffffffffffffffffffffffff16815260200190815260200160002060008673ffffffffffffffffffffffffffffffffffffffff1673ffffffffffffffffffffffffffffffffffffffff16815260200190815260200160002054610cc19190612c41565b905080600560003373ffffffffffffffffffffffffffffffffffffffff1673ffffffffffffffffffffffffffffffffffffffff16815260200190815260200160002060008673ffffffffffffffffffffffffffffffffffffffff1673ffffffffffffffffffffffffffffffffffffffff168152602001908152602001600020819055508373ffffffffffffffffffffffffffffffffffffffff163373ffffffffffffffffffffffffffffffffffffffff167f8c5be1e5ebec7d5bd14f71427d1e84f3dd0314c0f7b2291e5b200ac8c7c3b92583604051610da191906123d6565b60405180910390a3600191505092915050565b60016000803373ffffffffffffffffffffffffffffffffffffffff1673ffffffffffffffffffffffffffffffffffffffff1681526020019081526020016000205414610e35576040517f08c379a0000000000000000000000000000000000000000000000000000000008152600401610e2c906127c4565b60405180910390fd5b600073ffffffffffffffffffffffffffffffffffffffff168273ffffffffffffffffffffffffffffffffffffffff1614158015610e9e57503073ffffffffffffffffffffffffffffffffffffffff168273ffffffffffffffffffffffffffffffffffffffff1614155b610edd576040517f08c379a0000000000000000000000000000000000000000000000000000000008152600401610ed490612b1a565b60405180910390fd5b80600460008473ffffffffffffffffffffffffffffffffffffffff1673ffffffffffffffffffffffffffffffffffffffff1681526020019081526020016000205401600460008473ffffffffffffffffffffffffffffffffffffffff1673ffffffffffffffffffffffffffffffffffffffff1681526020019081526020016000208190555080600354610f709190612c41565b6003819055508173ffffffffffffffffffffffffffffffffffffffff16600073ffffffffffffffffffffffffffffffffffffffff167fddf252ad1be2c89b69c2b068fc378daa952ba7f163c4a11628f55a4df523b3ef83604051610fd491906123d6565b60405180910390a35050565b6040518060400160405280600181526020017f330000000000000000000000000000000000000000000000000000000000000081525081565b60016000803373ffffffffffffffffffffffffffffffffffffffff1673ffffffffffffffffffffffffffffffffffffffff168152602001908152602001600020541461109a576040517f08c379a0000000000000000000000000000000000000000000000000000000008152600401611091906127c4565b60405180910390fd5b60016000808373ffffffffffffffffffffffffffffffffffffffff1673ffffffffffffffffffffffffffffffffffffffff168152602001908152602001600020819055508073ffffffffffffffffffffffffffffffffffffffff167fdd0e34038ac38b2a1ce960229778ac48a8719bc900b6c4f8d0475c6e8b385a6060405160405180910390a250565b60046020528060005260406000206000915090505481565b60066020528060005260406000206000915090505481565b6002805461116190612747565b80601f016020809104026020016040519081016040528092919081815260200182805461118d90612747565b80156111da5780601f106111af576101008083540402835291602001916111da565b820191906000526020600020905b8154815290600101906020018083116111bd57829003601f168201915b505050505081565b60016000803373ffffffffffffffffffffffffffffffffffffffff1673ffffffffffffffffffffffffffffffffffffffff1681526020019081526020016000205414611263576040517f08c379a000000000000000000000000000000000000000000000000000000000815260040161125a906127c4565b60405180910390fd5b60008060008373ffffffffffffffffffffffffffffffffffffffff1673ffffffffffffffffffffffffffffffffffffffff168152602001908152602001600020819055508073ffffffffffffffffffffffffffffffffffffffff167f184450df2e323acec0ed3b5c7531b81f9b4cdef7914dfd4c0a4317416bb5251b60405160405180910390a250565b6000600460008473ffffffffffffffffffffffffffffffffffffffff1673ffffffffffffffffffffffffffffffffffffffff16815260200190815260200160002054905081811015611374576040517f08c379a000000000000000000000000000000000000000000000000000000000815260040161136b90612b86565b60405180910390fd5b3373ffffffffffffffffffffffffffffffffffffffff168373ffffffffffffffffffffffffffffffffffffffff1614611518576000600560008573ffffffffffffffffffffffffffffffffffffffff1673ffffffffffffffffffffffffffffffffffffffff16815260200190815260200160002060003373ffffffffffffffffffffffffffffffffffffffff1673ffffffffffffffffffffffffffffffffffffffff1681526020019081526020016000205490507fffffffffffffffffffffffffffffffffffffffffffffffffffffffffffffffff81146115165782811015611492576040517f08c379a000000000000000000000000000000000000000000000000000000000815260040161148990612bf2565b60405180910390fd5b828103600560008673ffffffffffffffffffffffffffffffffffffffff1673ffffffffffffffffffffffffffffffffffffffff16815260200190815260200160002060003373ffffffffffffffffffffffffffffffffffffffff1673ffffffffffffffffffffffffffffffffffffffff168152602001908152602001600020819055505b505b818103600460008573ffffffffffffffffffffffffffffffffffffffff1673ffffffffffffffffffffffffffffffffffffffff168152602001908152602001600020819055508160035403600381905550600073ffffffffffffffffffffffffffffffffffffffff168373ffffffffffffffffffffffffffffffffffffffff167fddf252ad1be2c89b69c2b068fc378daa952ba7f163c4a11628f55a4df523b3ef846040516115c791906123d6565b60405180910390a3505050565b81421115611617576040517f08c379a000000000000000000000000000000000000000000000000000000000815260040161160e90612cc1565b60405180910390fd5b600073ffffffffffffffffffffffffffffffffffffffff168573ffffffffffffffffffffffffffffffffffffffff1603611686576040517f08c379a000000000000000000000000000000000000000000000000000000000815260040161167d90612d2d565b60405180910390fd5b6000600660008773ffffffffffffffffffffffffffffffffffffffff1673ffffffffffffffffffffffffffffffffffffffff168152602001908152602001600020600081548092919060010191905055905060007f0000000000000000000000000000000000000000000000000000000000000000461461170f5761170a46611d6c565b611731565b7f00000000000000000000000000000000000000000000000000000000000000005b7f6e71edae12b1b97f4d1f60370fef10105fa2faae0126114a169c64845d6126c9888888868960405160200161176c96959493929190612d5c565b60405160208183030381529060405280519060200120604051602001611793929190612e35565b6040516020818303038152906040528051906020012090506117b6878285611e16565b6117f5576040517f08c379a00000000000000000000000000000000000000000000000000000000081526004016117ec90612eb8565b60405180910390fd5b84600560008973ffffffffffffffffffffffffffffffffffffffff1673ffffffffffffffffffffffffffffffffffffffff16815260200190815260200160002060008873ffffffffffffffffffffffffffffffffffffffff1673ffffffffffffffffffffffffffffffffffffffff168152602001908152602001600020819055508573ffffffffffffffffffffffffffffffffffffffff168773ffffffffffffffffffffffffffffffffffffffff167f8c5be1e5ebec7d5bd14f71427d1e84f3dd0314c0f7b2291e5b200ac8c7c3b925876040516118d391906123d6565b60405180910390a350505050505050565b600080600560003373ffffffffffffffffffffffffffffffffffffffff1673ffffffffffffffffffffffffffffffffffffffff16815260200190815260200160002060008573ffffffffffffffffffffffffffffffffffffffff1673ffffffffffffffffffffffffffffffffffffffff168152602001908152602001600020549050828110156119a9576040517f08c379a00000000000000000000000000000000000000000000000000000000081526004016119a090612bf2565b60405180910390fd5b828103905080600560003373ffffffffffffffffffffffffffffffffffffffff1673ffffffffffffffffffffffffffffffffffffffff16815260200190815260200160002060008673ffffffffffffffffffffffffffffffffffffffff1673ffffffffffffffffffffffffffffffffffffffff168152602001908152602001600020819055508373ffffffffffffffffffffffffffffffffffffffff163373ffffffffffffffffffffffffffffffffffffffff167f8c5be1e5ebec7d5bd14f71427d1e84f3dd0314c0f7b2291e5b200ac8c7c3b92583604051611a8c91906123d6565b60405180910390a3600191505092915050565b60008073ffffffffffffffffffffffffffffffffffffffff168373ffffffffffffffffffffffffffffffffffffffff1614158015611b0957503073ffffffffffffffffffffffffffffffffffffffff168373ffffffffffffffffffffffffffffffffffffffff1614155b611b48576040517f08c379a0000000000000000000000000000000000000000000000000000000008152600401611b3f90612b1a565b60405180910390fd5b6000600460003373ffffffffffffffffffffffffffffffffffffffff1673ffffffffffffffffffffffffffffffffffffffff16815260200190815260200160002054905082811015611bcf576040517f08c379a0000000000000000000000000000000000000000000000000000000008152600401611bc690612b86565b60405180910390fd5b828103600460003373ffffffffffffffffffffffffffffffffffffffff1673ffffffffffffffffffffffffffffffffffffffff1681526020019081526020016000208190555082600460008673ffffffffffffffffffffffffffffffffffffffff1673ffffffffffffffffffffffffffffffffffffffff168152602001908152602001600020600082825401925050819055508373ffffffffffffffffffffffffffffffffffffffff163373ffffffffffffffffffffffffffffffffffffffff167fddf252ad1be2c89b69c2b068fc378daa952ba7f163c4a11628f55a4df523b3ef85604051611cbf91906123d6565b60405180910390a3600191505092915050565b60006020528060005260406000206000915090505481565b7f000000000000000000000000000000000000000000000000000000000000000081565b611d3e87878787868689604051602001611d2a93929190612f0e565b6040516020818303038152906040526115d4565b50505050505050565b6005602052816000526040600020602052806000526040600020600091509150505481565b60007f8b73c3c69bb8fe3d512ecc4cf759cc79239f7b179b0ffacaa9a75d522b39400f6001604051611d9e9190612fee565b60405180910390206040518060400160405280600181526020017f3300000000000000000000000000000000000000000000000000000000000000815250805190602001208430604051602001611df9959493929190613005565b604051602081830303815290604052805190602001209050919050565b60006041825103611ecf5760008060006020850151925060408501519150606085015160001a905060018682858560405160008152602001604052604051611e619493929190613058565b6020604051602081039080840390855afa158015611e83573d6000803e3d6000fd5b5050506020604051035173ffffffffffffffffffffffffffffffffffffffff168773ffffffffffffffffffffffffffffffffffffffff1603611ecb5760019350505050612029565b5050505b6000808573ffffffffffffffffffffffffffffffffffffffff16631626ba7e60e01b8686604051602401611f049291906130f2565b604051602081830303815290604052907bffffffffffffffffffffffffffffffffffffffffffffffffffffffff19166020820180517bffffffffffffffffffffffffffffffffffffffffffffffffffffffff8381831617835250505050604051611f6e9190613153565b600060405180830381855afa9150503d8060008114611fa9576040519150601f19603f3d011682016040523d82523d6000602084013e611fae565b606091505b5091509150818015611fc1575060208151145b80156120245750631626ba7e60e01b7bffffffffffffffffffffffffffffffffffffffffffffffffffffffff19168180602001905181019061200391906131c2565b7bffffffffffffffffffffffffffffffffffffffffffffffffffffffff1916145b925050505b9392505050565b600081519050919050565b600082825260208201905092915050565b60005b8381101561206a57808201518184015260208101905061204f565b60008484015250505050565b6000601f19601f8301169050919050565b600061209282612030565b61209c818561203b565b93506120ac81856020860161204c565b6120b581612076565b840191505092915050565b600060208201905081810360008301526120da8184612087565b905092915050565b6000604051905090565b600080fd5b600080fd5b600073ffffffffffffffffffffffffffffffffffffffff82169050919050565b6000612121826120f6565b9050919050565b61213181612116565b811461213c57600080fd5b50565b60008135905061214e81612128565b92915050565b6000819050919050565b61216781612154565b811461217257600080fd5b50565b6000813590506121848161215e565b92915050565b600080604083850312156121a1576121a06120ec565b5b60006121af8582860161213f565b92505060206121c085828601612175565b9150509250929050565b60008115159050919050565b6121df816121ca565b82525050565b60006020820190506121fa60008301846121d6565b92915050565b6000819050919050565b61221381612200565b811461221e57600080fd5b50565b6000813590506122308161220a565b92915050565b600080fd5b600080fd5b7f4e487b7100000000000000000000000000000000000000000000000000000000600052604160045260246000fd5b61227882612076565b810181811067ffffffffffffffff8211171561229757612296612240565b5b80604052505050565b60006122aa6120e2565b90506122b6828261226f565b919050565b600067ffffffffffffffff8211156122d6576122d5612240565b5b6122df82612076565b9050602081019050919050565b82818337600083830152505050565b600061230e612309846122bb565b6122a0565b90508281526020810184848401111561232a5761232961223b565b5b6123358482856122ec565b509392505050565b600082601f83011261235257612351612236565b5b81356123628482602086016122fb565b91505092915050565b60008060408385031215612382576123816120ec565b5b600061239085828601612221565b925050602083013567ffffffffffffffff8111156123b1576123b06120f1565b5b6123bd8582860161233d565b9150509250929050565b6123d081612154565b82525050565b60006020820190506123eb60008301846123c7565b92915050565b60008060006060848603121561240a576124096120ec565b5b60006124188682870161213f565b93505060206124298682870161213f565b925050604061243a86828701612175565b9150509250925092565b61244d81612200565b82525050565b60006020820190506124686000830184612444565b92915050565b600060ff82169050919050565b6124848161246e565b82525050565b600060208201905061249f600083018461247b565b92915050565b6000602082840312156124bb576124ba6120ec565b5b60006124c98482850161213f565b91505092915050565b600067ffffffffffffffff8211156124ed576124ec612240565b5b6124f682612076565b9050602081019050919050565b6000612516612511846124d2565b6122a0565b9050828152602081018484840111156125325761253161223b565b5b61253d8482856122ec565b509392505050565b600082601f83011261255a57612559612236565b5b813561256a848260208601612503565b91505092915050565b600080600080600060a0868803121561258f5761258e6120ec565b5b600061259d8882890161213f565b95505060206125ae8882890161213f565b94505060406125bf88828901612175565b93505060606125d088828901612175565b925050608086013567ffffffffffffffff8111156125f1576125f06120f1565b5b6125fd88828901612545565b9150509295509295909350565b6126138161246e565b811461261e57600080fd5b50565b6000813590506126308161260a565b92915050565b600080600080600080600060e0888a031215612655576126546120ec565b5b60006126638a828b0161213f565b97505060206126748a828b0161213f565b96505060406126858a828b01612175565b95505060606126968a828b01612175565b94505060806126a78a828b01612621565b93505060a06126b88a828b01612221565b92505060c06126c98a828b01612221565b91505092959891949750929550565b600080604083850312156126ef576126ee6120ec565b5b60006126fd8582860161213f565b925050602061270e8582860161213f565b9150509250929050565b7f4e487b7100000000000000000000000000000000000000000000000000000000600052602260045260246000fd5b6000600282049050600182168061275f57607f821691505b60208210810361277257612771612718565b5b50919050565b7f6e6f742d617574686f72697a6564000000000000000000000000000000000000600082015250565b60006127ae600e8361203b565b91506127b982612778565b602082019050919050565b600060208201905081810360008301526127dd816127a1565b9050919050565b60008190508160005260206000209050919050565b60006020601f8301049050919050565b600082821b905092915050565b6000600883026128467fffffffffffffffffffffffffffffffffffffffffffffffffffffffffffffffff82612809565b6128508683612809565b95508019841693508086168417925050509392505050565b6000819050919050565b600061288d61288861288384612154565b612868565b612154565b9050919050565b6000819050919050565b6128a783612872565b6128bb6128b382612894565b848454612816565b825550505050565b600090565b6128d06128c3565b6128db81848461289e565b505050565b5b818110156128ff576128f46000826128c8565b6001810190506128e1565b5050565b601f82111561294457612915816127e4565b61291e846127f9565b8101602085101561292d578190505b612941612939856127f9565b8301826128e0565b50505b505050565b600082821c905092915050565b600061296760001984600802612949565b1980831691505092915050565b60006129808383612956565b9150826002028217905092915050565b61299982612030565b67ffffffffffffffff8111156129b2576129b1612240565b5b6129bc8254612747565b6129c7828285612903565b600060209050601f8311600181146129fa57600084156129e8578287015190505b6129f28582612974565b865550612a5a565b601f198416612a08866127e4565b60005b82811015612a3057848901518255600182019150602085019450602081019050612a0b565b86831015612a4d5784890151612a49601f891682612956565b8355505b6001600288020188555050505b505050505050565b7f45524332302f66696c652d756e7265636f676e697a65642d706172616d000000600082015250565b6000612a98601d8361203b565b9150612aa382612a62565b602082019050919050565b60006020820190508181036000830152612ac781612a8b565b9050919050565b7f45524332302f696e76616c69642d616464726573730000000000000000000000600082015250565b6000612b0460158361203b565b9150612b0f82612ace565b602082019050919050565b60006020820190508181036000830152612b3381612af7565b9050919050565b7f45524332302f696e73756666696369656e742d62616c616e6365000000000000600082015250565b6000612b70601a8361203b565b9150612b7b82612b3a565b602082019050919050565b60006020820190508181036000830152612b9f81612b63565b9050919050565b7f45524332302f696e73756666696369656e742d616c6c6f77616e636500000000600082015250565b6000612bdc601c8361203b565b9150612be782612ba6565b602082019050919050565b60006020820190508181036000830152612c0b81612bcf565b9050919050565b7f4e487b7100000000000000000000000000000000000000000000000000000000600052601160045260246000fd5b6000612c4c82612154565b9150612c5783612154565b9250828201905080821115612c6f57612c6e612c12565b5b92915050565b7f45524332302f7065726d69742d65787069726564000000000000000000000000600082015250565b6000612cab60148361203b565b9150612cb682612c75565b602082019050919050565b60006020820190508181036000830152612cda81612c9e565b9050919050565b7f45524332302f696e76616c69642d6f776e657200000000000000000000000000600082015250565b6000612d1760138361203b565b9150612d2282612ce1565b602082019050919050565b60006020820190508181036000830152612d4681612d0a565b9050919050565b612d5681612116565b82525050565b600060c082019050612d716000830189612444565b612d7e6020830188612d4d565b612d8b6040830187612d4d565b612d9860608301866123c7565b612da560808301856123c7565b612db260a08301846123c7565b979650505050505050565b600081905092915050565b7f1901000000000000000000000000000000000000000000000000000000000000600082015250565b6000612dfe600283612dbd565b9150612e0982612dc8565b600282019050919050565b6000819050919050565b612e2f612e2a82612200565b612e14565b82525050565b6000612e4082612df1565b9150612e4c8285612e1e565b602082019150612e5c8284612e1e565b6020820191508190509392505050565b7f45524332302f696e76616c69642d7065726d6974000000000000000000000000600082015250565b6000612ea260148361203b565b9150612ead82612e6c565b602082019050919050565b60006020820190508181036000830152612ed181612e95565b9050919050565b60008160f81b9050919050565b6000612ef082612ed8565b9050919050565b612f08612f038261246e565b612ee5565b82525050565b6000612f1a8286612e1e565b602082019150612f2a8285612e1e565b602082019150612f3a8284612ef7565b600182019150819050949350505050565b600081905092915050565b60008190508160005260206000209050919050565b60008154612f7881612747565b612f828186612f4b565b94506001821660008114612f9d5760018114612fb257612fe5565b60ff1983168652811515820286019350612fe5565b612fbb85612f56565b60005b83811015612fdd57815481890152600182019150602081019050612fbe565b838801955050505b50505092915050565b6000612ffa8284612f6b565b915081905092915050565b600060a08201905061301a6000830188612444565b6130276020830187612444565b6130346040830186612444565b61304160608301856123c7565b61304e6080830184612d4d565b9695505050505050565b600060808201905061306d6000830187612444565b61307a602083018661247b565b6130876040830185612444565b6130946060830184612444565b95945050505050565b600081519050919050565b600082825260208201905092915050565b60006130c48261309d565b6130ce81856130a8565b93506130de81856020860161204c565b6130e781612076565b840191505092915050565b60006040820190506131076000830185612444565b818103602083015261311981846130b9565b90509392505050565b600061312d8261309d565b6131378185612f4b565b935061314781856020860161204c565b80840191505092915050565b600061315f8284613122565b915081905092915050565b60007fffffffff0000000000000000000000000000000000000000000000000000000082169050919050565b61319f8161316a565b81146131aa57600080fd5b50565b6000815190506131bc81613196565b92915050565b6000602082840312156131d8576131d76120ec565b5b60006131e6848285016131ad565b9150509291505056fea2646970667358221220094a3256852c0d84da4afe9245943f45b8e4bc6ae96aaefbfa70b4cba110c69264736f6c63430008120033",
    "linkReferences": {}
  },
  "methodIdentifiers": {
    "DOMAIN_SEPARATOR()": "3644e515",
    "PERMIT_TYPEHASH()": "30adf81f",
    "allowance(address,address)": "dd62ed3e",
    "approve(address,uint256)": "095ea7b3",
    "balanceOf(address)": "70a08231",
    "burn(address,uint256)": "9dc29fac",
    "decimals()": "313ce567",
    "decreaseAllowance(address,uint256)": "a457c2d7",
    "deny(address)": "9c52a7f1",
    "deploymentChainId()": "cd0d0096",
    "file(bytes32,string)": "097ac46e",
    "increaseAllowance(address,uint256)": "39509351",
    "mint(address,uint256)": "40c10f19",
    "name()": "06fdde03",
    "nonces(address)": "7ecebe00",
    "permit(address,address,uint256,uint256,bytes)": "9fd5a6cf",
    "permit(address,address,uint256,uint256,uint8,bytes32,bytes32)": "d505accf",
    "rely(address)": "65fae35e",
    "symbol()": "95d89b41",
    "totalSupply()": "18160ddd",
    "transfer(address,uint256)": "a9059cbb",
    "transferFrom(address,address,uint256)": "23b872dd",
    "version()": "54fd4d50",
    "wards(address)": "bf353dbb"
  },
  "id": 35
}