{
  "abi": [
    {
      "inputs": [
        {
          "internalType": "address",
          "name": "bridge_",
          "type": "address"
        },
        {
          "internalType": "bytes32",
          "name": "resourceID_",
          "type": "bytes32"
        }
      ],
      "stateMutability": "nonpayable",
      "type": "constructor"
    },
    {
      "anonymous": false,
      "inputs": [
        {
          "indexed": true,
          "internalType": "address",
          "name": "user",
          "type": "address"
        }
      ],
      "name": "Deny",
      "type": "event"
    },
    {
      "anonymous": false,
      "inputs": [
        {
          "indexed": true,
          "internalType": "bytes32",
          "name": "what",
          "type": "bytes32"
        },
        {
          "indexed": false,
          "internalType": "address",
          "name": "addr",
          "type": "address"
        }
      ],
      "name": "File",
      "type": "event"
    },
    {
      "anonymous": false,
      "inputs": [
        {
          "indexed": true,
          "internalType": "address",
          "name": "user",
          "type": "address"
        }
      ],
      "name": "Rely",
      "type": "event"
    },
    {
      "inputs": [],
      "name": "bridge",
      "outputs": [
        {
          "internalType": "contract ChainBridgeLike",
          "name": "",
          "type": "address"
        }
      ],
      "stateMutability": "view",
      "type": "function"
    },
    {
      "inputs": [],
      "name": "centrifugeChainId",
      "outputs": [
        {
          "internalType": "uint8",
          "name": "",
          "type": "uint8"
        }
      ],
      "stateMutability": "view",
      "type": "function"
    },
    {
      "inputs": [
        {
          "internalType": "address",
          "name": "user",
          "type": "address"
        }
      ],
      "name": "deny",
      "outputs": [],
      "stateMutability": "nonpayable",
      "type": "function"
    },
    {
      "inputs": [
        {
          "internalType": "bytes32",
          "name": "",
          "type": "bytes32"
        },
        {
          "internalType": "bytes",
          "name": "payload",
          "type": "bytes"
        }
      ],
      "name": "executeProposal",
      "outputs": [],
      "stateMutability": "nonpayable",
      "type": "function"
    },
    {
      "inputs": [
        {
          "internalType": "bytes32",
          "name": "what",
          "type": "bytes32"
        },
        {
          "internalType": "address",
          "name": "gateway_",
          "type": "address"
        }
      ],
      "name": "file",
      "outputs": [],
      "stateMutability": "nonpayable",
      "type": "function"
    },
    {
      "inputs": [],
      "name": "gateway",
      "outputs": [
        {
          "internalType": "contract CentrifugeGatewayLike",
          "name": "",
          "type": "address"
        }
      ],
      "stateMutability": "view",
      "type": "function"
    },
    {
      "inputs": [
        {
          "internalType": "address",
          "name": "user",
          "type": "address"
        }
      ],
      "name": "rely",
      "outputs": [],
      "stateMutability": "nonpayable",
      "type": "function"
    },
    {
      "inputs": [],
      "name": "resourceID",
      "outputs": [
        {
          "internalType": "bytes32",
          "name": "",
          "type": "bytes32"
        }
      ],
      "stateMutability": "view",
      "type": "function"
    },
    {
      "inputs": [
        {
          "internalType": "bytes",
          "name": "message",
          "type": "bytes"
        }
      ],
      "name": "send",
      "outputs": [],
      "stateMutability": "nonpayable",
      "type": "function"
    },
    {
      "inputs": [
        {
          "internalType": "address",
          "name": "",
          "type": "address"
        }
      ],
      "name": "wards",
      "outputs": [
        {
          "internalType": "uint256",
          "name": "",
          "type": "uint256"
        }
      ],
      "stateMutability": "view",
      "type": "function"
    }
  ],
  "bytecode": {
    "object": "0x60c06040523480156200001157600080fd5b506040516200125a3803806200125a833981810160405281019062000037919062000120565b8173ffffffffffffffffffffffffffffffffffffffff1660808173ffffffffffffffffffffffffffffffffffffffff16815250508060a08181525050505062000167565b600080fd5b600073ffffffffffffffffffffffffffffffffffffffff82169050919050565b6000620000ad8262000080565b9050919050565b620000bf81620000a0565b8114620000cb57600080fd5b50565b600081519050620000df81620000b4565b92915050565b6000819050919050565b620000fa81620000e5565b81146200010657600080fd5b50565b6000815190506200011a81620000ef565b92915050565b600080604083850312156200013a57620001396200007b565b5b60006200014a85828601620000ce565b92505060206200015d8582860162000109565b9150509250929050565b60805160a0516110b8620001a2600039600081816102cd015261082001526000818161028f015281816106da01526107fc01526110b86000f3fe608060405234801561001057600080fd5b506004361061009e5760003560e01c8063bf353dbb11610066578063bf353dbb14610133578063d4e8be8314610163578063e248cff21461017f578063e78cea921461019b578063fab28c1c146101b95761009e565b8063116191b6146100a35780632bb1ae7c146100c157806365fae35e146100dd5780639c52a7f1146100f9578063ac7fe93f14610115575b600080fd5b6100ab6101d7565b6040516100b891906108c1565b60405180910390f35b6100db60048036038101906100d69190610a36565b6101fd565b005b6100f760048036038101906100f29190610abd565b610340565b005b610113600480360381019061010e9190610abd565b61044b565b005b61011d610556565b60405161012a9190610b06565b60405180910390f35b61014d60048036038101906101489190610abd565b61055b565b60405161015a9190610b3a565b60405180910390f35b61017d60048036038101906101789190610b8b565b610573565b005b61019960048036038101906101949190610c2b565b6106d8565b005b6101a36107fa565b6040516101b09190610cac565b60405180910390f35b6101c161081e565b6040516101ce9190610cd6565b60405180910390f35b600160009054906101000a900473ffffffffffffffffffffffffffffffffffffffff1681565b600160009054906101000a900473ffffffffffffffffffffffffffffffffffffffff1673ffffffffffffffffffffffffffffffffffffffff163373ffffffffffffffffffffffffffffffffffffffff161461028d576040517f08c379a000000000000000000000000000000000000000000000000000000000815260040161028490610d74565b60405180910390fd5b7f000000000000000000000000000000000000000000000000000000000000000073ffffffffffffffffffffffffffffffffffffffff166305e2ca1760017f0000000000000000000000000000000000000000000000000000000000000000846040518463ffffffff1660e01b815260040161030b93929190610e13565b600060405180830381600087803b15801561032557600080fd5b505af1158015610339573d6000803e3d6000fd5b5050505050565b60016000803373ffffffffffffffffffffffffffffffffffffffff1673ffffffffffffffffffffffffffffffffffffffff16815260200190815260200160002054146103c1576040517f08c379a00000000000000000000000000000000000000000000000000000000081526004016103b890610ec3565b60405180910390fd5b60016000808373ffffffffffffffffffffffffffffffffffffffff1673ffffffffffffffffffffffffffffffffffffffff168152602001908152602001600020819055508073ffffffffffffffffffffffffffffffffffffffff167fdd0e34038ac38b2a1ce960229778ac48a8719bc900b6c4f8d0475c6e8b385a6060405160405180910390a250565b60016000803373ffffffffffffffffffffffffffffffffffffffff1673ffffffffffffffffffffffffffffffffffffffff16815260200190815260200160002054146104cc576040517f08c379a00000000000000000000000000000000000000000000000000000000081526004016104c390610ec3565b60405180910390fd5b60008060008373ffffffffffffffffffffffffffffffffffffffff1673ffffffffffffffffffffffffffffffffffffffff168152602001908152602001600020819055508073ffffffffffffffffffffffffffffffffffffffff167f184450df2e323acec0ed3b5c7531b81f9b4cdef7914dfd4c0a4317416bb5251b60405160405180910390a250565b600181565b60006020528060005260406000206000915090505481565b60016000803373ffffffffffffffffffffffffffffffffffffffff1673ffffffffffffffffffffffffffffffffffffffff16815260200190815260200160002054146105f4576040517f08c379a00000000000000000000000000000000000000000000000000000000081526004016105eb90610ec3565b60405180910390fd5b7f676174657761790000000000000000000000000000000000000000000000000082036106615780600160006101000a81548173ffffffffffffffffffffffffffffffffffffffff021916908373ffffffffffffffffffffffffffffffffffffffff16021790555061069c565b6040517f08c379a000000000000000000000000000000000000000000000000000000000815260040161069390610f55565b60405180910390fd5b817f8fef588b5fc1afbf5b2f06c1a435d513f208da2e6704c3d8f0e0ec91167066ba826040516106cc9190610f84565b60405180910390a25050565b7f000000000000000000000000000000000000000000000000000000000000000073ffffffffffffffffffffffffffffffffffffffff163373ffffffffffffffffffffffffffffffffffffffff1614610766576040517f08c379a000000000000000000000000000000000000000000000000000000000815260040161075d90611011565b60405180910390fd5b600160009054906101000a900473ffffffffffffffffffffffffffffffffffffffff1673ffffffffffffffffffffffffffffffffffffffff1663bf48bcb683836040518363ffffffff1660e01b81526004016107c392919061105e565b600060405180830381600087803b1580156107dd57600080fd5b505af11580156107f1573d6000803e3d6000fd5b50505050505050565b7f000000000000000000000000000000000000000000000000000000000000000081565b7f000000000000000000000000000000000000000000000000000000000000000081565b600073ffffffffffffffffffffffffffffffffffffffff82169050919050565b6000819050919050565b600061088761088261087d84610842565b610862565b610842565b9050919050565b60006108998261086c565b9050919050565b60006108ab8261088e565b9050919050565b6108bb816108a0565b82525050565b60006020820190506108d660008301846108b2565b92915050565b6000604051905090565b600080fd5b600080fd5b600080fd5b600080fd5b6000601f19601f8301169050919050565b7f4e487b7100000000000000000000000000000000000000000000000000000000600052604160045260246000fd5b610943826108fa565b810181811067ffffffffffffffff821117156109625761096161090b565b5b80604052505050565b60006109756108dc565b9050610981828261093a565b919050565b600067ffffffffffffffff8211156109a1576109a061090b565b5b6109aa826108fa565b9050602081019050919050565b82818337600083830152505050565b60006109d96109d484610986565b61096b565b9050828152602081018484840111156109f5576109f46108f5565b5b610a008482856109b7565b509392505050565b600082601f830112610a1d57610a1c6108f0565b5b8135610a2d8482602086016109c6565b91505092915050565b600060208284031215610a4c57610a4b6108e6565b5b600082013567ffffffffffffffff811115610a6a57610a696108eb565b5b610a7684828501610a08565b91505092915050565b6000610a8a82610842565b9050919050565b610a9a81610a7f565b8114610aa557600080fd5b50565b600081359050610ab781610a91565b92915050565b600060208284031215610ad357610ad26108e6565b5b6000610ae184828501610aa8565b91505092915050565b600060ff82169050919050565b610b0081610aea565b82525050565b6000602082019050610b1b6000830184610af7565b92915050565b6000819050919050565b610b3481610b21565b82525050565b6000602082019050610b4f6000830184610b2b565b92915050565b6000819050919050565b610b6881610b55565b8114610b7357600080fd5b50565b600081359050610b8581610b5f565b92915050565b60008060408385031215610ba257610ba16108e6565b5b6000610bb085828601610b76565b9250506020610bc185828601610aa8565b9150509250929050565b600080fd5b600080fd5b60008083601f840112610beb57610bea6108f0565b5b8235905067ffffffffffffffff811115610c0857610c07610bcb565b5b602083019150836001820283011115610c2457610c23610bd0565b5b9250929050565b600080600060408486031215610c4457610c436108e6565b5b6000610c5286828701610b76565b935050602084013567ffffffffffffffff811115610c7357610c726108eb565b5b610c7f86828701610bd5565b92509250509250925092565b6000610c968261088e565b9050919050565b610ca681610c8b565b82525050565b6000602082019050610cc16000830184610c9d565b92915050565b610cd081610b55565b82525050565b6000602082019050610ceb6000830184610cc7565b92915050565b600082825260208201905092915050565b7f436f6e6e6563746f72436861696e427269646765526f757465722f6f6e6c792d60008201527f676174657761792d616c6c6f7765642d746f2d63616c6c000000000000000000602082015250565b6000610d5e603783610cf1565b9150610d6982610d02565b604082019050919050565b60006020820190508181036000830152610d8d81610d51565b9050919050565b600081519050919050565b600082825260208201905092915050565b60005b83811015610dce578082015181840152602081019050610db3565b60008484015250505050565b6000610de582610d94565b610def8185610d9f565b9350610dff818560208601610db0565b610e08816108fa565b840191505092915050565b6000606082019050610e286000830186610af7565b610e356020830185610cc7565b8181036040830152610e478184610dda565b9050949350505050565b7f436f6e6e6563746f7258434d526f757465722f6e6f742d617574686f72697a6560008201527f6400000000000000000000000000000000000000000000000000000000000000602082015250565b6000610ead602183610cf1565b9150610eb882610e51565b604082019050919050565b60006020820190508181036000830152610edc81610ea0565b9050919050565b7f436f6e6e6563746f72436861696e427269646765526f757465722f66696c652d60008201527f756e7265636f676e697a65642d706172616d0000000000000000000000000000602082015250565b6000610f3f603283610cf1565b9150610f4a82610ee3565b604082019050919050565b60006020820190508181036000830152610f6e81610f32565b9050919050565b610f7e81610a7f565b82525050565b6000602082019050610f996000830184610f75565b92915050565b7f436f6e6e6563746f72436861696e427269646765526f757465722f696e76616c60008201527f69642d6f726967696e0000000000000000000000000000000000000000000000602082015250565b6000610ffb602983610cf1565b915061100682610f9f565b604082019050919050565b6000602082019050818103600083015261102a81610fee565b9050919050565b600061103d8385610d9f565b935061104a8385846109b7565b611053836108fa565b840190509392505050565b60006020820190508181036000830152611079818486611031565b9050939250505056fea26469706673582212209e81ba335193a378599e1011970c928ac21ecc711d3a0197db417231469714af64736f6c63430008120033",
    "linkReferences": {}
  },
  "methodIdentifiers": {
    "bridge()": "e78cea92",
    "centrifugeChainId()": "ac7fe93f",
    "deny(address)": "9c52a7f1",
    "executeProposal(bytes32,bytes)": "e248cff2",
    "file(bytes32,address)": "d4e8be83",
    "gateway()": "116191b6",
    "rely(address)": "65fae35e",
    "resourceID()": "fab28c1c",
    "send(bytes)": "2bb1ae7c",
    "wards(address)": "bf353dbb"
  },
  "id": 33
}