{
  "abi": [
    {
      "inputs": [
        {
          "internalType": "address",
          "name": "centrifugeChainOrigin_",
          "type": "address"
        },
        {
          "internalType": "uint8",
          "name": "centrifugeChainLiquidityPoolsPalletIndex_",
          "type": "uint8"
        },
        {
          "internalType": "uint8",
          "name": "centrifugeChainLiquidityPoolsPalletHandleIndex_",
          "type": "uint8"
        }
      ],
      "stateMutability": "nonpayable",
      "type": "constructor"
    },
    {
      "anonymous": false,
      "inputs": [
        {
          "indexed": true,
          "internalType": "address",
          "name": "user",
          "type": "address"
        }
      ],
      "name": "Deny",
      "type": "event"
    },
    {
      "anonymous": false,
      "inputs": [
        {
          "indexed": true,
          "internalType": "bytes32",
          "name": "what",
          "type": "bytes32"
        },
        {
          "components": [
            {
              "internalType": "uint64",
              "name": "buyExecutionWeightLimit",
              "type": "uint64"
            },
            {
              "internalType": "uint64",
              "name": "transactWeightAtMost",
              "type": "uint64"
            },
            {
              "internalType": "uint256",
              "name": "feeAmount",
              "type": "uint256"
            }
          ],
          "indexed": false,
          "internalType": "struct XcmWeightInfo",
          "name": "xcmWeightInfo",
          "type": "tuple"
        }
      ],
      "name": "File",
      "type": "event"
    },
    {
      "anonymous": false,
      "inputs": [
        {
          "indexed": true,
          "internalType": "bytes32",
          "name": "what",
          "type": "bytes32"
        },
        {
          "indexed": false,
          "internalType": "address",
          "name": "addr",
          "type": "address"
        }
      ],
      "name": "File",
      "type": "event"
    },
    {
      "anonymous": false,
      "inputs": [
        {
          "indexed": true,
          "internalType": "address",
          "name": "user",
          "type": "address"
        }
      ],
      "name": "Rely",
      "type": "event"
    },
    {
      "inputs": [],
      "name": "centrifugeChainLiquidityPoolsPalletHandleIndex",
      "outputs": [
        {
          "internalType": "uint8",
          "name": "",
          "type": "uint8"
        }
      ],
      "stateMutability": "view",
      "type": "function"
    },
    {
      "inputs": [],
      "name": "centrifugeChainLiquidityPoolsPalletIndex",
      "outputs": [
        {
          "internalType": "uint8",
          "name": "",
          "type": "uint8"
        }
      ],
      "stateMutability": "view",
      "type": "function"
    },
    {
      "inputs": [],
      "name": "centrifugeChainOrigin",
      "outputs": [
        {
          "internalType": "address",
          "name": "",
          "type": "address"
        }
      ],
      "stateMutability": "view",
      "type": "function"
    },
    {
      "inputs": [
        {
          "internalType": "address",
          "name": "user",
          "type": "address"
        }
      ],
      "name": "deny",
      "outputs": [],
      "stateMutability": "nonpayable",
      "type": "function"
    },
    {
      "inputs": [
        {
          "internalType": "bytes32",
          "name": "what",
          "type": "bytes32"
        },
        {
          "internalType": "address",
          "name": "gateway_",
          "type": "address"
        }
      ],
      "name": "file",
      "outputs": [],
      "stateMutability": "nonpayable",
      "type": "function"
    },
    {
      "inputs": [
        {
          "internalType": "bytes32",
          "name": "what",
          "type": "bytes32"
        },
        {
          "internalType": "uint64",
          "name": "buyExecutionWeightLimit",
          "type": "uint64"
        },
        {
          "internalType": "uint64",
          "name": "transactWeightAtMost",
          "type": "uint64"
        },
        {
          "internalType": "uint256",
          "name": "feeAmount",
          "type": "uint256"
        }
      ],
      "name": "file",
      "outputs": [],
      "stateMutability": "nonpayable",
      "type": "function"
    },
    {
      "inputs": [],
      "name": "gateway",
      "outputs": [
        {
          "internalType": "contract GatewayLike",
          "name": "",
          "type": "address"
        }
      ],
      "stateMutability": "view",
      "type": "function"
    },
    {
      "inputs": [
        {
          "internalType": "bytes",
          "name": "_message",
          "type": "bytes"
        }
      ],
      "name": "handle",
      "outputs": [],
      "stateMutability": "nonpayable",
      "type": "function"
    },
    {
      "inputs": [
        {
          "internalType": "address",
          "name": "user",
          "type": "address"
        }
      ],
      "name": "rely",
      "outputs": [],
      "stateMutability": "nonpayable",
      "type": "function"
    },
    {
      "inputs": [
        {
          "internalType": "bytes",
          "name": "message",
          "type": "bytes"
        }
      ],
      "name": "send",
      "outputs": [],
      "stateMutability": "nonpayable",
      "type": "function"
    },
    {
      "inputs": [
        {
          "internalType": "address",
          "name": "",
          "type": "address"
        }
      ],
      "name": "wards",
      "outputs": [
        {
          "internalType": "uint256",
          "name": "",
          "type": "uint256"
        }
      ],
      "stateMutability": "view",
      "type": "function"
    }
  ],
  "bytecode": {
    "object": "0x60e06040523480156200001157600080fd5b5060405162002a3e38038062002a3e83398181016040528101906200003791906200026d565b8273ffffffffffffffffffffffffffffffffffffffff1660808173ffffffffffffffffffffffffffffffffffffffff16815250508160ff1660a08160ff16815250508060ff1660c08160ff1681525050604051806060016040528064046c7cfe0067ffffffffffffffff1681526020016401dcd6500067ffffffffffffffff168152602001670de0b6b3a7640000815250600160008201518160000160006101000a81548167ffffffffffffffff021916908367ffffffffffffffff16021790555060208201518160000160086101000a81548167ffffffffffffffff021916908367ffffffffffffffff1602179055506040820151816001015590505060016000803373ffffffffffffffffffffffffffffffffffffffff1673ffffffffffffffffffffffffffffffffffffffff168152602001908152602001600020819055503373ffffffffffffffffffffffffffffffffffffffff167fdd0e34038ac38b2a1ce960229778ac48a8719bc900b6c4f8d0475c6e8b385a6060405160405180910390a2505050620002c9565b600080fd5b600073ffffffffffffffffffffffffffffffffffffffff82169050919050565b6000620001f782620001ca565b9050919050565b6200020981620001ea565b81146200021557600080fd5b50565b6000815190506200022981620001fe565b92915050565b600060ff82169050919050565b62000247816200022f565b81146200025357600080fd5b50565b60008151905062000267816200023c565b92915050565b600080600060608486031215620002895762000288620001c5565b5b6000620002998682870162000218565b9350506020620002ac8682870162000256565b9250506040620002bf8682870162000256565b9150509250925092565b60805160a05160c0516127306200030e600039600081816105c20152610a8b0152600081816105e60152610a6a015260008181610493015261062201526127306000f3fe608060405234801561001057600080fd5b50600436106100a95760003560e01c8063a35c057311610071578063a35c05731461013e578063af7fa7631461015c578063bf353dbb1461017a578063bf48bcb6146101aa578063d4e8be83146101c6578063e8cdec38146101e2576100a9565b8063116191b6146100ae5780632bb1ae7c146100cc57806365fae35e146100e857806390bf55fc146101045780639c52a7f114610122575b600080fd5b6100b66101fe565b6040516100c3919061167e565b60405180910390f35b6100e660048036038101906100e191906117f3565b610224565b005b61010260048036038101906100fd919061187a565b610386565b005b61010c610491565b60405161011991906118b6565b60405180910390f35b61013c6004803603810190610137919061187a565b6104b5565b005b6101466105c0565b60405161015391906118ed565b60405180910390f35b6101646105e4565b60405161017191906118ed565b60405180910390f35b610194600480360381019061018f919061187a565b610608565b6040516101a19190611921565b60405180910390f35b6101c460048036038101906101bf91906117f3565b610620565b005b6101e060048036038101906101db9190611972565b61073e565b005b6101fc60048036038101906101f79190611a1e565b6108a3565b005b600360009054906101000a900473ffffffffffffffffffffffffffffffffffffffff1681565b600360009054906101000a900473ffffffffffffffffffffffffffffffffffffffff1673ffffffffffffffffffffffffffffffffffffffff163373ffffffffffffffffffffffffffffffffffffffff16146102b4576040517f08c379a00000000000000000000000000000000000000000000000000000000081526004016102ab90611b08565b60405180910390fd5b60006102bf82610a66565b9050600061080d90508073ffffffffffffffffffffffffffffffffffffffff1663d7ab340c6102ec610add565b6102f4610b7e565b600160000160089054906101000a900467ffffffffffffffff16866001800154600160000160009054906101000a900467ffffffffffffffff166040518763ffffffff1660e01b815260040161034f96959493929190611d0e565b600060405180830381600087803b15801561036957600080fd5b505af115801561037d573d6000803e3d6000fd5b50505050505050565b60016000803373ffffffffffffffffffffffffffffffffffffffff1673ffffffffffffffffffffffffffffffffffffffff1681526020019081526020016000205414610407576040517f08c379a00000000000000000000000000000000000000000000000000000000081526004016103fe90611dd0565b60405180910390fd5b60016000808373ffffffffffffffffffffffffffffffffffffffff1673ffffffffffffffffffffffffffffffffffffffff168152602001908152602001600020819055508073ffffffffffffffffffffffffffffffffffffffff167fdd0e34038ac38b2a1ce960229778ac48a8719bc900b6c4f8d0475c6e8b385a6060405160405180910390a250565b7f000000000000000000000000000000000000000000000000000000000000000081565b60016000803373ffffffffffffffffffffffffffffffffffffffff1673ffffffffffffffffffffffffffffffffffffffff1681526020019081526020016000205414610536576040517f08c379a000000000000000000000000000000000000000000000000000000000815260040161052d90611dd0565b60405180910390fd5b60008060008373ffffffffffffffffffffffffffffffffffffffff1673ffffffffffffffffffffffffffffffffffffffff168152602001908152602001600020819055508073ffffffffffffffffffffffffffffffffffffffff167f184450df2e323acec0ed3b5c7531b81f9b4cdef7914dfd4c0a4317416bb5251b60405160405180910390a250565b7f000000000000000000000000000000000000000000000000000000000000000081565b7f000000000000000000000000000000000000000000000000000000000000000081565b60006020528060005260406000206000915090505481565b7f000000000000000000000000000000000000000000000000000000000000000073ffffffffffffffffffffffffffffffffffffffff163373ffffffffffffffffffffffffffffffffffffffff16146106ae576040517f08c379a00000000000000000000000000000000000000000000000000000000081526004016106a590611e3c565b60405180910390fd5b600360009054906101000a900473ffffffffffffffffffffffffffffffffffffffff1673ffffffffffffffffffffffffffffffffffffffff1663bf48bcb6826040518263ffffffff1660e01b81526004016107099190611e5c565b600060405180830381600087803b15801561072357600080fd5b505af1158015610737573d6000803e3d6000fd5b5050505050565b60016000803373ffffffffffffffffffffffffffffffffffffffff1673ffffffffffffffffffffffffffffffffffffffff16815260200190815260200160002054146107bf576040517f08c379a00000000000000000000000000000000000000000000000000000000081526004016107b690611dd0565b60405180910390fd5b7f6761746577617900000000000000000000000000000000000000000000000000820361082c5780600360006101000a81548173ffffffffffffffffffffffffffffffffffffffff021916908373ffffffffffffffffffffffffffffffffffffffff160217905550610867565b6040517f08c379a000000000000000000000000000000000000000000000000000000000815260040161085e90611ef0565b60405180910390fd5b817f8fef588b5fc1afbf5b2f06c1a435d513f208da2e6704c3d8f0e0ec91167066ba8260405161089791906118b6565b60405180910390a25050565b60016000803373ffffffffffffffffffffffffffffffffffffffff1673ffffffffffffffffffffffffffffffffffffffff1681526020019081526020016000205414610924576040517f08c379a000000000000000000000000000000000000000000000000000000000815260040161091b90611dd0565b60405180910390fd5b7f78636d576569676874496e666f0000000000000000000000000000000000000084036109ec5760405180606001604052808467ffffffffffffffff1681526020018367ffffffffffffffff16815260200182815250600160008201518160000160006101000a81548167ffffffffffffffff021916908367ffffffffffffffff16021790555060208201518160000160086101000a81548167ffffffffffffffff021916908367ffffffffffffffff16021790555060408201518160010155905050610a27565b6040517f08c379a0000000000000000000000000000000000000000000000000000000008152600401610a1e90611f82565b60405180910390fd5b837f4d8ac2cc84743d0936df181af66f4af7e0aa51a6fd24e3fe754de62c8dfe10c46001604051610a5891906120a4565b60405180910390a250505050565b60607f00000000000000000000000000000000000000000000000000000000000000007f0000000000000000000000000000000000000000000000000000000000000000610ab384610c74565b84604051602001610ac79493929190612131565b6040516020818303038152906040529050919050565b610ae56115e2565b6000600167ffffffffffffffff811115610b0257610b016116c8565b5b604051908082528060200260200182016040528015610b3557816020015b6060815260200190600190039081610b205790505b509050610b40610f2e565b81600081518110610b5457610b53612177565b5b60200260200101819052506040518060400160405280600160ff1681526020018281525091505090565b610b866115e2565b6000600267ffffffffffffffff811115610ba357610ba26116c8565b5b604051908082528060200260200182016040528015610bd657816020015b6060815260200190600190039081610bc15790505b509050610be1610f2e565b81600081518110610bf557610bf4612177565b5b60200260200101819052506040518060400160405280600381526020017f060001000000000000000000000000000000000000000000000000000000000081525081600181518110610c4a57610c49612177565b5b60200260200101819052506040518060400160405280600160ff1681526020018281525091505090565b60606000610c8c600084610f5a90919063ffffffff16565b9050610c9781610f85565b15610cda576040518060400160405280600281526020017f8501000000000000000000000000000000000000000000000000000000000000815250915050610f29565b610ce381610fbe565b15610d26576040518060400160405280600281526020017f4901000000000000000000000000000000000000000000000000000000000000815250915050610f29565b610d2f81610ff7565b15610d72576040518060400160405280600281526020017f6501000000000000000000000000000000000000000000000000000000000000815250915050610f29565b610d7b81611030565b15610dbe576040518060400160405280600281526020017f6501000000000000000000000000000000000000000000000000000000000000815250915050610f29565b610dc781611069565b15610e0a576040518060400160405280600281526020017f6501000000000000000000000000000000000000000000000000000000000000815250915050610f29565b610e13816110a2565b15610e56576040518060400160405280600281526020017f6501000000000000000000000000000000000000000000000000000000000000815250915050610f29565b610e5f816110db565b15610ea2576040518060400160405280600181526020017fe400000000000000000000000000000000000000000000000000000000000000815250915050610f29565b610eab81611114565b15610eee576040518060400160405280600181526020017fe400000000000000000000000000000000000000000000000000000000000000815250915050610f29565b6040517f08c379a0000000000000000000000000000000000000000000000000000000008152600401610f2090612218565b60405180910390fd5b919050565b606060006107ef604051602001610f4692919061227e565b604051602081830303815290604052905090565b600080835190506000602085019050610f7b8464ffffffffff16828461114d565b9250505092915050565b600060076013811115610f9b57610f9a6122aa565b5b610fa4836111b4565b6013811115610fb657610fb56122aa565b5b149050919050565b600060086013811115610fd457610fd36122aa565b5b610fdd836111b4565b6013811115610fef57610fee6122aa565b5b149050919050565b60006009601381111561100d5761100c6122aa565b5b611016836111b4565b6013811115611028576110276122aa565b5b149050919050565b6000600a6013811115611046576110456122aa565b5b61104f836111b4565b6013811115611061576110606122aa565b5b149050919050565b6000600b601381111561107f5761107e6122aa565b5b611088836111b4565b601381111561109a576110996122aa565b5b149050919050565b6000600c60138111156110b8576110b76122aa565b5b6110c1836111b4565b60138111156110d3576110d26122aa565b5b149050919050565b6000600d60138111156110f1576110f06122aa565b5b6110fa836111b4565b601381111561110c5761110b6122aa565b5b149050919050565b6000600e601381111561112a576111296122aa565b5b611133836111b4565b6013811115611145576111446122aa565b5b149050919050565b600080828461115c9190612308565b905060405181111561116d57600090505b6000810361119e577fffffffffffffffffffffffffffffffffffffffffffffffffffffffffff0000009150506111ad565b6111a98585856111ef565b9150505b9392505050565b60006111d3600060018462ffffff191661121a9092919063ffffffff16565b60ff1660138111156111e8576111e76122aa565b5b9050919050565b60008060609050600060189050858317821b9250848317821b9250838317811b925050509392505050565b6000600882602061122b919061233c565b6112359190612371565b60ff16611243858585611251565b60001c901c90509392505050565b6000808260ff1603611268576000801b905061138e565b61127184611395565b6bffffffffffffffffffffffff168260ff168461128e9190612308565b111561130b576112cf6112a0856113bb565b6bffffffffffffffffffffffff166112b786611395565b6bffffffffffffffffffffffff16858560ff166113e4565b6040517f08c379a000000000000000000000000000000000000000000000000000000000815260040161130291906123f2565b60405180910390fd5b60208260ff161115611352576040517f08c379a000000000000000000000000000000000000000000000000000000000815260040161134990612486565b60405180910390fd5b60006008830290506000611365866113bb565b6bffffffffffffffffffffffff169050600061138083611452565b905080868301511693505050505b9392505050565b6000806bffffffffffffffffffffffff90506000601890508184821c1692505050919050565b6000806bffffffffffffffffffffffff90506000607860ff1690508184821c1692505050919050565b606060006113f186611481565b91505060006113ff86611481565b915050600061140d86611481565b915050600061141b86611481565b915050838383836040516020016114359493929190612675565b604051602081830303815290604052945050505050949350505050565b60007f8000000000000000000000000000000000000000000000000000000000000000600183031d9050919050565b6000806000601f90505b600f8160ff1611156114de5760006008826114a69190612371565b60ff1685901c90506114b78161153f565b61ffff168417935060108260ff16146114d257601084901b93505b6001820391505061148b565b506000600f90505b60ff8160ff1610156115395760006008826115019190612371565b60ff1685901c90506115128161153f565b61ffff168317925060008260ff161461152d57601083901b92505b600182039150506114e6565b50915091565b600061155160048360ff16901c611578565b60ff168117905060088161ffff16901b905061156c82611578565b60ff1681179050919050565b600080600f831690506040518060400160405280601081526020017f30313233343536373839616263646566000000000000000000000000000000008152508160ff16815181106115cc576115cb612177565b5b602001015160f81c60f81b60f81c915050919050565b6040518060400160405280600060ff168152602001606081525090565b600073ffffffffffffffffffffffffffffffffffffffff82169050919050565b6000819050919050565b600061164461163f61163a846115ff565b61161f565b6115ff565b9050919050565b600061165682611629565b9050919050565b60006116688261164b565b9050919050565b6116788161165d565b82525050565b6000602082019050611693600083018461166f565b92915050565b6000604051905090565b600080fd5b600080fd5b600080fd5b600080fd5b6000601f19601f8301169050919050565b7f4e487b7100000000000000000000000000000000000000000000000000000000600052604160045260246000fd5b611700826116b7565b810181811067ffffffffffffffff8211171561171f5761171e6116c8565b5b80604052505050565b6000611732611699565b905061173e82826116f7565b919050565b600067ffffffffffffffff82111561175e5761175d6116c8565b5b611767826116b7565b9050602081019050919050565b82818337600083830152505050565b600061179661179184611743565b611728565b9050828152602081018484840111156117b2576117b16116b2565b5b6117bd848285611774565b509392505050565b600082601f8301126117da576117d96116ad565b5b81356117ea848260208601611783565b91505092915050565b600060208284031215611809576118086116a3565b5b600082013567ffffffffffffffff811115611827576118266116a8565b5b611833848285016117c5565b91505092915050565b6000611847826115ff565b9050919050565b6118578161183c565b811461186257600080fd5b50565b6000813590506118748161184e565b92915050565b6000602082840312156118905761188f6116a3565b5b600061189e84828501611865565b91505092915050565b6118b08161183c565b82525050565b60006020820190506118cb60008301846118a7565b92915050565b600060ff82169050919050565b6118e7816118d1565b82525050565b600060208201905061190260008301846118de565b92915050565b6000819050919050565b61191b81611908565b82525050565b60006020820190506119366000830184611912565b92915050565b6000819050919050565b61194f8161193c565b811461195a57600080fd5b50565b60008135905061196c81611946565b92915050565b60008060408385031215611989576119886116a3565b5b60006119978582860161195d565b92505060206119a885828601611865565b9150509250929050565b600067ffffffffffffffff82169050919050565b6119cf816119b2565b81146119da57600080fd5b50565b6000813590506119ec816119c6565b92915050565b6119fb81611908565b8114611a0657600080fd5b50565b600081359050611a18816119f2565b92915050565b60008060008060808587031215611a3857611a376116a3565b5b6000611a468782880161195d565b9450506020611a57878288016119dd565b9350506040611a68878288016119dd565b9250506060611a7987828801611a09565b91505092959194509250565b600082825260208201905092915050565b7f58434d526f757465722f6f6e6c792d676174657761792d616c6c6f7765642d7460008201527f6f2d63616c6c0000000000000000000000000000000000000000000000000000602082015250565b6000611af2602683611a85565b9150611afd82611a96565b604082019050919050565b60006020820190508181036000830152611b2181611ae5565b9050919050565b611b31816118d1565b82525050565b600081519050919050565b600082825260208201905092915050565b6000819050602082019050919050565b600081519050919050565b600082825260208201905092915050565b60005b83811015611b9d578082015181840152602081019050611b82565b60008484015250505050565b6000611bb482611b63565b611bbe8185611b6e565b9350611bce818560208601611b7f565b611bd7816116b7565b840191505092915050565b6000611bee8383611ba9565b905092915050565b6000602082019050919050565b6000611c0e82611b37565b611c188185611b42565b935083602082028501611c2a85611b53565b8060005b85811015611c665784840389528151611c478582611be2565b9450611c5283611bf6565b925060208a01995050600181019050611c2e565b50829750879550505050505092915050565b6000604083016000830151611c906000860182611b28565b5060208301518482036020860152611ca88282611c03565b9150508091505092915050565b611cbe816119b2565b82525050565b600082825260208201905092915050565b6000611ce082611b63565b611cea8185611cc4565b9350611cfa818560208601611b7f565b611d03816116b7565b840191505092915050565b600060c0820190508181036000830152611d288189611c78565b90508181036020830152611d3c8188611c78565b9050611d4b6040830187611cb5565b8181036060830152611d5d8186611cd5565b9050611d6c6080830185611912565b611d7960a0830184611cb5565b979650505050505050565b7f58434d526f757465722f6e6f742d617574686f72697a65640000000000000000600082015250565b6000611dba601883611a85565b9150611dc582611d84565b602082019050919050565b60006020820190508181036000830152611de981611dad565b9050919050565b7f58434d526f757465722f696e76616c69642d6f726967696e0000000000000000600082015250565b6000611e26601883611a85565b9150611e3182611df0565b602082019050919050565b60006020820190508181036000830152611e5581611e19565b9050919050565b60006020820190508181036000830152611e768184611cd5565b905092915050565b7f58434d526f757465722f66696c652d756e7265636f676e697a65642d7061726160008201527f6d00000000000000000000000000000000000000000000000000000000000000602082015250565b6000611eda602183611a85565b9150611ee582611e7e565b604082019050919050565b60006020820190508181036000830152611f0981611ecd565b9050919050565b7f43656e7472696675676558434d526f757465722f66696c652d756e7265636f6760008201527f6e697a65642d706172616d000000000000000000000000000000000000000000602082015250565b6000611f6c602b83611a85565b9150611f7782611f10565b604082019050919050565b60006020820190508181036000830152611f9b81611f5f565b9050919050565b60008160001c9050919050565b600067ffffffffffffffff82169050919050565b6000611fd6611fd183611fa2565b611faf565b9050919050565b611fe6816119b2565b82525050565b60008160401c9050919050565b600061200c61200783611fec565b611faf565b9050919050565b6000819050919050565b600061203061202b83611fa2565b612013565b9050919050565b61204081611908565b82525050565b60608201600080830154905061205b81611fc3565b6120686000860182611fdd565b5061207281611ff9565b61207f6020860182611fdd565b50600183015490506120908161201d565b61209d6040860182612037565b5050505050565b60006060820190506120b96000830184612046565b92915050565b60008160f81b9050919050565b60006120d7826120bf565b9050919050565b6120ef6120ea826118d1565b6120cc565b82525050565b600081905092915050565b600061210b82611b63565b61211581856120f5565b9350612125818560208601611b7f565b80840191505092915050565b600061213d82876120de565b60018201915061214d82866120de565b60018201915061215d8285612100565b91506121698284612100565b915081905095945050505050565b7f4e487b7100000000000000000000000000000000000000000000000000000000600052603260045260246000fd5b7f58434d526f757465722f756e737570706f727465642d6f7574676f696e672d6d60008201527f6573736167650000000000000000000000000000000000000000000000000000602082015250565b6000612202602683611a85565b915061220d826121a6565b604082019050919050565b60006020820190508181036000830152612231816121f5565b9050919050565b600063ffffffff82169050919050565b60008160e01b9050919050565b600061226082612248565b9050919050565b61227861227382612238565b612255565b82525050565b600061228a82856120de565b60018201915061229a8284612267565b6004820191508190509392505050565b7f4e487b7100000000000000000000000000000000000000000000000000000000600052602160045260246000fd5b7f4e487b7100000000000000000000000000000000000000000000000000000000600052601160045260246000fd5b600061231382611908565b915061231e83611908565b9250828201905080821115612336576123356122d9565b5b92915050565b6000612347826118d1565b9150612352836118d1565b9250828203905060ff81111561236b5761236a6122d9565b5b92915050565b600061237c826118d1565b9150612387836118d1565b9250828202612395816118d1565b91508082146123a7576123a66122d9565b5b5092915050565b600081519050919050565b60006123c4826123ae565b6123ce8185611a85565b93506123de818560208601611b7f565b6123e7816116b7565b840191505092915050565b6000602082019050818103600083015261240c81846123b9565b905092915050565b7f54797065644d656d566965772f696e646578202d20417474656d70746564207460008201527f6f20696e646578206d6f7265207468616e203332206279746573000000000000602082015250565b6000612470603a83611a85565b915061247b82612414565b604082019050919050565b6000602082019050818103600083015261249f81612463565b9050919050565b600081905092915050565b7f54797065644d656d566965772f696e646578202d204f76657272616e2074686560008201527f20766965772e20536c6963652069732061742030780000000000000000000000602082015250565b600061250d6035836124a6565b9150612518826124b1565b603582019050919050565b600065ffffffffffff82169050919050565b60008160d01b9050919050565b600061254d82612535565b9050919050565b61256561256082612523565b612542565b82525050565b7f2077697468206c656e6774682030780000000000000000000000000000000000600082015250565b60006125a1600f836124a6565b91506125ac8261256b565b600f82019050919050565b7f2e20417474656d7074656420746f20696e646578206174206f6666736574203060008201527f7800000000000000000000000000000000000000000000000000000000000000602082015250565b60006126136021836124a6565b915061261e826125b7565b602182019050919050565b7f2e00000000000000000000000000000000000000000000000000000000000000600082015250565b600061265f6001836124a6565b915061266a82612629565b600182019050919050565b600061268082612500565b915061268c8287612554565b60068201915061269b82612594565b91506126a78286612554565b6006820191506126b682612606565b91506126c28285612554565b6006820191506126d182612594565b91506126dd8284612554565b6006820191506126ec82612652565b91508190509594505050505056fea2646970667358221220cc1705b75c211057ab1e121c0e177137a8064f22fbdb717c360cf1ae3daeb84664736f6c63430008120033",
    "linkReferences": {}
  },
  "methodIdentifiers": {
    "centrifugeChainLiquidityPoolsPalletHandleIndex()": "a35c0573",
    "centrifugeChainLiquidityPoolsPalletIndex()": "af7fa763",
    "centrifugeChainOrigin()": "90bf55fc",
    "deny(address)": "9c52a7f1",
    "file(bytes32,address)": "d4e8be83",
    "file(bytes32,uint64,uint64,uint256)": "e8cdec38",
    "gateway()": "116191b6",
    "handle(bytes)": "bf48bcb6",
    "rely(address)": "65fae35e",
    "send(bytes)": "2bb1ae7c",
    "wards(address)": "bf353dbb"
  },
  "id": 34
}