{
  "abi": [
    {
      "inputs": [],
      "stateMutability": "nonpayable",
      "type": "constructor"
    },
    {
      "anonymous": false,
      "inputs": [
        {
          "indexed": true,
          "internalType": "address",
          "name": "usr",
          "type": "address"
        }
      ],
      "name": "Deny",
      "type": "event"
    },
    {
      "anonymous": false,
      "inputs": [
        {
          "indexed": true,
          "internalType": "bytes32",
          "name": "what",
          "type": "bytes32"
        },
        {
          "indexed": true,
          "internalType": "address",
          "name": "data",
          "type": "address"
        }
      ],
      "name": "File",
      "type": "event"
    },
    {
      "anonymous": false,
      "inputs": [
        {
          "indexed": true,
          "internalType": "address",
          "name": "usr",
          "type": "address"
        }
      ],
      "name": "Rely",
      "type": "event"
    },
    {
      "inputs": [
        {
          "internalType": "address",
          "name": "spell",
          "type": "address"
        }
      ],
      "name": "cancelSchedule",
      "outputs": [],
      "stateMutability": "nonpayable",
      "type": "function"
    },
    {
      "inputs": [
        {
          "internalType": "address",
          "name": "usr",
          "type": "address"
        }
      ],
      "name": "deny",
      "outputs": [],
      "stateMutability": "nonpayable",
      "type": "function"
    },
    {
      "inputs": [
        {
          "internalType": "bytes32",
          "name": "what",
          "type": "bytes32"
        },
        {
          "internalType": "address",
          "name": "data",
          "type": "address"
        }
      ],
      "name": "file",
      "outputs": [],
      "stateMutability": "nonpayable",
      "type": "function"
    },
    {
      "inputs": [],
      "name": "gateway",
      "outputs": [
        {
          "internalType": "contract Gateway",
          "name": "",
          "type": "address"
        }
      ],
      "stateMutability": "view",
      "type": "function"
    },
    {
      "inputs": [],
      "name": "pause",
      "outputs": [],
      "stateMutability": "nonpayable",
      "type": "function"
    },
    {
      "inputs": [
        {
          "internalType": "address",
          "name": "usr",
          "type": "address"
        }
      ],
      "name": "rely",
      "outputs": [],
      "stateMutability": "nonpayable",
      "type": "function"
    },
    {
      "inputs": [],
      "name": "unpause",
      "outputs": [],
      "stateMutability": "nonpayable",
      "type": "function"
    },
    {
      "inputs": [
        {
          "internalType": "address",
          "name": "",
          "type": "address"
        }
      ],
      "name": "wards",
      "outputs": [
        {
          "internalType": "uint256",
          "name": "",
          "type": "uint256"
        }
      ],
      "stateMutability": "view",
      "type": "function"
    }
  ],
  "bytecode": {
    "object": "0x608060405234801561001057600080fd5b5060016000803373ffffffffffffffffffffffffffffffffffffffff1673ffffffffffffffffffffffffffffffffffffffff168152602001908152602001600020819055503373ffffffffffffffffffffffffffffffffffffffff167fdd0e34038ac38b2a1ce960229778ac48a8719bc900b6c4f8d0475c6e8b385a6060405160405180910390a2610b3c806100a76000396000f3fe608060405234801561001057600080fd5b50600436106100885760003560e01c80639c52a7f11161005b5780639c52a7f1146100db578063bf353dbb146100f7578063d4e8be8314610127578063f0caaafb1461014357610088565b8063116191b61461008d5780633f4ba83a146100ab57806365fae35e146100b55780638456cb59146100d1575b600080fd5b61009561015f565b6040516100a291906108be565b60405180910390f35b6100b3610185565b005b6100cf60048036038101906100ca919061091c565b61028a565b005b6100d9610395565b005b6100f560048036038101906100f0919061091c565b61049a565b005b610111600480360381019061010c919061091c565b6105a5565b60405161011e9190610962565b60405180910390f35b610141600480360381019061013c91906109b3565b6105bd565b005b61015d6004803603810190610158919061091c565b61072e565b005b600160009054906101000a900473ffffffffffffffffffffffffffffffffffffffff1681565b60016000803373ffffffffffffffffffffffffffffffffffffffff1673ffffffffffffffffffffffffffffffffffffffff1681526020019081526020016000205414610206576040517f08c379a00000000000000000000000000000000000000000000000000000000081526004016101fd90610a50565b60405180910390fd5b600160009054906101000a900473ffffffffffffffffffffffffffffffffffffffff1673ffffffffffffffffffffffffffffffffffffffff16633f4ba83a6040518163ffffffff1660e01b8152600401600060405180830381600087803b15801561027057600080fd5b505af1158015610284573d6000803e3d6000fd5b50505050565b60016000803373ffffffffffffffffffffffffffffffffffffffff1673ffffffffffffffffffffffffffffffffffffffff168152602001908152602001600020541461030b576040517f08c379a000000000000000000000000000000000000000000000000000000000815260040161030290610a50565b60405180910390fd5b60016000808373ffffffffffffffffffffffffffffffffffffffff1673ffffffffffffffffffffffffffffffffffffffff168152602001908152602001600020819055508073ffffffffffffffffffffffffffffffffffffffff167fdd0e34038ac38b2a1ce960229778ac48a8719bc900b6c4f8d0475c6e8b385a6060405160405180910390a250565b60016000803373ffffffffffffffffffffffffffffffffffffffff1673ffffffffffffffffffffffffffffffffffffffff1681526020019081526020016000205414610416576040517f08c379a000000000000000000000000000000000000000000000000000000000815260040161040d90610a50565b60405180910390fd5b600160009054906101000a900473ffffffffffffffffffffffffffffffffffffffff1673ffffffffffffffffffffffffffffffffffffffff16638456cb596040518163ffffffff1660e01b8152600401600060405180830381600087803b15801561048057600080fd5b505af1158015610494573d6000803e3d6000fd5b50505050565b60016000803373ffffffffffffffffffffffffffffffffffffffff1673ffffffffffffffffffffffffffffffffffffffff168152602001908152602001600020541461051b576040517f08c379a000000000000000000000000000000000000000000000000000000000815260040161051290610a50565b60405180910390fd5b60008060008373ffffffffffffffffffffffffffffffffffffffff1673ffffffffffffffffffffffffffffffffffffffff168152602001908152602001600020819055508073ffffffffffffffffffffffffffffffffffffffff167f184450df2e323acec0ed3b5c7531b81f9b4cdef7914dfd4c0a4317416bb5251b60405160405180910390a250565b60006020528060005260406000206000915090505481565b60016000803373ffffffffffffffffffffffffffffffffffffffff1673ffffffffffffffffffffffffffffffffffffffff168152602001908152602001600020541461063e576040517f08c379a000000000000000000000000000000000000000000000000000000000815260040161063590610a50565b60405180910390fd5b7f676174657761790000000000000000000000000000000000000000000000000082036106ab5780600160006101000a81548173ffffffffffffffffffffffffffffffffffffffff021916908373ffffffffffffffffffffffffffffffffffffffff1602179055506106e6565b6040517f08c379a00000000000000000000000000000000000000000000000000000000081526004016106dd90610abc565b60405180910390fd5b8073ffffffffffffffffffffffffffffffffffffffff16827f8fef588b5fc1afbf5b2f06c1a435d513f208da2e6704c3d8f0e0ec91167066ba60405160405180910390a35050565b60016000803373ffffffffffffffffffffffffffffffffffffffff1673ffffffffffffffffffffffffffffffffffffffff16815260200190815260200160002054146107af576040517f08c379a00000000000000000000000000000000000000000000000000000000081526004016107a690610a50565b60405180910390fd5b600160009054906101000a900473ffffffffffffffffffffffffffffffffffffffff1673ffffffffffffffffffffffffffffffffffffffff1663f0caaafb826040518263ffffffff1660e01b815260040161080a9190610aeb565b600060405180830381600087803b15801561082457600080fd5b505af1158015610838573d6000803e3d6000fd5b5050505050565b600073ffffffffffffffffffffffffffffffffffffffff82169050919050565b6000819050919050565b600061088461087f61087a8461083f565b61085f565b61083f565b9050919050565b600061089682610869565b9050919050565b60006108a88261088b565b9050919050565b6108b88161089d565b82525050565b60006020820190506108d360008301846108af565b92915050565b600080fd5b60006108e98261083f565b9050919050565b6108f9816108de565b811461090457600080fd5b50565b600081359050610916816108f0565b92915050565b600060208284031215610932576109316108d9565b5b600061094084828501610907565b91505092915050565b6000819050919050565b61095c81610949565b82525050565b60006020820190506109776000830184610953565b92915050565b6000819050919050565b6109908161097d565b811461099b57600080fd5b50565b6000813590506109ad81610987565b92915050565b600080604083850312156109ca576109c96108d9565b5b60006109d88582860161099e565b92505060206109e985828601610907565b9150509250929050565b600082825260208201905092915050565b7f6e6f742d617574686f72697a6564000000000000000000000000000000000000600082015250565b6000610a3a600e836109f3565b9150610a4582610a04565b602082019050919050565b60006020820190508181036000830152610a6981610a2d565b9050919050565b7f41646d696e2f66696c652d756e7265636f676e697a65642d706172616d000000600082015250565b6000610aa6601d836109f3565b9150610ab182610a70565b602082019050919050565b60006020820190508181036000830152610ad581610a99565b9050919050565b610ae5816108de565b82525050565b6000602082019050610b006000830184610adc565b9291505056fea2646970667358221220eb7ce7a7b78ebcd6b4c6e982fa53900775b0f6b180d4afa6836b7f4a6210062d64736f6c63430008120033",
    "linkReferences": {}
  },
  "methodIdentifiers": {
    "cancelSchedule(address)": "f0caaafb",
    "deny(address)": "9c52a7f1",
    "file(bytes32,address)": "d4e8be83",
    "gateway()": "116191b6",
    "pause()": "8456cb59",
    "rely(address)": "65fae35e",
    "unpause()": "3f4ba83a",
    "wards(address)": "bf353dbb"
  },
  "id": 27
}