{
  "abi": [
    {
      "inputs": [
        {
          "internalType": "address",
          "name": "investmentManager_",
          "type": "address"
        },
        {
          "internalType": "address",
          "name": "router_",
          "type": "address"
        },
        {
          "internalType": "uint256",
          "name": "shortScheduleWait_",
          "type": "uint256"
        },
        {
          "internalType": "uint256",
          "name": "longScheduleWait_",
          "type": "uint256"
        },
        {
          "internalType": "uint256",
          "name": "gracePeriod_",
          "type": "uint256"
        }
      ],
      "stateMutability": "nonpayable",
      "type": "constructor"
    },
    {
      "anonymous": false,
      "inputs": [
        {
          "indexed": true,
          "internalType": "address",
          "name": "user",
          "type": "address"
        }
      ],
      "name": "Deny",
      "type": "event"
    },
    {
      "anonymous": false,
      "inputs": [
        {
          "indexed": true,
          "internalType": "bytes32",
          "name": "what",
          "type": "bytes32"
        },
        {
          "indexed": false,
          "internalType": "address",
          "name": "addr",
          "type": "address"
        }
      ],
      "name": "File",
      "type": "event"
    },
    {
      "anonymous": false,
      "inputs": [],
      "name": "Pause",
      "type": "event"
    },
    {
      "anonymous": false,
      "inputs": [
        {
          "indexed": true,
          "internalType": "address",
          "name": "user",
          "type": "address"
        }
      ],
      "name": "Rely",
      "type": "event"
    },
    {
      "anonymous": false,
      "inputs": [
        {
          "indexed": true,
          "internalType": "address",
          "name": "spell",
          "type": "address"
        }
      ],
      "name": "RelyCancelled",
      "type": "event"
    },
    {
      "anonymous": false,
      "inputs": [
        {
          "indexed": true,
          "internalType": "address",
          "name": "spell",
          "type": "address"
        },
        {
          "indexed": true,
          "internalType": "uint256",
          "name": "scheduledTime",
          "type": "uint256"
        }
      ],
      "name": "RelyScheduledLong",
      "type": "event"
    },
    {
      "anonymous": false,
      "inputs": [
        {
          "indexed": true,
          "internalType": "address",
          "name": "spell",
          "type": "address"
        },
        {
          "indexed": true,
          "internalType": "uint256",
          "name": "scheduledTime",
          "type": "uint256"
        }
      ],
      "name": "RelyScheduledShort",
      "type": "event"
    },
    {
      "anonymous": false,
      "inputs": [],
      "name": "Unpause",
      "type": "event"
    },
    {
      "inputs": [
        {
          "internalType": "address",
          "name": "user",
          "type": "address"
        }
      ],
      "name": "cancelSchedule",
      "outputs": [],
      "stateMutability": "nonpayable",
      "type": "function"
    },
    {
      "inputs": [
        {
          "internalType": "uint64",
          "name": "poolId",
          "type": "uint64"
        },
        {
          "internalType": "bytes16",
          "name": "trancheId",
          "type": "bytes16"
        },
        {
          "internalType": "address",
          "name": "investor",
          "type": "address"
        },
        {
          "internalType": "uint128",
          "name": "currency",
          "type": "uint128"
        }
      ],
      "name": "collectInvest",
      "outputs": [],
      "stateMutability": "nonpayable",
      "type": "function"
    },
    {
      "inputs": [
        {
          "internalType": "uint64",
          "name": "poolId",
          "type": "uint64"
        },
        {
          "internalType": "bytes16",
          "name": "trancheId",
          "type": "bytes16"
        },
        {
          "internalType": "address",
          "name": "investor",
          "type": "address"
        },
        {
          "internalType": "uint128",
          "name": "currency",
          "type": "uint128"
        }
      ],
      "name": "collectRedeem",
      "outputs": [],
      "stateMutability": "nonpayable",
      "type": "function"
    },
    {
      "inputs": [
        {
          "internalType": "uint64",
          "name": "poolId",
          "type": "uint64"
        },
        {
          "internalType": "bytes16",
          "name": "trancheId",
          "type": "bytes16"
        },
        {
          "internalType": "address",
          "name": "investor",
          "type": "address"
        },
        {
          "internalType": "uint128",
          "name": "currency",
          "type": "uint128"
        },
        {
          "internalType": "uint128",
          "name": "amount",
          "type": "uint128"
        }
      ],
      "name": "decreaseInvestOrder",
      "outputs": [],
      "stateMutability": "nonpayable",
      "type": "function"
    },
    {
      "inputs": [
        {
          "internalType": "uint64",
          "name": "poolId",
          "type": "uint64"
        },
        {
          "internalType": "bytes16",
          "name": "trancheId",
          "type": "bytes16"
        },
        {
          "internalType": "address",
          "name": "investor",
          "type": "address"
        },
        {
          "internalType": "uint128",
          "name": "currency",
          "type": "uint128"
        },
        {
          "internalType": "uint128",
          "name": "amount",
          "type": "uint128"
        }
      ],
      "name": "decreaseRedeemOrder",
      "outputs": [],
      "stateMutability": "nonpayable",
      "type": "function"
    },
    {
      "inputs": [
        {
          "internalType": "address",
          "name": "user",
          "type": "address"
        }
      ],
      "name": "deny",
      "outputs": [],
      "stateMutability": "nonpayable",
      "type": "function"
    },
    {
      "inputs": [
        {
          "internalType": "address",
          "name": "user",
          "type": "address"
        }
      ],
      "name": "executeScheduledRely",
      "outputs": [],
      "stateMutability": "nonpayable",
      "type": "function"
    },
    {
      "inputs": [],
      "name": "gracePeriod",
      "outputs": [
        {
          "internalType": "uint256",
          "name": "",
          "type": "uint256"
        }
      ],
      "stateMutability": "view",
      "type": "function"
    },
    {
      "inputs": [
        {
          "internalType": "bytes",
          "name": "_message",
          "type": "bytes"
        }
      ],
      "name": "handle",
      "outputs": [],
      "stateMutability": "nonpayable",
      "type": "function"
    },
    {
      "inputs": [
        {
          "internalType": "uint64",
          "name": "poolId",
          "type": "uint64"
        },
        {
          "internalType": "bytes16",
          "name": "trancheId",
          "type": "bytes16"
        },
        {
          "internalType": "address",
          "name": "investor",
          "type": "address"
        },
        {
          "internalType": "uint128",
          "name": "currency",
          "type": "uint128"
        },
        {
          "internalType": "uint128",
          "name": "amount",
          "type": "uint128"
        }
      ],
      "name": "increaseInvestOrder",
      "outputs": [],
      "stateMutability": "nonpayable",
      "type": "function"
    },
    {
      "inputs": [
        {
          "internalType": "uint64",
          "name": "poolId",
          "type": "uint64"
        },
        {
          "internalType": "bytes16",
          "name": "trancheId",
          "type": "bytes16"
        },
        {
          "internalType": "address",
          "name": "investor",
          "type": "address"
        },
        {
          "internalType": "uint128",
          "name": "currency",
          "type": "uint128"
        },
        {
          "internalType": "uint128",
          "name": "amount",
          "type": "uint128"
        }
      ],
      "name": "increaseRedeemOrder",
      "outputs": [],
      "stateMutability": "nonpayable",
      "type": "function"
    },
    {
      "inputs": [],
      "name": "investmentManager",
      "outputs": [
        {
          "internalType": "contract InvestmentManagerLike",
          "name": "",
          "type": "address"
        }
      ],
      "stateMutability": "view",
      "type": "function"
    },
    {
      "inputs": [],
      "name": "longScheduleWait",
      "outputs": [
        {
          "internalType": "uint256",
          "name": "",
          "type": "uint256"
        }
      ],
      "stateMutability": "view",
      "type": "function"
    },
    {
      "inputs": [],
      "name": "pause",
      "outputs": [],
      "stateMutability": "nonpayable",
      "type": "function"
    },
    {
      "inputs": [],
      "name": "paused",
      "outputs": [
        {
          "internalType": "bool",
          "name": "",
          "type": "bool"
        }
      ],
      "stateMutability": "view",
      "type": "function"
    },
    {
      "inputs": [
        {
          "internalType": "address",
          "name": "user",
          "type": "address"
        }
      ],
      "name": "rely",
      "outputs": [],
      "stateMutability": "nonpayable",
      "type": "function"
    },
    {
      "inputs": [
        {
          "internalType": "address",
          "name": "target",
          "type": "address"
        },
        {
          "internalType": "address",
          "name": "user",
          "type": "address"
        }
      ],
      "name": "relyContract",
      "outputs": [],
      "stateMutability": "nonpayable",
      "type": "function"
    },
    {
      "inputs": [
        {
          "internalType": "address",
          "name": "",
          "type": "address"
        }
      ],
      "name": "relySchedule",
      "outputs": [
        {
          "internalType": "uint256",
          "name": "",
          "type": "uint256"
        }
      ],
      "stateMutability": "view",
      "type": "function"
    },
    {
      "inputs": [],
      "name": "router",
      "outputs": [
        {
          "internalType": "contract RouterLike",
          "name": "",
          "type": "address"
        }
      ],
      "stateMutability": "view",
      "type": "function"
    },
    {
      "inputs": [
        {
          "internalType": "address",
          "name": "user",
          "type": "address"
        }
      ],
      "name": "scheduleLongRely",
      "outputs": [],
      "stateMutability": "nonpayable",
      "type": "function"
    },
    {
      "inputs": [],
      "name": "shortScheduleWait",
      "outputs": [
        {
          "internalType": "uint256",
          "name": "",
          "type": "uint256"
        }
      ],
      "stateMutability": "view",
      "type": "function"
    },
    {
      "inputs": [
        {
          "internalType": "uint128",
          "name": "token",
          "type": "uint128"
        },
        {
          "internalType": "address",
          "name": "sender",
          "type": "address"
        },
        {
          "internalType": "bytes32",
          "name": "receiver",
          "type": "bytes32"
        },
        {
          "internalType": "uint128",
          "name": "amount",
          "type": "uint128"
        }
      ],
      "name": "transfer",
      "outputs": [],
      "stateMutability": "nonpayable",
      "type": "function"
    },
    {
      "inputs": [
        {
          "internalType": "uint64",
          "name": "poolId",
          "type": "uint64"
        },
        {
          "internalType": "bytes16",
          "name": "trancheId",
          "type": "bytes16"
        },
        {
          "internalType": "address",
          "name": "sender",
          "type": "address"
        },
        {
          "internalType": "bytes32",
          "name": "destinationAddress",
          "type": "bytes32"
        },
        {
          "internalType": "uint128",
          "name": "currencyId",
          "type": "uint128"
        },
        {
          "internalType": "uint128",
          "name": "amount",
          "type": "uint128"
        }
      ],
      "name": "transferTrancheTokensToCentrifuge",
      "outputs": [],
      "stateMutability": "nonpayable",
      "type": "function"
    },
    {
      "inputs": [
        {
          "internalType": "uint64",
          "name": "poolId",
          "type": "uint64"
        },
        {
          "internalType": "bytes16",
          "name": "trancheId",
          "type": "bytes16"
        },
        {
          "internalType": "address",
          "name": "sender",
          "type": "address"
        },
        {
          "internalType": "uint64",
          "name": "destinationChainId",
          "type": "uint64"
        },
        {
          "internalType": "uint128",
          "name": "currencyId",
          "type": "uint128"
        },
        {
          "internalType": "address",
          "name": "destinationAddress",
          "type": "address"
        },
        {
          "internalType": "uint128",
          "name": "amount",
          "type": "uint128"
        }
      ],
      "name": "transferTrancheTokensToEVM",
      "outputs": [],
      "stateMutability": "nonpayable",
      "type": "function"
    },
    {
      "inputs": [],
      "name": "unpause",
      "outputs": [],
      "stateMutability": "nonpayable",
      "type": "function"
    },
    {
      "inputs": [
        {
          "internalType": "address",
          "name": "",
          "type": "address"
        }
      ],
      "name": "wards",
      "outputs": [
        {
          "internalType": "uint256",
          "name": "",
          "type": "uint256"
        }
      ],
      "stateMutability": "view",
      "type": "function"
    }
  ],
  "bytecode": {
    "object": "0x6101206040526000600260006101000a81548160ff0219169083151502179055503480156200002d57600080fd5b506040516200549b3803806200549b83398181016040528101906200005391906200020b565b8473ffffffffffffffffffffffffffffffffffffffff1660e08173ffffffffffffffffffffffffffffffffffffffff16815250508373ffffffffffffffffffffffffffffffffffffffff166101008173ffffffffffffffffffffffffffffffffffffffff168152505082608081815250508160a081815250508060c0818152505060016000803373ffffffffffffffffffffffffffffffffffffffff1673ffffffffffffffffffffffffffffffffffffffff168152602001908152602001600020819055503373ffffffffffffffffffffffffffffffffffffffff167fdd0e34038ac38b2a1ce960229778ac48a8719bc900b6c4f8d0475c6e8b385a6060405160405180910390a2505050505062000293565b600080fd5b600073ffffffffffffffffffffffffffffffffffffffff82169050919050565b600062000198826200016b565b9050919050565b620001aa816200018b565b8114620001b657600080fd5b50565b600081519050620001ca816200019f565b92915050565b6000819050919050565b620001e581620001d0565b8114620001f157600080fd5b50565b6000815190506200020581620001da565b92915050565b600080600080600060a086880312156200022a576200022962000166565b5b60006200023a88828901620001b9565b95505060206200024d88828901620001b9565b94505060406200026088828901620001f4565b93505060606200027388828901620001f4565b92505060806200028688828901620001f4565b9150509295509295909350565b60805160a05160c05160e051610100516150dc620003bf600039600081816107d90152818161095d01528181610bd101528181610e6501528181611105015281816114760152818161169c0152818161189b01528181611a1f01528181611adb01526126f80152600081816106fb0152818161087f01528181610af301528181610d3f01528181610d870152818161102701528181611398015281816115be015281816117bd0152818161194101528181611bef01528181611c9e01528181611d4d01528181611e0d01528181611ed201528181611f8e0152818161204701528181612107015281816121cd015281816122960152612362015260008181610581015261159a0152600081816124f7015261271c015260008181610d6301526132c601526150dc6000f3fe608060405234801561001057600080fd5b506004361061018e5760003560e01c80638cb18970116100de578063ae33077111610097578063d93b045c11610071578063d93b045c14610407578063f0caaafb14610423578063f887ea401461043f578063fb28e2b31461045d5761018e565b8063ae3307711461039f578063bf353dbb146103bb578063bf48bcb6146103eb5761018e565b80638cb18970146102e15780639c52a7f1146103115780639f9ab3fc1461032d578063a06db7dc14610349578063a4a6543714610367578063ae04e763146103835761018e565b80634b31bb101161014b5780635c975abb116101255780635c975abb1461028157806365fae35e1461029f57806379030f6d146102bb5780638456cb59146102d75761018e565b80634b31bb10146102295780634b392276146102475780635b66baa2146102655761018e565b806301d1560214610193578063189070de146101af578063335d072d146101cb578063373e73f8146101e75780633c1c9103146102035780633f4ba83a1461021f575b600080fd5b6101ad60048036038101906101a89190613a5b565b61047b565b005b6101c960048036038101906101c49190613b68565b6106f9565b005b6101e560048036038101906101e09190613b68565b61087d565b005b61020160048036038101906101fc9190613be3565b610a01565b005b61021d60048036038101906102189190613c59565b610af1565b005b610227610c73565b005b610231610d3d565b60405161023e9190613d1f565b60405180910390f35b61024f610d61565b60405161025c9190613d53565b60405180910390f35b61027f600480360381019061027a9190613d6e565b610d85565b005b610289610f07565b6040516102969190613df0565b60405180910390f35b6102b960048036038101906102b49190613a5b565b610f1a565b005b6102d560048036038101906102d09190613b68565b611025565b005b6102df6111a9565b005b6102fb60048036038101906102f69190613a5b565b611273565b6040516103089190613d53565b60405180910390f35b61032b60048036038101906103269190613a5b565b61128b565b005b61034760048036038101906103429190613e0b565b611396565b005b610351611598565b60405161035e9190613d53565b60405180910390f35b610381600480360381019061037c9190613ead565b6115bc565b005b61039d60048036038101906103989190613b68565b6117bb565b005b6103b960048036038101906103b49190613d6e565b61193f565b005b6103d560048036038101906103d09190613a5b565b611ac1565b6040516103e29190613d53565b60405180910390f35b61040560048036038101906104009190614080565b611ad9565b005b610421600480360381019061041c9190613a5b565b612474565b005b61043d60048036038101906104389190613a5b565b6125ea565b005b6104476126f6565b60405161045491906140ea565b60405180910390f35b61046561271a565b6040516104729190613d53565b60405180910390f35b6000600160008373ffffffffffffffffffffffffffffffffffffffff1673ffffffffffffffffffffffffffffffffffffffff16815260200190815260200160002054036104fd576040517f08c379a00000000000000000000000000000000000000000000000000000000081526004016104f490614162565b60405180910390fd5b42600160008373ffffffffffffffffffffffffffffffffffffffff1673ffffffffffffffffffffffffffffffffffffffff168152602001908152602001600020541061057e576040517f08c379a0000000000000000000000000000000000000000000000000000000008152600401610575906141ce565b60405180910390fd5b427f0000000000000000000000000000000000000000000000000000000000000000600160008473ffffffffffffffffffffffffffffffffffffffff1673ffffffffffffffffffffffffffffffffffffffff168152602001908152602001600020546105ea919061421d565b1161062a576040517f08c379a00000000000000000000000000000000000000000000000000000000081526004016106219061429d565b60405180910390fd5b6000600160008373ffffffffffffffffffffffffffffffffffffffff1673ffffffffffffffffffffffffffffffffffffffff1681526020019081526020016000208190555060016000808373ffffffffffffffffffffffffffffffffffffffff1673ffffffffffffffffffffffffffffffffffffffff168152602001908152602001600020819055508073ffffffffffffffffffffffffffffffffffffffff167fdd0e34038ac38b2a1ce960229778ac48a8719bc900b6c4f8d0475c6e8b385a6060405160405180910390a250565b7f000000000000000000000000000000000000000000000000000000000000000073ffffffffffffffffffffffffffffffffffffffff163373ffffffffffffffffffffffffffffffffffffffff1614610787576040517f08c379a000000000000000000000000000000000000000000000000000000000815260040161077e9061432f565b60405180910390fd5b600260009054906101000a900460ff16156107d7576040517f08c379a00000000000000000000000000000000000000000000000000000000081526004016107ce9061439b565b60405180910390fd5b7f000000000000000000000000000000000000000000000000000000000000000073ffffffffffffffffffffffffffffffffffffffff16632bb1ae7c61082887876108218861273e565b878761275a565b6040518263ffffffff1660e01b8152600401610844919061443a565b600060405180830381600087803b15801561085e57600080fd5b505af1158015610872573d6000803e3d6000fd5b505050505050505050565b7f000000000000000000000000000000000000000000000000000000000000000073ffffffffffffffffffffffffffffffffffffffff163373ffffffffffffffffffffffffffffffffffffffff161461090b576040517f08c379a00000000000000000000000000000000000000000000000000000000081526004016109029061432f565b60405180910390fd5b600260009054906101000a900460ff161561095b576040517f08c379a00000000000000000000000000000000000000000000000000000000081526004016109529061439b565b60405180910390fd5b7f000000000000000000000000000000000000000000000000000000000000000073ffffffffffffffffffffffffffffffffffffffff16632bb1ae7c6109ac87876109a58861273e565b87876127a4565b6040518263ffffffff1660e01b81526004016109c8919061443a565b600060405180830381600087803b1580156109e257600080fd5b505af11580156109f6573d6000803e3d6000fd5b505050505050505050565b60016000803373ffffffffffffffffffffffffffffffffffffffff1673ffffffffffffffffffffffffffffffffffffffff1681526020019081526020016000205414610a82576040517f08c379a0000000000000000000000000000000000000000000000000000000008152600401610a79906144a8565b60405180910390fd5b8173ffffffffffffffffffffffffffffffffffffffff166365fae35e826040518263ffffffff1660e01b8152600401610abb91906144d7565b600060405180830381600087803b158015610ad557600080fd5b505af1158015610ae9573d6000803e3d6000fd5b505050505050565b7f000000000000000000000000000000000000000000000000000000000000000073ffffffffffffffffffffffffffffffffffffffff163373ffffffffffffffffffffffffffffffffffffffff1614610b7f576040517f08c379a0000000000000000000000000000000000000000000000000000000008152600401610b769061432f565b60405180910390fd5b600260009054906101000a900460ff1615610bcf576040517f08c379a0000000000000000000000000000000000000000000000000000000008152600401610bc69061439b565b60405180910390fd5b7f000000000000000000000000000000000000000000000000000000000000000073ffffffffffffffffffffffffffffffffffffffff16632bb1ae7c610c1f86610c188761273e565b86866127ee565b6040518263ffffffff1660e01b8152600401610c3b919061443a565b600060405180830381600087803b158015610c5557600080fd5b505af1158015610c69573d6000803e3d6000fd5b5050505050505050565b60016000803373ffffffffffffffffffffffffffffffffffffffff1673ffffffffffffffffffffffffffffffffffffffff1681526020019081526020016000205414610cf4576040517f08c379a0000000000000000000000000000000000000000000000000000000008152600401610ceb906144a8565b60405180910390fd5b6000600260006101000a81548160ff0219169083151502179055507f7805862f689e2f13df9f062ff482ad3ad112aca9e0847911ed832e158c525b3360405160405180910390a1565b7f000000000000000000000000000000000000000000000000000000000000000081565b7f000000000000000000000000000000000000000000000000000000000000000081565b7f000000000000000000000000000000000000000000000000000000000000000073ffffffffffffffffffffffffffffffffffffffff163373ffffffffffffffffffffffffffffffffffffffff1614610e13576040517f08c379a0000000000000000000000000000000000000000000000000000000008152600401610e0a9061432f565b60405180910390fd5b600260009054906101000a900460ff1615610e63576040517f08c379a0000000000000000000000000000000000000000000000000000000008152600401610e5a9061439b565b60405180910390fd5b7f000000000000000000000000000000000000000000000000000000000000000073ffffffffffffffffffffffffffffffffffffffff16632bb1ae7c610eb38686610ead8761273e565b86612835565b6040518263ffffffff1660e01b8152600401610ecf919061443a565b600060405180830381600087803b158015610ee957600080fd5b505af1158015610efd573d6000803e3d6000fd5b5050505050505050565b600260009054906101000a900460ff1681565b60016000803373ffffffffffffffffffffffffffffffffffffffff1673ffffffffffffffffffffffffffffffffffffffff1681526020019081526020016000205414610f9b576040517f08c379a0000000000000000000000000000000000000000000000000000000008152600401610f92906144a8565b60405180910390fd5b60016000808373ffffffffffffffffffffffffffffffffffffffff1673ffffffffffffffffffffffffffffffffffffffff168152602001908152602001600020819055508073ffffffffffffffffffffffffffffffffffffffff167fdd0e34038ac38b2a1ce960229778ac48a8719bc900b6c4f8d0475c6e8b385a6060405160405180910390a250565b7f000000000000000000000000000000000000000000000000000000000000000073ffffffffffffffffffffffffffffffffffffffff163373ffffffffffffffffffffffffffffffffffffffff16146110b3576040517f08c379a00000000000000000000000000000000000000000000000000000000081526004016110aa9061432f565b60405180910390fd5b600260009054906101000a900460ff1615611103576040517f08c379a00000000000000000000000000000000000000000000000000000000081526004016110fa9061439b565b60405180910390fd5b7f000000000000000000000000000000000000000000000000000000000000000073ffffffffffffffffffffffffffffffffffffffff16632bb1ae7c611154878761114d8861273e565b878761287c565b6040518263ffffffff1660e01b8152600401611170919061443a565b600060405180830381600087803b15801561118a57600080fd5b505af115801561119e573d6000803e3d6000fd5b505050505050505050565b60016000803373ffffffffffffffffffffffffffffffffffffffff1673ffffffffffffffffffffffffffffffffffffffff168152602001908152602001600020541461122a576040517f08c379a0000000000000000000000000000000000000000000000000000000008152600401611221906144a8565b60405180910390fd5b6001600260006101000a81548160ff0219169083151502179055507f6985a02210a168e66602d3235cb6db0e70f92b3ba4d376a33c0f3d9434bff62560405160405180910390a1565b60016020528060005260406000206000915090505481565b60016000803373ffffffffffffffffffffffffffffffffffffffff1673ffffffffffffffffffffffffffffffffffffffff168152602001908152602001600020541461130c576040517f08c379a0000000000000000000000000000000000000000000000000000000008152600401611303906144a8565b60405180910390fd5b60008060008373ffffffffffffffffffffffffffffffffffffffff1673ffffffffffffffffffffffffffffffffffffffff168152602001908152602001600020819055508073ffffffffffffffffffffffffffffffffffffffff167f184450df2e323acec0ed3b5c7531b81f9b4cdef7914dfd4c0a4317416bb5251b60405160405180910390a250565b7f000000000000000000000000000000000000000000000000000000000000000073ffffffffffffffffffffffffffffffffffffffff163373ffffffffffffffffffffffffffffffffffffffff1614611424576040517f08c379a000000000000000000000000000000000000000000000000000000000815260040161141b9061432f565b60405180910390fd5b600260009054906101000a900460ff1615611474576040517f08c379a000000000000000000000000000000000000000000000000000000000815260040161146b9061439b565b60405180910390fd5b7f000000000000000000000000000000000000000000000000000000000000000073ffffffffffffffffffffffffffffffffffffffff16632bb1ae7c61154189896114be8a61273e565b73__$4a70b0776c689784f1f77c49c37fdb6acf$__6324ead92b60018c6040518363ffffffff1660e01b81526004016114f8929190614578565b602060405180830381865af4158015611515573d6000803e3d6000fd5b505050506040513d601f19601f8201168201806040525081019061153991906145f9565b8989896128c6565b6040518263ffffffff1660e01b815260040161155d919061443a565b600060405180830381600087803b15801561157757600080fd5b505af115801561158b573d6000803e3d6000fd5b5050505050505050505050565b7f000000000000000000000000000000000000000000000000000000000000000081565b7f000000000000000000000000000000000000000000000000000000000000000073ffffffffffffffffffffffffffffffffffffffff163373ffffffffffffffffffffffffffffffffffffffff161461164a576040517f08c379a00000000000000000000000000000000000000000000000000000000081526004016116419061432f565b60405180910390fd5b600260009054906101000a900460ff161561169a576040517f08c379a00000000000000000000000000000000000000000000000000000000081526004016116919061439b565b60405180910390fd5b7f000000000000000000000000000000000000000000000000000000000000000073ffffffffffffffffffffffffffffffffffffffff16632bb1ae7c61176588886116e48961273e565b73__$4a70b0776c689784f1f77c49c37fdb6acf$__6357d1607160006040518263ffffffff1660e01b815260040161171c9190614626565b602060405180830381865af4158015611739573d6000803e3d6000fd5b505050506040513d601f19601f8201168201806040525081019061175d91906145f9565b888a896128f6565b6040518263ffffffff1660e01b8152600401611781919061443a565b600060405180830381600087803b15801561179b57600080fd5b505af11580156117af573d6000803e3d6000fd5b50505050505050505050565b7f000000000000000000000000000000000000000000000000000000000000000073ffffffffffffffffffffffffffffffffffffffff163373ffffffffffffffffffffffffffffffffffffffff1614611849576040517f08c379a00000000000000000000000000000000000000000000000000000000081526004016118409061432f565b60405180910390fd5b600260009054906101000a900460ff1615611899576040517f08c379a00000000000000000000000000000000000000000000000000000000081526004016118909061439b565b60405180910390fd5b7f000000000000000000000000000000000000000000000000000000000000000073ffffffffffffffffffffffffffffffffffffffff16632bb1ae7c6118ea87876118e38861273e565b8787612946565b6040518263ffffffff1660e01b8152600401611906919061443a565b600060405180830381600087803b15801561192057600080fd5b505af1158015611934573d6000803e3d6000fd5b505050505050505050565b7f000000000000000000000000000000000000000000000000000000000000000073ffffffffffffffffffffffffffffffffffffffff163373ffffffffffffffffffffffffffffffffffffffff16146119cd576040517f08c379a00000000000000000000000000000000000000000000000000000000081526004016119c49061432f565b60405180910390fd5b600260009054906101000a900460ff1615611a1d576040517f08c379a0000000000000000000000000000000000000000000000000000000008152600401611a149061439b565b60405180910390fd5b7f000000000000000000000000000000000000000000000000000000000000000073ffffffffffffffffffffffffffffffffffffffff16632bb1ae7c611a6d8686611a678761273e565b86612990565b6040518263ffffffff1660e01b8152600401611a89919061443a565b600060405180830381600087803b158015611aa357600080fd5b505af1158015611ab7573d6000803e3d6000fd5b5050505050505050565b60006020528060005260406000206000915090505481565b7f000000000000000000000000000000000000000000000000000000000000000073ffffffffffffffffffffffffffffffffffffffff163373ffffffffffffffffffffffffffffffffffffffff1614611b67576040517f08c379a0000000000000000000000000000000000000000000000000000000008152600401611b5e906146b3565b60405180910390fd5b600260009054906101000a900460ff1615611bb7576040517f08c379a0000000000000000000000000000000000000000000000000000000008152600401611bae9061439b565b60405180910390fd5b6000611bcd6000836129d790919063ffffffff16565b9050611bd881612a02565b15611c8157600080611be983612a3b565b915091507f000000000000000000000000000000000000000000000000000000000000000073ffffffffffffffffffffffffffffffffffffffff16636ddf78ec83836040518363ffffffff1660e01b8152600401611c489291906146e2565b600060405180830381600087803b158015611c6257600080fd5b505af1158015611c76573d6000803e3d6000fd5b505050505050612470565b611c8a81612a84565b15611d2d576000611c9a82612abd565b90507f000000000000000000000000000000000000000000000000000000000000000073ffffffffffffffffffffffffffffffffffffffff16632b896101826040518263ffffffff1660e01b8152600401611cf5919061471a565b600060405180830381600087803b158015611d0f57600080fd5b505af1158015611d23573d6000803e3d6000fd5b505050505061246f565b611d3681612ae3565b15611ddf57600080611d4783612b1c565b915091507f000000000000000000000000000000000000000000000000000000000000000073ffffffffffffffffffffffffffffffffffffffff16632648cf7483836040518363ffffffff1660e01b8152600401611da6929190614735565b600060405180830381600087803b158015611dc057600080fd5b505af1158015611dd4573d6000803e3d6000fd5b50505050505061246e565b611de881612b62565b15611eab57600080600080600080611dff87612b9b565b9550955095509550955095507f000000000000000000000000000000000000000000000000000000000000000073ffffffffffffffffffffffffffffffffffffffff1663bcd914f18787878787876040518763ffffffff1660e01b8152600401611e6e969594939291906147cd565b600060405180830381600087803b158015611e8857600080fd5b505af1158015611e9c573d6000803e3d6000fd5b5050505050505050505061246d565b611eb481612c77565b15611f6a57600080600080611ec885612cb0565b93509350935093507f000000000000000000000000000000000000000000000000000000000000000073ffffffffffffffffffffffffffffffffffffffff1663cb5cbeef858585856040518563ffffffff1660e01b8152600401611f2f949392919061483c565b600060405180830381600087803b158015611f4957600080fd5b505af1158015611f5d573d6000803e3d6000fd5b505050505050505061246c565b611f7381612d3c565b15612023576000806000611f8684612d75565b9250925092507f000000000000000000000000000000000000000000000000000000000000000073ffffffffffffffffffffffffffffffffffffffff1663ae1a9aac8484846040518463ffffffff1660e01b8152600401611fe993929190614881565b600060405180830381600087803b15801561200357600080fd5b505af1158015612017573d6000803e3d6000fd5b5050505050505061246b565b61202c81612dde565b156120dc57600080600061203f84612e17565b9250925092507f000000000000000000000000000000000000000000000000000000000000000073ffffffffffffffffffffffffffffffffffffffff1663a096bf578484846040518463ffffffff1660e01b81526004016120a2939291906148b8565b600060405180830381600087803b1580156120bc57600080fd5b505af11580156120d0573d6000803e3d6000fd5b5050505050505061246a565b6120e581612e83565b156121a25760008060008060006120fb86612ebc565b945094509450945094507f000000000000000000000000000000000000000000000000000000000000000073ffffffffffffffffffffffffffffffffffffffff166343ebad0886868686866040518663ffffffff1660e01b81526004016121669594939291906148ef565b600060405180830381600087803b15801561218057600080fd5b505af1158015612194573d6000803e3d6000fd5b505050505050505050612469565b6121ab81612f6b565b156122685760008060008060006121c186612fa4565b945094509450945094507f000000000000000000000000000000000000000000000000000000000000000073ffffffffffffffffffffffffffffffffffffffff166374a403b786868686866040518663ffffffff1660e01b815260040161222c9594939291906148ef565b600060405180830381600087803b15801561224657600080fd5b505af115801561225a573d6000803e3d6000fd5b505050505050505050612468565b61227181613053565b15612334576000806000806000806122888761308c565b9550955095509550955095507f000000000000000000000000000000000000000000000000000000000000000073ffffffffffffffffffffffffffffffffffffffff16630e7cf2ba8787878787876040518763ffffffff1660e01b81526004016122f796959493929190614942565b600060405180830381600087803b15801561231157600080fd5b505af1158015612325573d6000803e3d6000fd5b50505050505050505050612467565b61233d8161315b565b156124005760008060008060008061235487613194565b9550955095509550955095507f000000000000000000000000000000000000000000000000000000000000000073ffffffffffffffffffffffffffffffffffffffff16639875dcc18787878787876040518763ffffffff1660e01b81526004016123c396959493929190614942565b600060405180830381600087803b1580156123dd57600080fd5b505af11580156123f1573d6000803e3d6000fd5b50505050505050505050612466565b61240981613263565b1561242a5760006124198261329b565b9050612424816132c4565b50612465565b6040517f08c379a000000000000000000000000000000000000000000000000000000000815260040161245c906149ef565b60405180910390fd5b5b5b5b5b5b5b5b5b5b5b5b5050565b60016000803373ffffffffffffffffffffffffffffffffffffffff1673ffffffffffffffffffffffffffffffffffffffff16815260200190815260200160002054146124f5576040517f08c379a00000000000000000000000000000000000000000000000000000000081526004016124ec906144a8565b60405180910390fd5b7f000000000000000000000000000000000000000000000000000000000000000042612521919061421d565b600160008373ffffffffffffffffffffffffffffffffffffffff1673ffffffffffffffffffffffffffffffffffffffff16815260200190815260200160002081905550600160008273ffffffffffffffffffffffffffffffffffffffff1673ffffffffffffffffffffffffffffffffffffffff168152602001908152602001600020548173ffffffffffffffffffffffffffffffffffffffff167fbef5e2489bc485a3b9ff2b522ae09267526e057cf70844cfeb88e42036d3025d60405160405180910390a350565b60016000803373ffffffffffffffffffffffffffffffffffffffff1673ffffffffffffffffffffffffffffffffffffffff168152602001908152602001600020541461266b576040517f08c379a0000000000000000000000000000000000000000000000000000000008152600401612662906144a8565b60405180910390fd5b6000600160008373ffffffffffffffffffffffffffffffffffffffff1673ffffffffffffffffffffffffffffffffffffffff168152602001908152602001600020819055508073ffffffffffffffffffffffffffffffffffffffff167faefe9df3718b3a008da9ad6b9a4f84ff29aff234fb1fd7910d33079421c21c2360405160405180910390a250565b7f000000000000000000000000000000000000000000000000000000000000000081565b7f000000000000000000000000000000000000000000000000000000000000000081565b60008160601b6bffffffffffffffffffffffff19169050919050565b6060600960138111156127705761276f6144f2565b5b868686868660405160200161278a96959493929190614af3565b604051602081830303815290604052905095945050505050565b6060600b60138111156127ba576127b96144f2565b5b86868686866040516020016127d496959493929190614af3565b604051602081830303815290604052905095945050505050565b606060076013811115612804576128036144f2565b5b8585858560405160200161281c959493929190614b63565b6040516020818303038152906040529050949350505050565b6060600e601381111561284b5761284a6144f2565b5b85858585604051602001612863959493929190614bc2565b6040516020818303038152906040529050949350505050565b6060600a6013811115612892576128916144f2565b5b86868686866040516020016128ac96959493929190614af3565b604051602081830303815290604052905095945050505050565b60606128e988888888888860601b6bffffffffffffffffffffffff1916886128f6565b9050979650505050505050565b60606008601381111561290c5761290b6144f2565b5b8888888888888860405160200161292a989796959493929190614c42565b6040516020818303038152906040529050979650505050505050565b6060600c601381111561295c5761295b6144f2565b5b868686868660405160200161297696959493929190614af3565b604051602081830303815290604052905095945050505050565b6060600d60138111156129a6576129a56144f2565b5b858585856040516020016129be959493929190614bc2565b6040516020818303038152906040529050949350505050565b6000808351905060006020850190506129f88464ffffffffff1682846133b9565b9250505092915050565b600060016013811115612a1857612a176144f2565b5b612a2183613420565b6013811115612a3357612a326144f2565b5b149050919050565b600080612a5b600160108562ffffff191661345b9092919063ffffffff16565b9150612a7a601160148562ffffff19166134929092919063ffffffff16565b60601c9050915091565b600060026013811115612a9a57612a996144f2565b5b612aa383613420565b6013811115612ab557612ab46144f2565b5b149050919050565b6000612adc600160088462ffffff191661345b9092919063ffffffff16565b9050919050565b600060036013811115612af957612af86144f2565b5b612b0283613420565b6013811115612b1457612b136144f2565b5b149050919050565b600080612b3c600160088562ffffff191661345b9092919063ffffffff16565b9150612b5b600960108562ffffff191661345b9092919063ffffffff16565b9050915091565b600060046013811115612b7857612b776144f2565b5b612b8183613420565b6013811115612b9357612b926144f2565b5b149050919050565b600080606080600080612bc1600160088962ffffff191661345b9092919063ffffffff16565b9550612be0600960108962ffffff19166134929092919063ffffffff16565b9450612c07612c02601960208a62ffffff19166134929092919063ffffffff16565b6135d6565b9350612c2e612c29609960208a62ffffff19166134929092919063ffffffff16565b6135d6565b9250612c4d60b960018962ffffff191661345b9092919063ffffffff16565b9150612c6c60ba60108962ffffff191661345b9092919063ffffffff16565b905091939550919395565b600060066013811115612c8d57612c8c6144f2565b5b612c9683613420565b6013811115612ca857612ca76144f2565b5b149050919050565b600080600080612cd3600160088762ffffff191661345b9092919063ffffffff16565b9350612cf2600960108762ffffff19166134929092919063ffffffff16565b9250612d11601960148762ffffff19166134929092919063ffffffff16565b60601c9150612d33603960088762ffffff191661345b9092919063ffffffff16565b90509193509193565b600060056013811115612d5257612d516144f2565b5b612d5b83613420565b6013811115612d6d57612d6c6144f2565b5b149050919050565b6000806000612d97600160088662ffffff191661345b9092919063ffffffff16565b9250612db6600960108662ffffff19166134929092919063ffffffff16565b9150612dd5601960108662ffffff191661345b9092919063ffffffff16565b90509193909250565b600060076013811115612df457612df36144f2565b5b612dfd83613420565b6013811115612e0f57612e0e6144f2565b5b149050919050565b6000806000612e39600160108662ffffff191661345b9092919063ffffffff16565b9250612e58603160148662ffffff19166134929092919063ffffffff16565b60601c9150612e7a605160108662ffffff191661345b9092919063ffffffff16565b90509193909250565b6000600f6013811115612e9957612e986144f2565b5b612ea283613420565b6013811115612eb457612eb36144f2565b5b149050919050565b6000806000806000612ee1600160088862ffffff191661345b9092919063ffffffff16565b9450612f00600960108862ffffff19166134929092919063ffffffff16565b9350612f1f601960208862ffffff19166134929092919063ffffffff16565b60601c9250612f41603960108862ffffff191661345b9092919063ffffffff16565b9150612f60604960108862ffffff191661345b9092919063ffffffff16565b905091939590929450565b600060106013811115612f8157612f806144f2565b5b612f8a83613420565b6013811115612f9c57612f9b6144f2565b5b149050919050565b6000806000806000612fc9600160088862ffffff191661345b9092919063ffffffff16565b9450612fe8600960108862ffffff19166134929092919063ffffffff16565b9350613007601960208862ffffff19166134929092919063ffffffff16565b60601c9250613029603960108862ffffff191661345b9092919063ffffffff16565b9150613048604960108862ffffff191661345b9092919063ffffffff16565b905091939590929450565b600060116013811115613069576130686144f2565b5b61307283613420565b6013811115613084576130836144f2565b5b149050919050565b6000806000806000806130b2600160088962ffffff191661345b9092919063ffffffff16565b95506130d1600960108962ffffff19166134929092919063ffffffff16565b94506130f0601960208962ffffff19166134929092919063ffffffff16565b60601c9350613112603960108962ffffff191661345b9092919063ffffffff16565b9250613131604960108962ffffff191661345b9092919063ffffffff16565b9150613150605960108962ffffff191661345b9092919063ffffffff16565b905091939550919395565b600060126013811115613171576131706144f2565b5b61317a83613420565b601381111561318c5761318b6144f2565b5b149050919050565b6000806000806000806131ba600160088962ffffff191661345b9092919063ffffffff16565b95506131d9600960108962ffffff19166134929092919063ffffffff16565b94506131f8601960208962ffffff19166134929092919063ffffffff16565b60601c935061321a603960108962ffffff191661345b9092919063ffffffff16565b9250613239604960108962ffffff191661345b9092919063ffffffff16565b9150613258605960108962ffffff191661345b9092919063ffffffff16565b905091939550919395565b6000601380811115613278576132776144f2565b5b61328183613420565b6013811115613293576132926144f2565b5b149050919050565b60006132ba600160148462ffffff19166134929092919063ffffffff16565b60601c9050919050565b7f0000000000000000000000000000000000000000000000000000000000000000426132f0919061421d565b600160008373ffffffffffffffffffffffffffffffffffffffff1673ffffffffffffffffffffffffffffffffffffffff16815260200190815260200160002081905550600160008273ffffffffffffffffffffffffffffffffffffffff1673ffffffffffffffffffffffffffffffffffffffff168152602001908152602001600020548173ffffffffffffffffffffffffffffffffffffffff167f1ab0935fd4adfc49e770c21fbd1c5a624c24ac8d7549b34690784c5a107f1e0d60405160405180910390a350565b60008082846133c8919061421d565b90506040518111156133d957600090505b6000810361340a577fffffffffffffffffffffffffffffffffffffffffffffffffffffffffff000000915050613419565b613415858585613771565b9150505b9392505050565b600061343f600060018462ffffff191661345b9092919063ffffffff16565b60ff166013811115613454576134536144f2565b5b9050919050565b6000600882602061346c9190614cd4565b6134769190614d09565b60ff16613484858585613492565b60001c901c90509392505050565b6000808260ff16036134a9576000801b90506135cf565b6134b28461379c565b6bffffffffffffffffffffffff168260ff16846134cf919061421d565b111561354c576135106134e1856137c2565b6bffffffffffffffffffffffff166134f88661379c565b6bffffffffffffffffffffffff16858560ff166137eb565b6040517f08c379a00000000000000000000000000000000000000000000000000000000081526004016135439190614d46565b60405180910390fd5b60208260ff161115613593576040517f08c379a000000000000000000000000000000000000000000000000000000000815260040161358a90614dda565b60405180910390fd5b600060088302905060006135a6866137c2565b6bffffffffffffffffffffffff16905060006135c183613859565b905080868301511693505050505b9392505050565b606060005b60208160ff1610801561362d5750600060f81b838260ff166020811061360457613603614dfa565b5b1a60f81b7effffffffffffffffffffffffffffffffffffffffffffffffffffffffffffff191614155b1561364557808061363d90614e29565b9150506135db565b60008160ff1667ffffffffffffffff81111561366457613663613f55565b5b6040519080825280601f01601f1916602001820160405280156136965781602001600182028036833780820191505090505b509050600091505b60208260ff161080156136f05750600060f81b848360ff16602081106136c7576136c6614dfa565b5b1a60f81b7effffffffffffffffffffffffffffffffffffffffffffffffffffffffffffff191614155b1561376757838260ff166020811061370b5761370a614dfa565b5b1a60f81b818360ff168151811061372557613724614dfa565b5b60200101907effffffffffffffffffffffffffffffffffffffffffffffffffffffffffffff1916908160001a905350818061375f90614e29565b92505061369e565b8092505050919050565b60008060609050600060189050858317821b9250848317821b9250838317811b925050509392505050565b6000806bffffffffffffffffffffffff90506000601890508184821c1692505050919050565b6000806bffffffffffffffffffffffff90506000607860ff1690508184821c1692505050919050565b606060006137f886613888565b915050600061380686613888565b915050600061381486613888565b915050600061382286613888565b9150508383838360405160200161383c9493929190615021565b604051602081830303815290604052945050505050949350505050565b60007f8000000000000000000000000000000000000000000000000000000000000000600183031d9050919050565b6000806000601f90505b600f8160ff1611156138e55760006008826138ad9190614d09565b60ff1685901c90506138be81613946565b61ffff168417935060108260ff16146138d957601084901b93505b60018203915050613892565b506000600f90505b60ff8160ff1610156139405760006008826139089190614d09565b60ff1685901c905061391981613946565b61ffff168317925060008260ff161461393457601083901b92505b600182039150506138ed565b50915091565b600061395860048360ff16901c61397f565b60ff168117905060088161ffff16901b90506139738261397f565b60ff1681179050919050565b600080600f831690506040518060400160405280601081526020017f30313233343536373839616263646566000000000000000000000000000000008152508160ff16815181106139d3576139d2614dfa565b5b602001015160f81c60f81b60f81c915050919050565b6000604051905090565b600080fd5b600080fd5b600073ffffffffffffffffffffffffffffffffffffffff82169050919050565b6000613a28826139fd565b9050919050565b613a3881613a1d565b8114613a4357600080fd5b50565b600081359050613a5581613a2f565b92915050565b600060208284031215613a7157613a706139f3565b5b6000613a7f84828501613a46565b91505092915050565b600067ffffffffffffffff82169050919050565b613aa581613a88565b8114613ab057600080fd5b50565b600081359050613ac281613a9c565b92915050565b60007fffffffffffffffffffffffffffffffff0000000000000000000000000000000082169050919050565b613afd81613ac8565b8114613b0857600080fd5b50565b600081359050613b1a81613af4565b92915050565b60006fffffffffffffffffffffffffffffffff82169050919050565b613b4581613b20565b8114613b5057600080fd5b50565b600081359050613b6281613b3c565b92915050565b600080600080600060a08688031215613b8457613b836139f3565b5b6000613b9288828901613ab3565b9550506020613ba388828901613b0b565b9450506040613bb488828901613a46565b9350506060613bc588828901613b53565b9250506080613bd688828901613b53565b9150509295509295909350565b60008060408385031215613bfa57613bf96139f3565b5b6000613c0885828601613a46565b9250506020613c1985828601613a46565b9150509250929050565b6000819050919050565b613c3681613c23565b8114613c4157600080fd5b50565b600081359050613c5381613c2d565b92915050565b60008060008060808587031215613c7357613c726139f3565b5b6000613c8187828801613b53565b9450506020613c9287828801613a46565b9350506040613ca387828801613c44565b9250506060613cb487828801613b53565b91505092959194509250565b6000819050919050565b6000613ce5613ce0613cdb846139fd565b613cc0565b6139fd565b9050919050565b6000613cf782613cca565b9050919050565b6000613d0982613cec565b9050919050565b613d1981613cfe565b82525050565b6000602082019050613d346000830184613d10565b92915050565b6000819050919050565b613d4d81613d3a565b82525050565b6000602082019050613d686000830184613d44565b92915050565b60008060008060808587031215613d8857613d876139f3565b5b6000613d9687828801613ab3565b9450506020613da787828801613b0b565b9350506040613db887828801613a46565b9250506060613dc987828801613b53565b91505092959194509250565b60008115159050919050565b613dea81613dd5565b82525050565b6000602082019050613e056000830184613de1565b92915050565b600080600080600080600060e0888a031215613e2a57613e296139f3565b5b6000613e388a828b01613ab3565b9750506020613e498a828b01613b0b565b9650506040613e5a8a828b01613a46565b9550506060613e6b8a828b01613ab3565b9450506080613e7c8a828b01613b53565b93505060a0613e8d8a828b01613a46565b92505060c0613e9e8a828b01613b53565b91505092959891949750929550565b60008060008060008060c08789031215613eca57613ec96139f3565b5b6000613ed889828a01613ab3565b9650506020613ee989828a01613b0b565b9550506040613efa89828a01613a46565b9450506060613f0b89828a01613c44565b9350506080613f1c89828a01613b53565b92505060a0613f2d89828a01613b53565b9150509295509295509295565b600080fd5b600080fd5b6000601f19601f8301169050919050565b7f4e487b7100000000000000000000000000000000000000000000000000000000600052604160045260246000fd5b613f8d82613f44565b810181811067ffffffffffffffff82111715613fac57613fab613f55565b5b80604052505050565b6000613fbf6139e9565b9050613fcb8282613f84565b919050565b600067ffffffffffffffff821115613feb57613fea613f55565b5b613ff482613f44565b9050602081019050919050565b82818337600083830152505050565b600061402361401e84613fd0565b613fb5565b90508281526020810184848401111561403f5761403e613f3f565b5b61404a848285614001565b509392505050565b600082601f83011261406757614066613f3a565b5b8135614077848260208601614010565b91505092915050565b600060208284031215614096576140956139f3565b5b600082013567ffffffffffffffff8111156140b4576140b36139f8565b5b6140c084828501614052565b91505092915050565b60006140d482613cec565b9050919050565b6140e4816140c9565b82525050565b60006020820190506140ff60008301846140db565b92915050565b600082825260208201905092915050565b7f476174657761792f757365722d6e6f742d7363686564756c6564000000000000600082015250565b600061414c601a83614105565b915061415782614116565b602082019050919050565b6000602082019050818103600083015261417b8161413f565b9050919050565b7f476174657761792f757365722d6e6f742d726561647900000000000000000000600082015250565b60006141b8601683614105565b91506141c382614182565b602082019050919050565b600060208201905081810360008301526141e7816141ab565b9050919050565b7f4e487b7100000000000000000000000000000000000000000000000000000000600052601160045260246000fd5b600061422882613d3a565b915061423383613d3a565b925082820190508082111561424b5761424a6141ee565b5b92915050565b7f476174657761792f757365722d746f6f2d6f6c64000000000000000000000000600082015250565b6000614287601483614105565b915061429282614251565b602082019050919050565b600060208201905081810360008301526142b68161427a565b9050919050565b7f476174657761792f6f6e6c792d696e766573746d656e744d616e616765722d6160008201527f6c6c6f7765642d746f2d63616c6c000000000000000000000000000000000000602082015250565b6000614319602e83614105565b9150614324826142bd565b604082019050919050565b600060208201905081810360008301526143488161430c565b9050919050565b7f476174657761792f706175736564000000000000000000000000000000000000600082015250565b6000614385600e83614105565b91506143908261434f565b602082019050919050565b600060208201905081810360008301526143b481614378565b9050919050565b600081519050919050565b600082825260208201905092915050565b60005b838110156143f55780820151818401526020810190506143da565b60008484015250505050565b600061440c826143bb565b61441681856143c6565b93506144268185602086016143d7565b61442f81613f44565b840191505092915050565b600060208201905081810360008301526144548184614401565b905092915050565b7f476174657761792f6e6f742d617574686f72697a656400000000000000000000600082015250565b6000614492601683614105565b915061449d8261445c565b602082019050919050565b600060208201905081810360008301526144c181614485565b9050919050565b6144d181613a1d565b82525050565b60006020820190506144ec60008301846144c8565b92915050565b7f4e487b7100000000000000000000000000000000000000000000000000000000600052602160045260246000fd5b60028110614532576145316144f2565b5b50565b600081905061454382614521565b919050565b600061455382614535565b9050919050565b61456381614548565b82525050565b61457281613a88565b82525050565b600060408201905061458d600083018561455a565b61459a6020830184614569565b9392505050565b60007fffffffffffffffffff000000000000000000000000000000000000000000000082169050919050565b6145d6816145a1565b81146145e157600080fd5b50565b6000815190506145f3816145cd565b92915050565b60006020828403121561460f5761460e6139f3565b5b600061461d848285016145e4565b91505092915050565b600060208201905061463b600083018461455a565b92915050565b7f476174657761792f6f6e6c792d726f757465722d616c6c6f7765642d746f2d6360008201527f616c6c0000000000000000000000000000000000000000000000000000000000602082015250565b600061469d602383614105565b91506146a882614641565b604082019050919050565b600060208201905081810360008301526146cc81614690565b9050919050565b6146dc81613b20565b82525050565b60006040820190506146f760008301856146d3565b61470460208301846144c8565b9392505050565b61471481613a88565b82525050565b600060208201905061472f600083018461470b565b92915050565b600060408201905061474a600083018561470b565b61475760208301846146d3565b9392505050565b61476781613ac8565b82525050565b600081519050919050565b60006147838261476d565b61478d8185614105565b935061479d8185602086016143d7565b6147a681613f44565b840191505092915050565b600060ff82169050919050565b6147c7816147b1565b82525050565b600060c0820190506147e2600083018961470b565b6147ef602083018861475e565b81810360408301526148018187614778565b905081810360608301526148158186614778565b905061482460808301856147be565b61483160a08301846146d3565b979650505050505050565b6000608082019050614851600083018761470b565b61485e602083018661475e565b61486b60408301856144c8565b614878606083018461470b565b95945050505050565b6000606082019050614896600083018661470b565b6148a3602083018561475e565b6148b060408301846146d3565b949350505050565b60006060820190506148cd60008301866146d3565b6148da60208301856144c8565b6148e760408301846146d3565b949350505050565b600060a082019050614904600083018861470b565b614911602083018761475e565b61491e60408301866144c8565b61492b60608301856146d3565b61493860808301846146d3565b9695505050505050565b600060c082019050614957600083018961470b565b614964602083018861475e565b61497160408301876144c8565b61497e60608301866146d3565b61498b60808301856146d3565b61499860a08301846146d3565b979650505050505050565b7f476174657761792f696e76616c69642d6d657373616765000000000000000000600082015250565b60006149d9601783614105565b91506149e4826149a3565b602082019050919050565b60006020820190508181036000830152614a08816149cc565b9050919050565b60008160f81b9050919050565b6000614a2782614a0f565b9050919050565b614a3f614a3a826147b1565b614a1c565b82525050565b60008160c01b9050919050565b6000614a5d82614a45565b9050919050565b614a75614a7082613a88565b614a52565b82525050565b6000819050919050565b614a96614a9182613ac8565b614a7b565b82525050565b6000819050919050565b614ab7614ab282613c23565b614a9c565b82525050565b60008160801b9050919050565b6000614ad582614abd565b9050919050565b614aed614ae882613b20565b614aca565b82525050565b6000614aff8289614a2e565b600182019150614b0f8288614a64565b600882019150614b1f8287614a85565b601082019150614b2f8286614aa6565b602082019150614b3f8285614adc565b601082019150614b4f8284614adc565b601082019150819050979650505050505050565b6000614b6f8288614a2e565b600182019150614b7f8287614adc565b601082019150614b8f8286614aa6565b602082019150614b9f8285614aa6565b602082019150614baf8284614adc565b6010820191508190509695505050505050565b6000614bce8288614a2e565b600182019150614bde8287614a64565b600882019150614bee8286614a85565b601082019150614bfe8285614aa6565b602082019150614c0e8284614adc565b6010820191508190509695505050505050565b6000819050919050565b614c3c614c37826145a1565b614c21565b82525050565b6000614c4e828b614a2e565b600182019150614c5e828a614a64565b600882019150614c6e8289614a85565b601082019150614c7e8288614aa6565b602082019150614c8e8287614c2b565b600982019150614c9e8286614adc565b601082019150614cae8285614aa6565b602082019150614cbe8284614adc565b6010820191508190509998505050505050505050565b6000614cdf826147b1565b9150614cea836147b1565b9250828203905060ff811115614d0357614d026141ee565b5b92915050565b6000614d14826147b1565b9150614d1f836147b1565b9250828202614d2d816147b1565b9150808214614d3f57614d3e6141ee565b5b5092915050565b60006020820190508181036000830152614d608184614778565b905092915050565b7f54797065644d656d566965772f696e646578202d20417474656d70746564207460008201527f6f20696e646578206d6f7265207468616e203332206279746573000000000000602082015250565b6000614dc4603a83614105565b9150614dcf82614d68565b604082019050919050565b60006020820190508181036000830152614df381614db7565b9050919050565b7f4e487b7100000000000000000000000000000000000000000000000000000000600052603260045260246000fd5b6000614e34826147b1565b915060ff8203614e4757614e466141ee565b5b600182019050919050565b600081905092915050565b7f54797065644d656d566965772f696e646578202d204f76657272616e2074686560008201527f20766965772e20536c6963652069732061742030780000000000000000000000602082015250565b6000614eb9603583614e52565b9150614ec482614e5d565b603582019050919050565b600065ffffffffffff82169050919050565b60008160d01b9050919050565b6000614ef982614ee1565b9050919050565b614f11614f0c82614ecf565b614eee565b82525050565b7f2077697468206c656e6774682030780000000000000000000000000000000000600082015250565b6000614f4d600f83614e52565b9150614f5882614f17565b600f82019050919050565b7f2e20417474656d7074656420746f20696e646578206174206f6666736574203060008201527f7800000000000000000000000000000000000000000000000000000000000000602082015250565b6000614fbf602183614e52565b9150614fca82614f63565b602182019050919050565b7f2e00000000000000000000000000000000000000000000000000000000000000600082015250565b600061500b600183614e52565b915061501682614fd5565b600182019050919050565b600061502c82614eac565b91506150388287614f00565b60068201915061504782614f40565b91506150538286614f00565b60068201915061506282614fb2565b915061506e8285614f00565b60068201915061507d82614f40565b91506150898284614f00565b60068201915061509882614ffe565b91508190509594505050505056fea2646970667358221220a6db0a236f66ca3f1f4a0004dbd845e227fd9a1b61636c5a802e447c3dbab34b64736f6c63430008120033",
    "linkReferences": {
      "src/Messages.sol": {
        "Messages": [
          {
            "start": 6271,
            "length": 20
          },
          {
            "start": 6821,
            "length": 20
          }
        ]
      }
    }
  },
  "methodIdentifiers": {
    "cancelSchedule(address)": "f0caaafb",
    "collectInvest(uint64,bytes16,address,uint128)": "ae330771",
    "collectRedeem(uint64,bytes16,address,uint128)": "5b66baa2",
    "decreaseInvestOrder(uint64,bytes16,address,uint128,uint128)": "79030f6d",
    "decreaseRedeemOrder(uint64,bytes16,address,uint128,uint128)": "ae04e763",
    "deny(address)": "9c52a7f1",
    "executeScheduledRely(address)": "01d15602",
    "gracePeriod()": "a06db7dc",
    "handle(bytes)": "bf48bcb6",
    "increaseInvestOrder(uint64,bytes16,address,uint128,uint128)": "189070de",
    "increaseRedeemOrder(uint64,bytes16,address,uint128,uint128)": "335d072d",
    "investmentManager()": "4b31bb10",
    "longScheduleWait()": "fb28e2b3",
    "pause()": "8456cb59",
    "paused()": "5c975abb",
    "rely(address)": "65fae35e",
    "relyContract(address,address)": "373e73f8",
    "relySchedule(address)": "8cb18970",
    "router()": "f887ea40",
    "scheduleLongRely(address)": "d93b045c",
    "shortScheduleWait()": "4b392276",
    "transfer(uint128,address,bytes32,uint128)": "3c1c9103",
    "transferTrancheTokensToCentrifuge(uint64,bytes16,address,bytes32,uint128,uint128)": "a4a65437",
    "transferTrancheTokensToEVM(uint64,bytes16,address,uint64,uint128,address,uint128)": "9f9ab3fc",
    "unpause()": "3f4ba83a",
    "wards(address)": "bf353dbb"
  },
  "id": 23
}