{
  "abi": [
    {
      "inputs": [],
      "stateMutability": "nonpayable",
      "type": "constructor"
    },
    {
      "anonymous": false,
      "inputs": [
        {
          "indexed": true,
          "internalType": "address",
          "name": "token",
          "type": "address"
        },
        {
          "indexed": true,
          "internalType": "address",
          "name": "spender",
          "type": "address"
        },
        {
          "indexed": false,
          "internalType": "uint256",
          "name": "value",
          "type": "uint256"
        }
      ],
      "name": "Approve",
      "type": "event"
    },
    {
      "anonymous": false,
      "inputs": [
        {
          "indexed": true,
          "internalType": "address",
          "name": "usr",
          "type": "address"
        }
      ],
      "name": "Deny",
      "type": "event"
    },
    {
      "anonymous": false,
      "inputs": [
        {
          "indexed": true,
          "internalType": "address",
          "name": "usr",
          "type": "address"
        }
      ],
      "name": "Rely",
      "type": "event"
    },
    {
      "inputs": [
        {
          "internalType": "address",
          "name": "token",
          "type": "address"
        },
        {
          "internalType": "address",
          "name": "spender",
          "type": "address"
        },
        {
          "internalType": "uint256",
          "name": "value",
          "type": "uint256"
        }
      ],
      "name": "approve",
      "outputs": [],
      "stateMutability": "nonpayable",
      "type": "function"
    },
    {
      "inputs": [
        {
          "internalType": "address",
          "name": "usr",
          "type": "address"
        }
      ],
      "name": "deny",
      "outputs": [],
      "stateMutability": "nonpayable",
      "type": "function"
    },
    {
      "inputs": [
        {
          "internalType": "address",
          "name": "usr",
          "type": "address"
        }
      ],
      "name": "rely",
      "outputs": [],
      "stateMutability": "nonpayable",
      "type": "function"
    },
    {
      "inputs": [
        {
          "internalType": "address",
          "name": "",
          "type": "address"
        }
      ],
      "name": "wards",
      "outputs": [
        {
          "internalType": "uint256",
          "name": "",
          "type": "uint256"
        }
      ],
      "stateMutability": "view",
      "type": "function"
    }
  ],
  "bytecode": {
    "object": "0x608060405234801561001057600080fd5b5060016000803373ffffffffffffffffffffffffffffffffffffffff1673ffffffffffffffffffffffffffffffffffffffff168152602001908152602001600020819055503373ffffffffffffffffffffffffffffffffffffffff167fdd0e34038ac38b2a1ce960229778ac48a8719bc900b6c4f8d0475c6e8b385a6060405160405180910390a2610689806100a76000396000f3fe608060405234801561001057600080fd5b506004361061004c5760003560e01c806365fae35e146100515780639c52a7f11461006d578063bf353dbb14610089578063e1f21c67146100b9575b600080fd5b61006b600480360381019061006691906104be565b6100d5565b005b610087600480360381019061008291906104be565b6101e0565b005b6100a3600480360381019061009e91906104be565b6102eb565b6040516100b09190610504565b60405180910390f35b6100d360048036038101906100ce919061054b565b610303565b005b60016000803373ffffffffffffffffffffffffffffffffffffffff1673ffffffffffffffffffffffffffffffffffffffff1681526020019081526020016000205414610156576040517f08c379a000000000000000000000000000000000000000000000000000000000815260040161014d906105fb565b60405180910390fd5b60016000808373ffffffffffffffffffffffffffffffffffffffff1673ffffffffffffffffffffffffffffffffffffffff168152602001908152602001600020819055508073ffffffffffffffffffffffffffffffffffffffff167fdd0e34038ac38b2a1ce960229778ac48a8719bc900b6c4f8d0475c6e8b385a6060405160405180910390a250565b60016000803373ffffffffffffffffffffffffffffffffffffffff1673ffffffffffffffffffffffffffffffffffffffff1681526020019081526020016000205414610261576040517f08c379a0000000000000000000000000000000000000000000000000000000008152600401610258906105fb565b60405180910390fd5b60008060008373ffffffffffffffffffffffffffffffffffffffff1673ffffffffffffffffffffffffffffffffffffffff168152602001908152602001600020819055508073ffffffffffffffffffffffffffffffffffffffff167f184450df2e323acec0ed3b5c7531b81f9b4cdef7914dfd4c0a4317416bb5251b60405160405180910390a250565b60006020528060005260406000206000915090505481565b60016000803373ffffffffffffffffffffffffffffffffffffffff1673ffffffffffffffffffffffffffffffffffffffff1681526020019081526020016000205414610384576040517f08c379a000000000000000000000000000000000000000000000000000000000815260040161037b906105fb565b60405180910390fd5b8173ffffffffffffffffffffffffffffffffffffffff168373ffffffffffffffffffffffffffffffffffffffff167f6e11fb1b7f119e3f2fa29896ef5fdf8b8a2d0d4df6fe90ba8668e7d8b2ffa25e836040516103e19190610504565b60405180910390a38273ffffffffffffffffffffffffffffffffffffffff1663095ea7b383836040518363ffffffff1660e01b815260040161042492919061062a565b600060405180830381600087803b15801561043e57600080fd5b505af1158015610452573d6000803e3d6000fd5b50505050505050565b600080fd5b600073ffffffffffffffffffffffffffffffffffffffff82169050919050565b600061048b82610460565b9050919050565b61049b81610480565b81146104a657600080fd5b50565b6000813590506104b881610492565b92915050565b6000602082840312156104d4576104d361045b565b5b60006104e2848285016104a9565b91505092915050565b6000819050919050565b6104fe816104eb565b82525050565b600060208201905061051960008301846104f5565b92915050565b610528816104eb565b811461053357600080fd5b50565b6000813590506105458161051f565b92915050565b6000806000606084860312156105645761056361045b565b5b6000610572868287016104a9565b9350506020610583868287016104a9565b925050604061059486828701610536565b9150509250925092565b600082825260208201905092915050565b7f6e6f742d617574686f72697a6564000000000000000000000000000000000000600082015250565b60006105e5600e8361059e565b91506105f0826105af565b602082019050919050565b60006020820190508181036000830152610614816105d8565b9050919050565b61062481610480565b82525050565b600060408201905061063f600083018561061b565b61064c60208301846104f5565b939250505056fea2646970667358221220088c082f54cbe72e57c3caa3b6ba6e6e884d79faa63ede6e2e9d6c637f959d2564736f6c63430008120033",
    "linkReferences": {}
  },
  "methodIdentifiers": {
    "approve(address,address,uint256)": "e1f21c67",
    "deny(address)": "9c52a7f1",
    "rely(address)": "65fae35e",
    "wards(address)": "bf353dbb"
  },
  "id": 22
}